{
  "_format": "hh-sol-artifact-1",
  "contractName": "AccessController",
  "sourceName": "contracts/AccessController.sol",
  "abi": [
    {
      "inputs": [
        {
          "internalType": "address",
          "name": "_trustedForwarder",
          "type": "address"
        }
      ],
      "stateMutability": "nonpayable",
      "type": "constructor"
    },
    {
      "inputs": [],
      "name": "Unauthorized",
      "type": "error"
    },
    {
      "inputs": [],
      "name": "ZeroAddress",
      "type": "error"
    },
    {
      "anonymous": false,
      "inputs": [
        {
          "indexed": true,
          "internalType": "address",
          "name": "token",
          "type": "address"
        },
        {
          "indexed": false,
          "internalType": "uint256",
          "name": "minTokens",
          "type": "uint256"
        }
      ],
      "name": "AccessRuleSet",
      "type": "event"
    },
    {
      "anonymous": false,
      "inputs": [
        {
          "indexed": true,
          "internalType": "address",
          "name": "token",
          "type": "address"
        },
        {
          "indexed": true,
          "internalType": "address",
          "name": "user",
          "type": "address"
        },
        {
          "indexed": false,
          "internalType": "bool",
          "name": "allowed",
          "type": "bool"
        }
      ],
      "name": "ManualOverride",
      "type": "event"
    },
    {
      "anonymous": false,
      "inputs": [
        {
          "indexed": true,
          "internalType": "bytes32",
          "name": "role",
          "type": "bytes32"
        },
        {
          "indexed": true,
          "internalType": "bytes32",
          "name": "previousAdminRole",
          "type": "bytes32"
        },
        {
          "indexed": true,
          "internalType": "bytes32",
          "name": "newAdminRole",
          "type": "bytes32"
        }
      ],
      "name": "RoleAdminChanged",
      "type": "event"
    },
    {
      "anonymous": false,
      "inputs": [
        {
          "indexed": true,
          "internalType": "bytes32",
          "name": "role",
          "type": "bytes32"
        },
        {
          "indexed": true,
          "internalType": "address",
          "name": "account",
          "type": "address"
        },
        {
          "indexed": true,
          "internalType": "address",
          "name": "sender",
          "type": "address"
        }
      ],
      "name": "RoleGranted",
      "type": "event"
    },
    {
      "anonymous": false,
      "inputs": [
        {
          "indexed": true,
          "internalType": "bytes32",
          "name": "role",
          "type": "bytes32"
        },
        {
          "indexed": true,
          "internalType": "address",
          "name": "account",
          "type": "address"
        },
        {
          "indexed": true,
          "internalType": "address",
          "name": "sender",
          "type": "address"
        }
      ],
      "name": "RoleRevoked",
      "type": "event"
    },
    {
      "anonymous": false,
      "inputs": [
        {
          "indexed": true,
          "internalType": "address",
          "name": "forwarder",
          "type": "address"
        }
      ],
      "name": "TrustedForwarderSet",
      "type": "event"
    },
    {
      "inputs": [],
      "name": "DEFAULT_ADMIN_ROLE",
      "outputs": [
        {
          "internalType": "bytes32",
          "name": "",
          "type": "bytes32"
        }
      ],
      "stateMutability": "view",
      "type": "function"
    },
    {
      "inputs": [],
      "name": "PLATFORM_ADMIN_ROLE",
      "outputs": [
        {
          "internalType": "bytes32",
          "name": "",
          "type": "bytes32"
        }
      ],
      "stateMutability": "view",
      "type": "function"
    },
    {
      "inputs": [
        {
          "internalType": "address",
          "name": "user",
          "type": "address"
        },
        {
          "internalType": "address",
          "name": "token",
          "type": "address"
        }
      ],
      "name": "getAccessInfo",
      "outputs": [
        {
          "internalType": "bool",
          "name": "hasOverride",
          "type": "bool"
        },
        {
          "internalType": "bool",
          "name": "overrideValue",
          "type": "bool"
        },
        {
          "internalType": "uint256",
          "name": "tokenBalance",
          "type": "uint256"
        },
        {
          "internalType": "uint256",
          "name": "minRequired",
          "type": "uint256"
        },
        {
          "internalType": "bool",
          "name": "finalAccess",
          "type": "bool"
        }
      ],
      "stateMutability": "view",
      "type": "function"
    },
    {
      "inputs": [
        {
          "internalType": "bytes32",
          "name": "role",
          "type": "bytes32"
        }
      ],
      "name": "getRoleAdmin",
      "outputs": [
        {
          "internalType": "bytes32",
          "name": "",
          "type": "bytes32"
        }
      ],
      "stateMutability": "view",
      "type": "function"
    },
    {
      "inputs": [
        {
          "internalType": "bytes32",
          "name": "role",
          "type": "bytes32"
        },
        {
          "internalType": "address",
          "name": "account",
          "type": "address"
        }
      ],
      "name": "grantRole",
      "outputs": [],
      "stateMutability": "nonpayable",
      "type": "function"
    },
    {
      "inputs": [
        {
          "internalType": "address",
          "name": "user",
          "type": "address"
        },
        {
          "internalType": "address",
          "name": "token",
          "type": "address"
        }
      ],
      "name": "hasAccess",
      "outputs": [
        {
          "internalType": "bool",
          "name": "",
          "type": "bool"
        }
      ],
      "stateMutability": "view",
      "type": "function"
    },
    {
      "inputs": [
        {
          "internalType": "address",
          "name": "",
          "type": "address"
        },
        {
          "internalType": "address",
          "name": "",
          "type": "address"
        }
      ],
      "name": "hasManualOverride",
      "outputs": [
        {
          "internalType": "bool",
          "name": "",
          "type": "bool"
        }
      ],
      "stateMutability": "view",
      "type": "function"
    },
    {
      "inputs": [
        {
          "internalType": "bytes32",
          "name": "role",
          "type": "bytes32"
        },
        {
          "internalType": "address",
          "name": "account",
          "type": "address"
        }
      ],
      "name": "hasRole",
      "outputs": [
        {
          "internalType": "bool",
          "name": "",
          "type": "bool"
        }
      ],
      "stateMutability": "view",
      "type": "function"
    },
    {
      "inputs": [
        {
          "internalType": "address",
          "name": "token",
          "type": "address"
        },
        {
          "internalType": "address",
          "name": "user",
          "type": "address"
        },
        {
          "internalType": "bool",
          "name": "allowed",
          "type": "bool"
        }
      ],
      "name": "manualGrant",
      "outputs": [],
      "stateMutability": "nonpayable",
      "type": "function"
    },
    {
      "inputs": [
        {
          "internalType": "address",
          "name": "",
          "type": "address"
        },
        {
          "internalType": "address",
          "name": "",
          "type": "address"
        }
      ],
      "name": "manualOverrides",
      "outputs": [
        {
          "internalType": "bool",
          "name": "",
          "type": "bool"
        }
      ],
      "stateMutability": "view",
      "type": "function"
    },
    {
      "inputs": [
        {
          "internalType": "address",
          "name": "",
          "type": "address"
        }
      ],
      "name": "minTokensForAccess",
      "outputs": [
        {
          "internalType": "uint256",
          "name": "",
          "type": "uint256"
        }
      ],
      "stateMutability": "view",
      "type": "function"
    },
    {
      "inputs": [
        {
          "internalType": "address",
          "name": "token",
          "type": "address"
        },
        {
          "internalType": "address",
          "name": "user",
          "type": "address"
        }
      ],
      "name": "removeManualOverride",
      "outputs": [],
      "stateMutability": "nonpayable",
      "type": "function"
    },
    {
      "inputs": [
        {
          "internalType": "bytes32",
          "name": "role",
          "type": "bytes32"
        },
        {
          "internalType": "address",
          "name": "account",
          "type": "address"
        }
      ],
      "name": "renounceRole",
      "outputs": [],
      "stateMutability": "nonpayable",
      "type": "function"
    },
    {
      "inputs": [
        {
          "internalType": "address",
          "name": "user",
          "type": "address"
        },
        {
          "internalType": "address",
          "name": "token",
          "type": "address"
        }
      ],
      "name": "requireAccess",
      "outputs": [],
      "stateMutability": "view",
      "type": "function"
    },
    {
      "inputs": [
        {
          "internalType": "bytes32",
          "name": "role",
          "type": "bytes32"
        },
        {
          "internalType": "address",
          "name": "account",
          "type": "address"
        }
      ],
      "name": "revokeRole",
      "outputs": [],
      "stateMutability": "nonpayable",
      "type": "function"
    },
    {
      "inputs": [
        {
          "internalType": "address",
          "name": "token",
          "type": "address"
        },
        {
          "internalType": "uint256",
          "name": "minTokens",
          "type": "uint256"
        }
      ],
      "name": "setMinTokensForAccess",
      "outputs": [],
      "stateMutability": "nonpayable",
      "type": "function"
    },
    {
      "inputs": [
        {
          "internalType": "address",
          "name": "newForwarder",
          "type": "address"
        }
      ],
      "name": "setTrustedForwarder",
      "outputs": [],
      "stateMutability": "nonpayable",
      "type": "function"
    },
    {
      "inputs": [
        {
          "internalType": "bytes4",
          "name": "interfaceId",
          "type": "bytes4"
        }
      ],
      "name": "supportsInterface",
      "outputs": [
        {
          "internalType": "bool",
          "name": "",
          "type": "bool"
        }
      ],
      "stateMutability": "view",
      "type": "function"
    },
    {
      "inputs": [],
      "name": "trustedForwarder",
      "outputs": [
        {
          "internalType": "address",
          "name": "",
          "type": "address"
        }
      ],
      "stateMutability": "view",
      "type": "function"
    }
  ],
  "bytecode": "0x60803461014157601f61109c38819003918201601f1916830192916001600160401b03841183851017610146578083926040958652833960209283918101031261014157516001600160a01b0381169081900361014157600480546001600160a01b031916919091179055600080805280825282812033825282528281205460ff161561010b575b7f5246556c0ab216b5b325ad7c539bfbd1a07c768773cdf810fecd3c3375c2740791828252818152838220338352815260ff8483205416156100d2575b8351610f1f908161015d8239f35b8282528181528382209033835252828120600160ff19825416179055339160008051602061107c833981519152339280a43880806100c4565b8080528082528281203382528252828120600160ff1982541617905533338260008051602061107c8339815191528180a4610087565b600080fd5b634e487b7160e01b600052604160045260246000fdfe608060408181526004908136101561001657600080fd5b600092833560e01c90816301ffc9a714610811575080631709ef07146107e8578063248a9ca3146107be5780632f2ff15d1461071557806336568abe146106835780634f5d835f14610635578063685d34ff146105fa5780637da0a877146105d25780639049332a1461059a57806391d1485414610554578063a217fddf14610539578063b2b9b27314610485578063c195c492146103a8578063c5ba8381146102ab578063ca50ced61461026c578063d547741f14610230578063d55599f1146101e2578063da742228146101765763df48112c146100f557600080fd5b3461017257806003193601126101725761010d610865565b906024359161011a610896565b6001600160a01b031692831561016457507f25bf214ff87b7a766ba8edbb51935b7b35b5219a6599fbf168e701dcf7489de39160209184865260018352818187205551908152a280f35b905163d92e233d60e01b8152fd5b8280fd5b5050346101de5760203660031901126101de57610191610865565b610199610896565b81546001600160a01b0319166001600160a01b03919091169081179091557fd91237492a9e30cd2faf361fc103998a382ff0ec2b1b07dc1cbebb76ae2f1ea28280a280f35b5080fd5b8382346101de57806003193601126101de5760ff81602093610202610865565b61020a610880565b6001600160a01b0391821683526003875283832091168252855220549151911615158152f35b503461017257806003193601126101725761026991356102646001610253610880565b938387528660205286200154610ac8565b610c4a565b80f35b5034610172578060031936011261017257610296610288610865565b610290610880565b90610df4565b1561029f578280f35b516282b42960e81b8152fd5b50346101725780600319360112610172576102c4610865565b6102cc610880565b9260018060a01b0392838516948587526020906003825282882095851695868952825260ff83892054169680895260028352838920878a52835260ff848a205416968451956370a0823160e01b87528601528285602481845afa94851561039e57899561036b575b5090838961034c9360a09b5260018552205495610df4565b9482519615158752151590860152840152606083015215156080820152f35b9094508281813d8311610397575b6103838183610c28565b8101031261039357519383610334565b8880fd5b503d610379565b84513d8b823e3d90fd5b509034610172576060366003190112610172576103c3610865565b6103cb610880565b9260443591821515809303610481576103e2610896565b6001600160a01b039081169384158015610477575b6104695750916020917fe6a7a68c64c2e0a54df2a3146995594208f6af096731bb099a1fe9ea3713420d9385885260038452818820961695868852835280872060ff19906001828254161790558588526002845281882087895284528188209081541660ff841617905551908152a380f35b825163d92e233d60e01b8152fd5b50818616156103f7565b8580fd5b50903461017257816003193601126101725761049f610865565b916104a8610880565b926104b1610896565b6001600160a01b03908116928315801561052f575b61046957507fe6a7a68c64c2e0a54df2a3146995594208f6af096731bb099a1fe9ea3713420d9160209184875260038352818720951694858752825280862060ff199081815416905584875260028352818720868852835281872090815416905551858152a380f35b50818516156104c6565b8382346101de57816003193601126101de5751908152602090f35b5090346101725781600319360112610172578160209360ff92610575610880565b903582528186528282206001600160a01b039091168252855220549151911615158152f35b8382346101de5760203660031901126101de5760209181906001600160a01b036105c2610865565b1681526001845220549051908152f35b5090346101725782600319360112610172575490516001600160a01b03909116815260209150f35b8382346101de57816003193601126101de57602090517f5246556c0ab216b5b325ad7c539bfbd1a07c768773cdf810fecd3c3375c274078152f35b8382346101de57806003193601126101de5760ff81602093610655610865565b61065d610880565b6001600160a01b0391821683526002875283832091168252855220549151911615158152f35b509190346101de57826003193601126101de5761069e610880565b90336001600160a01b038316036106ba57906102699135610c4a565b608490602085519162461bcd60e51b8352820152602f60248201527f416363657373436f6e74726f6c3a2063616e206f6e6c792072656e6f756e636560448201526e103937b632b9903337b91039b2b63360891b6064820152fd5b5090346101725781600319360112610172573590610731610880565b908284528360205261074860018286200154610ac8565b82845260208481528185206001600160a01b039093168086529290528084205460ff1615610774578380f35b828452836020528084208285526020528320600160ff1982541617905533917f2f8788117e7eff1d82e926ec794901d17c78024a50270940304540a733656f0d8480a43880808380f35b50903461017257602036600319011261017257816020936001923581528085522001549051908152f35b8382346101de57806003193601126101de57602090610808610288610865565b90519015158152f35b84908434610172576020366003190112610172573563ffffffff60e01b81168091036101725760209250637965db0b60e01b8114908115610854575b5015158152f35b6301ffc9a760e01b1490508361084d565b600435906001600160a01b038216820361087b57565b600080fd5b602435906001600160a01b038216820361087b57565b3360009081527f0790b0aaeb4157b4822815d95bf3d9318a1561c876c520e6cca704be6f4d63a66020908152604080832054909291907f5246556c0ab216b5b325ad7c539bfbd1a07c768773cdf810fecd3c3375c274079060ff16156108fc5750505050565b61090533610ce5565b9084519061091282610bf6565b60428252838201946060368737825115610ab45760308653825190600191821015610ab45790607860218501536041915b818311610a4657505050610a0457846109d260486109f69360449798519889916109c38984019876020b1b1b2b9b9a1b7b73a3937b61d1030b1b1b7bab73a1604d1b8a5261099a815180928d603789019101610bd3565b8401917001034b99036b4b9b9b4b733903937b6329607d1b603784015251809386840190610bd3565b01036028810189520187610c28565b5194859362461bcd60e51b8552600485015251809281602486015285850190610bd3565b601f01601f19168101030190fd5b60648386519062461bcd60e51b825280600483015260248201527f537472696e67733a20686578206c656e67746820696e73756666696369656e746044820152fd5b909192600f81166010811015610aa0576f181899199a1a9b1b9c1cb0b131b232b360811b901a610a768587610cbe565b5360041c928015610a8c57600019019190610943565b634e487b7160e01b82526011600452602482fd5b634e487b7160e01b83526032600452602483fd5b634e487b7160e01b81526032600452602490fd5b60008181526020818152604092838320338452825260ff848420541615610aef5750505050565b610af833610ce5565b90845190610b0582610bf6565b60428252838201946060368737825115610ab45760308653825190600191821015610ab45790607860218501536041915b818311610b8d57505050610a0457846109d260486109f69360449798519889916109c38984019876020b1b1b2b9b9a1b7b73a3937b61d1030b1b1b7bab73a1604d1b8a5261099a815180928d603789019101610bd3565b909192600f81166010811015610aa0576f181899199a1a9b1b9c1cb0b131b232b360811b901a610bbd8587610cbe565b5360041c928015610a8c57600019019190610b36565b60005b838110610be65750506000910152565b8181015183820152602001610bd6565b6080810190811067ffffffffffffffff821117610c1257604052565b634e487b7160e01b600052604160045260246000fd5b90601f8019910116810190811067ffffffffffffffff821117610c1257604052565b9060009180835282602052604083209160018060a01b03169182845260205260ff604084205416610c7a57505050565b80835282602052604083208284526020526040832060ff1981541690557ff6391f5c32d9c69d2a47ea670b442974b53935d1edc7fd64eb21e047a839171b339380a4565b908151811015610ccf570160200190565b634e487b7160e01b600052603260045260246000fd5b604051906060820182811067ffffffffffffffff821117610c1257604052602a8252602082016040368237825115610ccf57603090538151600190811015610ccf57607860218401536029905b808211610d86575050610d425790565b606460405162461bcd60e51b815260206004820152602060248201527f537472696e67733a20686578206c656e67746820696e73756666696369656e746044820152fd5b9091600f81166010811015610ddf576f181899199a1a9b1b9c1cb0b131b232b360811b901a610db58486610cbe565b5360041c918015610dca576000190190610d32565b60246000634e487b7160e01b81526011600452fd5b60246000634e487b7160e01b81526032600452fd5b6001600160a01b039081169182158015610edf575b610ed7571660009080825260209160038352604092838220858352815260ff8483205416610ebf578282526001815283822054948515610eb457819060248651809681936370a0823160e01b835260048301525afa938415610ea957508193610e75575b505050101590565b9091809350813d8311610ea2575b610e8d8183610c28565b81010312610e9f575051388080610e6d565b80fd5b503d610e83565b51913d9150823e3d90fd5b505050505050600190565b819260ff959252600281528383209183525220541690565b505050600090565b5081811615610e0956fea26469706673582212202e4517c9d435a87108a3fa18d043d42f9bdd1c12a537df58ef42ad814418389364736f6c634300081300332f8788117e7eff1d82e926ec794901d17c78024a50270940304540a733656f0d",
  "linkReferences": {},
  "deployedLinkReferences": {}
}