{
  "_format": "hh-sol-artifact-1",
  "contractName": "PlatformTreasury",
  "sourceName": "contracts/PlatformTreasury.sol",
  "abi": [
    {
      "inputs": [
        {
          "internalType": "address",
          "name": "_reserveToken",
          "type": "address"
        },
        {
          "internalType": "address",
          "name": "_feeRecipient",
          "type": "address"
        }
      ],
      "stateMutability": "nonpayable",
      "type": "constructor"
    },
    {
      "inputs": [],
      "name": "InsufficientBalance",
      "type": "error"
    },
    {
      "inputs": [],
      "name": "InvalidAmount",
      "type": "error"
    },
    {
      "inputs": [],
      "name": "Unauthorized",
      "type": "error"
    },
    {
      "inputs": [],
      "name": "ZeroAddress",
      "type": "error"
    },
    {
      "anonymous": false,
      "inputs": [
        {
          "indexed": true,
          "internalType": "address",
          "name": "creator",
          "type": "address"
        },
        {
          "indexed": false,
          "internalType": "uint256",
          "name": "amount",
          "type": "uint256"
        }
      ],
      "name": "CreatorWithdrawal",
      "type": "event"
    },
    {
      "anonymous": false,
      "inputs": [
        {
          "indexed": true,
          "internalType": "address",
          "name": "token",
          "type": "address"
        },
        {
          "indexed": true,
          "internalType": "address",
          "name": "to",
          "type": "address"
        },
        {
          "indexed": false,
          "internalType": "uint256",
          "name": "amount",
          "type": "uint256"
        }
      ],
      "name": "EmergencyWithdraw",
      "type": "event"
    },
    {
      "anonymous": false,
      "inputs": [
        {
          "indexed": true,
          "internalType": "address",
          "name": "oldRecipient",
          "type": "address"
        },
        {
          "indexed": true,
          "internalType": "address",
          "name": "newRecipient",
          "type": "address"
        }
      ],
      "name": "FeeRecipientUpdated",
      "type": "event"
    },
    {
      "anonymous": false,
      "inputs": [
        {
          "indexed": true,
          "internalType": "address",
          "name": "creatorToken",
          "type": "address"
        },
        {
          "indexed": true,
          "internalType": "address",
          "name": "creator",
          "type": "address"
        },
        {
          "indexed": false,
          "internalType": "uint256",
          "name": "creatorFee",
          "type": "uint256"
        },
        {
          "indexed": false,
          "internalType": "uint256",
          "name": "platformFee",
          "type": "uint256"
        }
      ],
      "name": "FeesDeposited",
      "type": "event"
    },
    {
      "anonymous": false,
      "inputs": [
        {
          "indexed": false,
          "internalType": "address",
          "name": "account",
          "type": "address"
        }
      ],
      "name": "Paused",
      "type": "event"
    },
    {
      "anonymous": false,
      "inputs": [
        {
          "indexed": true,
          "internalType": "address",
          "name": "recipient",
          "type": "address"
        },
        {
          "indexed": false,
          "internalType": "uint256",
          "name": "amount",
          "type": "uint256"
        }
      ],
      "name": "PlatformWithdrawal",
      "type": "event"
    },
    {
      "anonymous": false,
      "inputs": [
        {
          "indexed": true,
          "internalType": "bytes32",
          "name": "role",
          "type": "bytes32"
        },
        {
          "indexed": true,
          "internalType": "bytes32",
          "name": "previousAdminRole",
          "type": "bytes32"
        },
        {
          "indexed": true,
          "internalType": "bytes32",
          "name": "newAdminRole",
          "type": "bytes32"
        }
      ],
      "name": "RoleAdminChanged",
      "type": "event"
    },
    {
      "anonymous": false,
      "inputs": [
        {
          "indexed": true,
          "internalType": "bytes32",
          "name": "role",
          "type": "bytes32"
        },
        {
          "indexed": true,
          "internalType": "address",
          "name": "account",
          "type": "address"
        },
        {
          "indexed": true,
          "internalType": "address",
          "name": "sender",
          "type": "address"
        }
      ],
      "name": "RoleGranted",
      "type": "event"
    },
    {
      "anonymous": false,
      "inputs": [
        {
          "indexed": true,
          "internalType": "bytes32",
          "name": "role",
          "type": "bytes32"
        },
        {
          "indexed": true,
          "internalType": "address",
          "name": "account",
          "type": "address"
        },
        {
          "indexed": true,
          "internalType": "address",
          "name": "sender",
          "type": "address"
        }
      ],
      "name": "RoleRevoked",
      "type": "event"
    },
    {
      "anonymous": false,
      "inputs": [
        {
          "indexed": false,
          "internalType": "address",
          "name": "account",
          "type": "address"
        }
      ],
      "name": "Unpaused",
      "type": "event"
    },
    {
      "inputs": [],
      "name": "CREATOR_TOKEN_ROLE",
      "outputs": [
        {
          "internalType": "bytes32",
          "name": "",
          "type": "bytes32"
        }
      ],
      "stateMutability": "view",
      "type": "function"
    },
    {
      "inputs": [],
      "name": "DEFAULT_ADMIN_ROLE",
      "outputs": [
        {
          "internalType": "bytes32",
          "name": "",
          "type": "bytes32"
        }
      ],
      "stateMutability": "view",
      "type": "function"
    },
    {
      "inputs": [],
      "name": "PLATFORM_ADMIN_ROLE",
      "outputs": [
        {
          "internalType": "bytes32",
          "name": "",
          "type": "bytes32"
        }
      ],
      "stateMutability": "view",
      "type": "function"
    },
    {
      "inputs": [],
      "name": "VESTING_PERIOD",
      "outputs": [
        {
          "internalType": "uint256",
          "name": "",
          "type": "uint256"
        }
      ],
      "stateMutability": "view",
      "type": "function"
    },
    {
      "inputs": [
        {
          "internalType": "address",
          "name": "",
          "type": "address"
        }
      ],
      "name": "creatorBalances",
      "outputs": [
        {
          "internalType": "uint256",
          "name": "totalAccrued",
          "type": "uint256"
        },
        {
          "internalType": "uint256",
          "name": "withdrawn",
          "type": "uint256"
        },
        {
          "internalType": "uint256",
          "name": "lastAccrualTime",
          "type": "uint256"
        },
        {
          "internalType": "uint256",
          "name": "unvestedAmount",
          "type": "uint256"
        }
      ],
      "stateMutability": "view",
      "type": "function"
    },
    {
      "inputs": [
        {
          "internalType": "address",
          "name": "creator",
          "type": "address"
        },
        {
          "internalType": "uint256",
          "name": "creatorFee",
          "type": "uint256"
        },
        {
          "internalType": "uint256",
          "name": "platformFee",
          "type": "uint256"
        }
      ],
      "name": "depositFees",
      "outputs": [],
      "stateMutability": "nonpayable",
      "type": "function"
    },
    {
      "inputs": [
        {
          "internalType": "address",
          "name": "token",
          "type": "address"
        },
        {
          "internalType": "address",
          "name": "to",
          "type": "address"
        },
        {
          "internalType": "uint256",
          "name": "amount",
          "type": "uint256"
        }
      ],
      "name": "emergencyWithdraw",
      "outputs": [],
      "stateMutability": "nonpayable",
      "type": "function"
    },
    {
      "inputs": [],
      "name": "feeRecipient",
      "outputs": [
        {
          "internalType": "address",
          "name": "",
          "type": "address"
        }
      ],
      "stateMutability": "view",
      "type": "function"
    },
    {
      "inputs": [
        {
          "internalType": "address",
          "name": "creator",
          "type": "address"
        }
      ],
      "name": "getCreatorBalance",
      "outputs": [
        {
          "internalType": "uint256",
          "name": "total",
          "type": "uint256"
        },
        {
          "internalType": "uint256",
          "name": "withdrawn",
          "type": "uint256"
        },
        {
          "internalType": "uint256",
          "name": "vested",
          "type": "uint256"
        },
        {
          "internalType": "uint256",
          "name": "unvested",
          "type": "uint256"
        }
      ],
      "stateMutability": "view",
      "type": "function"
    },
    {
      "inputs": [
        {
          "internalType": "bytes32",
          "name": "role",
          "type": "bytes32"
        }
      ],
      "name": "getRoleAdmin",
      "outputs": [
        {
          "internalType": "bytes32",
          "name": "",
          "type": "bytes32"
        }
      ],
      "stateMutability": "view",
      "type": "function"
    },
    {
      "inputs": [
        {
          "internalType": "address",
          "name": "creator",
          "type": "address"
        }
      ],
      "name": "getVestedAmount",
      "outputs": [
        {
          "internalType": "uint256",
          "name": "vestedAmount",
          "type": "uint256"
        }
      ],
      "stateMutability": "view",
      "type": "function"
    },
    {
      "inputs": [
        {
          "internalType": "bytes32",
          "name": "role",
          "type": "bytes32"
        },
        {
          "internalType": "address",
          "name": "account",
          "type": "address"
        }
      ],
      "name": "grantRole",
      "outputs": [],
      "stateMutability": "nonpayable",
      "type": "function"
    },
    {
      "inputs": [
        {
          "internalType": "bytes32",
          "name": "role",
          "type": "bytes32"
        },
        {
          "internalType": "address",
          "name": "account",
          "type": "address"
        }
      ],
      "name": "hasRole",
      "outputs": [
        {
          "internalType": "bool",
          "name": "",
          "type": "bool"
        }
      ],
      "stateMutability": "view",
      "type": "function"
    },
    {
      "inputs": [],
      "name": "pause",
      "outputs": [],
      "stateMutability": "nonpayable",
      "type": "function"
    },
    {
      "inputs": [],
      "name": "paused",
      "outputs": [
        {
          "internalType": "bool",
          "name": "",
          "type": "bool"
        }
      ],
      "stateMutability": "view",
      "type": "function"
    },
    {
      "inputs": [],
      "name": "platformBalance",
      "outputs": [
        {
          "internalType": "uint256",
          "name": "",
          "type": "uint256"
        }
      ],
      "stateMutability": "view",
      "type": "function"
    },
    {
      "inputs": [
        {
          "internalType": "bytes32",
          "name": "role",
          "type": "bytes32"
        },
        {
          "internalType": "address",
          "name": "account",
          "type": "address"
        }
      ],
      "name": "renounceRole",
      "outputs": [],
      "stateMutability": "nonpayable",
      "type": "function"
    },
    {
      "inputs": [],
      "name": "reserveToken",
      "outputs": [
        {
          "internalType": "contract IERC20",
          "name": "",
          "type": "address"
        }
      ],
      "stateMutability": "view",
      "type": "function"
    },
    {
      "inputs": [
        {
          "internalType": "bytes32",
          "name": "role",
          "type": "bytes32"
        },
        {
          "internalType": "address",
          "name": "account",
          "type": "address"
        }
      ],
      "name": "revokeRole",
      "outputs": [],
      "stateMutability": "nonpayable",
      "type": "function"
    },
    {
      "inputs": [
        {
          "internalType": "address",
          "name": "newRecipient",
          "type": "address"
        }
      ],
      "name": "setFeeRecipient",
      "outputs": [],
      "stateMutability": "nonpayable",
      "type": "function"
    },
    {
      "inputs": [
        {
          "internalType": "bytes4",
          "name": "interfaceId",
          "type": "bytes4"
        }
      ],
      "name": "supportsInterface",
      "outputs": [
        {
          "internalType": "bool",
          "name": "",
          "type": "bool"
        }
      ],
      "stateMutability": "view",
      "type": "function"
    },
    {
      "inputs": [],
      "name": "unpause",
      "outputs": [],
      "stateMutability": "nonpayable",
      "type": "function"
    },
    {
      "inputs": [
        {
          "internalType": "uint256",
          "name": "amount",
          "type": "uint256"
        }
      ],
      "name": "withdrawCreatorFees",
      "outputs": [],
      "stateMutability": "nonpayable",
      "type": "function"
    },
    {
      "inputs": [
        {
          "internalType": "uint256",
          "name": "amount",
          "type": "uint256"
        }
      ],
      "name": "withdrawPlatformFees",
      "outputs": [],
      "stateMutability": "nonpayable",
      "type": "function"
    }
  ],
  "bytecode": "0x60a034620001c65762001a0e90601f38839003908101601f19168201906001600160401b03821183831017620001cb5780839160409586948552833981010312620001c6576200004f81620001e1565b6200005e6020809301620001e1565b60018055600254916001600160a01b03908116908115908115620001ba575b50620001a9576080526001600160a81b031990911660089190911b610100600160a81b031617600255600080805280825282812033825282528281205460ff161562000171575b7f5246556c0ab216b5b325ad7c539bfbd1a07c768773cdf810fecd3c3375c2740791828252818152838220338352815260ff84832054161562000136575b83516117f79081620001f78239608051818181610140015281816106500152818161078b015281816107cb0152610a1b0152f35b8282528181528382209033835252828120600160ff198254161790553391600080516020620019ee833981519152339280a438808062000102565b8080528082528281203382528252828120600160ff19825416179055333382600080516020620019ee8339815191528180a4620000c4565b845163d92e233d60e01b8152600490fd5b9050821615386200007d565b600080fd5b634e487b7160e01b600052604160045260246000fd5b51906001600160a01b0382168203620001c65756fe608060408181526004918236101561001657600080fd5b600092833560e01c9182630197d97214610e525750816301ffc9a714610dfc57816309cf7ffc14610d80578163248a9ca314610d565781632a78280214610ceb5781632f2ff15d14610c4257816336568abe14610bb05781633f4ba83a14610b1a5781634690484014610aed5781635c975abb14610ac957816362a5dbbc14610aaa578163685d34ff14610a6f5781636aa214161461099157816372a16a98146106c157816373962620146105dc5781638456cb591461058157816391d148541461053b57816396dd3f7f14610500578163a217fddf146104e5578163d547741f146104a7578163d5a73fdd14610460578163e63ea4081461020b578163e74b981b14610173575063f4325d671461012d57600080fd5b3461016f578160031936011261016f57517f00000000000000000000000000000000000000000000000000000000000000006001600160a01b03168152602090f35b5080fd5b9050346102075760203660031901126102075761018e610e6f565b610196610ea0565b6001600160a01b038181169390929084156101fa57505060028054610100600160a81b03198116600893841b610100600160a81b031617909155901c167faaebcf1bfa00580e41d966056b48521fa9f202645c86d4ddf28113e617c1b1d38380a380f35b5163d92e233d60e01b8152fd5b8280fd5b9190503461020757606036600319011261020757610227610e6f565b61022f610e8a565b9160443590858052602092868452818720338852845260ff8288205416156102af576001600160a01b038581169690919087156102a15750837ff24ef89f38eadc1bde50701ad6e4d6d11a2dc24f7cf834a486991f38833285049594939261029992169687611707565b51908152a380f35b835163d92e233d60e01b8152fd5b508483876102bc336112e1565b845190826102c9836111a3565b6042835284830193606036863783511561044d576030855383519060019182101561043a5790607860218601536041915b8183116103cf5750505061039f5761039b9386936103879361037860489461034f9a519a8576020b1b1b2b9b9a1b7b73a3937b61d1030b1b1b7bab73a1604d1b8d978801528251928391603789019101611180565b8401917001034b99036b4b9b9b4b733903937b6329607d1b603784015251809386840190611180565b010360288101875201856111d5565b5162461bcd60e51b815292839283016111f7565b0390fd5b50505080606493519262461bcd60e51b845283015260248201526000805160206117a28339815191526044820152fd5b909192600f81166010811015610427576f181899199a1a9b1b9c1cb0b131b232b360811b901a6103ff85886112ba565b53881c928015610414576000190191906102fa565b634e487b7160e01b825260118952602482fd5b634e487b7160e01b835260328a52602483fd5b634e487b7160e01b815260328852602490fd5b634e487b7160e01b815260328752602490fd5b905034610207576020366003190112610207576020926104a09161049b9184916001600160a01b03610490610e6f565b168252865220611673565b611757565b9051908152f35b919050346102075780600319360112610207576104e291356104dd60016104cc610e8a565b938387528660205286200154611077565b611223565b80f35b50503461016f578160031936011261016f5751908152602090f35b50503461016f578160031936011261016f57602090517fc493ba1e41444ba5f21f955bd2a4b2610568980c40485c07dff10ee3b37c68858152f35b9050346102075781600319360112610207578160209360ff9261055c610e8a565b903582528186528282206001600160a01b039091168252855220549151911615158152f35b50503461016f578160031936011261016f5760207f62e78cea01bee320cd4e420270b5ea74000d11b0c9f74754ebdbfc544b05a258916105bf610ea0565b6105c76116c3565b600160ff19600254161760025551338152a180f35b91905034610207576020366003190112610207578135916105fb6113de565b6106036116c3565b82156106b357338452806020528184209061062061049b83611673565b84116106a5575080600160039201610639858254611297565b9055016106478382546116b6565b905561067482337f0000000000000000000000000000000000000000000000000000000000000000611707565b519081527f0d53b74a6cb6d1fbd9dc6dc1d7714036c7c6a3f48350103a7011041eb32a4c5e60203392a26001805580f35b8251631e9acf1760e31b8152fd5b905163162908e360e11b8152fd5b83833461016f57606036600319011261016f576106dc610e6f565b602491823591604435907fc493ba1e41444ba5f21f955bd2a4b2610568980c40485c07dff10ee3b37c688594858752602095878752848820338952875260ff85892054161561083157505061072f6113de565b6001600160a01b031693841561082157839495967feb4e1b24b7fe377de69f80f7380bda5ba4b43176c6a4d300a3be9009c49f4228946107c3575b5081610783575b82519485528401523392a36001805580f35b6107af8230337f0000000000000000000000000000000000000000000000000000000000000000611434565b6107bb82600354611297565b600355610771565b6107ef8630337f0000000000000000000000000000000000000000000000000000000000000000611434565b8688528152828720610802868254611297565b815560038101610813878254611297565b90556002429101558761076a565b825163d92e233d60e01b81528790fd5b868886938b93610840336112e1565b909186519261084e846111a3565b6042845285840194606036873784511561097f576030865384519060019182101561096d5790607860218701536041915b818311610904575050506108d5575061039b9386936103879361037860489461034f9a519a8576020b1b1b2b9b9a1b7b73a3937b61d1030b1b1b7bab73a1604d1b8d978801528251928391603789019101611180565b9250505081606494519362461bcd60e51b85528401528201526000805160206117a28339815191526044820152fd5b909192600f8116601081101561095b576f181899199a1a9b1b9c1cb0b131b232b360811b901a61093485896112ba565b53891c9280156109495760001901919061087f565b634e487b7160e01b825260118a528482fd5b634e487b7160e01b835260328b528583fd5b634e487b7160e01b8152603289528390fd5b634e487b7160e01b8152603288529050fd5b905034610207576020366003190112610207578035906109af610ea0565b6109b76113de565b6109bf6116c3565b8115610a615760035490818311610a535750816109ff7f91db5d4a67c499bdf5cae8da755af68efc6296507ccebecf1f1aeb70b799d7fb936020936116b6565b6003556002546001600160a01b0390610a3f90839060081c83167f0000000000000000000000000000000000000000000000000000000000000000611707565b60025460081c169351908152a26001805580f35b8351631e9acf1760e31b8152fd5b825163162908e360e11b8152fd5b50503461016f578160031936011261016f57602090517f5246556c0ab216b5b325ad7c539bfbd1a07c768773cdf810fecd3c3375c274078152f35b50503461016f578160031936011261016f576020906003549051908152f35b50503461016f578160031936011261016f5760209060ff6002541690519015158152f35b50503461016f578160031936011261016f57600254905160089190911c6001600160a01b03168152602090f35b905034610207578260031936011261020757610b34610ea0565b6002549060ff821615610b76575060ff1916600255513381527f5db9ee0a495bf2e6ff9c91a7834c1ba4fdd244a5e8aa4e537bd38aeae4b073aa90602090a180f35b606490602084519162461bcd60e51b8352820152601460248201527314185d5cd8589b194e881b9bdd081c185d5cd95960621b6044820152fd5b8391503461016f578260031936011261016f57610bcb610e8a565b90336001600160a01b03831603610be757906104e29135611223565b608490602085519162461bcd60e51b8352820152602f60248201527f416363657373436f6e74726f6c3a2063616e206f6e6c792072656e6f756e636560448201526e103937b632b9903337b91039b2b63360891b6064820152fd5b9050346102075781600319360112610207573590610c5e610e8a565b9082845283602052610c7560018286200154611077565b82845260208481528185206001600160a01b039093168086529290528084205460ff1615610ca1578380f35b828452836020528084208285526020528320600160ff1982541617905533917f2f8788117e7eff1d82e926ec794901d17c78024a50270940304540a733656f0d8480a43880808380f35b90503461020757602036600319011261020757909182916001600160a01b03610d12610e6f565b1682526020522090610d52825491600184015493600360028201549101549151948594859094939260609260808301968352602083015260408201520152565b0390f35b90503461020757602036600319011261020757816020936001923581528085522001549051908152f35b8391503461016f57602036600319011261016f57610db69183916001600160a01b03610daa610e6f565b16825260205220611673565b90610d52610dc383611757565b91835192610dda81606060208801519701516116b6565b9151948594859094939260609260808301968352602083015260408201520152565b90503461020757602036600319011261020757359063ffffffff60e01b82168092036102075760209250637965db0b60e01b8214918215610e41575b50519015158152f35b6301ffc9a760e01b14915038610e38565b84903461016f578160031936011261016f578062278d0060209252f35b600435906001600160a01b0382168203610e8557565b600080fd5b602435906001600160a01b0382168203610e8557565b3360009081527f0790b0aaeb4157b4822815d95bf3d9318a1561c876c520e6cca704be6f4d63a660209081526040808320549092907f5246556c0ab216b5b325ad7c539bfbd1a07c768773cdf810fecd3c3375c274079060ff1615610f055750505050565b610f0e336112e1565b845191610f1a836111a3565b6042835284830193606036863783511561106357603085538351906001918210156110635790607860218601536041915b818311610ff557505050610fc55761034f938593610faf93610fa060489461039b9951988576020b1b1b2b9b9a1b7b73a3937b61d1030b1b1b7bab73a1604d1b8b978801528251928391603789019101611180565b010360288101855201836111d5565b5162461bcd60e51b8152918291600483016111f7565b60648486519062461bcd60e51b825280600483015260248201526000805160206117a28339815191526044820152fd5b909192600f8116601081101561104f576f181899199a1a9b1b9c1cb0b131b232b360811b901a61102585886112ba565b5360041c92801561103b57600019019190610f4b565b634e487b7160e01b82526011600452602482fd5b634e487b7160e01b83526032600452602483fd5b634e487b7160e01b81526032600452602490fd5b6000818152602090808252604092838220338352835260ff84832054161561109f5750505050565b6110a8336112e1565b8451916110b4836111a3565b6042835284830193606036863783511561106357603085538351906001918210156110635790607860218601536041915b81831161113a57505050610fc55761034f938593610faf93610fa060489461039b9951988576020b1b1b2b9b9a1b7b73a3937b61d1030b1b1b7bab73a1604d1b8b978801528251928391603789019101611180565b909192600f8116601081101561104f576f181899199a1a9b1b9c1cb0b131b232b360811b901a61116a85886112ba565b5360041c92801561103b576000190191906110e5565b60005b8381106111935750506000910152565b8181015183820152602001611183565b6080810190811067ffffffffffffffff8211176111bf57604052565b634e487b7160e01b600052604160045260246000fd5b90601f8019910116810190811067ffffffffffffffff8211176111bf57604052565b604091602082526112178151809281602086015260208686019101611180565b601f01601f1916010190565b9060009180835282602052604083209160018060a01b03169182845260205260ff60408420541661125357505050565b80835282602052604083208284526020526040832060ff1981541690557ff6391f5c32d9c69d2a47ea670b442974b53935d1edc7fd64eb21e047a839171b339380a4565b919082018092116112a457565b634e487b7160e01b600052601160045260246000fd5b9081518110156112cb570160200190565b634e487b7160e01b600052603260045260246000fd5b604051906060820182811067ffffffffffffffff8211176111bf57604052602a82526020820160403682378251156112cb576030905381516001908110156112cb57607860218401536029905b80821161137057505061133e5790565b606460405162461bcd60e51b815260206004820152602060248201526000805160206117a28339815191526044820152fd5b9091600f811660108110156113c9576f181899199a1a9b1b9c1cb0b131b232b360811b901a61139f84866112ba565b5360041c9180156113b457600019019061132e565b60246000634e487b7160e01b81526011600452fd5b60246000634e487b7160e01b81526032600452fd5b6002600154146113ef576002600155565b60405162461bcd60e51b815260206004820152601f60248201527f5265656e7472616e637947756172643a207265656e7472616e742063616c6c006044820152606490fd5b6040516323b872dd60e01b60208201526001600160a01b03928316602482015292909116604483015260648083019390935291815260a081019181831067ffffffffffffffff8411176111bf5761148d9260405261148f565b565b60018060a01b0316906040516040810167ffffffffffffffff90828110828211176111bf576040526020938483527f5361666545524332303a206c6f772d6c6576656c2063616c6c206661696c6564858401526000808587829751910182855af1903d156115d7573d9283116115c3579061152a9392916040519261151d88601f19601f84011601856111d5565b83523d868885013e6115e2565b80519182159184831561159c575b5050509050156115455750565b6084906040519062461bcd60e51b82526004820152602a60248201527f5361666545524332303a204552433230206f7065726174696f6e20646964206e6044820152691bdd081cdd58d8d9595960b21b6064820152fd5b91938180945001031261016f578201519081151582036115c0575080388084611538565b80fd5b634e487b7160e01b85526041600452602485fd5b9061152a9392506060915b9192901561164457508151156115f6575090565b3b156115ff5790565b60405162461bcd60e51b815260206004820152601d60248201527f416464726573733a2063616c6c20746f206e6f6e2d636f6e74726163740000006044820152606490fd5b8251909150156116575750805190602001fd5b60405162461bcd60e51b815290819061039b90600483016111f7565b906040516080810181811067ffffffffffffffff8211176111bf576040526060600382948054845260018101546020850152600281015460408501520154910152565b919082039182116112a457565b60ff600254166116cf57565b60405162461bcd60e51b815260206004820152601060248201526f14185d5cd8589b194e881c185d5cd95960821b6044820152606490fd5b60405163a9059cbb60e01b60208201526001600160a01b039092166024830152604480830193909352918152608081019167ffffffffffffffff8311828410176111bf5761148d9260405261148f565b606081019081511561179a576040611771910151426116b6565b62278d00918282101561179357518181029181830414901517156112a4570490565b9150505190565b505060009056fe537472696e67733a20686578206c656e67746820696e73756666696369656e74a2646970667358221220dd3191b525c12b664852edd1f7d9d198e12ab2993f27eeac6c032daa6682ddef64736f6c634300081300332f8788117e7eff1d82e926ec794901d17c78024a50270940304540a733656f0d",
  "linkReferences": {},
  "deployedLinkReferences": {}
}