{
  "_format": "hh-sol-artifact-1",
  "contractName": "BondingCurveAMM",
  "sourceName": "contracts/BondingCurveAMM.sol",
  "abi": [
    {
      "inputs": [],
      "name": "InsufficientLiquidity",
      "type": "error"
    },
    {
      "inputs": [],
      "name": "InvalidAmount",
      "type": "error"
    },
    {
      "inputs": [],
      "name": "MathOverflow",
      "type": "error"
    },
    {
      "inputs": [
        {
          "internalType": "uint256",
          "name": "S",
          "type": "uint256"
        },
        {
          "internalType": "uint256",
          "name": "basePrice",
          "type": "uint256"
        },
        {
          "internalType": "uint256",
          "name": "k",
          "type": "uint256"
        }
      ],
      "name": "getCurrentPrice",
      "outputs": [
        {
          "internalType": "uint256",
          "name": "price",
          "type": "uint256"
        }
      ],
      "stateMutability": "pure",
      "type": "function"
    },
    {
      "inputs": [
        {
          "internalType": "uint256",
          "name": "S",
          "type": "uint256"
        },
        {
          "internalType": "uint256",
          "name": "basePrice",
          "type": "uint256"
        },
        {
          "internalType": "uint256",
          "name": "k",
          "type": "uint256"
        },
        {
          "internalType": "uint256",
          "name": "tokenAmount",
          "type": "uint256"
        }
      ],
      "name": "priceImpact",
      "outputs": [
        {
          "internalType": "uint256",
          "name": "priceBefore",
          "type": "uint256"
        },
        {
          "internalType": "uint256",
          "name": "priceAfter",
          "type": "uint256"
        }
      ],
      "stateMutability": "pure",
      "type": "function"
    },
    {
      "inputs": [
        {
          "internalType": "uint256",
          "name": "S",
          "type": "uint256"
        },
        {
          "internalType": "uint256",
          "name": "basePrice",
          "type": "uint256"
        },
        {
          "internalType": "uint256",
          "name": "k",
          "type": "uint256"
        },
        {
          "internalType": "uint256",
          "name": "usdcAmount",
          "type": "uint256"
        }
      ],
      "name": "tokensForBuy",
      "outputs": [
        {
          "internalType": "uint256",
          "name": "deltaTokens",
          "type": "uint256"
        }
      ],
      "stateMutability": "pure",
      "type": "function"
    },
    {
      "inputs": [
        {
          "internalType": "uint256",
          "name": "S",
          "type": "uint256"
        },
        {
          "internalType": "uint256",
          "name": "basePrice",
          "type": "uint256"
        },
        {
          "internalType": "uint256",
          "name": "k",
          "type": "uint256"
        },
        {
          "internalType": "uint256",
          "name": "tokensToBurn",
          "type": "uint256"
        }
      ],
      "name": "usdcForSell",
      "outputs": [
        {
          "internalType": "uint256",
          "name": "usdcOut",
          "type": "uint256"
        }
      ],
      "stateMutability": "pure",
      "type": "function"
    }
  ],
  "bytecode": "0x6080806040523461001a576104499081610020823930815050f35b600080fdfe6040608081526004908136101561001557600080fd5b6000803560e01c806385113943146103185780638f574586146102d0578063b13f586d146102085763f607f64b1461004c57600080fd5b61005536610375565b919391929083156101f857670de0b6b3a76400009384810290810485036101e557620f4240900491600190610098878761009286861c94876103c6565b046103f9565b90866100a483806103c6565b04906001600160fe1b038116036101d2576100d190876100ca8787871b600319166103c6565b04906103f9565b918560038411156101be57508280821c8281018091116101ab5791905b84831061018b575050505b80821061017b5761010991610406565b600119909116908161015157505082810292818404149015171561013e57506020935090610136916103d9565b905b51908152f35b634e487b7160e01b815260118552602490fd5b849195508092500292818404149015171561013e57506020935090610175916103d9565b90610138565b8751634eab2ea760e11b81528990fd5b909193506101a28461019d81846103d9565b6103f9565b821c91906100ee565b634e487b7160e01b885260118c52602488fd5b926101ca575b506100f9565b9150386101c4565b634e487b7160e01b865260118a52602486fd5b634e487b7160e01b845260118852602484fd5b855163162908e360e11b81528790fd5b828461021336610375565b92919383156102c2578284116102b4575082908180670de0b6b3a764000096879161023d916103c6565b049361024990836103c6565b90610253916103c6565b6ec097ce7bc90715b34b9f100000000090049361026f916103c6565b90610279916103c6565b6f01812f9cf7920e2b66973e2000000000900491610296916103f9565b906102a091610406565b6102a990610398565b049051908152602090f35b855163bb55fd2760e01b8152fd5b855163162908e360e11b8152fd5b50606036600319011261031557506102ff61030d610308602094670de0b6b3a7640000938491356044356103c6565b046024356103f9565b610398565b049051908152f35b80fd5b826100ca61030861036861030861036261035461033436610375565b8361035b670de0b6b3a76400009b959b979394979a8b80988194886103c6565b04896103f9565b04996103f9565b906103c6565b0482519182526020820152f35b60809060031901126103935760043590602435906044359060643590565b600080fd5b90620f4240918281029281840414901517156103b057565b634e487b7160e01b600052601160045260246000fd5b818102929181159184041417156103b057565b81156103e3570490565b634e487b7160e01b600052601260045260246000fd5b919082018092116103b057565b919082039182116103b05756fea264697066735822122008e7a4849b3e03e1166a6416c42533a6e48a8e9defc1f55f00f0e18d991d2e7b64736f6c63430008130033",
  "linkReferences": {},
  "deployedLinkReferences": {}
}