{
  "_format": "hh-sol-artifact-1",
  "contractName": "CreatorTokenFactory",
  "sourceName": "contracts/CreatorTokenFactory.sol",
  "abi": [
    {
      "inputs": [
        {
          "internalType": "address",
          "name": "_implementation",
          "type": "address"
        },
        {
          "internalType": "address",
          "name": "_treasury",
          "type": "address"
        },
        {
          "internalType": "address",
          "name": "_reserveToken",
          "type": "address"
        },
        {
          "internalType": "address",
          "name": "_trustedForwarder",
          "type": "address"
        },
        {
          "internalType": "uint256",
          "name": "_platformFeeBps",
          "type": "uint256"
        }
      ],
      "stateMutability": "nonpayable",
      "type": "constructor"
    },
    {
      "inputs": [],
      "name": "InvalidConfiguration",
      "type": "error"
    },
    {
      "inputs": [],
      "name": "Unauthorized",
      "type": "error"
    },
    {
      "inputs": [],
      "name": "ZeroAddress",
      "type": "error"
    },
    {
      "anonymous": false,
      "inputs": [
        {
          "indexed": true,
          "internalType": "address",
          "name": "creator",
          "type": "address"
        },
        {
          "indexed": true,
          "internalType": "address",
          "name": "token",
          "type": "address"
        },
        {
          "indexed": false,
          "internalType": "string",
          "name": "name",
          "type": "string"
        },
        {
          "indexed": false,
          "internalType": "string",
          "name": "symbol",
          "type": "string"
        }
      ],
      "name": "CreatorTokenCreated",
      "type": "event"
    },
    {
      "anonymous": false,
      "inputs": [
        {
          "indexed": false,
          "internalType": "address",
          "name": "newImplementation",
          "type": "address"
        }
      ],
      "name": "ImplementationUpdated",
      "type": "event"
    },
    {
      "anonymous": false,
      "inputs": [
        {
          "indexed": false,
          "internalType": "uint256",
          "name": "newBps",
          "type": "uint256"
        }
      ],
      "name": "PlatformFeeUpdated",
      "type": "event"
    },
    {
      "anonymous": false,
      "inputs": [
        {
          "indexed": true,
          "internalType": "bytes32",
          "name": "role",
          "type": "bytes32"
        },
        {
          "indexed": true,
          "internalType": "bytes32",
          "name": "previousAdminRole",
          "type": "bytes32"
        },
        {
          "indexed": true,
          "internalType": "bytes32",
          "name": "newAdminRole",
          "type": "bytes32"
        }
      ],
      "name": "RoleAdminChanged",
      "type": "event"
    },
    {
      "anonymous": false,
      "inputs": [
        {
          "indexed": true,
          "internalType": "bytes32",
          "name": "role",
          "type": "bytes32"
        },
        {
          "indexed": true,
          "internalType": "address",
          "name": "account",
          "type": "address"
        },
        {
          "indexed": true,
          "internalType": "address",
          "name": "sender",
          "type": "address"
        }
      ],
      "name": "RoleGranted",
      "type": "event"
    },
    {
      "anonymous": false,
      "inputs": [
        {
          "indexed": true,
          "internalType": "bytes32",
          "name": "role",
          "type": "bytes32"
        },
        {
          "indexed": true,
          "internalType": "address",
          "name": "account",
          "type": "address"
        },
        {
          "indexed": true,
          "internalType": "address",
          "name": "sender",
          "type": "address"
        }
      ],
      "name": "RoleRevoked",
      "type": "event"
    },
    {
      "anonymous": false,
      "inputs": [
        {
          "indexed": false,
          "internalType": "address",
          "name": "newForwarder",
          "type": "address"
        }
      ],
      "name": "TrustedForwarderUpdated",
      "type": "event"
    },
    {
      "inputs": [],
      "name": "DEFAULT_ADMIN_ROLE",
      "outputs": [
        {
          "internalType": "bytes32",
          "name": "",
          "type": "bytes32"
        }
      ],
      "stateMutability": "view",
      "type": "function"
    },
    {
      "inputs": [],
      "name": "PLATFORM_ADMIN_ROLE",
      "outputs": [
        {
          "internalType": "bytes32",
          "name": "",
          "type": "bytes32"
        }
      ],
      "stateMutability": "view",
      "type": "function"
    },
    {
      "inputs": [
        {
          "internalType": "uint256",
          "name": "",
          "type": "uint256"
        }
      ],
      "name": "allTokens",
      "outputs": [
        {
          "internalType": "address",
          "name": "",
          "type": "address"
        }
      ],
      "stateMutability": "view",
      "type": "function"
    },
    {
      "inputs": [
        {
          "components": [
            {
              "internalType": "address",
              "name": "creator",
              "type": "address"
            },
            {
              "internalType": "string",
              "name": "name",
              "type": "string"
            },
            {
              "internalType": "string",
              "name": "symbol",
              "type": "string"
            },
            {
              "internalType": "uint256",
              "name": "basePrice",
              "type": "uint256"
            },
            {
              "internalType": "uint256",
              "name": "k",
              "type": "uint256"
            },
            {
              "internalType": "uint256",
              "name": "initialSupplyLimit",
              "type": "uint256"
            },
            {
              "internalType": "uint256",
              "name": "minTokensForAccess",
              "type": "uint256"
            },
            {
              "internalType": "uint256",
              "name": "creatorBuyFeeBps",
              "type": "uint256"
            },
            {
              "internalType": "uint256",
              "name": "creatorSellFeeBps",
              "type": "uint256"
            },
            {
              "internalType": "uint256",
              "name": "maxSellPercentBps",
              "type": "uint256"
            },
            {
              "internalType": "uint256",
              "name": "sellWindowSeconds",
              "type": "uint256"
            },
            {
              "internalType": "uint256",
              "name": "sellWindowThresholdBps",
              "type": "uint256"
            }
          ],
          "internalType": "struct CreatorTokenFactory.CreateParams",
          "name": "params",
          "type": "tuple"
        }
      ],
      "name": "createCreatorToken",
      "outputs": [
        {
          "internalType": "address",
          "name": "token",
          "type": "address"
        }
      ],
      "stateMutability": "nonpayable",
      "type": "function"
    },
    {
      "inputs": [
        {
          "internalType": "address",
          "name": "",
          "type": "address"
        },
        {
          "internalType": "uint256",
          "name": "",
          "type": "uint256"
        }
      ],
      "name": "creatorTokens",
      "outputs": [
        {
          "internalType": "address",
          "name": "",
          "type": "address"
        }
      ],
      "stateMutability": "view",
      "type": "function"
    },
    {
      "inputs": [],
      "name": "getAllTokens",
      "outputs": [
        {
          "internalType": "address[]",
          "name": "tokens",
          "type": "address[]"
        }
      ],
      "stateMutability": "view",
      "type": "function"
    },
    {
      "inputs": [
        {
          "internalType": "address",
          "name": "creator",
          "type": "address"
        }
      ],
      "name": "getCreatorTokens",
      "outputs": [
        {
          "internalType": "address[]",
          "name": "tokens",
          "type": "address[]"
        }
      ],
      "stateMutability": "view",
      "type": "function"
    },
    {
      "inputs": [
        {
          "internalType": "bytes32",
          "name": "role",
          "type": "bytes32"
        }
      ],
      "name": "getRoleAdmin",
      "outputs": [
        {
          "internalType": "bytes32",
          "name": "",
          "type": "bytes32"
        }
      ],
      "stateMutability": "view",
      "type": "function"
    },
    {
      "inputs": [],
      "name": "getTotalTokens",
      "outputs": [
        {
          "internalType": "uint256",
          "name": "count",
          "type": "uint256"
        }
      ],
      "stateMutability": "view",
      "type": "function"
    },
    {
      "inputs": [
        {
          "internalType": "bytes32",
          "name": "role",
          "type": "bytes32"
        },
        {
          "internalType": "address",
          "name": "account",
          "type": "address"
        }
      ],
      "name": "grantRole",
      "outputs": [],
      "stateMutability": "nonpayable",
      "type": "function"
    },
    {
      "inputs": [
        {
          "internalType": "bytes32",
          "name": "role",
          "type": "bytes32"
        },
        {
          "internalType": "address",
          "name": "account",
          "type": "address"
        }
      ],
      "name": "hasRole",
      "outputs": [
        {
          "internalType": "bool",
          "name": "",
          "type": "bool"
        }
      ],
      "stateMutability": "view",
      "type": "function"
    },
    {
      "inputs": [],
      "name": "implementation",
      "outputs": [
        {
          "internalType": "address",
          "name": "",
          "type": "address"
        }
      ],
      "stateMutability": "view",
      "type": "function"
    },
    {
      "inputs": [
        {
          "internalType": "address",
          "name": "",
          "type": "address"
        }
      ],
      "name": "isCreatorToken",
      "outputs": [
        {
          "internalType": "bool",
          "name": "",
          "type": "bool"
        }
      ],
      "stateMutability": "view",
      "type": "function"
    },
    {
      "inputs": [],
      "name": "platformFeeBps",
      "outputs": [
        {
          "internalType": "uint256",
          "name": "",
          "type": "uint256"
        }
      ],
      "stateMutability": "view",
      "type": "function"
    },
    {
      "inputs": [
        {
          "internalType": "bytes32",
          "name": "role",
          "type": "bytes32"
        },
        {
          "internalType": "address",
          "name": "account",
          "type": "address"
        }
      ],
      "name": "renounceRole",
      "outputs": [],
      "stateMutability": "nonpayable",
      "type": "function"
    },
    {
      "inputs": [],
      "name": "reserveToken",
      "outputs": [
        {
          "internalType": "address",
          "name": "",
          "type": "address"
        }
      ],
      "stateMutability": "view",
      "type": "function"
    },
    {
      "inputs": [
        {
          "internalType": "bytes32",
          "name": "role",
          "type": "bytes32"
        },
        {
          "internalType": "address",
          "name": "account",
          "type": "address"
        }
      ],
      "name": "revokeRole",
      "outputs": [],
      "stateMutability": "nonpayable",
      "type": "function"
    },
    {
      "inputs": [
        {
          "internalType": "address",
          "name": "newImplementation",
          "type": "address"
        }
      ],
      "name": "setImplementation",
      "outputs": [],
      "stateMutability": "nonpayable",
      "type": "function"
    },
    {
      "inputs": [
        {
          "internalType": "uint256",
          "name": "newBps",
          "type": "uint256"
        }
      ],
      "name": "setPlatformFeeBps",
      "outputs": [],
      "stateMutability": "nonpayable",
      "type": "function"
    },
    {
      "inputs": [
        {
          "internalType": "address",
          "name": "newTreasury",
          "type": "address"
        }
      ],
      "name": "setTreasury",
      "outputs": [],
      "stateMutability": "nonpayable",
      "type": "function"
    },
    {
      "inputs": [
        {
          "internalType": "address",
          "name": "newForwarder",
          "type": "address"
        }
      ],
      "name": "setTrustedForwarder",
      "outputs": [],
      "stateMutability": "nonpayable",
      "type": "function"
    },
    {
      "inputs": [
        {
          "internalType": "bytes4",
          "name": "interfaceId",
          "type": "bytes4"
        }
      ],
      "name": "supportsInterface",
      "outputs": [
        {
          "internalType": "bool",
          "name": "",
          "type": "bool"
        }
      ],
      "stateMutability": "view",
      "type": "function"
    },
    {
      "inputs": [],
      "name": "treasury",
      "outputs": [
        {
          "internalType": "address",
          "name": "",
          "type": "address"
        }
      ],
      "stateMutability": "view",
      "type": "function"
    },
    {
      "inputs": [],
      "name": "trustedForwarder",
      "outputs": [
        {
          "internalType": "address",
          "name": "",
          "type": "address"
        }
      ],
      "stateMutability": "view",
      "type": "function"
    }
  ],
  "bytecode": "0x608034620001e857601f6200169138819003918201601f191683019291906001600160401b03841183851017620001ed578160a09284926040968752833981010312620001e857620000518162000203565b906020916200006283830162000203565b906200007085840162000203565b926080620000816060830162000203565b91015160018055936001600160a01b039283169384158015620001dd575b8015620001d2575b620001c1579083809260018060a01b0319968760025416176002551685600354161760035516836006541617600655169060045416176004556005556000808052808252828120338252825260ff83822054161562000189575b7f5246556c0ab216b5b325ad7c539bfbd1a07c768773cdf810fecd3c3375c2740791828252818152838220338352815260ff8483205416156200014e575b83516114589081620002198239f35b8282528181528382209033835252828120600160ff19825416179055339160008051602062001671833981519152339280a43880806200013f565b8080528082528281203382528252828120600160ff19825416179055333382600080516020620016718339815191528180a462000101565b875163d92e233d60e01b8152600490fd5b5083821615620000a7565b50838116156200009f565b600080fd5b634e487b7160e01b600052604160045260246000fd5b51906001600160a01b0382168203620001e85756fe608080604052600436101561001357600080fd5b600090813560e01c90816301ffc9a714610c7c5750806322dcd13e14610c5e578063248a9ca314610c325780632a5c792a14610bb35780632f2ff15d14610b0557806336568abe14610a725780635c60da1b14610a4957806361d027b314610a20578063634282af146109c4578063685d34ff14610989578063734037611461094a57806374abfa54146108be5780637da0a8771461089557806391d148541461084d578063a217fddf14610831578063c0e4b149146103bb578063c580c94214610351578063d547741f14610311578063d784d42614610299578063da7422281461022b578063db3fa4cc146101d0578063f08b82e6146101b2578063f0f44260146101545763f4325d671461012957600080fd5b346101515780600319360112610151576006546040516001600160a01b039091168152602090f35b80fd5b50346101515760203660031901126101515761016e610d34565b610176610f94565b6001600160a01b031680156101a0576bffffffffffffffffffffffff60a01b600354161760035580f35b60405163d92e233d60e01b8152600490fd5b50346101515780600319360112610151576020600854604051908152f35b5034610151576040366003190112610151576101ea610d34565b6001600160a01b03908116825260076020526040822080546024359390841015610151575060209261021b91610d4a565b9190546040519260031b1c168152f35b5034610151576020366003190112610151577fa4388ecc389b1390354ae0c65a856c0d7dd4fb648419f5d3ac0b99e38f46fd116020610268610d34565b610270610d62565b600480546001600160a01b0319166001600160a01b03929092169182179055604051908152a180f35b5034610151576020366003190112610151576102b3610d34565b6102bb610f94565b6001600160a01b031680156101a0576020817f310ba5f1d2ed074b51e2eccd052a47ae9ab7c6b800d1fca3db3999d6a592ca03926bffffffffffffffffffffffff60a01b6002541617600255604051908152a180f35b50346101515760403660031901126101515761034e600435610331610d19565b908084528360205261034960016040862001546110ba565b611226565b80f35b50346101515760203660031901126101515760043561036e610d62565b6103e881116103a9576020817f45610d581145924dd7090a5017e5f2b1d6f42213bb2e95707ff86846bbfcb1ca92600555604051908152a180f35b60405163c52a9bd360e01b8152600490fd5b503461015157602090816003193601126101515767ffffffffffffffff600435116101515761018060043536036003190112610151576002600154146107ec5760026001556001600160a01b0361041560048035016113ba565b16156101a057606460043501351580156107de575b6103a957600254608881901c62ffffff16763d602d80600a3d3981f3363d3d373d3d3d363d7300000017825260781b6effffffffffffffffffffffffffffff19166e5af43d82803e903d91602b57fd5bf31782526001600160a01b036037600983f0169081156107a0576104a86024600435016004356004016113ce565b6104bc6044600435016004356004016113ce565b6104ca6004356004016113ba565b9160018060a01b036006541660018060a01b03600354169160055493893b1561079c5791610533610521989694928a9896946040519a8b998a996344ab961f60e01b8b526101e060048c01526101e48b0191611401565b8881036003190160248a015291611401565b9360018060a01b03166044860152606485015260848401526064600435013560a48401526084600435013560c484015260a4600435013560e484015261010460c460043501358185015261012460e4600435013581860152610144916004350135828601526101649283860152600435013561018485015260043501356101a484015260043501356101c4830152038183875af1801561079157610765575b506001600160a01b036105e860048035016113ba565b16815260078352604081209081549168010000000000000000928381101561074f5761061991600182018155610d4a565b81546001600160a01b0360039290921b91821b19169085901b1790556008549182101561074f5760018201806008558210156107395760086000527ff3f7a9fe364faab93b216da50a3214154f22a0a2b415b23a84c8169e8b636ee390910180546001600160a01b031916831790558181526009835260409020805460ff19166001179055806106ac60048035016113ba565b7fdd5479823e9575209e71984c9a2a522984155b8d6d14bc57dafeed16d7bdf09a6106e16024600435016004356004016113ce565b61072a6106f86044600435016004356004016113ce565b610712604097929751958695604087526040870191611401565b8481038b8601526001600160a01b0390921696611401565b0390a360018055604051908152f35b634e487b7160e01b600052603260045260246000fd5b634e487b7160e01b600052604160045260246000fd5b67ffffffffffffffff811161077d57604052386105d2565b634e487b7160e01b82526041600452602482fd5b6040513d84823e3d90fd5b8880fd5b60405162461bcd60e51b8152600481018490526016602482015275115490cc4c4d8dce8818dc99585d194819985a5b195960521b6044820152606490fd5b5060a460043501351561042a565b60405162461bcd60e51b815260048101839052601f60248201527f5265656e7472616e637947756172643a207265656e7472616e742063616c6c006044820152606490fd5b5034610151578060031936011261015157602090604051908152f35b50346101515760403660031901126101515760ff604060209261086e610d19565b60043582528185528282206001600160a01b03909116825284522054604051911615158152f35b50346101515780600319360112610151576004546040516001600160a01b039091168152602090f35b503461015157602080600319360112610946576001600160a01b0391826108e3610d34565b168152600782526040812092604051908193808654938481520195845280842093915b83831061092d576109298661091d818a0382611204565b60405191829182610cd5565b0390f35b8454811687529581019560019485019490920191610906565b5080fd5b50346101515760203660031901126101515760209060ff906040906001600160a01b03610975610d34565b168152600984522054166040519015158152f35b503461015157806003193601126101515760206040517f5246556c0ab216b5b325ad7c539bfbd1a07c768773cdf810fecd3c3375c274078152f35b5034610151576020366003190112610151576004356008548110156109465760089091527ff3f7a9fe364faab93b216da50a3214154f22a0a2b415b23a84c8169e8b636ee301546040516001600160a01b039091168152602090f35b50346101515780600319360112610151576003546040516001600160a01b039091168152602090f35b50346101515780600319360112610151576002546040516001600160a01b039091168152602090f35b503461015157604036600319011261015157610a8c610d19565b336001600160a01b03821603610aa85761034e90600435611226565b60405162461bcd60e51b815260206004820152602f60248201527f416363657373436f6e74726f6c3a2063616e206f6e6c792072656e6f756e636560448201526e103937b632b9903337b91039b2b63360891b6064820152608490fd5b503461015157604036600319011261015157600435610b22610d19565b81835282602052610b3960016040852001546110ba565b818352602083815260408085206001600160a01b039093168086529290915283205460ff1615610b67578280f35b818352826020526040832081845260205260408320600160ff1982541617905533917f2f8788117e7eff1d82e926ec794901d17c78024a50270940304540a733656f0d8480a438808280f35b5034610151578060031936011261015157604051600880548083529083526020808301937ff3f7a9fe364faab93b216da50a3214154f22a0a2b415b23a84c8169e8b636ee392915b828210610c12576109298561091d81890382611204565b83546001600160a01b031686529485019460019384019390910190610bfb565b503461015157602036600319011261015157600160406020926004358152808452200154604051908152f35b50346101515780600319360112610151576020600554604051908152f35b9050346109465760203660031901126109465760043563ffffffff60e01b8116809103610cd15760209250637965db0b60e01b8114908115610cc0575b5015158152f35b6301ffc9a760e01b14905038610cb9565b8280fd5b6020908160408183019282815285518094520193019160005b828110610cfc575050505090565b83516001600160a01b031685529381019392810192600101610cee565b602435906001600160a01b0382168203610d2f57565b600080fd5b600435906001600160a01b0382168203610d2f57565b80548210156107395760005260206000200190600090565b3360009081527f0790b0aaeb4157b4822815d95bf3d9318a1561c876c520e6cca704be6f4d63a66020908152604080832054909291907f5246556c0ab216b5b325ad7c539bfbd1a07c768773cdf810fecd3c3375c274079060ff1615610dc85750505050565b610dd1336112ab565b90845190610dde826111e8565b60428252838201946060368737825115610f805760308653825190600191821015610f805790607860218501536041915b818311610f1257505050610ed05784610e9e6048610ec2936044979851988991610e8f8984019876020b1b1b2b9b9a1b7b73a3937b61d1030b1b1b7bab73a1604d1b8a52610e66815180928d6037890191016111c5565b8401917001034b99036b4b9b9b4b733903937b6329607d1b6037840152518093868401906111c5565b01036028810189520187611204565b5194859362461bcd60e51b85526004850152518092816024860152858501906111c5565b601f01601f19168101030190fd5b60648386519062461bcd60e51b825280600483015260248201527f537472696e67733a20686578206c656e67746820696e73756666696369656e746044820152fd5b909192600f81166010811015610f6c576f181899199a1a9b1b9c1cb0b131b232b360811b901a610f42858761129a565b5360041c928015610f5857600019019190610e0f565b634e487b7160e01b82526011600452602482fd5b634e487b7160e01b83526032600452602483fd5b634e487b7160e01b81526032600452602490fd5b3360009081527fad3228b676f7d3cd4284a5443f17f1962b36e491b30a40b2405849e597ba5fb560209081526040808320549092919060ff1615610fd757505050565b610fe0336112ab565b835183610fec826111e8565b60428252838201946060368737825115610f805760308653825190600191821015610f805790607860218501536041915b81831161107457505050610ed05784610e9e6048610ec2936044979851988991610e8f8984019876020b1b1b2b9b9a1b7b73a3937b61d1030b1b1b7bab73a1604d1b8a52610e66815180928d6037890191016111c5565b909192600f81166010811015610f6c576f181899199a1a9b1b9c1cb0b131b232b360811b901a6110a4858761129a565b5360041c928015610f585760001901919061101d565b60008181526020818152604092838320338452825260ff8484205416156110e15750505050565b6110ea336112ab565b908451906110f7826111e8565b60428252838201946060368737825115610f805760308653825190600191821015610f805790607860218501536041915b81831161117f57505050610ed05784610e9e6048610ec2936044979851988991610e8f8984019876020b1b1b2b9b9a1b7b73a3937b61d1030b1b1b7bab73a1604d1b8a52610e66815180928d6037890191016111c5565b909192600f81166010811015610f6c576f181899199a1a9b1b9c1cb0b131b232b360811b901a6111af858761129a565b5360041c928015610f5857600019019190611128565b60005b8381106111d85750506000910152565b81810151838201526020016111c8565b6080810190811067ffffffffffffffff82111761074f57604052565b90601f8019910116810190811067ffffffffffffffff82111761074f57604052565b9060009180835282602052604083209160018060a01b03169182845260205260ff60408420541661125657505050565b80835282602052604083208284526020526040832060ff1981541690557ff6391f5c32d9c69d2a47ea670b442974b53935d1edc7fd64eb21e047a839171b339380a4565b908151811015610739570160200190565b604051906060820182811067ffffffffffffffff82111761074f57604052602a82526020820160403682378251156107395760309053815160019081101561073957607860218401536029905b80821161134c5750506113085790565b606460405162461bcd60e51b815260206004820152602060248201527f537472696e67733a20686578206c656e67746820696e73756666696369656e746044820152fd5b9091600f811660108110156113a5576f181899199a1a9b1b9c1cb0b131b232b360811b901a61137b848661129a565b5360041c9180156113905760001901906112f8565b60246000634e487b7160e01b81526011600452fd5b60246000634e487b7160e01b81526032600452fd5b356001600160a01b0381168103610d2f5790565b903590601e1981360301821215610d2f570180359067ffffffffffffffff8211610d2f57602001918136038313610d2f57565b908060209392818452848401376000828201840152601f01601f191601019056fea2646970667358221220f051ba57f96491bc9fa5c46fb1ad51dcfadd55073b603d50cc52b7720c450d5964736f6c634300081300332f8788117e7eff1d82e926ec794901d17c78024a50270940304540a733656f0d",
  "linkReferences": {},
  "deployedLinkReferences": {}
}