{
  "_format": "hh-sol-artifact-1",
  "contractName": "MetaTransactionForwarder",
  "sourceName": "contracts/MetaTransactionForwarder.sol",
  "abi": [
    {
      "inputs": [],
      "stateMutability": "nonpayable",
      "type": "constructor"
    },
    {
      "inputs": [],
      "name": "DeadlineExpired",
      "type": "error"
    },
    {
      "inputs": [
        {
          "internalType": "bytes",
          "name": "returnData",
          "type": "bytes"
        }
      ],
      "name": "ExecutionFailed",
      "type": "error"
    },
    {
      "inputs": [],
      "name": "InvalidNonce",
      "type": "error"
    },
    {
      "inputs": [],
      "name": "InvalidShortString",
      "type": "error"
    },
    {
      "inputs": [],
      "name": "InvalidSignature",
      "type": "error"
    },
    {
      "inputs": [
        {
          "internalType": "string",
          "name": "str",
          "type": "string"
        }
      ],
      "name": "StringTooLong",
      "type": "error"
    },
    {
      "inputs": [],
      "name": "TargetNotAllowed",
      "type": "error"
    },
    {
      "inputs": [],
      "name": "ZeroAddress",
      "type": "error"
    },
    {
      "anonymous": false,
      "inputs": [],
      "name": "EIP712DomainChanged",
      "type": "event"
    },
    {
      "anonymous": false,
      "inputs": [
        {
          "indexed": true,
          "internalType": "address",
          "name": "from",
          "type": "address"
        },
        {
          "indexed": true,
          "internalType": "address",
          "name": "to",
          "type": "address"
        },
        {
          "indexed": false,
          "internalType": "bytes",
          "name": "data",
          "type": "bytes"
        },
        {
          "indexed": false,
          "internalType": "uint256",
          "name": "nonce",
          "type": "uint256"
        },
        {
          "indexed": false,
          "internalType": "bool",
          "name": "success",
          "type": "bool"
        }
      ],
      "name": "MetaTxExecuted",
      "type": "event"
    },
    {
      "anonymous": false,
      "inputs": [
        {
          "indexed": true,
          "internalType": "address",
          "name": "relayer",
          "type": "address"
        }
      ],
      "name": "RelayerAdded",
      "type": "event"
    },
    {
      "anonymous": false,
      "inputs": [
        {
          "indexed": true,
          "internalType": "address",
          "name": "relayer",
          "type": "address"
        }
      ],
      "name": "RelayerRemoved",
      "type": "event"
    },
    {
      "anonymous": false,
      "inputs": [
        {
          "indexed": true,
          "internalType": "bytes32",
          "name": "role",
          "type": "bytes32"
        },
        {
          "indexed": true,
          "internalType": "bytes32",
          "name": "previousAdminRole",
          "type": "bytes32"
        },
        {
          "indexed": true,
          "internalType": "bytes32",
          "name": "newAdminRole",
          "type": "bytes32"
        }
      ],
      "name": "RoleAdminChanged",
      "type": "event"
    },
    {
      "anonymous": false,
      "inputs": [
        {
          "indexed": true,
          "internalType": "bytes32",
          "name": "role",
          "type": "bytes32"
        },
        {
          "indexed": true,
          "internalType": "address",
          "name": "account",
          "type": "address"
        },
        {
          "indexed": true,
          "internalType": "address",
          "name": "sender",
          "type": "address"
        }
      ],
      "name": "RoleGranted",
      "type": "event"
    },
    {
      "anonymous": false,
      "inputs": [
        {
          "indexed": true,
          "internalType": "bytes32",
          "name": "role",
          "type": "bytes32"
        },
        {
          "indexed": true,
          "internalType": "address",
          "name": "account",
          "type": "address"
        },
        {
          "indexed": true,
          "internalType": "address",
          "name": "sender",
          "type": "address"
        }
      ],
      "name": "RoleRevoked",
      "type": "event"
    },
    {
      "anonymous": false,
      "inputs": [
        {
          "indexed": true,
          "internalType": "address",
          "name": "target",
          "type": "address"
        },
        {
          "indexed": false,
          "internalType": "bool",
          "name": "allowed",
          "type": "bool"
        }
      ],
      "name": "TargetAllowed",
      "type": "event"
    },
    {
      "inputs": [],
      "name": "DEFAULT_ADMIN_ROLE",
      "outputs": [
        {
          "internalType": "bytes32",
          "name": "",
          "type": "bytes32"
        }
      ],
      "stateMutability": "view",
      "type": "function"
    },
    {
      "inputs": [],
      "name": "PLATFORM_ADMIN_ROLE",
      "outputs": [
        {
          "internalType": "bytes32",
          "name": "",
          "type": "bytes32"
        }
      ],
      "stateMutability": "view",
      "type": "function"
    },
    {
      "inputs": [],
      "name": "RELAYER_ROLE",
      "outputs": [
        {
          "internalType": "bytes32",
          "name": "",
          "type": "bytes32"
        }
      ],
      "stateMutability": "view",
      "type": "function"
    },
    {
      "inputs": [
        {
          "internalType": "address",
          "name": "relayer",
          "type": "address"
        }
      ],
      "name": "addRelayer",
      "outputs": [],
      "stateMutability": "nonpayable",
      "type": "function"
    },
    {
      "inputs": [],
      "name": "domainSeparator",
      "outputs": [
        {
          "internalType": "bytes32",
          "name": "",
          "type": "bytes32"
        }
      ],
      "stateMutability": "view",
      "type": "function"
    },
    {
      "inputs": [],
      "name": "eip712Domain",
      "outputs": [
        {
          "internalType": "bytes1",
          "name": "fields",
          "type": "bytes1"
        },
        {
          "internalType": "string",
          "name": "name",
          "type": "string"
        },
        {
          "internalType": "string",
          "name": "version",
          "type": "string"
        },
        {
          "internalType": "uint256",
          "name": "chainId",
          "type": "uint256"
        },
        {
          "internalType": "address",
          "name": "verifyingContract",
          "type": "address"
        },
        {
          "internalType": "bytes32",
          "name": "salt",
          "type": "bytes32"
        },
        {
          "internalType": "uint256[]",
          "name": "extensions",
          "type": "uint256[]"
        }
      ],
      "stateMutability": "view",
      "type": "function"
    },
    {
      "inputs": [],
      "name": "enforceTargetWhitelist",
      "outputs": [
        {
          "internalType": "bool",
          "name": "",
          "type": "bool"
        }
      ],
      "stateMutability": "view",
      "type": "function"
    },
    {
      "inputs": [
        {
          "components": [
            {
              "internalType": "address",
              "name": "from",
              "type": "address"
            },
            {
              "internalType": "address",
              "name": "to",
              "type": "address"
            },
            {
              "internalType": "uint256",
              "name": "value",
              "type": "uint256"
            },
            {
              "internalType": "uint256",
              "name": "gas",
              "type": "uint256"
            },
            {
              "internalType": "uint256",
              "name": "nonce",
              "type": "uint256"
            },
            {
              "internalType": "bytes",
              "name": "data",
              "type": "bytes"
            },
            {
              "internalType": "uint256",
              "name": "deadline",
              "type": "uint256"
            }
          ],
          "internalType": "struct MetaTransactionForwarder.MetaTransaction",
          "name": "metaTx",
          "type": "tuple"
        },
        {
          "internalType": "bytes",
          "name": "signature",
          "type": "bytes"
        }
      ],
      "name": "execute",
      "outputs": [
        {
          "internalType": "bool",
          "name": "success",
          "type": "bool"
        },
        {
          "internalType": "bytes",
          "name": "returnData",
          "type": "bytes"
        }
      ],
      "stateMutability": "nonpayable",
      "type": "function"
    },
    {
      "inputs": [
        {
          "internalType": "address",
          "name": "user",
          "type": "address"
        }
      ],
      "name": "getNonce",
      "outputs": [
        {
          "internalType": "uint256",
          "name": "",
          "type": "uint256"
        }
      ],
      "stateMutability": "view",
      "type": "function"
    },
    {
      "inputs": [
        {
          "internalType": "bytes32",
          "name": "role",
          "type": "bytes32"
        }
      ],
      "name": "getRoleAdmin",
      "outputs": [
        {
          "internalType": "bytes32",
          "name": "",
          "type": "bytes32"
        }
      ],
      "stateMutability": "view",
      "type": "function"
    },
    {
      "inputs": [
        {
          "internalType": "bytes32",
          "name": "role",
          "type": "bytes32"
        },
        {
          "internalType": "address",
          "name": "account",
          "type": "address"
        }
      ],
      "name": "grantRole",
      "outputs": [],
      "stateMutability": "nonpayable",
      "type": "function"
    },
    {
      "inputs": [
        {
          "internalType": "bytes32",
          "name": "role",
          "type": "bytes32"
        },
        {
          "internalType": "address",
          "name": "account",
          "type": "address"
        }
      ],
      "name": "hasRole",
      "outputs": [
        {
          "internalType": "bool",
          "name": "",
          "type": "bool"
        }
      ],
      "stateMutability": "view",
      "type": "function"
    },
    {
      "inputs": [
        {
          "internalType": "address",
          "name": "",
          "type": "address"
        }
      ],
      "name": "isTargetAllowed",
      "outputs": [
        {
          "internalType": "bool",
          "name": "",
          "type": "bool"
        }
      ],
      "stateMutability": "view",
      "type": "function"
    },
    {
      "inputs": [
        {
          "internalType": "address",
          "name": "",
          "type": "address"
        }
      ],
      "name": "nonces",
      "outputs": [
        {
          "internalType": "uint256",
          "name": "",
          "type": "uint256"
        }
      ],
      "stateMutability": "view",
      "type": "function"
    },
    {
      "inputs": [
        {
          "internalType": "address",
          "name": "relayer",
          "type": "address"
        }
      ],
      "name": "removeRelayer",
      "outputs": [],
      "stateMutability": "nonpayable",
      "type": "function"
    },
    {
      "inputs": [
        {
          "internalType": "bytes32",
          "name": "role",
          "type": "bytes32"
        },
        {
          "internalType": "address",
          "name": "account",
          "type": "address"
        }
      ],
      "name": "renounceRole",
      "outputs": [],
      "stateMutability": "nonpayable",
      "type": "function"
    },
    {
      "inputs": [
        {
          "internalType": "bytes32",
          "name": "role",
          "type": "bytes32"
        },
        {
          "internalType": "address",
          "name": "account",
          "type": "address"
        }
      ],
      "name": "revokeRole",
      "outputs": [],
      "stateMutability": "nonpayable",
      "type": "function"
    },
    {
      "inputs": [
        {
          "internalType": "bool",
          "name": "enforce",
          "type": "bool"
        }
      ],
      "name": "setEnforceTargetWhitelist",
      "outputs": [],
      "stateMutability": "nonpayable",
      "type": "function"
    },
    {
      "inputs": [
        {
          "internalType": "address",
          "name": "target",
          "type": "address"
        },
        {
          "internalType": "bool",
          "name": "allowed",
          "type": "bool"
        }
      ],
      "name": "setTargetAllowed",
      "outputs": [],
      "stateMutability": "nonpayable",
      "type": "function"
    },
    {
      "inputs": [
        {
          "internalType": "bytes4",
          "name": "interfaceId",
          "type": "bytes4"
        }
      ],
      "name": "supportsInterface",
      "outputs": [
        {
          "internalType": "bool",
          "name": "",
          "type": "bool"
        }
      ],
      "stateMutability": "view",
      "type": "function"
    },
    {
      "inputs": [
        {
          "components": [
            {
              "internalType": "address",
              "name": "from",
              "type": "address"
            },
            {
              "internalType": "address",
              "name": "to",
              "type": "address"
            },
            {
              "internalType": "uint256",
              "name": "value",
              "type": "uint256"
            },
            {
              "internalType": "uint256",
              "name": "gas",
              "type": "uint256"
            },
            {
              "internalType": "uint256",
              "name": "nonce",
              "type": "uint256"
            },
            {
              "internalType": "bytes",
              "name": "data",
              "type": "bytes"
            },
            {
              "internalType": "uint256",
              "name": "deadline",
              "type": "uint256"
            }
          ],
          "internalType": "struct MetaTransactionForwarder.MetaTransaction",
          "name": "metaTx",
          "type": "tuple"
        },
        {
          "internalType": "bytes",
          "name": "signature",
          "type": "bytes"
        }
      ],
      "name": "verify",
      "outputs": [
        {
          "internalType": "bool",
          "name": "valid",
          "type": "bool"
        }
      ],
      "stateMutability": "view",
      "type": "function"
    }
  ],
  "bytecode": "0x6101606040818152346200031c57620000188262000321565b601b82526020918281017f43726561746f72546f6b204d657461205472616e73616374696f6e00000000008152825193620000538562000321565b60018552808501603160f81b81526200006c846200033d565b926101209384526200007e8762000514565b94610140958652519020958660e05251902093610100958587524660a052815195838701917f8b73c3c69bb8fe3d512ecc4cf759cc79239f7b179b0ffacaa9a75d522b39400f83528388015260608701524660808701523060a087015260a0865260c086019580871060018060401b0388111762000306578683525190206080523060c052600090818052818352808220338352835260ff818320541615620002ac575b7f5246556c0ab216b5b325ad7c539bfbd1a07c768773cdf810fecd3c3375c27407808352828452818320338452845260ff82842054161562000250575b507fe2b7fb3b832174769106daebcfd6d1970523240dda11281102db9363b83b0dc492838352828152818320338452815260ff828420541615620001f2575b5050505060ff1960055416600555611b139384620006cd8539608051846118be015260a0518461198a015260c05184611888015260e0518461190d015251836119330152518261035f015251816103880152f35b83835282815281832033845290528120805460ff1916600117905560143610620002495736601319013560601c5b6001600160a01b0316913391600080516020620021e08339815191529080a4388080806200019e565b3362000220565b8083528284528183203384528452818320805460ff1916600117905560143610620002a55736601319013560601c5b6001600160a01b0316903390600080516020620021e08339815191528580a4386200015f565b336200027f565b8180528183528082203383528352808220805460ff1916600117905560143610620002ff5736601319013560601c5b6001600160a01b03163383600080516020620021e08339815191528180a462000122565b33620002db565b634e487b7160e01b600052604160045260246000fd5b600080fd5b604081019081106001600160401b038211176200030657604052565b805160209081811015620003da5750601f8251116200037957808251920151908083106200036a57501790565b82600019910360031b1b161790565b90604051809263305a27a960e01b82528060048301528251908160248401526000935b828510620003c0575050604492506000838284010152601f80199101168101030190fd5b84810182015186860160440152938101938593506200039c565b9192916001600160401b038111620003065760019182548381811c9116801562000509575b82821014620004f357601f8111620004ba575b5080601f83116001146200045257508192939460009262000446575b5050600019600383901b1c191690821b17905560ff90565b0151905038806200042e565b90601f198316958460005282600020926000905b888210620004a2575050838596971062000488575b505050811b01905560ff90565b015160001960f88460031b161c191690553880806200047b565b80878596829496860151815501950193019062000466565b8360005283601f83600020920160051c820191601f850160051c015b828110620004e657505062000412565b60008155018490620004d6565b634e487b7160e01b600052602260045260246000fd5b90607f1690620003ff565b805160209081811015620005a25750601f8251116200054157808251920151908083106200036a57501790565b90604051809263305a27a960e01b82528060048301528251908160248401526000935b82851062000588575050604492506000838284010152601f80199101168101030190fd5b848101820151868601604401529381019385935062000564565b906001600160401b0382116200030657600254926001938481811c91168015620006c1575b83821014620004f357601f811162000687575b5081601f84116001146200061b57509282939183926000946200060f575b50501b916000199060031b1c19161760025560ff90565b015192503880620005f8565b919083601f198116600260005284600020946000905b888383106200066c575050501062000652575b505050811b0160025560ff90565b015160001960f88460031b161c1916905538808062000644565b85870151885590960195948501948793509081019062000631565b600260005284601f84600020920160051c820191601f860160051c015b828110620006b4575050620005da565b60008155018590620006a4565b90607f1690620005c756fe6080604052600436101561001257600080fd5b60003560e01c8063019fe88514610da857806301ffc9a714610d52578063248a9ca314610d235780632abf912c14610d005780632d0335ab146104695780632f2ff15d14610c4357806336568abe14610ba75780633a3d56fa14610b2157806344d46c8e146106155780635309fa47146105d657806360f0a5ac146104de578063685d34ff146104a35780637ecebe001461046957806384b0196e1461034957806391d14854146102fc578063926d7d7f146102d35780639aa0c1521461029a578063a217fddf1461027e578063d547741f1461023d578063dd39f00d1461012b5763f698da251461010357600080fd5b3461012657600036600319011261012657602061011e611885565b604051908152f35b600080fd5b3461012657602036600319011261012657610144610e32565b61014c610ea6565b6001600160a01b0390811690811561022b5760008281527ffaf93c3d007e112089dc8351e013e6685ef67703975d0224b26fc45941d4f1f56020526040902054600080516020611abe83398151915291839160ff16156101cf575b507f03580ee9f53a62b7cb409a2cb56f9be87747dd15017afc5cef6eef321e4fb2c5600080a2005b8260005260006020526040600020826000526020526040600020600160ff198254161790556101fc611aa5565b16917f2f8788117e7eff1d82e926ec794901d17c78024a50270940304540a733656f0d600080a48181816101a7565b60405163d92e233d60e01b8152600490fd5b346101265760403660031901126101265761027c60043561025c610e48565b908060005260006020526102776001604060002001546110a9565b611221565b005b3461012657600036600319011261012657602060405160008152f35b3461012657602036600319011261012657600435801515809103610126576102c0610ea6565b60ff801960055416911617600555600080f35b34610126576000366003190112610126576020604051600080516020611abe8339815191528152f35b3461012657604036600319011261012657610315610e48565b600435600052600060205260406000209060018060a01b0316600052602052602060ff604060002054166040519015158152f35b34610126576000366003190112610126576103837f00000000000000000000000000000000000000000000000000000000000000006113a2565b6103ac7f00000000000000000000000000000000000000000000000000000000000000006114c9565b60405160208082019282841067ffffffffffffffff85111761045357918161040685946103f8979660405260008452604051978897600f60f81b895260e0858a015260e0890190610e81565b908782036040890152610e81565b91466060870152306080870152600060a087015285830360c0870152519182815201929160005b82811061043c57505050500390f35b83518552869550938101939281019260010161042d565b634e487b7160e01b600052604160045260246000fd5b34610126576020366003190112610126576001600160a01b0361048a610e32565b1660005260036020526020604060002054604051908152f35b346101265760003660031901126101265760206040517f5246556c0ab216b5b325ad7c539bfbd1a07c768773cdf810fecd3c3375c274078152f35b34610126576020366003190112610126576104f7610e32565b6104ff610ea6565b6001600160a01b0390811660008181527ffaf93c3d007e112089dc8351e013e6685ef67703975d0224b26fc45941d4f1f560205260409020549091600080516020611abe8339815191529183919060ff1661057d575b507f10e1f7ce9fd7d1b90a66d13a2ab3cb8dd7f29f3f8d520b143b063ccfbab6906b600080a2005b826000526000602052604060002082600052602052604060002060ff1981541690556105a7611aa5565b16917ff6391f5c32d9c69d2a47ea670b442974b53935d1edc7fd64eb21e047a839171b600080a4818181610555565b34610126576020366003190112610126576001600160a01b036105f7610e32565b166000526004602052602060ff604060002054166040519015158152f35b346101265761062336610dcb565b9061062c611aa5565b6001600160a01b031660008181527ffaf93c3d007e112089dc8351e013e6685ef67703975d0224b26fc45941d4f1f56020526040902054600080516020611abe833981519152919060ff161561098c57505060c083013580421161097a576001600160a01b0361069b8561159f565b1660005260036020526040600020546080850135036109685760ff600554168061093b575b61092957836106ce8161159f565b9360208201936106dd8561159f565b936106eb60a08501856115b3565b36906106f6926115e6565b805190602001209060405197889160208301936060880135988960408a01356080819b013592610726968961161d565b0396601f1997888101825261073b90826111ff565b5190206107479061185f565b913690610753926115e6565b61075c91611798565b6107659061167e565b6001600160a01b036107768761159f565b166001600160a01b0390911603610917576001600160a01b036107988661159f565b166000526003602052604060002080546000198114610901576080937f4c5f49eab9978d45f3690b6b36724de3a2dc79b75b49ad70c0665a6798e4ba6d93600093600185940190556107ed60a08a018a6115b3565b61083660346107fe8d95949561159f565b9260405193818592602084019889378201906bffffffffffffffffffffffff199060601b1660208201520360148101845201826111ff565b61083f8961159f565b905193f13d156108f857823d96610855886112aa565b97610863604051998a6111ff565b88523d600060208a013e5b61088061087a8261159f565b9661159f565b96601f61089060a08401846115b3565b978896919460405197889660608852816060890152838801376000868b0183015201356020850152151560408401819052986001600160a01b0390811698169601168101030190a36108f46040519283928352604060208401526040830190610e81565b0390f35b8260609661086e565b634e487b7160e01b600052601160045260246000fd5b604051638baa579f60e01b8152600490fd5b6040516348cbf26d60e01b8152600490fd5b506001600160a01b036109506020860161159f565b16600052600460205260ff60406000205416156106c0565b604051633ab3447f60e11b8152600490fd5b604051631ab7da6b60e01b8152600490fd5b610995906112d7565b604051916109a2836111e3565b6042835260208301906060368337835115610b0b57603082538351600190811015610b0b57607860218601536041905b808211610ac7575050610a83576048610a5092610a5f92610a7f9560405195869376020b1b1b2b9b9a1b7b73a3937b61d1030b1b1b7bab73a1604d1b6020860152610a27815180926020603789019101610e5e565b8401917001034b99036b4b9b9b4b733903937b6329607d1b603784015251809386840190610e5e565b010360288101845201826111ff565b60405162461bcd60e51b8152602060048201529182916024830190610e81565b0390fd5b606460405162461bcd60e51b815260206004820152602060248201527f537472696e67733a20686578206c656e67746820696e73756666696369656e746044820152fd5b9091600f81166010811015610b0b576f181899199a1a9b1b9c1cb0b131b232b360811b901a610af684886112c6565b5360041c9180156109015760001901906109d2565b634e487b7160e01b600052603260045260246000fd5b3461012657604036600319011261012657610b3a610e32565b6024359081151580920361012657610b50610ea6565b6001600160a01b031690811561022b5760207fa15b89ddfd4f8f39b42c00d0e35440aa574da8d20d9e1d886e42edf16ce9ad4c918360005260048252604060002060ff1981541660ff8316179055604051908152a2005b3461012657604036600319011261012657610bc0610e48565b6001600160a01b0380610bd1611aa5565b1690821603610be65761027c90600435611221565b60405162461bcd60e51b815260206004820152602f60248201527f416363657373436f6e74726f6c3a2063616e206f6e6c792072656e6f756e636560448201526e103937b632b9903337b91039b2b63360891b6064820152608490fd5b3461012657604036600319011261012657600435610c5f610e48565b816000526000602052610c796001604060002001546110a9565b81600052600060205260406000209060018060a01b03809116918260005260205260ff6040600020541615610caa57005b8260005260006020526040600020826000526020526040600020600160ff19825416179055610cd7611aa5565b16917f2f8788117e7eff1d82e926ec794901d17c78024a50270940304540a733656f0d600080a4005b3461012657600036600319011261012657602060ff600554166040519015158152f35b346101265760203660031901126101265760043560005260006020526020600160406000200154604051908152f35b346101265760203660031901126101265760043563ffffffff60e01b811680910361012657602090637965db0b60e01b8114908115610d97575b506040519015158152f35b6301ffc9a760e01b14905082610d8c565b34610126576020610dc1610dbb36610dcb565b916119b0565b6040519015158152f35b90600319906040828401126101265760043567ffffffffffffffff928382116101265760e090828603011261012657600401926024359083821161012657806023830112156101265781600401359384116101265760248483010111610126576024019190565b600435906001600160a01b038216820361012657565b602435906001600160a01b038216820361012657565b60005b838110610e715750506000910152565b8181015183820152602001610e61565b90602091610e9a81518092818552858086019101610e5e565b601f01601f1916010190565b610eae611aa5565b6001600160a01b031660008181527f0790b0aaeb4157b4822815d95bf3d9318a1561c876c520e6cca704be6f4d63a66020908152604080832054909391927f5246556c0ab216b5b325ad7c539bfbd1a07c768773cdf810fecd3c3375c2740792909160ff1615610f1f575050505050565b610f28906112d7565b91845190610f35826111e3565b6042825284820192606036853782511561109557603084538251906001918210156110955790607860218501536041915b81831161102757505050610fe5576048610a7f938693610fc993610fba985198899376020b1b1b2b9b9a1b7b73a3937b61d1030b1b1b7bab73a1604d1b8a860152610a27815180928c603789019101610e5e565b010360288101875201856111ff565b5192839262461bcd60e51b845260048401526024830190610e81565b60648486519062461bcd60e51b825280600483015260248201527f537472696e67733a20686578206c656e67746820696e73756666696369656e746044820152fd5b909192600f81166010811015611081576f181899199a1a9b1b9c1cb0b131b232b360811b901a61105785876112c6565b5360041c92801561106d57600019019190610f66565b634e487b7160e01b82526011600452602482fd5b634e487b7160e01b83526032600452602483fd5b634e487b7160e01b81526032600452602490fd5b6110b1611aa5565b906000908082526020918083526040938482209060018060a01b031690818352845260ff8583205416156110e6575050505050565b6110ef906112d7565b918451906110fc826111e3565b6042825284820192606036853782511561109557603084538251906001918210156110955790607860218501536041915b81831161118157505050610fe5576048610a7f938693610fc993610fba985198899376020b1b1b2b9b9a1b7b73a3937b61d1030b1b1b7bab73a1604d1b8a860152610a27815180928c603789019101610e5e565b909192600f81166010811015611081576f181899199a1a9b1b9c1cb0b131b232b360811b901a6111b185876112c6565b5360041c92801561106d5760001901919061112d565b6040810190811067ffffffffffffffff82111761045357604052565b6080810190811067ffffffffffffffff82111761045357604052565b90601f8019910116810190811067ffffffffffffffff82111761045357604052565b6000818152602081815260408083206001600160a01b039586168085529252822054919390929160ff16611256575b50505050565b7ff6391f5c32d9c69d2a47ea670b442974b53935d1edc7fd64eb21e047a839171b9082855284602052604085208486526020526040852060ff19815416905561129d611aa5565b169380a438808080611250565b67ffffffffffffffff811161045357601f01601f191660200190565b908151811015610b0b570160200190565b604051906060820182811067ffffffffffffffff82111761045357604052602a8252602082016040368237825115610b0b57603090538151600190811015610b0b57607860218401536029905b808211611334575050610a835790565b9091600f8116601081101561138d576f181899199a1a9b1b9c1cb0b131b232b360811b901a61136384866112c6565b5360041c918015611378576000190190611324565b60246000634e487b7160e01b81526011600452fd5b60246000634e487b7160e01b81526032600452fd5b60ff81146113e05760ff811690601f82116113ce57604051916113c4836111c7565b8252602082015290565b604051632cd44ac360e21b8152600490fd5b50604051600060019081549182811c908084169384156114bf575b60209485841081146114ab578387528694939291811561148b575060011461142f575b505061142c925003826111ff565b90565b60008181527fb10e2d527612073b26eecdfd717e6a320cf44b4afac2b0732d9fcbe2b7fa0cf695935091905b81831061147357505061142c9350820101388061141e565b8554878401850152948501948694509183019161145b565b91505061142c94925060ff191682840152151560051b820101388061141e565b634e487b7160e01b85526022600452602485fd5b91607f16916113fb565b60ff81146114eb5760ff811690601f82116113ce57604051916113c4836111c7565b50604051600060025490600182811c90808416938415611595575b60209485841081146114ab578387528694939291811561148b575060011461153657505061142c925003826111ff565b9093915060026000527f405787fa12a823e0f2b7631cc41b3ba8828b3321ca811111fa75cd3aa3bb5ace936000915b81831061157d57505061142c9350820101388061141e565b85548784018501529485019486945091830191611565565b91607f1691611506565b356001600160a01b03811681036101265790565b903590601e1981360301821215610126570180359067ffffffffffffffff82116101265760200191813603831361012657565b9291926115f2826112aa565b9161160060405193846111ff565b829481845281830111610126578281602093846000960137010152565b93909260e09592989796936101008601997fdfda34b7bac6fd61fb892a6c112b3f89c2a35bf7a9cbacfe739392f72d4a03a5875260018060a01b0380921660208801521660408601526060850152608084015260a083015260c08201520152565b6005811015611782578061168f5750565b600181036116dc5760405162461bcd60e51b815260206004820152601860248201527f45434453413a20696e76616c6964207369676e617475726500000000000000006044820152606490fd5b600281036117295760405162461bcd60e51b815260206004820152601f60248201527f45434453413a20696e76616c6964207369676e6174757265206c656e677468006044820152606490fd5b60031461173257565b60405162461bcd60e51b815260206004820152602260248201527f45434453413a20696e76616c6964207369676e6174757265202773272076616c604482015261756560f01b6064820152608490fd5b634e487b7160e01b600052602160045260246000fd5b9060418151146000146117c6576117c2916020820151906060604084015193015160001a906117d0565b9091565b5050600090600290565b9291907f7fffffffffffffffffffffffffffffff5d576e7357a4501ddfe92f46681b20a083116118535791608094939160ff602094604051948552168484015260408301526060820152600093849182805260015afa156118465781516001600160a01b03811615611840579190565b50600190565b50604051903d90823e3d90fd5b50505050600090600390565b60429061186a611885565b906040519161190160f01b8352600283015260228201522090565b307f00000000000000000000000000000000000000000000000000000000000000006001600160a01b03161480611987575b156118e0577f000000000000000000000000000000000000000000000000000000000000000090565b60405160208101907f8b73c3c69bb8fe3d512ecc4cf759cc79239f7b179b0ffacaa9a75d522b39400f82527f000000000000000000000000000000000000000000000000000000000000000060408201527f000000000000000000000000000000000000000000000000000000000000000060608201524660808201523060a082015260a0815260c0810181811067ffffffffffffffff8211176104535760405251902090565b507f000000000000000000000000000000000000000000000000000000000000000046146118b7565b60c081013591824211611a9c576001600160a01b039260808301359290846119d78361159f565b1660005260036020526040600020548403611a9157611a8595611a77611a8a94611a6f889786611a67611a7d97611a59611a108461159f565b91611a1d6020860161159f565b95611a35611a2e60a08801886115b3565b36916115e6565b6020815191012090604051968795602087019960406060840135930135918b61161d565b03601f1981018352826111ff565b51902061185f565b9236916115e6565b90611798565b95909561167e565b61159f565b1691161490565b505050505050600090565b50505050600090565b60143610611ab95736601319013560601c90565b339056fee2b7fb3b832174769106daebcfd6d1970523240dda11281102db9363b83b0dc4a2646970667358221220db2569566a9af5446a15b69175ed293ffdd6715c563a167934c3efdad85bfdc564736f6c634300081300332f8788117e7eff1d82e926ec794901d17c78024a50270940304540a733656f0d",
  "linkReferences": {},
  "deployedLinkReferences": {}
}