{"contracts/CreatorTokenFactory.sol":{"CreatorTokenFactory":{"abi":[{"inputs":[{"internalType":"address","name":"_implementation","type":"address"},{"internalType":"address","name":"_treasury","type":"address"},{"internalType":"address","name":"_reserveToken","type":"address"},{"internalType":"address","name":"_trustedForwarder","type":"address"},{"internalType":"uint256","name":"_platformFeeBps","type":"uint256"}],"stateMutability":"nonpayable","type":"constructor"},{"inputs":[],"name":"InvalidConfiguration","type":"error"},{"inputs":[],"name":"Unauthorized","type":"error"},{"inputs":[],"name":"ZeroAddress","type":"error"},{"anonymous":false,"inputs":[{"indexed":true,"internalType":"address","name":"creator","type":"address"},{"indexed":true,"internalType":"address","name":"token","type":"address"},{"indexed":false,"internalType":"string","name":"name","type":"string"},{"indexed":false,"internalType":"string","name":"symbol","type":"string"}],"name":"CreatorTokenCreated","type":"event"},{"anonymous":false,"inputs":[{"indexed":false,"internalType":"address","name":"newImplementation","type":"address"}],"name":"ImplementationUpdated","type":"event"},{"anonymous":false,"inputs":[{"indexed":false,"internalType":"uint256","name":"newBps","type":"uint256"}],"name":"PlatformFeeUpdated","type":"event"},{"anonymous":false,"inputs":[{"indexed":true,"internalType":"bytes32","name":"role","type":"bytes32"},{"indexed":true,"internalType":"bytes32","name":"previousAdminRole","type":"bytes32"},{"indexed":true,"internalType":"bytes32","name":"newAdminRole","type":"bytes32"}],"name":"RoleAdminChanged","type":"event"},{"anonymous":false,"inputs":[{"indexed":true,"internalType":"bytes32","name":"role","type":"bytes32"},{"indexed":true,"internalType":"address","name":"account","type":"address"},{"indexed":true,"internalType":"address","name":"sender","type":"address"}],"name":"RoleGranted","type":"event"},{"anonymous":false,"inputs":[{"indexed":true,"internalType":"bytes32","name":"role","type":"bytes32"},{"indexed":true,"internalType":"address","name":"account","type":"address"},{"indexed":true,"internalType":"address","name":"sender","type":"address"}],"name":"RoleRevoked","type":"event"},{"anonymous":false,"inputs":[{"indexed":false,"internalType":"address","name":"newForwarder","type":"address"}],"name":"TrustedForwarderUpdated","type":"event"},{"inputs":[],"name":"DEFAULT_ADMIN_ROLE","outputs":[{"internalType":"bytes32","name":"","type":"bytes32"}],"stateMutability":"view","type":"function"},{"inputs":[],"name":"PLATFORM_ADMIN_ROLE","outputs":[{"internalType":"bytes32","name":"","type":"bytes32"}],"stateMutability":"view","type":"function"},{"inputs":[{"internalType":"uint256","name":"","type":"uint256"}],"name":"allTokens","outputs":[{"internalType":"address","name":"","type":"address"}],"stateMutability":"view","type":"function"},{"inputs":[{"components":[{"internalType":"address","name":"creator","type":"address"},{"internalType":"string","name":"name","type":"string"},{"internalType":"string","name":"symbol","type":"string"},{"internalType":"uint256","name":"basePrice","type":"uint256"},{"internalType":"uint256","name":"k","type":"uint256"},{"internalType":"uint256","name":"initialSupplyLimit","type":"uint256"},{"internalType":"uint256","name":"minTokensForAccess","type":"uint256"},{"internalType":"uint256","name":"creatorBuyFeeBps","type":"uint256"},{"internalType":"uint256","name":"creatorSellFeeBps","type":"uint256"},{"internalType":"uint256","name":"maxSellPercentBps","type":"uint256"},{"internalType":"uint256","name":"sellWindowSeconds","type":"uint256"},{"internalType":"uint256","name":"sellWindowThresholdBps","type":"uint256"}],"internalType":"struct CreatorTokenFactory.CreateParams","name":"params","type":"tuple"}],"name":"createCreatorToken","outputs":[{"internalType":"address","name":"token","type":"address"}],"stateMutability":"nonpayable","type":"function"},{"inputs":[{"internalType":"address","name":"","type":"address"},{"internalType":"uint256","name":"","type":"uint256"}],"name":"creatorTokens","outputs":[{"internalType":"address","name":"","type":"address"}],"stateMutability":"view","type":"function"},{"inputs":[],"name":"getAllTokens","outputs":[{"internalType":"address[]","name":"tokens","type":"address[]"}],"stateMutability":"view","type":"function"},{"inputs":[{"internalType":"address","name":"creator","type":"address"}],"name":"getCreatorTokens","outputs":[{"internalType":"address[]","name":"tokens","type":"address[]"}],"stateMutability":"view","type":"function"},{"inputs":[{"internalType":"bytes32","name":"role","type":"bytes32"}],"name":"getRoleAdmin","outputs":[{"internalType":"bytes32","name":"","type":"bytes32"}],"stateMutability":"view","type":"function"},{"inputs":[],"name":"getTotalTokens","outputs":[{"internalType":"uint256","name":"count","type":"uint256"}],"stateMutability":"view","type":"function"},{"inputs":[{"internalType":"bytes32","name":"role","type":"bytes32"},{"internalType":"address","name":"account","type":"address"}],"name":"grantRole","outputs":[],"stateMutability":"nonpayable","type":"function"},{"inputs":[{"internalType":"bytes32","name":"role","type":"bytes32"},{"internalType":"address","name":"account","type":"address"}],"name":"hasRole","outputs":[{"internalType":"bool","name":"","type":"bool"}],"stateMutability":"view","type":"function"},{"inputs":[],"name":"implementation","outputs":[{"internalType":"address","name":"","type":"address"}],"stateMutability":"view","type":"function"},{"inputs":[{"internalType":"address","name":"","type":"address"}],"name":"isCreatorToken","outputs":[{"internalType":"bool","name":"","type":"bool"}],"stateMutability":"view","type":"function"},{"inputs":[],"name":"platformFeeBps","outputs":[{"internalType":"uint256","name":"","type":"uint256"}],"stateMutability":"view","type":"function"},{"inputs":[{"internalType":"bytes32","name":"role","type":"bytes32"},{"internalType":"address","name":"account","type":"address"}],"name":"renounceRole","outputs":[],"stateMutability":"nonpayable","type":"function"},{"inputs":[],"name":"reserveToken","outputs":[{"internalType":"address","name":"","type":"address"}],"stateMutability":"view","type":"function"},{"inputs":[{"internalType":"bytes32","name":"role","type":"bytes32"},{"internalType":"address","name":"account","type":"address"}],"name":"revokeRole","outputs":[],"stateMutability":"nonpayable","type":"function"},{"inputs":[{"internalType":"address","name":"newImplementation","type":"address"}],"name":"setImplementation","outputs":[],"stateMutability":"nonpayable","type":"function"},{"inputs":[{"internalType":"uint256","name":"newBps","type":"uint256"}],"name":"setPlatformFeeBps","outputs":[],"stateMutability":"nonpayable","type":"function"},{"inputs":[{"internalType":"address","name":"newTreasury","type":"address"}],"name":"setTreasury","outputs":[],"stateMutability":"nonpayable","type":"function"},{"inputs":[{"internalType":"address","name":"newForwarder","type":"address"}],"name":"setTrustedForwarder","outputs":[],"stateMutability":"nonpayable","type":"function"},{"inputs":[{"internalType":"bytes4","name":"interfaceId","type":"bytes4"}],"name":"supportsInterface","outputs":[{"internalType":"bool","name":"","type":"bool"}],"stateMutability":"view","type":"function"},{"inputs":[],"name":"treasury","outputs":[{"internalType":"address","name":"","type":"address"}],"stateMutability":"view","type":"function"},{"inputs":[],"name":"trustedForwarder","outputs":[{"internalType":"address","name":"","type":"address"}],"stateMutability":"view","type":"function"}],"evm":{"bytecode":{"linkReferences":{},"object":"608034620001e857601f6200169138819003918201601f191683019291906001600160401b03841183851017620001ed578160a09284926040968752833981010312620001e857620000518162000203565b906020916200006283830162000203565b906200007085840162000203565b926080620000816060830162000203565b91015160018055936001600160a01b039283169384158015620001dd575b8015620001d2575b620001c1579083809260018060a01b0319968760025416176002551685600354161760035516836006541617600655169060045416176004556005556000808052808252828120338252825260ff83822054161562000189575b7f5246556c0ab216b5b325ad7c539bfbd1a07c768773cdf810fecd3c3375c2740791828252818152838220338352815260ff8483205416156200014e575b83516114589081620002198239f35b8282528181528382209033835252828120600160ff19825416179055339160008051602062001671833981519152339280a43880806200013f565b8080528082528281203382528252828120600160ff19825416179055333382600080516020620016718339815191528180a462000101565b875163d92e233d60e01b8152600490fd5b5083821615620000a7565b50838116156200009f565b600080fd5b634e487b7160e01b600052604160045260246000fd5b51906001600160a01b0382168203620001e85756fe608080604052600436101561001357600080fd5b600090813560e01c90816301ffc9a714610c7c5750806322dcd13e14610c5e578063248a9ca314610c325780632a5c792a14610bb35780632f2ff15d14610b0557806336568abe14610a725780635c60da1b14610a4957806361d027b314610a20578063634282af146109c4578063685d34ff14610989578063734037611461094a57806374abfa54146108be5780637da0a8771461089557806391d148541461084d578063a217fddf14610831578063c0e4b149146103bb578063c580c94214610351578063d547741f14610311578063d784d42614610299578063da7422281461022b578063db3fa4cc146101d0578063f08b82e6146101b2578063f0f44260146101545763f4325d671461012957600080fd5b346101515780600319360112610151576006546040516001600160a01b039091168152602090f35b80fd5b50346101515760203660031901126101515761016e610d34565b610176610f94565b6001600160a01b031680156101a0576bffffffffffffffffffffffff60a01b600354161760035580f35b60405163d92e233d60e01b8152600490fd5b50346101515780600319360112610151576020600854604051908152f35b5034610151576040366003190112610151576101ea610d34565b6001600160a01b03908116825260076020526040822080546024359390841015610151575060209261021b91610d4a565b9190546040519260031b1c168152f35b5034610151576020366003190112610151577fa4388ecc389b1390354ae0c65a856c0d7dd4fb648419f5d3ac0b99e38f46fd116020610268610d34565b610270610d62565b600480546001600160a01b0319166001600160a01b03929092169182179055604051908152a180f35b5034610151576020366003190112610151576102b3610d34565b6102bb610f94565b6001600160a01b031680156101a0576020817f310ba5f1d2ed074b51e2eccd052a47ae9ab7c6b800d1fca3db3999d6a592ca03926bffffffffffffffffffffffff60a01b6002541617600255604051908152a180f35b50346101515760403660031901126101515761034e600435610331610d19565b908084528360205261034960016040862001546110ba565b611226565b80f35b50346101515760203660031901126101515760043561036e610d62565b6103e881116103a9576020817f45610d581145924dd7090a5017e5f2b1d6f42213bb2e95707ff86846bbfcb1ca92600555604051908152a180f35b60405163c52a9bd360e01b8152600490fd5b503461015157602090816003193601126101515767ffffffffffffffff600435116101515761018060043536036003190112610151576002600154146107ec5760026001556001600160a01b0361041560048035016113ba565b16156101a057606460043501351580156107de575b6103a957600254608881901c62ffffff16763d602d80600a3d3981f3363d3d373d3d3d363d7300000017825260781b6effffffffffffffffffffffffffffff19166e5af43d82803e903d91602b57fd5bf31782526001600160a01b036037600983f0169081156107a0576104a86024600435016004356004016113ce565b6104bc6044600435016004356004016113ce565b6104ca6004356004016113ba565b9160018060a01b036006541660018060a01b03600354169160055493893b1561079c5791610533610521989694928a9896946040519a8b998a996344ab961f60e01b8b526101e060048c01526101e48b0191611401565b8881036003190160248a015291611401565b9360018060a01b03166044860152606485015260848401526064600435013560a48401526084600435013560c484015260a4600435013560e484015261010460c460043501358185015261012460e4600435013581860152610144916004350135828601526101649283860152600435013561018485015260043501356101a484015260043501356101c4830152038183875af1801561079157610765575b506001600160a01b036105e860048035016113ba565b16815260078352604081209081549168010000000000000000928381101561074f5761061991600182018155610d4a565b81546001600160a01b0360039290921b91821b19169085901b1790556008549182101561074f5760018201806008558210156107395760086000527ff3f7a9fe364faab93b216da50a3214154f22a0a2b415b23a84c8169e8b636ee390910180546001600160a01b031916831790558181526009835260409020805460ff19166001179055806106ac60048035016113ba565b7fdd5479823e9575209e71984c9a2a522984155b8d6d14bc57dafeed16d7bdf09a6106e16024600435016004356004016113ce565b61072a6106f86044600435016004356004016113ce565b610712604097929751958695604087526040870191611401565b8481038b8601526001600160a01b0390921696611401565b0390a360018055604051908152f35b634e487b7160e01b600052603260045260246000fd5b634e487b7160e01b600052604160045260246000fd5b67ffffffffffffffff811161077d57604052386105d2565b634e487b7160e01b82526041600452602482fd5b6040513d84823e3d90fd5b8880fd5b60405162461bcd60e51b8152600481018490526016602482015275115490cc4c4d8dce8818dc99585d194819985a5b195960521b6044820152606490fd5b5060a460043501351561042a565b60405162461bcd60e51b815260048101839052601f60248201527f5265656e7472616e637947756172643a207265656e7472616e742063616c6c006044820152606490fd5b5034610151578060031936011261015157602090604051908152f35b50346101515760403660031901126101515760ff604060209261086e610d19565b60043582528185528282206001600160a01b03909116825284522054604051911615158152f35b50346101515780600319360112610151576004546040516001600160a01b039091168152602090f35b503461015157602080600319360112610946576001600160a01b0391826108e3610d34565b168152600782526040812092604051908193808654938481520195845280842093915b83831061092d576109298661091d818a0382611204565b60405191829182610cd5565b0390f35b8454811687529581019560019485019490920191610906565b5080fd5b50346101515760203660031901126101515760209060ff906040906001600160a01b03610975610d34565b168152600984522054166040519015158152f35b503461015157806003193601126101515760206040517f5246556c0ab216b5b325ad7c539bfbd1a07c768773cdf810fecd3c3375c274078152f35b5034610151576020366003190112610151576004356008548110156109465760089091527ff3f7a9fe364faab93b216da50a3214154f22a0a2b415b23a84c8169e8b636ee301546040516001600160a01b039091168152602090f35b50346101515780600319360112610151576003546040516001600160a01b039091168152602090f35b50346101515780600319360112610151576002546040516001600160a01b039091168152602090f35b503461015157604036600319011261015157610a8c610d19565b336001600160a01b03821603610aa85761034e90600435611226565b60405162461bcd60e51b815260206004820152602f60248201527f416363657373436f6e74726f6c3a2063616e206f6e6c792072656e6f756e636560448201526e103937b632b9903337b91039b2b63360891b6064820152608490fd5b503461015157604036600319011261015157600435610b22610d19565b81835282602052610b3960016040852001546110ba565b818352602083815260408085206001600160a01b039093168086529290915283205460ff1615610b67578280f35b818352826020526040832081845260205260408320600160ff1982541617905533917f2f8788117e7eff1d82e926ec794901d17c78024a50270940304540a733656f0d8480a438808280f35b5034610151578060031936011261015157604051600880548083529083526020808301937ff3f7a9fe364faab93b216da50a3214154f22a0a2b415b23a84c8169e8b636ee392915b828210610c12576109298561091d81890382611204565b83546001600160a01b031686529485019460019384019390910190610bfb565b503461015157602036600319011261015157600160406020926004358152808452200154604051908152f35b50346101515780600319360112610151576020600554604051908152f35b9050346109465760203660031901126109465760043563ffffffff60e01b8116809103610cd15760209250637965db0b60e01b8114908115610cc0575b5015158152f35b6301ffc9a760e01b14905038610cb9565b8280fd5b6020908160408183019282815285518094520193019160005b828110610cfc575050505090565b83516001600160a01b031685529381019392810192600101610cee565b602435906001600160a01b0382168203610d2f57565b600080fd5b600435906001600160a01b0382168203610d2f57565b80548210156107395760005260206000200190600090565b3360009081527f0790b0aaeb4157b4822815d95bf3d9318a1561c876c520e6cca704be6f4d63a66020908152604080832054909291907f5246556c0ab216b5b325ad7c539bfbd1a07c768773cdf810fecd3c3375c274079060ff1615610dc85750505050565b610dd1336112ab565b90845190610dde826111e8565b60428252838201946060368737825115610f805760308653825190600191821015610f805790607860218501536041915b818311610f1257505050610ed05784610e9e6048610ec2936044979851988991610e8f8984019876020b1b1b2b9b9a1b7b73a3937b61d1030b1b1b7bab73a1604d1b8a52610e66815180928d6037890191016111c5565b8401917001034b99036b4b9b9b4b733903937b6329607d1b6037840152518093868401906111c5565b01036028810189520187611204565b5194859362461bcd60e51b85526004850152518092816024860152858501906111c5565b601f01601f19168101030190fd5b60648386519062461bcd60e51b825280600483015260248201527f537472696e67733a20686578206c656e67746820696e73756666696369656e746044820152fd5b909192600f81166010811015610f6c576f181899199a1a9b1b9c1cb0b131b232b360811b901a610f42858761129a565b5360041c928015610f5857600019019190610e0f565b634e487b7160e01b82526011600452602482fd5b634e487b7160e01b83526032600452602483fd5b634e487b7160e01b81526032600452602490fd5b3360009081527fad3228b676f7d3cd4284a5443f17f1962b36e491b30a40b2405849e597ba5fb560209081526040808320549092919060ff1615610fd757505050565b610fe0336112ab565b835183610fec826111e8565b60428252838201946060368737825115610f805760308653825190600191821015610f805790607860218501536041915b81831161107457505050610ed05784610e9e6048610ec2936044979851988991610e8f8984019876020b1b1b2b9b9a1b7b73a3937b61d1030b1b1b7bab73a1604d1b8a52610e66815180928d6037890191016111c5565b909192600f81166010811015610f6c576f181899199a1a9b1b9c1cb0b131b232b360811b901a6110a4858761129a565b5360041c928015610f585760001901919061101d565b60008181526020818152604092838320338452825260ff8484205416156110e15750505050565b6110ea336112ab565b908451906110f7826111e8565b60428252838201946060368737825115610f805760308653825190600191821015610f805790607860218501536041915b81831161117f57505050610ed05784610e9e6048610ec2936044979851988991610e8f8984019876020b1b1b2b9b9a1b7b73a3937b61d1030b1b1b7bab73a1604d1b8a52610e66815180928d6037890191016111c5565b909192600f81166010811015610f6c576f181899199a1a9b1b9c1cb0b131b232b360811b901a6111af858761129a565b5360041c928015610f5857600019019190611128565b60005b8381106111d85750506000910152565b81810151838201526020016111c8565b6080810190811067ffffffffffffffff82111761074f57604052565b90601f8019910116810190811067ffffffffffffffff82111761074f57604052565b9060009180835282602052604083209160018060a01b03169182845260205260ff60408420541661125657505050565b80835282602052604083208284526020526040832060ff1981541690557ff6391f5c32d9c69d2a47ea670b442974b53935d1edc7fd64eb21e047a839171b339380a4565b908151811015610739570160200190565b604051906060820182811067ffffffffffffffff82111761074f57604052602a82526020820160403682378251156107395760309053815160019081101561073957607860218401536029905b80821161134c5750506113085790565b606460405162461bcd60e51b815260206004820152602060248201527f537472696e67733a20686578206c656e67746820696e73756666696369656e746044820152fd5b9091600f811660108110156113a5576f181899199a1a9b1b9c1cb0b131b232b360811b901a61137b848661129a565b5360041c9180156113905760001901906112f8565b60246000634e487b7160e01b81526011600452fd5b60246000634e487b7160e01b81526032600452fd5b356001600160a01b0381168103610d2f5790565b903590601e1981360301821215610d2f570180359067ffffffffffffffff8211610d2f57602001918136038313610d2f57565b908060209392818452848401376000828201840152601f01601f191601019056fea2646970667358221220056dfa42c725fcaaa8a623ae010414ceec096e5673e853dc31f76d59a47835c864736f6c634300081300332f8788117e7eff1d82e926ec794901d17c78024a50270940304540a733656f0d","opcodes":"PUSH1 0x80 CALLVALUE PUSH3 0x1E8 JUMPI PUSH1 0x1F PUSH3 0x1691 CODESIZE DUP2 SWAP1 SUB SWAP2 DUP3 ADD PUSH1 0x1F NOT AND DUP4 ADD SWAP3 SWAP2 SWAP1 PUSH1 0x1 PUSH1 0x1 PUSH1 0x40 SHL SUB DUP5 GT DUP4 DUP6 LT OR PUSH3 0x1ED JUMPI DUP2 PUSH1 0xA0 SWAP3 DUP5 SWAP3 PUSH1 0x40 SWAP7 DUP8 MSTORE DUP4 CODECOPY DUP2 ADD SUB SLT PUSH3 0x1E8 JUMPI PUSH3 0x51 DUP2 PUSH3 0x203 JUMP JUMPDEST SWAP1 PUSH1 0x20 SWAP2 PUSH3 0x62 DUP4 DUP4 ADD PUSH3 0x203 JUMP JUMPDEST SWAP1 PUSH3 0x70 DUP6 DUP5 ADD PUSH3 0x203 JUMP JUMPDEST SWAP3 PUSH1 0x80 PUSH3 0x81 PUSH1 0x60 DUP4 ADD PUSH3 0x203 JUMP JUMPDEST SWAP2 ADD MLOAD PUSH1 0x1 DUP1 SSTORE SWAP4 PUSH1 0x1 PUSH1 0x1 PUSH1 0xA0 SHL SUB SWAP3 DUP4 AND SWAP4 DUP5 ISZERO DUP1 ISZERO PUSH3 0x1DD JUMPI JUMPDEST DUP1 ISZERO PUSH3 0x1D2 JUMPI JUMPDEST PUSH3 0x1C1 JUMPI SWAP1 DUP4 DUP1 SWAP3 PUSH1 0x1 DUP1 PUSH1 0xA0 SHL SUB NOT SWAP7 DUP8 PUSH1 0x2 SLOAD AND OR PUSH1 0x2 SSTORE AND DUP6 PUSH1 0x3 SLOAD AND OR PUSH1 0x3 SSTORE AND DUP4 PUSH1 0x6 SLOAD AND OR PUSH1 0x6 SSTORE AND SWAP1 PUSH1 0x4 SLOAD AND OR PUSH1 0x4 SSTORE PUSH1 0x5 SSTORE PUSH1 0x0 DUP1 DUP1 MSTORE DUP1 DUP3 MSTORE DUP3 DUP2 KECCAK256 CALLER DUP3 MSTORE DUP3 MSTORE PUSH1 0xFF DUP4 DUP3 KECCAK256 SLOAD AND ISZERO PUSH3 0x189 JUMPI JUMPDEST PUSH32 0x5246556C0AB216B5B325AD7C539BFBD1A07C768773CDF810FECD3C3375C27407 SWAP2 DUP3 DUP3 MSTORE DUP2 DUP2 MSTORE DUP4 DUP3 KECCAK256 CALLER DUP4 MSTORE DUP2 MSTORE PUSH1 0xFF DUP5 DUP4 KECCAK256 SLOAD AND ISZERO PUSH3 0x14E JUMPI JUMPDEST DUP4 MLOAD PUSH2 0x1458 SWAP1 DUP2 PUSH3 0x219 DUP3 CODECOPY RETURN JUMPDEST DUP3 DUP3 MSTORE DUP2 DUP2 MSTORE DUP4 DUP3 KECCAK256 SWAP1 CALLER DUP4 MSTORE MSTORE DUP3 DUP2 KECCAK256 PUSH1 0x1 PUSH1 0xFF NOT DUP3 SLOAD AND OR SWAP1 SSTORE CALLER SWAP2 PUSH1 0x0 DUP1 MLOAD PUSH1 0x20 PUSH3 0x1671 DUP4 CODECOPY DUP2 MLOAD SWAP2 MSTORE CALLER SWAP3 DUP1 LOG4 CODESIZE DUP1 DUP1 PUSH3 0x13F JUMP JUMPDEST DUP1 DUP1 MSTORE DUP1 DUP3 MSTORE DUP3 DUP2 KECCAK256 CALLER DUP3 MSTORE DUP3 MSTORE DUP3 DUP2 KECCAK256 PUSH1 0x1 PUSH1 0xFF NOT DUP3 SLOAD AND OR SWAP1 SSTORE CALLER CALLER DUP3 PUSH1 0x0 DUP1 MLOAD PUSH1 0x20 PUSH3 0x1671 DUP4 CODECOPY DUP2 MLOAD SWAP2 MSTORE DUP2 DUP1 LOG4 PUSH3 0x101 JUMP JUMPDEST DUP8 MLOAD PUSH4 0xD92E233D PUSH1 0xE0 SHL DUP2 MSTORE PUSH1 0x4 SWAP1 REVERT JUMPDEST POP DUP4 DUP3 AND ISZERO PUSH3 0xA7 JUMP JUMPDEST POP DUP4 DUP2 AND ISZERO PUSH3 0x9F JUMP JUMPDEST PUSH1 0x0 DUP1 REVERT JUMPDEST PUSH4 0x4E487B71 PUSH1 0xE0 SHL PUSH1 0x0 MSTORE PUSH1 0x41 PUSH1 0x4 MSTORE PUSH1 0x24 PUSH1 0x0 REVERT JUMPDEST MLOAD SWAP1 PUSH1 0x1 PUSH1 0x1 PUSH1 0xA0 SHL SUB DUP3 AND DUP3 SUB PUSH3 0x1E8 JUMPI JUMP INVALID PUSH1 0x80 DUP1 PUSH1 0x40 MSTORE PUSH1 0x4 CALLDATASIZE LT ISZERO PUSH2 0x13 JUMPI PUSH1 0x0 DUP1 REVERT JUMPDEST PUSH1 0x0 SWAP1 DUP2 CALLDATALOAD PUSH1 0xE0 SHR SWAP1 DUP2 PUSH4 0x1FFC9A7 EQ PUSH2 0xC7C JUMPI POP DUP1 PUSH4 0x22DCD13E EQ PUSH2 0xC5E JUMPI DUP1 PUSH4 0x248A9CA3 EQ PUSH2 0xC32 JUMPI DUP1 PUSH4 0x2A5C792A EQ PUSH2 0xBB3 JUMPI DUP1 PUSH4 0x2F2FF15D EQ PUSH2 0xB05 JUMPI DUP1 PUSH4 0x36568ABE EQ PUSH2 0xA72 JUMPI DUP1 PUSH4 0x5C60DA1B EQ PUSH2 0xA49 JUMPI DUP1 PUSH4 0x61D027B3 EQ PUSH2 0xA20 JUMPI DUP1 PUSH4 0x634282AF EQ PUSH2 0x9C4 JUMPI DUP1 PUSH4 0x685D34FF EQ PUSH2 0x989 JUMPI DUP1 PUSH4 0x73403761 EQ PUSH2 0x94A JUMPI DUP1 PUSH4 0x74ABFA54 EQ PUSH2 0x8BE JUMPI DUP1 PUSH4 0x7DA0A877 EQ PUSH2 0x895 JUMPI DUP1 PUSH4 0x91D14854 EQ PUSH2 0x84D JUMPI DUP1 PUSH4 0xA217FDDF EQ PUSH2 0x831 JUMPI DUP1 PUSH4 0xC0E4B149 EQ PUSH2 0x3BB JUMPI DUP1 PUSH4 0xC580C942 EQ PUSH2 0x351 JUMPI DUP1 PUSH4 0xD547741F EQ PUSH2 0x311 JUMPI DUP1 PUSH4 0xD784D426 EQ PUSH2 0x299 JUMPI DUP1 PUSH4 0xDA742228 EQ PUSH2 0x22B JUMPI DUP1 PUSH4 0xDB3FA4CC EQ PUSH2 0x1D0 JUMPI DUP1 PUSH4 0xF08B82E6 EQ PUSH2 0x1B2 JUMPI DUP1 PUSH4 0xF0F44260 EQ PUSH2 0x154 JUMPI PUSH4 0xF4325D67 EQ PUSH2 0x129 JUMPI PUSH1 0x0 DUP1 REVERT JUMPDEST CALLVALUE PUSH2 0x151 JUMPI DUP1 PUSH1 0x3 NOT CALLDATASIZE ADD SLT PUSH2 0x151 JUMPI PUSH1 0x6 SLOAD PUSH1 0x40 MLOAD PUSH1 0x1 PUSH1 0x1 PUSH1 0xA0 SHL SUB SWAP1 SWAP2 AND DUP2 MSTORE PUSH1 0x20 SWAP1 RETURN JUMPDEST DUP1 REVERT JUMPDEST POP CALLVALUE PUSH2 0x151 JUMPI PUSH1 0x20 CALLDATASIZE PUSH1 0x3 NOT ADD SLT PUSH2 0x151 JUMPI PUSH2 0x16E PUSH2 0xD34 JUMP JUMPDEST PUSH2 0x176 PUSH2 0xF94 JUMP JUMPDEST PUSH1 0x1 PUSH1 0x1 PUSH1 0xA0 SHL SUB AND DUP1 ISZERO PUSH2 0x1A0 JUMPI PUSH12 0xFFFFFFFFFFFFFFFFFFFFFFFF PUSH1 0xA0 SHL PUSH1 0x3 SLOAD AND OR PUSH1 0x3 SSTORE DUP1 RETURN JUMPDEST PUSH1 0x40 MLOAD PUSH4 0xD92E233D PUSH1 0xE0 SHL DUP2 MSTORE PUSH1 0x4 SWAP1 REVERT JUMPDEST POP CALLVALUE PUSH2 0x151 JUMPI DUP1 PUSH1 0x3 NOT CALLDATASIZE ADD SLT PUSH2 0x151 JUMPI PUSH1 0x20 PUSH1 0x8 SLOAD PUSH1 0x40 MLOAD SWAP1 DUP2 MSTORE RETURN JUMPDEST POP CALLVALUE PUSH2 0x151 JUMPI PUSH1 0x40 CALLDATASIZE PUSH1 0x3 NOT ADD SLT PUSH2 0x151 JUMPI PUSH2 0x1EA PUSH2 0xD34 JUMP JUMPDEST PUSH1 0x1 PUSH1 0x1 PUSH1 0xA0 SHL SUB SWAP1 DUP2 AND DUP3 MSTORE PUSH1 0x7 PUSH1 0x20 MSTORE PUSH1 0x40 DUP3 KECCAK256 DUP1 SLOAD PUSH1 0x24 CALLDATALOAD SWAP4 SWAP1 DUP5 LT ISZERO PUSH2 0x151 JUMPI POP PUSH1 0x20 SWAP3 PUSH2 0x21B SWAP2 PUSH2 0xD4A JUMP JUMPDEST SWAP2 SWAP1 SLOAD PUSH1 0x40 MLOAD SWAP3 PUSH1 0x3 SHL SHR AND DUP2 MSTORE RETURN JUMPDEST POP CALLVALUE PUSH2 0x151 JUMPI PUSH1 0x20 CALLDATASIZE PUSH1 0x3 NOT ADD SLT PUSH2 0x151 JUMPI PUSH32 0xA4388ECC389B1390354AE0C65A856C0D7DD4FB648419F5D3AC0B99E38F46FD11 PUSH1 0x20 PUSH2 0x268 PUSH2 0xD34 JUMP JUMPDEST PUSH2 0x270 PUSH2 0xD62 JUMP JUMPDEST PUSH1 0x4 DUP1 SLOAD PUSH1 0x1 PUSH1 0x1 PUSH1 0xA0 SHL SUB NOT AND PUSH1 0x1 PUSH1 0x1 PUSH1 0xA0 SHL SUB SWAP3 SWAP1 SWAP3 AND SWAP2 DUP3 OR SWAP1 SSTORE PUSH1 0x40 MLOAD SWAP1 DUP2 MSTORE LOG1 DUP1 RETURN JUMPDEST POP CALLVALUE PUSH2 0x151 JUMPI PUSH1 0x20 CALLDATASIZE PUSH1 0x3 NOT ADD SLT PUSH2 0x151 JUMPI PUSH2 0x2B3 PUSH2 0xD34 JUMP JUMPDEST PUSH2 0x2BB PUSH2 0xF94 JUMP JUMPDEST PUSH1 0x1 PUSH1 0x1 PUSH1 0xA0 SHL SUB AND DUP1 ISZERO PUSH2 0x1A0 JUMPI PUSH1 0x20 DUP2 PUSH32 0x310BA5F1D2ED074B51E2ECCD052A47AE9AB7C6B800D1FCA3DB3999D6A592CA03 SWAP3 PUSH12 0xFFFFFFFFFFFFFFFFFFFFFFFF PUSH1 0xA0 SHL PUSH1 0x2 SLOAD AND OR PUSH1 0x2 SSTORE PUSH1 0x40 MLOAD SWAP1 DUP2 MSTORE LOG1 DUP1 RETURN JUMPDEST POP CALLVALUE PUSH2 0x151 JUMPI PUSH1 0x40 CALLDATASIZE PUSH1 0x3 NOT ADD SLT PUSH2 0x151 JUMPI PUSH2 0x34E PUSH1 0x4 CALLDATALOAD PUSH2 0x331 PUSH2 0xD19 JUMP JUMPDEST SWAP1 DUP1 DUP5 MSTORE DUP4 PUSH1 0x20 MSTORE PUSH2 0x349 PUSH1 0x1 PUSH1 0x40 DUP7 KECCAK256 ADD SLOAD PUSH2 0x10BA JUMP JUMPDEST PUSH2 0x1226 JUMP JUMPDEST DUP1 RETURN JUMPDEST POP CALLVALUE PUSH2 0x151 JUMPI PUSH1 0x20 CALLDATASIZE PUSH1 0x3 NOT ADD SLT PUSH2 0x151 JUMPI PUSH1 0x4 CALLDATALOAD PUSH2 0x36E PUSH2 0xD62 JUMP JUMPDEST PUSH2 0x3E8 DUP2 GT PUSH2 0x3A9 JUMPI PUSH1 0x20 DUP2 PUSH32 0x45610D581145924DD7090A5017E5F2B1D6F42213BB2E95707FF86846BBFCB1CA SWAP3 PUSH1 0x5 SSTORE PUSH1 0x40 MLOAD SWAP1 DUP2 MSTORE LOG1 DUP1 RETURN JUMPDEST PUSH1 0x40 MLOAD PUSH4 0xC52A9BD3 PUSH1 0xE0 SHL DUP2 MSTORE PUSH1 0x4 SWAP1 REVERT JUMPDEST POP CALLVALUE PUSH2 0x151 JUMPI PUSH1 0x20 SWAP1 DUP2 PUSH1 0x3 NOT CALLDATASIZE ADD SLT PUSH2 0x151 JUMPI PUSH8 0xFFFFFFFFFFFFFFFF PUSH1 0x4 CALLDATALOAD GT PUSH2 0x151 JUMPI PUSH2 0x180 PUSH1 0x4 CALLDATALOAD CALLDATASIZE SUB PUSH1 0x3 NOT ADD SLT PUSH2 0x151 JUMPI PUSH1 0x2 PUSH1 0x1 SLOAD EQ PUSH2 0x7EC JUMPI PUSH1 0x2 PUSH1 0x1 SSTORE PUSH1 0x1 PUSH1 0x1 PUSH1 0xA0 SHL SUB PUSH2 0x415 PUSH1 0x4 DUP1 CALLDATALOAD ADD PUSH2 0x13BA JUMP JUMPDEST AND ISZERO PUSH2 0x1A0 JUMPI PUSH1 0x64 PUSH1 0x4 CALLDATALOAD ADD CALLDATALOAD ISZERO DUP1 ISZERO PUSH2 0x7DE JUMPI JUMPDEST PUSH2 0x3A9 JUMPI PUSH1 0x2 SLOAD PUSH1 0x88 DUP2 SWAP1 SHR PUSH3 0xFFFFFF AND PUSH23 0x3D602D80600A3D3981F3363D3D373D3D3D363D73000000 OR DUP3 MSTORE PUSH1 0x78 SHL PUSH15 0xFFFFFFFFFFFFFFFFFFFFFFFFFFFFFF NOT AND PUSH15 0x5AF43D82803E903D91602B57FD5BF3 OR DUP3 MSTORE PUSH1 0x1 PUSH1 0x1 PUSH1 0xA0 SHL SUB PUSH1 0x37 PUSH1 0x9 DUP4 CREATE AND SWAP1 DUP2 ISZERO PUSH2 0x7A0 JUMPI PUSH2 0x4A8 PUSH1 0x24 PUSH1 0x4 CALLDATALOAD ADD PUSH1 0x4 CALLDATALOAD PUSH1 0x4 ADD PUSH2 0x13CE JUMP JUMPDEST PUSH2 0x4BC PUSH1 0x44 PUSH1 0x4 CALLDATALOAD ADD PUSH1 0x4 CALLDATALOAD PUSH1 0x4 ADD PUSH2 0x13CE JUMP JUMPDEST PUSH2 0x4CA PUSH1 0x4 CALLDATALOAD PUSH1 0x4 ADD PUSH2 0x13BA JUMP JUMPDEST SWAP2 PUSH1 0x1 DUP1 PUSH1 0xA0 SHL SUB PUSH1 0x6 SLOAD AND PUSH1 0x1 DUP1 PUSH1 0xA0 SHL SUB PUSH1 0x3 SLOAD AND SWAP2 PUSH1 0x5 SLOAD SWAP4 DUP10 EXTCODESIZE ISZERO PUSH2 0x79C JUMPI SWAP2 PUSH2 0x533 PUSH2 0x521 SWAP9 SWAP7 SWAP5 SWAP3 DUP11 SWAP9 SWAP7 SWAP5 PUSH1 0x40 MLOAD SWAP11 DUP12 SWAP10 DUP11 SWAP10 PUSH4 0x44AB961F PUSH1 0xE0 SHL DUP12 MSTORE PUSH2 0x1E0 PUSH1 0x4 DUP13 ADD MSTORE PUSH2 0x1E4 DUP12 ADD SWAP2 PUSH2 0x1401 JUMP JUMPDEST DUP9 DUP2 SUB PUSH1 0x3 NOT ADD PUSH1 0x24 DUP11 ADD MSTORE SWAP2 PUSH2 0x1401 JUMP JUMPDEST SWAP4 PUSH1 0x1 DUP1 PUSH1 0xA0 SHL SUB AND PUSH1 0x44 DUP7 ADD MSTORE PUSH1 0x64 DUP6 ADD MSTORE PUSH1 0x84 DUP5 ADD MSTORE PUSH1 0x64 PUSH1 0x4 CALLDATALOAD ADD CALLDATALOAD PUSH1 0xA4 DUP5 ADD MSTORE PUSH1 0x84 PUSH1 0x4 CALLDATALOAD ADD CALLDATALOAD PUSH1 0xC4 DUP5 ADD MSTORE PUSH1 0xA4 PUSH1 0x4 CALLDATALOAD ADD CALLDATALOAD PUSH1 0xE4 DUP5 ADD MSTORE PUSH2 0x104 PUSH1 0xC4 PUSH1 0x4 CALLDATALOAD ADD CALLDATALOAD DUP2 DUP6 ADD MSTORE PUSH2 0x124 PUSH1 0xE4 PUSH1 0x4 CALLDATALOAD ADD CALLDATALOAD DUP2 DUP7 ADD MSTORE PUSH2 0x144 SWAP2 PUSH1 0x4 CALLDATALOAD ADD CALLDATALOAD DUP3 DUP7 ADD MSTORE PUSH2 0x164 SWAP3 DUP4 DUP7 ADD MSTORE PUSH1 0x4 CALLDATALOAD ADD CALLDATALOAD PUSH2 0x184 DUP6 ADD MSTORE PUSH1 0x4 CALLDATALOAD ADD CALLDATALOAD PUSH2 0x1A4 DUP5 ADD MSTORE PUSH1 0x4 CALLDATALOAD ADD CALLDATALOAD PUSH2 0x1C4 DUP4 ADD MSTORE SUB DUP2 DUP4 DUP8 GAS CALL DUP1 ISZERO PUSH2 0x791 JUMPI PUSH2 0x765 JUMPI JUMPDEST POP PUSH1 0x1 PUSH1 0x1 PUSH1 0xA0 SHL SUB PUSH2 0x5E8 PUSH1 0x4 DUP1 CALLDATALOAD ADD PUSH2 0x13BA JUMP JUMPDEST AND DUP2 MSTORE PUSH1 0x7 DUP4 MSTORE PUSH1 0x40 DUP2 KECCAK256 SWAP1 DUP2 SLOAD SWAP2 PUSH9 0x10000000000000000 SWAP3 DUP4 DUP2 LT ISZERO PUSH2 0x74F JUMPI PUSH2 0x619 SWAP2 PUSH1 0x1 DUP3 ADD DUP2 SSTORE PUSH2 0xD4A JUMP JUMPDEST DUP2 SLOAD PUSH1 0x1 PUSH1 0x1 PUSH1 0xA0 SHL SUB PUSH1 0x3 SWAP3 SWAP1 SWAP3 SHL SWAP2 DUP3 SHL NOT AND SWAP1 DUP6 SWAP1 SHL OR SWAP1 SSTORE PUSH1 0x8 SLOAD SWAP2 DUP3 LT ISZERO PUSH2 0x74F JUMPI PUSH1 0x1 DUP3 ADD DUP1 PUSH1 0x8 SSTORE DUP3 LT ISZERO PUSH2 0x739 JUMPI PUSH1 0x8 PUSH1 0x0 MSTORE PUSH32 0xF3F7A9FE364FAAB93B216DA50A3214154F22A0A2B415B23A84C8169E8B636EE3 SWAP1 SWAP2 ADD DUP1 SLOAD PUSH1 0x1 PUSH1 0x1 PUSH1 0xA0 SHL SUB NOT AND DUP4 OR SWAP1 SSTORE DUP2 DUP2 MSTORE PUSH1 0x9 DUP4 MSTORE PUSH1 0x40 SWAP1 KECCAK256 DUP1 SLOAD PUSH1 0xFF NOT AND PUSH1 0x1 OR SWAP1 SSTORE DUP1 PUSH2 0x6AC PUSH1 0x4 DUP1 CALLDATALOAD ADD PUSH2 0x13BA JUMP JUMPDEST PUSH32 0xDD5479823E9575209E71984C9A2A522984155B8D6D14BC57DAFEED16D7BDF09A PUSH2 0x6E1 PUSH1 0x24 PUSH1 0x4 CALLDATALOAD ADD PUSH1 0x4 CALLDATALOAD PUSH1 0x4 ADD PUSH2 0x13CE JUMP JUMPDEST PUSH2 0x72A PUSH2 0x6F8 PUSH1 0x44 PUSH1 0x4 CALLDATALOAD ADD PUSH1 0x4 CALLDATALOAD PUSH1 0x4 ADD PUSH2 0x13CE JUMP JUMPDEST PUSH2 0x712 PUSH1 0x40 SWAP8 SWAP3 SWAP8 MLOAD SWAP6 DUP7 SWAP6 PUSH1 0x40 DUP8 MSTORE PUSH1 0x40 DUP8 ADD SWAP2 PUSH2 0x1401 JUMP JUMPDEST DUP5 DUP2 SUB DUP12 DUP7 ADD MSTORE PUSH1 0x1 PUSH1 0x1 PUSH1 0xA0 SHL SUB SWAP1 SWAP3 AND SWAP7 PUSH2 0x1401 JUMP JUMPDEST SUB SWAP1 LOG3 PUSH1 0x1 DUP1 SSTORE PUSH1 0x40 MLOAD SWAP1 DUP2 MSTORE RETURN JUMPDEST PUSH4 0x4E487B71 PUSH1 0xE0 SHL PUSH1 0x0 MSTORE PUSH1 0x32 PUSH1 0x4 MSTORE PUSH1 0x24 PUSH1 0x0 REVERT JUMPDEST PUSH4 0x4E487B71 PUSH1 0xE0 SHL PUSH1 0x0 MSTORE PUSH1 0x41 PUSH1 0x4 MSTORE PUSH1 0x24 PUSH1 0x0 REVERT JUMPDEST PUSH8 0xFFFFFFFFFFFFFFFF DUP2 GT PUSH2 0x77D JUMPI PUSH1 0x40 MSTORE CODESIZE PUSH2 0x5D2 JUMP JUMPDEST PUSH4 0x4E487B71 PUSH1 0xE0 SHL DUP3 MSTORE PUSH1 0x41 PUSH1 0x4 MSTORE PUSH1 0x24 DUP3 REVERT JUMPDEST PUSH1 0x40 MLOAD RETURNDATASIZE DUP5 DUP3 RETURNDATACOPY RETURNDATASIZE SWAP1 REVERT JUMPDEST DUP9 DUP1 REVERT JUMPDEST PUSH1 0x40 MLOAD PUSH3 0x461BCD PUSH1 0xE5 SHL DUP2 MSTORE PUSH1 0x4 DUP2 ADD DUP5 SWAP1 MSTORE PUSH1 0x16 PUSH1 0x24 DUP3 ADD MSTORE PUSH22 0x115490CC4C4D8DCE8818DC99585D194819985A5B1959 PUSH1 0x52 SHL PUSH1 0x44 DUP3 ADD MSTORE PUSH1 0x64 SWAP1 REVERT JUMPDEST POP PUSH1 0xA4 PUSH1 0x4 CALLDATALOAD ADD CALLDATALOAD ISZERO PUSH2 0x42A JUMP JUMPDEST PUSH1 0x40 MLOAD PUSH3 0x461BCD PUSH1 0xE5 SHL DUP2 MSTORE PUSH1 0x4 DUP2 ADD DUP4 SWAP1 MSTORE PUSH1 0x1F PUSH1 0x24 DUP3 ADD MSTORE PUSH32 0x5265656E7472616E637947756172643A207265656E7472616E742063616C6C00 PUSH1 0x44 DUP3 ADD MSTORE PUSH1 0x64 SWAP1 REVERT JUMPDEST POP CALLVALUE PUSH2 0x151 JUMPI DUP1 PUSH1 0x3 NOT CALLDATASIZE ADD SLT PUSH2 0x151 JUMPI PUSH1 0x20 SWAP1 PUSH1 0x40 MLOAD SWAP1 DUP2 MSTORE RETURN JUMPDEST POP CALLVALUE PUSH2 0x151 JUMPI PUSH1 0x40 CALLDATASIZE PUSH1 0x3 NOT ADD SLT PUSH2 0x151 JUMPI PUSH1 0xFF PUSH1 0x40 PUSH1 0x20 SWAP3 PUSH2 0x86E PUSH2 0xD19 JUMP JUMPDEST PUSH1 0x4 CALLDATALOAD DUP3 MSTORE DUP2 DUP6 MSTORE DUP3 DUP3 KECCAK256 PUSH1 0x1 PUSH1 0x1 PUSH1 0xA0 SHL SUB SWAP1 SWAP2 AND DUP3 MSTORE DUP5 MSTORE KECCAK256 SLOAD PUSH1 0x40 MLOAD SWAP2 AND ISZERO ISZERO DUP2 MSTORE RETURN JUMPDEST POP CALLVALUE PUSH2 0x151 JUMPI DUP1 PUSH1 0x3 NOT CALLDATASIZE ADD SLT PUSH2 0x151 JUMPI PUSH1 0x4 SLOAD PUSH1 0x40 MLOAD PUSH1 0x1 PUSH1 0x1 PUSH1 0xA0 SHL SUB SWAP1 SWAP2 AND DUP2 MSTORE PUSH1 0x20 SWAP1 RETURN JUMPDEST POP CALLVALUE PUSH2 0x151 JUMPI PUSH1 0x20 DUP1 PUSH1 0x3 NOT CALLDATASIZE ADD SLT PUSH2 0x946 JUMPI PUSH1 0x1 PUSH1 0x1 PUSH1 0xA0 SHL SUB SWAP2 DUP3 PUSH2 0x8E3 PUSH2 0xD34 JUMP JUMPDEST AND DUP2 MSTORE PUSH1 0x7 DUP3 MSTORE PUSH1 0x40 DUP2 KECCAK256 SWAP3 PUSH1 0x40 MLOAD SWAP1 DUP2 SWAP4 DUP1 DUP7 SLOAD SWAP4 DUP5 DUP2 MSTORE ADD SWAP6 DUP5 MSTORE DUP1 DUP5 KECCAK256 SWAP4 SWAP2 JUMPDEST DUP4 DUP4 LT PUSH2 0x92D JUMPI PUSH2 0x929 DUP7 PUSH2 0x91D DUP2 DUP11 SUB DUP3 PUSH2 0x1204 JUMP JUMPDEST PUSH1 0x40 MLOAD SWAP2 DUP3 SWAP2 DUP3 PUSH2 0xCD5 JUMP JUMPDEST SUB SWAP1 RETURN JUMPDEST DUP5 SLOAD DUP2 AND DUP8 MSTORE SWAP6 DUP2 ADD SWAP6 PUSH1 0x1 SWAP5 DUP6 ADD SWAP5 SWAP1 SWAP3 ADD SWAP2 PUSH2 0x906 JUMP JUMPDEST POP DUP1 REVERT JUMPDEST POP CALLVALUE PUSH2 0x151 JUMPI PUSH1 0x20 CALLDATASIZE PUSH1 0x3 NOT ADD SLT PUSH2 0x151 JUMPI PUSH1 0x20 SWAP1 PUSH1 0xFF SWAP1 PUSH1 0x40 SWAP1 PUSH1 0x1 PUSH1 0x1 PUSH1 0xA0 SHL SUB PUSH2 0x975 PUSH2 0xD34 JUMP JUMPDEST AND DUP2 MSTORE PUSH1 0x9 DUP5 MSTORE KECCAK256 SLOAD AND PUSH1 0x40 MLOAD SWAP1 ISZERO ISZERO DUP2 MSTORE RETURN JUMPDEST POP CALLVALUE PUSH2 0x151 JUMPI DUP1 PUSH1 0x3 NOT CALLDATASIZE ADD SLT PUSH2 0x151 JUMPI PUSH1 0x20 PUSH1 0x40 MLOAD PUSH32 0x5246556C0AB216B5B325AD7C539BFBD1A07C768773CDF810FECD3C3375C27407 DUP2 MSTORE RETURN JUMPDEST POP CALLVALUE PUSH2 0x151 JUMPI PUSH1 0x20 CALLDATASIZE PUSH1 0x3 NOT ADD SLT PUSH2 0x151 JUMPI PUSH1 0x4 CALLDATALOAD PUSH1 0x8 SLOAD DUP2 LT ISZERO PUSH2 0x946 JUMPI PUSH1 0x8 SWAP1 SWAP2 MSTORE PUSH32 0xF3F7A9FE364FAAB93B216DA50A3214154F22A0A2B415B23A84C8169E8B636EE3 ADD SLOAD PUSH1 0x40 MLOAD PUSH1 0x1 PUSH1 0x1 PUSH1 0xA0 SHL SUB SWAP1 SWAP2 AND DUP2 MSTORE PUSH1 0x20 SWAP1 RETURN JUMPDEST POP CALLVALUE PUSH2 0x151 JUMPI DUP1 PUSH1 0x3 NOT CALLDATASIZE ADD SLT PUSH2 0x151 JUMPI PUSH1 0x3 SLOAD PUSH1 0x40 MLOAD PUSH1 0x1 PUSH1 0x1 PUSH1 0xA0 SHL SUB SWAP1 SWAP2 AND DUP2 MSTORE PUSH1 0x20 SWAP1 RETURN JUMPDEST POP CALLVALUE PUSH2 0x151 JUMPI DUP1 PUSH1 0x3 NOT CALLDATASIZE ADD SLT PUSH2 0x151 JUMPI PUSH1 0x2 SLOAD PUSH1 0x40 MLOAD PUSH1 0x1 PUSH1 0x1 PUSH1 0xA0 SHL SUB SWAP1 SWAP2 AND DUP2 MSTORE PUSH1 0x20 SWAP1 RETURN JUMPDEST POP CALLVALUE PUSH2 0x151 JUMPI PUSH1 0x40 CALLDATASIZE PUSH1 0x3 NOT ADD SLT PUSH2 0x151 JUMPI PUSH2 0xA8C PUSH2 0xD19 JUMP JUMPDEST CALLER PUSH1 0x1 PUSH1 0x1 PUSH1 0xA0 SHL SUB DUP3 AND SUB PUSH2 0xAA8 JUMPI PUSH2 0x34E SWAP1 PUSH1 0x4 CALLDATALOAD PUSH2 0x1226 JUMP JUMPDEST PUSH1 0x40 MLOAD PUSH3 0x461BCD PUSH1 0xE5 SHL DUP2 MSTORE PUSH1 0x20 PUSH1 0x4 DUP3 ADD MSTORE PUSH1 0x2F PUSH1 0x24 DUP3 ADD MSTORE PUSH32 0x416363657373436F6E74726F6C3A2063616E206F6E6C792072656E6F756E6365 PUSH1 0x44 DUP3 ADD MSTORE PUSH15 0x103937B632B9903337B91039B2B633 PUSH1 0x89 SHL PUSH1 0x64 DUP3 ADD MSTORE PUSH1 0x84 SWAP1 REVERT JUMPDEST POP CALLVALUE PUSH2 0x151 JUMPI PUSH1 0x40 CALLDATASIZE PUSH1 0x3 NOT ADD SLT PUSH2 0x151 JUMPI PUSH1 0x4 CALLDATALOAD PUSH2 0xB22 PUSH2 0xD19 JUMP JUMPDEST DUP2 DUP4 MSTORE DUP3 PUSH1 0x20 MSTORE PUSH2 0xB39 PUSH1 0x1 PUSH1 0x40 DUP6 KECCAK256 ADD SLOAD PUSH2 0x10BA JUMP JUMPDEST DUP2 DUP4 MSTORE PUSH1 0x20 DUP4 DUP2 MSTORE PUSH1 0x40 DUP1 DUP6 KECCAK256 PUSH1 0x1 PUSH1 0x1 PUSH1 0xA0 SHL SUB SWAP1 SWAP4 AND DUP1 DUP7 MSTORE SWAP3 SWAP1 SWAP2 MSTORE DUP4 KECCAK256 SLOAD PUSH1 0xFF AND ISZERO PUSH2 0xB67 JUMPI DUP3 DUP1 RETURN JUMPDEST DUP2 DUP4 MSTORE DUP3 PUSH1 0x20 MSTORE PUSH1 0x40 DUP4 KECCAK256 DUP2 DUP5 MSTORE PUSH1 0x20 MSTORE PUSH1 0x40 DUP4 KECCAK256 PUSH1 0x1 PUSH1 0xFF NOT DUP3 SLOAD AND OR SWAP1 SSTORE CALLER SWAP2 PUSH32 0x2F8788117E7EFF1D82E926EC794901D17C78024A50270940304540A733656F0D DUP5 DUP1 LOG4 CODESIZE DUP1 DUP3 DUP1 RETURN JUMPDEST POP CALLVALUE PUSH2 0x151 JUMPI DUP1 PUSH1 0x3 NOT CALLDATASIZE ADD SLT PUSH2 0x151 JUMPI PUSH1 0x40 MLOAD PUSH1 0x8 DUP1 SLOAD DUP1 DUP4 MSTORE SWAP1 DUP4 MSTORE PUSH1 0x20 DUP1 DUP4 ADD SWAP4 PUSH32 0xF3F7A9FE364FAAB93B216DA50A3214154F22A0A2B415B23A84C8169E8B636EE3 SWAP3 SWAP2 JUMPDEST DUP3 DUP3 LT PUSH2 0xC12 JUMPI PUSH2 0x929 DUP6 PUSH2 0x91D DUP2 DUP10 SUB DUP3 PUSH2 0x1204 JUMP JUMPDEST DUP4 SLOAD PUSH1 0x1 PUSH1 0x1 PUSH1 0xA0 SHL SUB AND DUP7 MSTORE SWAP5 DUP6 ADD SWAP5 PUSH1 0x1 SWAP4 DUP5 ADD SWAP4 SWAP1 SWAP2 ADD SWAP1 PUSH2 0xBFB JUMP JUMPDEST POP CALLVALUE PUSH2 0x151 JUMPI PUSH1 0x20 CALLDATASIZE PUSH1 0x3 NOT ADD SLT PUSH2 0x151 JUMPI PUSH1 0x1 PUSH1 0x40 PUSH1 0x20 SWAP3 PUSH1 0x4 CALLDATALOAD DUP2 MSTORE DUP1 DUP5 MSTORE KECCAK256 ADD SLOAD PUSH1 0x40 MLOAD SWAP1 DUP2 MSTORE RETURN JUMPDEST POP CALLVALUE PUSH2 0x151 JUMPI DUP1 PUSH1 0x3 NOT CALLDATASIZE ADD SLT PUSH2 0x151 JUMPI PUSH1 0x20 PUSH1 0x5 SLOAD PUSH1 0x40 MLOAD SWAP1 DUP2 MSTORE RETURN JUMPDEST SWAP1 POP CALLVALUE PUSH2 0x946 JUMPI PUSH1 0x20 CALLDATASIZE PUSH1 0x3 NOT ADD SLT PUSH2 0x946 JUMPI PUSH1 0x4 CALLDATALOAD PUSH4 0xFFFFFFFF PUSH1 0xE0 SHL DUP2 AND DUP1 SWAP2 SUB PUSH2 0xCD1 JUMPI PUSH1 0x20 SWAP3 POP PUSH4 0x7965DB0B PUSH1 0xE0 SHL DUP2 EQ SWAP1 DUP2 ISZERO PUSH2 0xCC0 JUMPI JUMPDEST POP ISZERO ISZERO DUP2 MSTORE RETURN JUMPDEST PUSH4 0x1FFC9A7 PUSH1 0xE0 SHL EQ SWAP1 POP CODESIZE PUSH2 0xCB9 JUMP JUMPDEST DUP3 DUP1 REVERT JUMPDEST PUSH1 0x20 SWAP1 DUP2 PUSH1 0x40 DUP2 DUP4 ADD SWAP3 DUP3 DUP2 MSTORE DUP6 MLOAD DUP1 SWAP5 MSTORE ADD SWAP4 ADD SWAP2 PUSH1 0x0 JUMPDEST DUP3 DUP2 LT PUSH2 0xCFC JUMPI POP POP POP POP SWAP1 JUMP JUMPDEST DUP4 MLOAD PUSH1 0x1 PUSH1 0x1 PUSH1 0xA0 SHL SUB AND DUP6 MSTORE SWAP4 DUP2 ADD SWAP4 SWAP3 DUP2 ADD SWAP3 PUSH1 0x1 ADD PUSH2 0xCEE JUMP JUMPDEST PUSH1 0x24 CALLDATALOAD SWAP1 PUSH1 0x1 PUSH1 0x1 PUSH1 0xA0 SHL SUB DUP3 AND DUP3 SUB PUSH2 0xD2F JUMPI JUMP JUMPDEST PUSH1 0x0 DUP1 REVERT JUMPDEST PUSH1 0x4 CALLDATALOAD SWAP1 PUSH1 0x1 PUSH1 0x1 PUSH1 0xA0 SHL SUB DUP3 AND DUP3 SUB PUSH2 0xD2F JUMPI JUMP JUMPDEST DUP1 SLOAD DUP3 LT ISZERO PUSH2 0x739 JUMPI PUSH1 0x0 MSTORE PUSH1 0x20 PUSH1 0x0 KECCAK256 ADD SWAP1 PUSH1 0x0 SWAP1 JUMP JUMPDEST CALLER PUSH1 0x0 SWAP1 DUP2 MSTORE PUSH32 0x790B0AAEB4157B4822815D95BF3D9318A1561C876C520E6CCA704BE6F4D63A6 PUSH1 0x20 SWAP1 DUP2 MSTORE PUSH1 0x40 DUP1 DUP4 KECCAK256 SLOAD SWAP1 SWAP3 SWAP2 SWAP1 PUSH32 0x5246556C0AB216B5B325AD7C539BFBD1A07C768773CDF810FECD3C3375C27407 SWAP1 PUSH1 0xFF AND ISZERO PUSH2 0xDC8 JUMPI POP POP POP POP JUMP JUMPDEST PUSH2 0xDD1 CALLER PUSH2 0x12AB JUMP JUMPDEST SWAP1 DUP5 MLOAD SWAP1 PUSH2 0xDDE DUP3 PUSH2 0x11E8 JUMP JUMPDEST PUSH1 0x42 DUP3 MSTORE DUP4 DUP3 ADD SWAP5 PUSH1 0x60 CALLDATASIZE DUP8 CALLDATACOPY DUP3 MLOAD ISZERO PUSH2 0xF80 JUMPI PUSH1 0x30 DUP7 MSTORE8 DUP3 MLOAD SWAP1 PUSH1 0x1 SWAP2 DUP3 LT ISZERO PUSH2 0xF80 JUMPI SWAP1 PUSH1 0x78 PUSH1 0x21 DUP6 ADD MSTORE8 PUSH1 0x41 SWAP2 JUMPDEST DUP2 DUP4 GT PUSH2 0xF12 JUMPI POP POP POP PUSH2 0xED0 JUMPI DUP5 PUSH2 0xE9E PUSH1 0x48 PUSH2 0xEC2 SWAP4 PUSH1 0x44 SWAP8 SWAP9 MLOAD SWAP9 DUP10 SWAP2 PUSH2 0xE8F DUP10 DUP5 ADD SWAP9 PUSH23 0x20B1B1B2B9B9A1B7B73A3937B61D1030B1B1B7BAB73A1 PUSH1 0x4D SHL DUP11 MSTORE PUSH2 0xE66 DUP2 MLOAD DUP1 SWAP3 DUP14 PUSH1 0x37 DUP10 ADD SWAP2 ADD PUSH2 0x11C5 JUMP JUMPDEST DUP5 ADD SWAP2 PUSH17 0x1034B99036B4B9B9B4B733903937B6329 PUSH1 0x7D SHL PUSH1 0x37 DUP5 ADD MSTORE MLOAD DUP1 SWAP4 DUP7 DUP5 ADD SWAP1 PUSH2 0x11C5 JUMP JUMPDEST ADD SUB PUSH1 0x28 DUP2 ADD DUP10 MSTORE ADD DUP8 PUSH2 0x1204 JUMP JUMPDEST MLOAD SWAP5 DUP6 SWAP4 PUSH3 0x461BCD PUSH1 0xE5 SHL DUP6 MSTORE PUSH1 0x4 DUP6 ADD MSTORE MLOAD DUP1 SWAP3 DUP2 PUSH1 0x24 DUP7 ADD MSTORE DUP6 DUP6 ADD SWAP1 PUSH2 0x11C5 JUMP JUMPDEST PUSH1 0x1F ADD PUSH1 0x1F NOT AND DUP2 ADD SUB ADD SWAP1 REVERT JUMPDEST PUSH1 0x64 DUP4 DUP7 MLOAD SWAP1 PUSH3 0x461BCD PUSH1 0xE5 SHL DUP3 MSTORE DUP1 PUSH1 0x4 DUP4 ADD MSTORE PUSH1 0x24 DUP3 ADD MSTORE PUSH32 0x537472696E67733A20686578206C656E67746820696E73756666696369656E74 PUSH1 0x44 DUP3 ADD MSTORE REVERT JUMPDEST SWAP1 SWAP2 SWAP3 PUSH1 0xF DUP2 AND PUSH1 0x10 DUP2 LT ISZERO PUSH2 0xF6C JUMPI PUSH16 0x181899199A1A9B1B9C1CB0B131B232B3 PUSH1 0x81 SHL SWAP1 BYTE PUSH2 0xF42 DUP6 DUP8 PUSH2 0x129A JUMP JUMPDEST MSTORE8 PUSH1 0x4 SHR SWAP3 DUP1 ISZERO PUSH2 0xF58 JUMPI PUSH1 0x0 NOT ADD SWAP2 SWAP1 PUSH2 0xE0F JUMP JUMPDEST PUSH4 0x4E487B71 PUSH1 0xE0 SHL DUP3 MSTORE PUSH1 0x11 PUSH1 0x4 MSTORE PUSH1 0x24 DUP3 REVERT JUMPDEST PUSH4 0x4E487B71 PUSH1 0xE0 SHL DUP4 MSTORE PUSH1 0x32 PUSH1 0x4 MSTORE PUSH1 0x24 DUP4 REVERT JUMPDEST PUSH4 0x4E487B71 PUSH1 0xE0 SHL DUP2 MSTORE PUSH1 0x32 PUSH1 0x4 MSTORE PUSH1 0x24 SWAP1 REVERT JUMPDEST CALLER PUSH1 0x0 SWAP1 DUP2 MSTORE PUSH32 0xAD3228B676F7D3CD4284A5443F17F1962B36E491B30A40B2405849E597BA5FB5 PUSH1 0x20 SWAP1 DUP2 MSTORE PUSH1 0x40 DUP1 DUP4 KECCAK256 SLOAD SWAP1 SWAP3 SWAP2 SWAP1 PUSH1 0xFF AND ISZERO PUSH2 0xFD7 JUMPI POP POP POP JUMP JUMPDEST PUSH2 0xFE0 CALLER PUSH2 0x12AB JUMP JUMPDEST DUP4 MLOAD DUP4 PUSH2 0xFEC DUP3 PUSH2 0x11E8 JUMP JUMPDEST PUSH1 0x42 DUP3 MSTORE DUP4 DUP3 ADD SWAP5 PUSH1 0x60 CALLDATASIZE DUP8 CALLDATACOPY DUP3 MLOAD ISZERO PUSH2 0xF80 JUMPI PUSH1 0x30 DUP7 MSTORE8 DUP3 MLOAD SWAP1 PUSH1 0x1 SWAP2 DUP3 LT ISZERO PUSH2 0xF80 JUMPI SWAP1 PUSH1 0x78 PUSH1 0x21 DUP6 ADD MSTORE8 PUSH1 0x41 SWAP2 JUMPDEST DUP2 DUP4 GT PUSH2 0x1074 JUMPI POP POP POP PUSH2 0xED0 JUMPI DUP5 PUSH2 0xE9E PUSH1 0x48 PUSH2 0xEC2 SWAP4 PUSH1 0x44 SWAP8 SWAP9 MLOAD SWAP9 DUP10 SWAP2 PUSH2 0xE8F DUP10 DUP5 ADD SWAP9 PUSH23 0x20B1B1B2B9B9A1B7B73A3937B61D1030B1B1B7BAB73A1 PUSH1 0x4D SHL DUP11 MSTORE PUSH2 0xE66 DUP2 MLOAD DUP1 SWAP3 DUP14 PUSH1 0x37 DUP10 ADD SWAP2 ADD PUSH2 0x11C5 JUMP JUMPDEST SWAP1 SWAP2 SWAP3 PUSH1 0xF DUP2 AND PUSH1 0x10 DUP2 LT ISZERO PUSH2 0xF6C JUMPI PUSH16 0x181899199A1A9B1B9C1CB0B131B232B3 PUSH1 0x81 SHL SWAP1 BYTE PUSH2 0x10A4 DUP6 DUP8 PUSH2 0x129A JUMP JUMPDEST MSTORE8 PUSH1 0x4 SHR SWAP3 DUP1 ISZERO PUSH2 0xF58 JUMPI PUSH1 0x0 NOT ADD SWAP2 SWAP1 PUSH2 0x101D JUMP JUMPDEST PUSH1 0x0 DUP2 DUP2 MSTORE PUSH1 0x20 DUP2 DUP2 MSTORE PUSH1 0x40 SWAP3 DUP4 DUP4 KECCAK256 CALLER DUP5 MSTORE DUP3 MSTORE PUSH1 0xFF DUP5 DUP5 KECCAK256 SLOAD AND ISZERO PUSH2 0x10E1 JUMPI POP POP POP POP JUMP JUMPDEST PUSH2 0x10EA CALLER PUSH2 0x12AB JUMP JUMPDEST SWAP1 DUP5 MLOAD SWAP1 PUSH2 0x10F7 DUP3 PUSH2 0x11E8 JUMP JUMPDEST PUSH1 0x42 DUP3 MSTORE DUP4 DUP3 ADD SWAP5 PUSH1 0x60 CALLDATASIZE DUP8 CALLDATACOPY DUP3 MLOAD ISZERO PUSH2 0xF80 JUMPI PUSH1 0x30 DUP7 MSTORE8 DUP3 MLOAD SWAP1 PUSH1 0x1 SWAP2 DUP3 LT ISZERO PUSH2 0xF80 JUMPI SWAP1 PUSH1 0x78 PUSH1 0x21 DUP6 ADD MSTORE8 PUSH1 0x41 SWAP2 JUMPDEST DUP2 DUP4 GT PUSH2 0x117F JUMPI POP POP POP PUSH2 0xED0 JUMPI DUP5 PUSH2 0xE9E PUSH1 0x48 PUSH2 0xEC2 SWAP4 PUSH1 0x44 SWAP8 SWAP9 MLOAD SWAP9 DUP10 SWAP2 PUSH2 0xE8F DUP10 DUP5 ADD SWAP9 PUSH23 0x20B1B1B2B9B9A1B7B73A3937B61D1030B1B1B7BAB73A1 PUSH1 0x4D SHL DUP11 MSTORE PUSH2 0xE66 DUP2 MLOAD DUP1 SWAP3 DUP14 PUSH1 0x37 DUP10 ADD SWAP2 ADD PUSH2 0x11C5 JUMP JUMPDEST SWAP1 SWAP2 SWAP3 PUSH1 0xF DUP2 AND PUSH1 0x10 DUP2 LT ISZERO PUSH2 0xF6C JUMPI PUSH16 0x181899199A1A9B1B9C1CB0B131B232B3 PUSH1 0x81 SHL SWAP1 BYTE PUSH2 0x11AF DUP6 DUP8 PUSH2 0x129A JUMP JUMPDEST MSTORE8 PUSH1 0x4 SHR SWAP3 DUP1 ISZERO PUSH2 0xF58 JUMPI PUSH1 0x0 NOT ADD SWAP2 SWAP1 PUSH2 0x1128 JUMP JUMPDEST PUSH1 0x0 JUMPDEST DUP4 DUP2 LT PUSH2 0x11D8 JUMPI POP POP PUSH1 0x0 SWAP2 ADD MSTORE JUMP JUMPDEST DUP2 DUP2 ADD MLOAD DUP4 DUP3 ADD MSTORE PUSH1 0x20 ADD PUSH2 0x11C8 JUMP JUMPDEST PUSH1 0x80 DUP2 ADD SWAP1 DUP2 LT PUSH8 0xFFFFFFFFFFFFFFFF DUP3 GT OR PUSH2 0x74F JUMPI PUSH1 0x40 MSTORE JUMP JUMPDEST SWAP1 PUSH1 0x1F DUP1 NOT SWAP2 ADD AND DUP2 ADD SWAP1 DUP2 LT PUSH8 0xFFFFFFFFFFFFFFFF DUP3 GT OR PUSH2 0x74F JUMPI PUSH1 0x40 MSTORE JUMP JUMPDEST SWAP1 PUSH1 0x0 SWAP2 DUP1 DUP4 MSTORE DUP3 PUSH1 0x20 MSTORE PUSH1 0x40 DUP4 KECCAK256 SWAP2 PUSH1 0x1 DUP1 PUSH1 0xA0 SHL SUB AND SWAP2 DUP3 DUP5 MSTORE PUSH1 0x20 MSTORE PUSH1 0xFF PUSH1 0x40 DUP5 KECCAK256 SLOAD AND PUSH2 0x1256 JUMPI POP POP POP JUMP JUMPDEST DUP1 DUP4 MSTORE DUP3 PUSH1 0x20 MSTORE PUSH1 0x40 DUP4 KECCAK256 DUP3 DUP5 MSTORE PUSH1 0x20 MSTORE PUSH1 0x40 DUP4 KECCAK256 PUSH1 0xFF NOT DUP2 SLOAD AND SWAP1 SSTORE PUSH32 0xF6391F5C32D9C69D2A47EA670B442974B53935D1EDC7FD64EB21E047A839171B CALLER SWAP4 DUP1 LOG4 JUMP JUMPDEST SWAP1 DUP2 MLOAD DUP2 LT ISZERO PUSH2 0x739 JUMPI ADD PUSH1 0x20 ADD SWAP1 JUMP JUMPDEST PUSH1 0x40 MLOAD SWAP1 PUSH1 0x60 DUP3 ADD DUP3 DUP2 LT PUSH8 0xFFFFFFFFFFFFFFFF DUP3 GT OR PUSH2 0x74F JUMPI PUSH1 0x40 MSTORE PUSH1 0x2A DUP3 MSTORE PUSH1 0x20 DUP3 ADD PUSH1 0x40 CALLDATASIZE DUP3 CALLDATACOPY DUP3 MLOAD ISZERO PUSH2 0x739 JUMPI PUSH1 0x30 SWAP1 MSTORE8 DUP2 MLOAD PUSH1 0x1 SWAP1 DUP2 LT ISZERO PUSH2 0x739 JUMPI PUSH1 0x78 PUSH1 0x21 DUP5 ADD MSTORE8 PUSH1 0x29 SWAP1 JUMPDEST DUP1 DUP3 GT PUSH2 0x134C JUMPI POP POP PUSH2 0x1308 JUMPI SWAP1 JUMP JUMPDEST PUSH1 0x64 PUSH1 0x40 MLOAD PUSH3 0x461BCD PUSH1 0xE5 SHL DUP2 MSTORE PUSH1 0x20 PUSH1 0x4 DUP3 ADD MSTORE PUSH1 0x20 PUSH1 0x24 DUP3 ADD MSTORE PUSH32 0x537472696E67733A20686578206C656E67746820696E73756666696369656E74 PUSH1 0x44 DUP3 ADD MSTORE REVERT JUMPDEST SWAP1 SWAP2 PUSH1 0xF DUP2 AND PUSH1 0x10 DUP2 LT ISZERO PUSH2 0x13A5 JUMPI PUSH16 0x181899199A1A9B1B9C1CB0B131B232B3 PUSH1 0x81 SHL SWAP1 BYTE PUSH2 0x137B DUP5 DUP7 PUSH2 0x129A JUMP JUMPDEST MSTORE8 PUSH1 0x4 SHR SWAP2 DUP1 ISZERO PUSH2 0x1390 JUMPI PUSH1 0x0 NOT ADD SWAP1 PUSH2 0x12F8 JUMP JUMPDEST PUSH1 0x24 PUSH1 0x0 PUSH4 0x4E487B71 PUSH1 0xE0 SHL DUP2 MSTORE PUSH1 0x11 PUSH1 0x4 MSTORE REVERT JUMPDEST PUSH1 0x24 PUSH1 0x0 PUSH4 0x4E487B71 PUSH1 0xE0 SHL DUP2 MSTORE PUSH1 0x32 PUSH1 0x4 MSTORE REVERT JUMPDEST CALLDATALOAD PUSH1 0x1 PUSH1 0x1 PUSH1 0xA0 SHL SUB DUP2 AND DUP2 SUB PUSH2 0xD2F JUMPI SWAP1 JUMP JUMPDEST SWAP1 CALLDATALOAD SWAP1 PUSH1 0x1E NOT DUP2 CALLDATASIZE SUB ADD DUP3 SLT ISZERO PUSH2 0xD2F JUMPI ADD DUP1 CALLDATALOAD SWAP1 PUSH8 0xFFFFFFFFFFFFFFFF DUP3 GT PUSH2 0xD2F JUMPI PUSH1 0x20 ADD SWAP2 DUP2 CALLDATASIZE SUB DUP4 SGT PUSH2 0xD2F JUMPI JUMP JUMPDEST SWAP1 DUP1 PUSH1 0x20 SWAP4 SWAP3 DUP2 DUP5 MSTORE DUP5 DUP5 ADD CALLDATACOPY PUSH1 0x0 DUP3 DUP3 ADD DUP5 ADD MSTORE PUSH1 0x1F ADD PUSH1 0x1F NOT AND ADD ADD SWAP1 JUMP INVALID LOG2 PUSH5 0x6970667358 0x22 SLT KECCAK256 SDIV PUSH14 0xFA42C725FCAAA8A623AE010414CE 0xEC MULMOD PUSH15 0x5673E853DC31F76D59A47835C86473 PUSH16 0x6C634300081300332F8788117E7EFF1D DUP3 0xE9 0x26 0xEC PUSH26 0x4901D17C78024A50270940304540A733656F0D00000000000000 "},"methodIdentifiers":{"DEFAULT_ADMIN_ROLE()":"a217fddf","PLATFORM_ADMIN_ROLE()":"685d34ff","allTokens(uint256)":"634282af","createCreatorToken((address,string,string,uint256,uint256,uint256,uint256,uint256,uint256,uint256,uint256,uint256))":"c0e4b149","creatorTokens(address,uint256)":"db3fa4cc","getAllTokens()":"2a5c792a","getCreatorTokens(address)":"74abfa54","getRoleAdmin(bytes32)":"248a9ca3","getTotalTokens()":"f08b82e6","grantRole(bytes32,address)":"2f2ff15d","hasRole(bytes32,address)":"91d14854","implementation()":"5c60da1b","isCreatorToken(address)":"73403761","platformFeeBps()":"22dcd13e","renounceRole(bytes32,address)":"36568abe","reserveToken()":"f4325d67","revokeRole(bytes32,address)":"d547741f","setImplementation(address)":"d784d426","setPlatformFeeBps(uint256)":"c580c942","setTreasury(address)":"f0f44260","setTrustedForwarder(address)":"da742228","supportsInterface(bytes4)":"01ffc9a7","treasury()":"61d027b3","trustedForwarder()":"7da0a877"}}}}}