{"contracts/MetaTransactionForwarder.sol":{"MetaTransactionForwarder":{"abi":[{"inputs":[],"stateMutability":"nonpayable","type":"constructor"},{"inputs":[],"name":"DeadlineExpired","type":"error"},{"inputs":[{"internalType":"bytes","name":"returnData","type":"bytes"}],"name":"ExecutionFailed","type":"error"},{"inputs":[],"name":"InvalidNonce","type":"error"},{"inputs":[],"name":"InvalidShortString","type":"error"},{"inputs":[],"name":"InvalidSignature","type":"error"},{"inputs":[{"internalType":"string","name":"str","type":"string"}],"name":"StringTooLong","type":"error"},{"inputs":[],"name":"TargetNotAllowed","type":"error"},{"inputs":[],"name":"ZeroAddress","type":"error"},{"anonymous":false,"inputs":[],"name":"EIP712DomainChanged","type":"event"},{"anonymous":false,"inputs":[{"indexed":true,"internalType":"address","name":"from","type":"address"},{"indexed":true,"internalType":"address","name":"to","type":"address"},{"indexed":false,"internalType":"bytes","name":"data","type":"bytes"},{"indexed":false,"internalType":"uint256","name":"nonce","type":"uint256"},{"indexed":false,"internalType":"bool","name":"success","type":"bool"}],"name":"MetaTxExecuted","type":"event"},{"anonymous":false,"inputs":[{"indexed":true,"internalType":"address","name":"relayer","type":"address"}],"name":"RelayerAdded","type":"event"},{"anonymous":false,"inputs":[{"indexed":true,"internalType":"address","name":"relayer","type":"address"}],"name":"RelayerRemoved","type":"event"},{"anonymous":false,"inputs":[{"indexed":true,"internalType":"bytes32","name":"role","type":"bytes32"},{"indexed":true,"internalType":"bytes32","name":"previousAdminRole","type":"bytes32"},{"indexed":true,"internalType":"bytes32","name":"newAdminRole","type":"bytes32"}],"name":"RoleAdminChanged","type":"event"},{"anonymous":false,"inputs":[{"indexed":true,"internalType":"bytes32","name":"role","type":"bytes32"},{"indexed":true,"internalType":"address","name":"account","type":"address"},{"indexed":true,"internalType":"address","name":"sender","type":"address"}],"name":"RoleGranted","type":"event"},{"anonymous":false,"inputs":[{"indexed":true,"internalType":"bytes32","name":"role","type":"bytes32"},{"indexed":true,"internalType":"address","name":"account","type":"address"},{"indexed":true,"internalType":"address","name":"sender","type":"address"}],"name":"RoleRevoked","type":"event"},{"anonymous":false,"inputs":[{"indexed":true,"internalType":"address","name":"target","type":"address"},{"indexed":false,"internalType":"bool","name":"allowed","type":"bool"}],"name":"TargetAllowed","type":"event"},{"inputs":[],"name":"DEFAULT_ADMIN_ROLE","outputs":[{"internalType":"bytes32","name":"","type":"bytes32"}],"stateMutability":"view","type":"function"},{"inputs":[],"name":"PLATFORM_ADMIN_ROLE","outputs":[{"internalType":"bytes32","name":"","type":"bytes32"}],"stateMutability":"view","type":"function"},{"inputs":[],"name":"RELAYER_ROLE","outputs":[{"internalType":"bytes32","name":"","type":"bytes32"}],"stateMutability":"view","type":"function"},{"inputs":[{"internalType":"address","name":"relayer","type":"address"}],"name":"addRelayer","outputs":[],"stateMutability":"nonpayable","type":"function"},{"inputs":[],"name":"domainSeparator","outputs":[{"internalType":"bytes32","name":"","type":"bytes32"}],"stateMutability":"view","type":"function"},{"inputs":[],"name":"eip712Domain","outputs":[{"internalType":"bytes1","name":"fields","type":"bytes1"},{"internalType":"string","name":"name","type":"string"},{"internalType":"string","name":"version","type":"string"},{"internalType":"uint256","name":"chainId","type":"uint256"},{"internalType":"address","name":"verifyingContract","type":"address"},{"internalType":"bytes32","name":"salt","type":"bytes32"},{"internalType":"uint256[]","name":"extensions","type":"uint256[]"}],"stateMutability":"view","type":"function"},{"inputs":[],"name":"enforceTargetWhitelist","outputs":[{"internalType":"bool","name":"","type":"bool"}],"stateMutability":"view","type":"function"},{"inputs":[{"components":[{"internalType":"address","name":"from","type":"address"},{"internalType":"address","name":"to","type":"address"},{"internalType":"uint256","name":"value","type":"uint256"},{"internalType":"uint256","name":"gas","type":"uint256"},{"internalType":"uint256","name":"nonce","type":"uint256"},{"internalType":"bytes","name":"data","type":"bytes"},{"internalType":"uint256","name":"deadline","type":"uint256"}],"internalType":"struct MetaTransactionForwarder.MetaTransaction","name":"metaTx","type":"tuple"},{"internalType":"bytes","name":"signature","type":"bytes"}],"name":"execute","outputs":[{"internalType":"bool","name":"success","type":"bool"},{"internalType":"bytes","name":"returnData","type":"bytes"}],"stateMutability":"nonpayable","type":"function"},{"inputs":[{"internalType":"address","name":"user","type":"address"}],"name":"getNonce","outputs":[{"internalType":"uint256","name":"","type":"uint256"}],"stateMutability":"view","type":"function"},{"inputs":[{"internalType":"bytes32","name":"role","type":"bytes32"}],"name":"getRoleAdmin","outputs":[{"internalType":"bytes32","name":"","type":"bytes32"}],"stateMutability":"view","type":"function"},{"inputs":[{"internalType":"bytes32","name":"role","type":"bytes32"},{"internalType":"address","name":"account","type":"address"}],"name":"grantRole","outputs":[],"stateMutability":"nonpayable","type":"function"},{"inputs":[{"internalType":"bytes32","name":"role","type":"bytes32"},{"internalType":"address","name":"account","type":"address"}],"name":"hasRole","outputs":[{"internalType":"bool","name":"","type":"bool"}],"stateMutability":"view","type":"function"},{"inputs":[{"internalType":"address","name":"","type":"address"}],"name":"isTargetAllowed","outputs":[{"internalType":"bool","name":"","type":"bool"}],"stateMutability":"view","type":"function"},{"inputs":[{"internalType":"address","name":"","type":"address"}],"name":"nonces","outputs":[{"internalType":"uint256","name":"","type":"uint256"}],"stateMutability":"view","type":"function"},{"inputs":[{"internalType":"address","name":"relayer","type":"address"}],"name":"removeRelayer","outputs":[],"stateMutability":"nonpayable","type":"function"},{"inputs":[{"internalType":"bytes32","name":"role","type":"bytes32"},{"internalType":"address","name":"account","type":"address"}],"name":"renounceRole","outputs":[],"stateMutability":"nonpayable","type":"function"},{"inputs":[{"internalType":"bytes32","name":"role","type":"bytes32"},{"internalType":"address","name":"account","type":"address"}],"name":"revokeRole","outputs":[],"stateMutability":"nonpayable","type":"function"},{"inputs":[{"internalType":"bool","name":"enforce","type":"bool"}],"name":"setEnforceTargetWhitelist","outputs":[],"stateMutability":"nonpayable","type":"function"},{"inputs":[{"internalType":"address","name":"target","type":"address"},{"internalType":"bool","name":"allowed","type":"bool"}],"name":"setTargetAllowed","outputs":[],"stateMutability":"nonpayable","type":"function"},{"inputs":[{"internalType":"bytes4","name":"interfaceId","type":"bytes4"}],"name":"supportsInterface","outputs":[{"internalType":"bool","name":"","type":"bool"}],"stateMutability":"view","type":"function"},{"inputs":[{"components":[{"internalType":"address","name":"from","type":"address"},{"internalType":"address","name":"to","type":"address"},{"internalType":"uint256","name":"value","type":"uint256"},{"internalType":"uint256","name":"gas","type":"uint256"},{"internalType":"uint256","name":"nonce","type":"uint256"},{"internalType":"bytes","name":"data","type":"bytes"},{"internalType":"uint256","name":"deadline","type":"uint256"}],"internalType":"struct MetaTransactionForwarder.MetaTransaction","name":"metaTx","type":"tuple"},{"internalType":"bytes","name":"signature","type":"bytes"}],"name":"verify","outputs":[{"internalType":"bool","name":"valid","type":"bool"}],"stateMutability":"view","type":"function"}],"evm":{"bytecode":{"linkReferences":{},"object":"6101606040818152346200031c57620000188262000321565b601b82526020918281017f43726561746f72546f6b204d657461205472616e73616374696f6e00000000008152825193620000538562000321565b60018552808501603160f81b81526200006c846200033d565b926101209384526200007e8762000514565b94610140958652519020958660e05251902093610100958587524660a052815195838701917f8b73c3c69bb8fe3d512ecc4cf759cc79239f7b179b0ffacaa9a75d522b39400f83528388015260608701524660808701523060a087015260a0865260c086019580871060018060401b0388111762000306578683525190206080523060c052600090818052818352808220338352835260ff818320541615620002ac575b7f5246556c0ab216b5b325ad7c539bfbd1a07c768773cdf810fecd3c3375c27407808352828452818320338452845260ff82842054161562000250575b507fe2b7fb3b832174769106daebcfd6d1970523240dda11281102db9363b83b0dc492838352828152818320338452815260ff828420541615620001f2575b5050505060ff1960055416600555611b139384620006cd8539608051846118be015260a0518461198a015260c05184611888015260e0518461190d015251836119330152518261035f015251816103880152f35b83835282815281832033845290528120805460ff1916600117905560143610620002495736601319013560601c5b6001600160a01b0316913391600080516020620021e08339815191529080a4388080806200019e565b3362000220565b8083528284528183203384528452818320805460ff1916600117905560143610620002a55736601319013560601c5b6001600160a01b0316903390600080516020620021e08339815191528580a4386200015f565b336200027f565b8180528183528082203383528352808220805460ff1916600117905560143610620002ff5736601319013560601c5b6001600160a01b03163383600080516020620021e08339815191528180a462000122565b33620002db565b634e487b7160e01b600052604160045260246000fd5b600080fd5b604081019081106001600160401b038211176200030657604052565b805160209081811015620003da5750601f8251116200037957808251920151908083106200036a57501790565b82600019910360031b1b161790565b90604051809263305a27a960e01b82528060048301528251908160248401526000935b828510620003c0575050604492506000838284010152601f80199101168101030190fd5b84810182015186860160440152938101938593506200039c565b9192916001600160401b038111620003065760019182548381811c9116801562000509575b82821014620004f357601f8111620004ba575b5080601f83116001146200045257508192939460009262000446575b5050600019600383901b1c191690821b17905560ff90565b0151905038806200042e565b90601f198316958460005282600020926000905b888210620004a2575050838596971062000488575b505050811b01905560ff90565b015160001960f88460031b161c191690553880806200047b565b80878596829496860151815501950193019062000466565b8360005283601f83600020920160051c820191601f850160051c015b828110620004e657505062000412565b60008155018490620004d6565b634e487b7160e01b600052602260045260246000fd5b90607f1690620003ff565b805160209081811015620005a25750601f8251116200054157808251920151908083106200036a57501790565b90604051809263305a27a960e01b82528060048301528251908160248401526000935b82851062000588575050604492506000838284010152601f80199101168101030190fd5b848101820151868601604401529381019385935062000564565b906001600160401b0382116200030657600254926001938481811c91168015620006c1575b83821014620004f357601f811162000687575b5081601f84116001146200061b57509282939183926000946200060f575b50501b916000199060031b1c19161760025560ff90565b015192503880620005f8565b919083601f198116600260005284600020946000905b888383106200066c575050501062000652575b505050811b0160025560ff90565b015160001960f88460031b161c1916905538808062000644565b85870151885590960195948501948793509081019062000631565b600260005284601f84600020920160051c820191601f860160051c015b828110620006b4575050620005da565b60008155018590620006a4565b90607f1690620005c756fe6080604052600436101561001257600080fd5b60003560e01c8063019fe88514610da857806301ffc9a714610d52578063248a9ca314610d235780632abf912c14610d005780632d0335ab146104695780632f2ff15d14610c4357806336568abe14610ba75780633a3d56fa14610b2157806344d46c8e146106155780635309fa47146105d657806360f0a5ac146104de578063685d34ff146104a35780637ecebe001461046957806384b0196e1461034957806391d14854146102fc578063926d7d7f146102d35780639aa0c1521461029a578063a217fddf1461027e578063d547741f1461023d578063dd39f00d1461012b5763f698da251461010357600080fd5b3461012657600036600319011261012657602061011e611885565b604051908152f35b600080fd5b3461012657602036600319011261012657610144610e32565b61014c610ea6565b6001600160a01b0390811690811561022b5760008281527ffaf93c3d007e112089dc8351e013e6685ef67703975d0224b26fc45941d4f1f56020526040902054600080516020611abe83398151915291839160ff16156101cf575b507f03580ee9f53a62b7cb409a2cb56f9be87747dd15017afc5cef6eef321e4fb2c5600080a2005b8260005260006020526040600020826000526020526040600020600160ff198254161790556101fc611aa5565b16917f2f8788117e7eff1d82e926ec794901d17c78024a50270940304540a733656f0d600080a48181816101a7565b60405163d92e233d60e01b8152600490fd5b346101265760403660031901126101265761027c60043561025c610e48565b908060005260006020526102776001604060002001546110a9565b611221565b005b3461012657600036600319011261012657602060405160008152f35b3461012657602036600319011261012657600435801515809103610126576102c0610ea6565b60ff801960055416911617600555600080f35b34610126576000366003190112610126576020604051600080516020611abe8339815191528152f35b3461012657604036600319011261012657610315610e48565b600435600052600060205260406000209060018060a01b0316600052602052602060ff604060002054166040519015158152f35b34610126576000366003190112610126576103837f00000000000000000000000000000000000000000000000000000000000000006113a2565b6103ac7f00000000000000000000000000000000000000000000000000000000000000006114c9565b60405160208082019282841067ffffffffffffffff85111761045357918161040685946103f8979660405260008452604051978897600f60f81b895260e0858a015260e0890190610e81565b908782036040890152610e81565b91466060870152306080870152600060a087015285830360c0870152519182815201929160005b82811061043c57505050500390f35b83518552869550938101939281019260010161042d565b634e487b7160e01b600052604160045260246000fd5b34610126576020366003190112610126576001600160a01b0361048a610e32565b1660005260036020526020604060002054604051908152f35b346101265760003660031901126101265760206040517f5246556c0ab216b5b325ad7c539bfbd1a07c768773cdf810fecd3c3375c274078152f35b34610126576020366003190112610126576104f7610e32565b6104ff610ea6565b6001600160a01b0390811660008181527ffaf93c3d007e112089dc8351e013e6685ef67703975d0224b26fc45941d4f1f560205260409020549091600080516020611abe8339815191529183919060ff1661057d575b507f10e1f7ce9fd7d1b90a66d13a2ab3cb8dd7f29f3f8d520b143b063ccfbab6906b600080a2005b826000526000602052604060002082600052602052604060002060ff1981541690556105a7611aa5565b16917ff6391f5c32d9c69d2a47ea670b442974b53935d1edc7fd64eb21e047a839171b600080a4818181610555565b34610126576020366003190112610126576001600160a01b036105f7610e32565b166000526004602052602060ff604060002054166040519015158152f35b346101265761062336610dcb565b9061062c611aa5565b6001600160a01b031660008181527ffaf93c3d007e112089dc8351e013e6685ef67703975d0224b26fc45941d4f1f56020526040902054600080516020611abe833981519152919060ff161561098c57505060c083013580421161097a576001600160a01b0361069b8561159f565b1660005260036020526040600020546080850135036109685760ff600554168061093b575b61092957836106ce8161159f565b9360208201936106dd8561159f565b936106eb60a08501856115b3565b36906106f6926115e6565b805190602001209060405197889160208301936060880135988960408a01356080819b013592610726968961161d565b0396601f1997888101825261073b90826111ff565b5190206107479061185f565b913690610753926115e6565b61075c91611798565b6107659061167e565b6001600160a01b036107768761159f565b166001600160a01b0390911603610917576001600160a01b036107988661159f565b166000526003602052604060002080546000198114610901576080937f4c5f49eab9978d45f3690b6b36724de3a2dc79b75b49ad70c0665a6798e4ba6d93600093600185940190556107ed60a08a018a6115b3565b61083660346107fe8d95949561159f565b9260405193818592602084019889378201906bffffffffffffffffffffffff199060601b1660208201520360148101845201826111ff565b61083f8961159f565b905193f13d156108f857823d96610855886112aa565b97610863604051998a6111ff565b88523d600060208a013e5b61088061087a8261159f565b9661159f565b96601f61089060a08401846115b3565b978896919460405197889660608852816060890152838801376000868b0183015201356020850152151560408401819052986001600160a01b0390811698169601168101030190a36108f46040519283928352604060208401526040830190610e81565b0390f35b8260609661086e565b634e487b7160e01b600052601160045260246000fd5b604051638baa579f60e01b8152600490fd5b6040516348cbf26d60e01b8152600490fd5b506001600160a01b036109506020860161159f565b16600052600460205260ff60406000205416156106c0565b604051633ab3447f60e11b8152600490fd5b604051631ab7da6b60e01b8152600490fd5b610995906112d7565b604051916109a2836111e3565b6042835260208301906060368337835115610b0b57603082538351600190811015610b0b57607860218601536041905b808211610ac7575050610a83576048610a5092610a5f92610a7f9560405195869376020b1b1b2b9b9a1b7b73a3937b61d1030b1b1b7bab73a1604d1b6020860152610a27815180926020603789019101610e5e565b8401917001034b99036b4b9b9b4b733903937b6329607d1b603784015251809386840190610e5e565b010360288101845201826111ff565b60405162461bcd60e51b8152602060048201529182916024830190610e81565b0390fd5b606460405162461bcd60e51b815260206004820152602060248201527f537472696e67733a20686578206c656e67746820696e73756666696369656e746044820152fd5b9091600f81166010811015610b0b576f181899199a1a9b1b9c1cb0b131b232b360811b901a610af684886112c6565b5360041c9180156109015760001901906109d2565b634e487b7160e01b600052603260045260246000fd5b3461012657604036600319011261012657610b3a610e32565b6024359081151580920361012657610b50610ea6565b6001600160a01b031690811561022b5760207fa15b89ddfd4f8f39b42c00d0e35440aa574da8d20d9e1d886e42edf16ce9ad4c918360005260048252604060002060ff1981541660ff8316179055604051908152a2005b3461012657604036600319011261012657610bc0610e48565b6001600160a01b0380610bd1611aa5565b1690821603610be65761027c90600435611221565b60405162461bcd60e51b815260206004820152602f60248201527f416363657373436f6e74726f6c3a2063616e206f6e6c792072656e6f756e636560448201526e103937b632b9903337b91039b2b63360891b6064820152608490fd5b3461012657604036600319011261012657600435610c5f610e48565b816000526000602052610c796001604060002001546110a9565b81600052600060205260406000209060018060a01b03809116918260005260205260ff6040600020541615610caa57005b8260005260006020526040600020826000526020526040600020600160ff19825416179055610cd7611aa5565b16917f2f8788117e7eff1d82e926ec794901d17c78024a50270940304540a733656f0d600080a4005b3461012657600036600319011261012657602060ff600554166040519015158152f35b346101265760203660031901126101265760043560005260006020526020600160406000200154604051908152f35b346101265760203660031901126101265760043563ffffffff60e01b811680910361012657602090637965db0b60e01b8114908115610d97575b506040519015158152f35b6301ffc9a760e01b14905082610d8c565b34610126576020610dc1610dbb36610dcb565b916119b0565b6040519015158152f35b90600319906040828401126101265760043567ffffffffffffffff928382116101265760e090828603011261012657600401926024359083821161012657806023830112156101265781600401359384116101265760248483010111610126576024019190565b600435906001600160a01b038216820361012657565b602435906001600160a01b038216820361012657565b60005b838110610e715750506000910152565b8181015183820152602001610e61565b90602091610e9a81518092818552858086019101610e5e565b601f01601f1916010190565b610eae611aa5565b6001600160a01b031660008181527f0790b0aaeb4157b4822815d95bf3d9318a1561c876c520e6cca704be6f4d63a66020908152604080832054909391927f5246556c0ab216b5b325ad7c539bfbd1a07c768773cdf810fecd3c3375c2740792909160ff1615610f1f575050505050565b610f28906112d7565b91845190610f35826111e3565b6042825284820192606036853782511561109557603084538251906001918210156110955790607860218501536041915b81831161102757505050610fe5576048610a7f938693610fc993610fba985198899376020b1b1b2b9b9a1b7b73a3937b61d1030b1b1b7bab73a1604d1b8a860152610a27815180928c603789019101610e5e565b010360288101875201856111ff565b5192839262461bcd60e51b845260048401526024830190610e81565b60648486519062461bcd60e51b825280600483015260248201527f537472696e67733a20686578206c656e67746820696e73756666696369656e746044820152fd5b909192600f81166010811015611081576f181899199a1a9b1b9c1cb0b131b232b360811b901a61105785876112c6565b5360041c92801561106d57600019019190610f66565b634e487b7160e01b82526011600452602482fd5b634e487b7160e01b83526032600452602483fd5b634e487b7160e01b81526032600452602490fd5b6110b1611aa5565b906000908082526020918083526040938482209060018060a01b031690818352845260ff8583205416156110e6575050505050565b6110ef906112d7565b918451906110fc826111e3565b6042825284820192606036853782511561109557603084538251906001918210156110955790607860218501536041915b81831161118157505050610fe5576048610a7f938693610fc993610fba985198899376020b1b1b2b9b9a1b7b73a3937b61d1030b1b1b7bab73a1604d1b8a860152610a27815180928c603789019101610e5e565b909192600f81166010811015611081576f181899199a1a9b1b9c1cb0b131b232b360811b901a6111b185876112c6565b5360041c92801561106d5760001901919061112d565b6040810190811067ffffffffffffffff82111761045357604052565b6080810190811067ffffffffffffffff82111761045357604052565b90601f8019910116810190811067ffffffffffffffff82111761045357604052565b6000818152602081815260408083206001600160a01b039586168085529252822054919390929160ff16611256575b50505050565b7ff6391f5c32d9c69d2a47ea670b442974b53935d1edc7fd64eb21e047a839171b9082855284602052604085208486526020526040852060ff19815416905561129d611aa5565b169380a438808080611250565b67ffffffffffffffff811161045357601f01601f191660200190565b908151811015610b0b570160200190565b604051906060820182811067ffffffffffffffff82111761045357604052602a8252602082016040368237825115610b0b57603090538151600190811015610b0b57607860218401536029905b808211611334575050610a835790565b9091600f8116601081101561138d576f181899199a1a9b1b9c1cb0b131b232b360811b901a61136384866112c6565b5360041c918015611378576000190190611324565b60246000634e487b7160e01b81526011600452fd5b60246000634e487b7160e01b81526032600452fd5b60ff81146113e05760ff811690601f82116113ce57604051916113c4836111c7565b8252602082015290565b604051632cd44ac360e21b8152600490fd5b50604051600060019081549182811c908084169384156114bf575b60209485841081146114ab578387528694939291811561148b575060011461142f575b505061142c925003826111ff565b90565b60008181527fb10e2d527612073b26eecdfd717e6a320cf44b4afac2b0732d9fcbe2b7fa0cf695935091905b81831061147357505061142c9350820101388061141e565b8554878401850152948501948694509183019161145b565b91505061142c94925060ff191682840152151560051b820101388061141e565b634e487b7160e01b85526022600452602485fd5b91607f16916113fb565b60ff81146114eb5760ff811690601f82116113ce57604051916113c4836111c7565b50604051600060025490600182811c90808416938415611595575b60209485841081146114ab578387528694939291811561148b575060011461153657505061142c925003826111ff565b9093915060026000527f405787fa12a823e0f2b7631cc41b3ba8828b3321ca811111fa75cd3aa3bb5ace936000915b81831061157d57505061142c9350820101388061141e565b85548784018501529485019486945091830191611565565b91607f1691611506565b356001600160a01b03811681036101265790565b903590601e1981360301821215610126570180359067ffffffffffffffff82116101265760200191813603831361012657565b9291926115f2826112aa565b9161160060405193846111ff565b829481845281830111610126578281602093846000960137010152565b93909260e09592989796936101008601997fdfda34b7bac6fd61fb892a6c112b3f89c2a35bf7a9cbacfe739392f72d4a03a5875260018060a01b0380921660208801521660408601526060850152608084015260a083015260c08201520152565b6005811015611782578061168f5750565b600181036116dc5760405162461bcd60e51b815260206004820152601860248201527f45434453413a20696e76616c6964207369676e617475726500000000000000006044820152606490fd5b600281036117295760405162461bcd60e51b815260206004820152601f60248201527f45434453413a20696e76616c6964207369676e6174757265206c656e677468006044820152606490fd5b60031461173257565b60405162461bcd60e51b815260206004820152602260248201527f45434453413a20696e76616c6964207369676e6174757265202773272076616c604482015261756560f01b6064820152608490fd5b634e487b7160e01b600052602160045260246000fd5b9060418151146000146117c6576117c2916020820151906060604084015193015160001a906117d0565b9091565b5050600090600290565b9291907f7fffffffffffffffffffffffffffffff5d576e7357a4501ddfe92f46681b20a083116118535791608094939160ff602094604051948552168484015260408301526060820152600093849182805260015afa156118465781516001600160a01b03811615611840579190565b50600190565b50604051903d90823e3d90fd5b50505050600090600390565b60429061186a611885565b906040519161190160f01b8352600283015260228201522090565b307f00000000000000000000000000000000000000000000000000000000000000006001600160a01b03161480611987575b156118e0577f000000000000000000000000000000000000000000000000000000000000000090565b60405160208101907f8b73c3c69bb8fe3d512ecc4cf759cc79239f7b179b0ffacaa9a75d522b39400f82527f000000000000000000000000000000000000000000000000000000000000000060408201527f000000000000000000000000000000000000000000000000000000000000000060608201524660808201523060a082015260a0815260c0810181811067ffffffffffffffff8211176104535760405251902090565b507f000000000000000000000000000000000000000000000000000000000000000046146118b7565b60c081013591824211611a9c576001600160a01b039260808301359290846119d78361159f565b1660005260036020526040600020548403611a9157611a8595611a77611a8a94611a6f889786611a67611a7d97611a59611a108461159f565b91611a1d6020860161159f565b95611a35611a2e60a08801886115b3565b36916115e6565b6020815191012090604051968795602087019960406060840135930135918b61161d565b03601f1981018352826111ff565b51902061185f565b9236916115e6565b90611798565b95909561167e565b61159f565b1691161490565b505050505050600090565b50505050600090565b60143610611ab95736601319013560601c90565b339056fee2b7fb3b832174769106daebcfd6d1970523240dda11281102db9363b83b0dc4a2646970667358221220db2569566a9af5446a15b69175ed293ffdd6715c563a167934c3efdad85bfdc564736f6c634300081300332f8788117e7eff1d82e926ec794901d17c78024a50270940304540a733656f0d","opcodes":"PUSH2 0x160 PUSH1 0x40 DUP2 DUP2 MSTORE CALLVALUE PUSH3 0x31C JUMPI PUSH3 0x18 DUP3 PUSH3 0x321 JUMP JUMPDEST PUSH1 0x1B DUP3 MSTORE PUSH1 0x20 SWAP2 DUP3 DUP2 ADD PUSH32 0x43726561746F72546F6B204D657461205472616E73616374696F6E0000000000 DUP2 MSTORE DUP3 MLOAD SWAP4 PUSH3 0x53 DUP6 PUSH3 0x321 JUMP JUMPDEST PUSH1 0x1 DUP6 MSTORE DUP1 DUP6 ADD PUSH1 0x31 PUSH1 0xF8 SHL DUP2 MSTORE PUSH3 0x6C DUP5 PUSH3 0x33D JUMP JUMPDEST SWAP3 PUSH2 0x120 SWAP4 DUP5 MSTORE PUSH3 0x7E DUP8 PUSH3 0x514 JUMP JUMPDEST SWAP5 PUSH2 0x140 SWAP6 DUP7 MSTORE MLOAD SWAP1 KECCAK256 SWAP6 DUP7 PUSH1 0xE0 MSTORE MLOAD SWAP1 KECCAK256 SWAP4 PUSH2 0x100 SWAP6 DUP6 DUP8 MSTORE CHAINID PUSH1 0xA0 MSTORE DUP2 MLOAD SWAP6 DUP4 DUP8 ADD SWAP2 PUSH32 0x8B73C3C69BB8FE3D512ECC4CF759CC79239F7B179B0FFACAA9A75D522B39400F DUP4 MSTORE DUP4 DUP9 ADD MSTORE PUSH1 0x60 DUP8 ADD MSTORE CHAINID PUSH1 0x80 DUP8 ADD MSTORE ADDRESS PUSH1 0xA0 DUP8 ADD MSTORE PUSH1 0xA0 DUP7 MSTORE PUSH1 0xC0 DUP7 ADD SWAP6 DUP1 DUP8 LT PUSH1 0x1 DUP1 PUSH1 0x40 SHL SUB DUP9 GT OR PUSH3 0x306 JUMPI DUP7 DUP4 MSTORE MLOAD SWAP1 KECCAK256 PUSH1 0x80 MSTORE ADDRESS PUSH1 0xC0 MSTORE PUSH1 0x0 SWAP1 DUP2 DUP1 MSTORE DUP2 DUP4 MSTORE DUP1 DUP3 KECCAK256 CALLER DUP4 MSTORE DUP4 MSTORE PUSH1 0xFF DUP2 DUP4 KECCAK256 SLOAD AND ISZERO PUSH3 0x2AC JUMPI JUMPDEST PUSH32 0x5246556C0AB216B5B325AD7C539BFBD1A07C768773CDF810FECD3C3375C27407 DUP1 DUP4 MSTORE DUP3 DUP5 MSTORE DUP2 DUP4 KECCAK256 CALLER DUP5 MSTORE DUP5 MSTORE PUSH1 0xFF DUP3 DUP5 KECCAK256 SLOAD AND ISZERO PUSH3 0x250 JUMPI JUMPDEST POP PUSH32 0xE2B7FB3B832174769106DAEBCFD6D1970523240DDA11281102DB9363B83B0DC4 SWAP3 DUP4 DUP4 MSTORE DUP3 DUP2 MSTORE DUP2 DUP4 KECCAK256 CALLER DUP5 MSTORE DUP2 MSTORE PUSH1 0xFF DUP3 DUP5 KECCAK256 SLOAD AND ISZERO PUSH3 0x1F2 JUMPI JUMPDEST POP POP POP POP PUSH1 0xFF NOT PUSH1 0x5 SLOAD AND PUSH1 0x5 SSTORE PUSH2 0x1B13 SWAP4 DUP5 PUSH3 0x6CD DUP6 CODECOPY PUSH1 0x80 MLOAD DUP5 PUSH2 0x18BE ADD MSTORE PUSH1 0xA0 MLOAD DUP5 PUSH2 0x198A ADD MSTORE PUSH1 0xC0 MLOAD DUP5 PUSH2 0x1888 ADD MSTORE PUSH1 0xE0 MLOAD DUP5 PUSH2 0x190D ADD MSTORE MLOAD DUP4 PUSH2 0x1933 ADD MSTORE MLOAD DUP3 PUSH2 0x35F ADD MSTORE MLOAD DUP2 PUSH2 0x388 ADD MSTORE RETURN JUMPDEST DUP4 DUP4 MSTORE DUP3 DUP2 MSTORE DUP2 DUP4 KECCAK256 CALLER DUP5 MSTORE SWAP1 MSTORE DUP2 KECCAK256 DUP1 SLOAD PUSH1 0xFF NOT AND PUSH1 0x1 OR SWAP1 SSTORE PUSH1 0x14 CALLDATASIZE LT PUSH3 0x249 JUMPI CALLDATASIZE PUSH1 0x13 NOT ADD CALLDATALOAD PUSH1 0x60 SHR JUMPDEST PUSH1 0x1 PUSH1 0x1 PUSH1 0xA0 SHL SUB AND SWAP2 CALLER SWAP2 PUSH1 0x0 DUP1 MLOAD PUSH1 0x20 PUSH3 0x21E0 DUP4 CODECOPY DUP2 MLOAD SWAP2 MSTORE SWAP1 DUP1 LOG4 CODESIZE DUP1 DUP1 DUP1 PUSH3 0x19E JUMP JUMPDEST CALLER PUSH3 0x220 JUMP JUMPDEST DUP1 DUP4 MSTORE DUP3 DUP5 MSTORE DUP2 DUP4 KECCAK256 CALLER DUP5 MSTORE DUP5 MSTORE DUP2 DUP4 KECCAK256 DUP1 SLOAD PUSH1 0xFF NOT AND PUSH1 0x1 OR SWAP1 SSTORE PUSH1 0x14 CALLDATASIZE LT PUSH3 0x2A5 JUMPI CALLDATASIZE PUSH1 0x13 NOT ADD CALLDATALOAD PUSH1 0x60 SHR JUMPDEST PUSH1 0x1 PUSH1 0x1 PUSH1 0xA0 SHL SUB AND SWAP1 CALLER SWAP1 PUSH1 0x0 DUP1 MLOAD PUSH1 0x20 PUSH3 0x21E0 DUP4 CODECOPY DUP2 MLOAD SWAP2 MSTORE DUP6 DUP1 LOG4 CODESIZE PUSH3 0x15F JUMP JUMPDEST CALLER PUSH3 0x27F JUMP JUMPDEST DUP2 DUP1 MSTORE DUP2 DUP4 MSTORE DUP1 DUP3 KECCAK256 CALLER DUP4 MSTORE DUP4 MSTORE DUP1 DUP3 KECCAK256 DUP1 SLOAD PUSH1 0xFF NOT AND PUSH1 0x1 OR SWAP1 SSTORE PUSH1 0x14 CALLDATASIZE LT PUSH3 0x2FF JUMPI CALLDATASIZE PUSH1 0x13 NOT ADD CALLDATALOAD PUSH1 0x60 SHR JUMPDEST PUSH1 0x1 PUSH1 0x1 PUSH1 0xA0 SHL SUB AND CALLER DUP4 PUSH1 0x0 DUP1 MLOAD PUSH1 0x20 PUSH3 0x21E0 DUP4 CODECOPY DUP2 MLOAD SWAP2 MSTORE DUP2 DUP1 LOG4 PUSH3 0x122 JUMP JUMPDEST CALLER PUSH3 0x2DB JUMP JUMPDEST PUSH4 0x4E487B71 PUSH1 0xE0 SHL PUSH1 0x0 MSTORE PUSH1 0x41 PUSH1 0x4 MSTORE PUSH1 0x24 PUSH1 0x0 REVERT JUMPDEST PUSH1 0x0 DUP1 REVERT JUMPDEST PUSH1 0x40 DUP2 ADD SWAP1 DUP2 LT PUSH1 0x1 PUSH1 0x1 PUSH1 0x40 SHL SUB DUP3 GT OR PUSH3 0x306 JUMPI PUSH1 0x40 MSTORE JUMP JUMPDEST DUP1 MLOAD PUSH1 0x20 SWAP1 DUP2 DUP2 LT ISZERO PUSH3 0x3DA JUMPI POP PUSH1 0x1F DUP3 MLOAD GT PUSH3 0x379 JUMPI DUP1 DUP3 MLOAD SWAP3 ADD MLOAD SWAP1 DUP1 DUP4 LT PUSH3 0x36A JUMPI POP OR SWAP1 JUMP JUMPDEST DUP3 PUSH1 0x0 NOT SWAP2 SUB PUSH1 0x3 SHL SHL AND OR SWAP1 JUMP JUMPDEST SWAP1 PUSH1 0x40 MLOAD DUP1 SWAP3 PUSH4 0x305A27A9 PUSH1 0xE0 SHL DUP3 MSTORE DUP1 PUSH1 0x4 DUP4 ADD MSTORE DUP3 MLOAD SWAP1 DUP2 PUSH1 0x24 DUP5 ADD MSTORE PUSH1 0x0 SWAP4 JUMPDEST DUP3 DUP6 LT PUSH3 0x3C0 JUMPI POP POP PUSH1 0x44 SWAP3 POP PUSH1 0x0 DUP4 DUP3 DUP5 ADD ADD MSTORE PUSH1 0x1F DUP1 NOT SWAP2 ADD AND DUP2 ADD SUB ADD SWAP1 REVERT JUMPDEST DUP5 DUP2 ADD DUP3 ADD MLOAD DUP7 DUP7 ADD PUSH1 0x44 ADD MSTORE SWAP4 DUP2 ADD SWAP4 DUP6 SWAP4 POP PUSH3 0x39C JUMP JUMPDEST SWAP2 SWAP3 SWAP2 PUSH1 0x1 PUSH1 0x1 PUSH1 0x40 SHL SUB DUP2 GT PUSH3 0x306 JUMPI PUSH1 0x1 SWAP2 DUP3 SLOAD DUP4 DUP2 DUP2 SHR SWAP2 AND DUP1 ISZERO PUSH3 0x509 JUMPI JUMPDEST DUP3 DUP3 LT EQ PUSH3 0x4F3 JUMPI PUSH1 0x1F DUP2 GT PUSH3 0x4BA JUMPI JUMPDEST POP DUP1 PUSH1 0x1F DUP4 GT PUSH1 0x1 EQ PUSH3 0x452 JUMPI POP DUP2 SWAP3 SWAP4 SWAP5 PUSH1 0x0 SWAP3 PUSH3 0x446 JUMPI JUMPDEST POP POP PUSH1 0x0 NOT PUSH1 0x3 DUP4 SWAP1 SHL SHR NOT AND SWAP1 DUP3 SHL OR SWAP1 SSTORE PUSH1 0xFF SWAP1 JUMP JUMPDEST ADD MLOAD SWAP1 POP CODESIZE DUP1 PUSH3 0x42E JUMP JUMPDEST SWAP1 PUSH1 0x1F NOT DUP4 AND SWAP6 DUP5 PUSH1 0x0 MSTORE DUP3 PUSH1 0x0 KECCAK256 SWAP3 PUSH1 0x0 SWAP1 JUMPDEST DUP9 DUP3 LT PUSH3 0x4A2 JUMPI POP POP DUP4 DUP6 SWAP7 SWAP8 LT PUSH3 0x488 JUMPI JUMPDEST POP POP POP DUP2 SHL ADD SWAP1 SSTORE PUSH1 0xFF SWAP1 JUMP JUMPDEST ADD MLOAD PUSH1 0x0 NOT PUSH1 0xF8 DUP5 PUSH1 0x3 SHL AND SHR NOT AND SWAP1 SSTORE CODESIZE DUP1 DUP1 PUSH3 0x47B JUMP JUMPDEST DUP1 DUP8 DUP6 SWAP7 DUP3 SWAP5 SWAP7 DUP7 ADD MLOAD DUP2 SSTORE ADD SWAP6 ADD SWAP4 ADD SWAP1 PUSH3 0x466 JUMP JUMPDEST DUP4 PUSH1 0x0 MSTORE DUP4 PUSH1 0x1F DUP4 PUSH1 0x0 KECCAK256 SWAP3 ADD PUSH1 0x5 SHR DUP3 ADD SWAP2 PUSH1 0x1F DUP6 ADD PUSH1 0x5 SHR ADD JUMPDEST DUP3 DUP2 LT PUSH3 0x4E6 JUMPI POP POP PUSH3 0x412 JUMP JUMPDEST PUSH1 0x0 DUP2 SSTORE ADD DUP5 SWAP1 PUSH3 0x4D6 JUMP JUMPDEST PUSH4 0x4E487B71 PUSH1 0xE0 SHL PUSH1 0x0 MSTORE PUSH1 0x22 PUSH1 0x4 MSTORE PUSH1 0x24 PUSH1 0x0 REVERT JUMPDEST SWAP1 PUSH1 0x7F AND SWAP1 PUSH3 0x3FF JUMP JUMPDEST DUP1 MLOAD PUSH1 0x20 SWAP1 DUP2 DUP2 LT ISZERO PUSH3 0x5A2 JUMPI POP PUSH1 0x1F DUP3 MLOAD GT PUSH3 0x541 JUMPI DUP1 DUP3 MLOAD SWAP3 ADD MLOAD SWAP1 DUP1 DUP4 LT PUSH3 0x36A JUMPI POP OR SWAP1 JUMP JUMPDEST SWAP1 PUSH1 0x40 MLOAD DUP1 SWAP3 PUSH4 0x305A27A9 PUSH1 0xE0 SHL DUP3 MSTORE DUP1 PUSH1 0x4 DUP4 ADD MSTORE DUP3 MLOAD SWAP1 DUP2 PUSH1 0x24 DUP5 ADD MSTORE PUSH1 0x0 SWAP4 JUMPDEST DUP3 DUP6 LT PUSH3 0x588 JUMPI POP POP PUSH1 0x44 SWAP3 POP PUSH1 0x0 DUP4 DUP3 DUP5 ADD ADD MSTORE PUSH1 0x1F DUP1 NOT SWAP2 ADD AND DUP2 ADD SUB ADD SWAP1 REVERT JUMPDEST DUP5 DUP2 ADD DUP3 ADD MLOAD DUP7 DUP7 ADD PUSH1 0x44 ADD MSTORE SWAP4 DUP2 ADD SWAP4 DUP6 SWAP4 POP PUSH3 0x564 JUMP JUMPDEST SWAP1 PUSH1 0x1 PUSH1 0x1 PUSH1 0x40 SHL SUB DUP3 GT PUSH3 0x306 JUMPI PUSH1 0x2 SLOAD SWAP3 PUSH1 0x1 SWAP4 DUP5 DUP2 DUP2 SHR SWAP2 AND DUP1 ISZERO PUSH3 0x6C1 JUMPI JUMPDEST DUP4 DUP3 LT EQ PUSH3 0x4F3 JUMPI PUSH1 0x1F DUP2 GT PUSH3 0x687 JUMPI JUMPDEST POP DUP2 PUSH1 0x1F DUP5 GT PUSH1 0x1 EQ PUSH3 0x61B JUMPI POP SWAP3 DUP3 SWAP4 SWAP2 DUP4 SWAP3 PUSH1 0x0 SWAP5 PUSH3 0x60F JUMPI JUMPDEST POP POP SHL SWAP2 PUSH1 0x0 NOT SWAP1 PUSH1 0x3 SHL SHR NOT AND OR PUSH1 0x2 SSTORE PUSH1 0xFF SWAP1 JUMP JUMPDEST ADD MLOAD SWAP3 POP CODESIZE DUP1 PUSH3 0x5F8 JUMP JUMPDEST SWAP2 SWAP1 DUP4 PUSH1 0x1F NOT DUP2 AND PUSH1 0x2 PUSH1 0x0 MSTORE DUP5 PUSH1 0x0 KECCAK256 SWAP5 PUSH1 0x0 SWAP1 JUMPDEST DUP9 DUP4 DUP4 LT PUSH3 0x66C JUMPI POP POP POP LT PUSH3 0x652 JUMPI JUMPDEST POP POP POP DUP2 SHL ADD PUSH1 0x2 SSTORE PUSH1 0xFF SWAP1 JUMP JUMPDEST ADD MLOAD PUSH1 0x0 NOT PUSH1 0xF8 DUP5 PUSH1 0x3 SHL AND SHR NOT AND SWAP1 SSTORE CODESIZE DUP1 DUP1 PUSH3 0x644 JUMP JUMPDEST DUP6 DUP8 ADD MLOAD DUP9 SSTORE SWAP1 SWAP7 ADD SWAP6 SWAP5 DUP6 ADD SWAP5 DUP8 SWAP4 POP SWAP1 DUP2 ADD SWAP1 PUSH3 0x631 JUMP JUMPDEST PUSH1 0x2 PUSH1 0x0 MSTORE DUP5 PUSH1 0x1F DUP5 PUSH1 0x0 KECCAK256 SWAP3 ADD PUSH1 0x5 SHR DUP3 ADD SWAP2 PUSH1 0x1F DUP7 ADD PUSH1 0x5 SHR ADD JUMPDEST DUP3 DUP2 LT PUSH3 0x6B4 JUMPI POP POP PUSH3 0x5DA JUMP JUMPDEST PUSH1 0x0 DUP2 SSTORE ADD DUP6 SWAP1 PUSH3 0x6A4 JUMP JUMPDEST SWAP1 PUSH1 0x7F AND SWAP1 PUSH3 0x5C7 JUMP INVALID PUSH1 0x80 PUSH1 0x40 MSTORE PUSH1 0x4 CALLDATASIZE LT ISZERO PUSH2 0x12 JUMPI PUSH1 0x0 DUP1 REVERT JUMPDEST PUSH1 0x0 CALLDATALOAD PUSH1 0xE0 SHR DUP1 PUSH4 0x19FE885 EQ PUSH2 0xDA8 JUMPI DUP1 PUSH4 0x1FFC9A7 EQ PUSH2 0xD52 JUMPI DUP1 PUSH4 0x248A9CA3 EQ PUSH2 0xD23 JUMPI DUP1 PUSH4 0x2ABF912C EQ PUSH2 0xD00 JUMPI DUP1 PUSH4 0x2D0335AB EQ PUSH2 0x469 JUMPI DUP1 PUSH4 0x2F2FF15D EQ PUSH2 0xC43 JUMPI DUP1 PUSH4 0x36568ABE EQ PUSH2 0xBA7 JUMPI DUP1 PUSH4 0x3A3D56FA EQ PUSH2 0xB21 JUMPI DUP1 PUSH4 0x44D46C8E EQ PUSH2 0x615 JUMPI DUP1 PUSH4 0x5309FA47 EQ PUSH2 0x5D6 JUMPI DUP1 PUSH4 0x60F0A5AC EQ PUSH2 0x4DE JUMPI DUP1 PUSH4 0x685D34FF EQ PUSH2 0x4A3 JUMPI DUP1 PUSH4 0x7ECEBE00 EQ PUSH2 0x469 JUMPI DUP1 PUSH4 0x84B0196E EQ PUSH2 0x349 JUMPI DUP1 PUSH4 0x91D14854 EQ PUSH2 0x2FC JUMPI DUP1 PUSH4 0x926D7D7F EQ PUSH2 0x2D3 JUMPI DUP1 PUSH4 0x9AA0C152 EQ PUSH2 0x29A JUMPI DUP1 PUSH4 0xA217FDDF EQ PUSH2 0x27E JUMPI DUP1 PUSH4 0xD547741F EQ PUSH2 0x23D JUMPI DUP1 PUSH4 0xDD39F00D EQ PUSH2 0x12B JUMPI PUSH4 0xF698DA25 EQ PUSH2 0x103 JUMPI PUSH1 0x0 DUP1 REVERT JUMPDEST CALLVALUE PUSH2 0x126 JUMPI PUSH1 0x0 CALLDATASIZE PUSH1 0x3 NOT ADD SLT PUSH2 0x126 JUMPI PUSH1 0x20 PUSH2 0x11E PUSH2 0x1885 JUMP JUMPDEST PUSH1 0x40 MLOAD SWAP1 DUP2 MSTORE RETURN JUMPDEST PUSH1 0x0 DUP1 REVERT JUMPDEST CALLVALUE PUSH2 0x126 JUMPI PUSH1 0x20 CALLDATASIZE PUSH1 0x3 NOT ADD SLT PUSH2 0x126 JUMPI PUSH2 0x144 PUSH2 0xE32 JUMP JUMPDEST PUSH2 0x14C PUSH2 0xEA6 JUMP JUMPDEST PUSH1 0x1 PUSH1 0x1 PUSH1 0xA0 SHL SUB SWAP1 DUP2 AND SWAP1 DUP2 ISZERO PUSH2 0x22B JUMPI PUSH1 0x0 DUP3 DUP2 MSTORE PUSH32 0xFAF93C3D007E112089DC8351E013E6685EF67703975D0224B26FC45941D4F1F5 PUSH1 0x20 MSTORE PUSH1 0x40 SWAP1 KECCAK256 SLOAD PUSH1 0x0 DUP1 MLOAD PUSH1 0x20 PUSH2 0x1ABE DUP4 CODECOPY DUP2 MLOAD SWAP2 MSTORE SWAP2 DUP4 SWAP2 PUSH1 0xFF AND ISZERO PUSH2 0x1CF JUMPI JUMPDEST POP PUSH32 0x3580EE9F53A62B7CB409A2CB56F9BE87747DD15017AFC5CEF6EEF321E4FB2C5 PUSH1 0x0 DUP1 LOG2 STOP JUMPDEST DUP3 PUSH1 0x0 MSTORE PUSH1 0x0 PUSH1 0x20 MSTORE PUSH1 0x40 PUSH1 0x0 KECCAK256 DUP3 PUSH1 0x0 MSTORE PUSH1 0x20 MSTORE PUSH1 0x40 PUSH1 0x0 KECCAK256 PUSH1 0x1 PUSH1 0xFF NOT DUP3 SLOAD AND OR SWAP1 SSTORE PUSH2 0x1FC PUSH2 0x1AA5 JUMP JUMPDEST AND SWAP2 PUSH32 0x2F8788117E7EFF1D82E926EC794901D17C78024A50270940304540A733656F0D PUSH1 0x0 DUP1 LOG4 DUP2 DUP2 DUP2 PUSH2 0x1A7 JUMP JUMPDEST PUSH1 0x40 MLOAD PUSH4 0xD92E233D PUSH1 0xE0 SHL DUP2 MSTORE PUSH1 0x4 SWAP1 REVERT JUMPDEST CALLVALUE PUSH2 0x126 JUMPI PUSH1 0x40 CALLDATASIZE PUSH1 0x3 NOT ADD SLT PUSH2 0x126 JUMPI PUSH2 0x27C PUSH1 0x4 CALLDATALOAD PUSH2 0x25C PUSH2 0xE48 JUMP JUMPDEST SWAP1 DUP1 PUSH1 0x0 MSTORE PUSH1 0x0 PUSH1 0x20 MSTORE PUSH2 0x277 PUSH1 0x1 PUSH1 0x40 PUSH1 0x0 KECCAK256 ADD SLOAD PUSH2 0x10A9 JUMP JUMPDEST PUSH2 0x1221 JUMP JUMPDEST STOP JUMPDEST CALLVALUE PUSH2 0x126 JUMPI PUSH1 0x0 CALLDATASIZE PUSH1 0x3 NOT ADD SLT PUSH2 0x126 JUMPI PUSH1 0x20 PUSH1 0x40 MLOAD PUSH1 0x0 DUP2 MSTORE RETURN JUMPDEST CALLVALUE PUSH2 0x126 JUMPI PUSH1 0x20 CALLDATASIZE PUSH1 0x3 NOT ADD SLT PUSH2 0x126 JUMPI PUSH1 0x4 CALLDATALOAD DUP1 ISZERO ISZERO DUP1 SWAP2 SUB PUSH2 0x126 JUMPI PUSH2 0x2C0 PUSH2 0xEA6 JUMP JUMPDEST PUSH1 0xFF DUP1 NOT PUSH1 0x5 SLOAD AND SWAP2 AND OR PUSH1 0x5 SSTORE PUSH1 0x0 DUP1 RETURN JUMPDEST CALLVALUE PUSH2 0x126 JUMPI PUSH1 0x0 CALLDATASIZE PUSH1 0x3 NOT ADD SLT PUSH2 0x126 JUMPI PUSH1 0x20 PUSH1 0x40 MLOAD PUSH1 0x0 DUP1 MLOAD PUSH1 0x20 PUSH2 0x1ABE DUP4 CODECOPY DUP2 MLOAD SWAP2 MSTORE DUP2 MSTORE RETURN JUMPDEST CALLVALUE PUSH2 0x126 JUMPI PUSH1 0x40 CALLDATASIZE PUSH1 0x3 NOT ADD SLT PUSH2 0x126 JUMPI PUSH2 0x315 PUSH2 0xE48 JUMP JUMPDEST PUSH1 0x4 CALLDATALOAD PUSH1 0x0 MSTORE PUSH1 0x0 PUSH1 0x20 MSTORE PUSH1 0x40 PUSH1 0x0 KECCAK256 SWAP1 PUSH1 0x1 DUP1 PUSH1 0xA0 SHL SUB AND PUSH1 0x0 MSTORE PUSH1 0x20 MSTORE PUSH1 0x20 PUSH1 0xFF PUSH1 0x40 PUSH1 0x0 KECCAK256 SLOAD AND PUSH1 0x40 MLOAD SWAP1 ISZERO ISZERO DUP2 MSTORE RETURN JUMPDEST CALLVALUE PUSH2 0x126 JUMPI PUSH1 0x0 CALLDATASIZE PUSH1 0x3 NOT ADD SLT PUSH2 0x126 JUMPI PUSH2 0x383 PUSH32 0x0 PUSH2 0x13A2 JUMP JUMPDEST PUSH2 0x3AC PUSH32 0x0 PUSH2 0x14C9 JUMP JUMPDEST PUSH1 0x40 MLOAD PUSH1 0x20 DUP1 DUP3 ADD SWAP3 DUP3 DUP5 LT PUSH8 0xFFFFFFFFFFFFFFFF DUP6 GT OR PUSH2 0x453 JUMPI SWAP2 DUP2 PUSH2 0x406 DUP6 SWAP5 PUSH2 0x3F8 SWAP8 SWAP7 PUSH1 0x40 MSTORE PUSH1 0x0 DUP5 MSTORE PUSH1 0x40 MLOAD SWAP8 DUP9 SWAP8 PUSH1 0xF PUSH1 0xF8 SHL DUP10 MSTORE PUSH1 0xE0 DUP6 DUP11 ADD MSTORE PUSH1 0xE0 DUP10 ADD SWAP1 PUSH2 0xE81 JUMP JUMPDEST SWAP1 DUP8 DUP3 SUB PUSH1 0x40 DUP10 ADD MSTORE PUSH2 0xE81 JUMP JUMPDEST SWAP2 CHAINID PUSH1 0x60 DUP8 ADD MSTORE ADDRESS PUSH1 0x80 DUP8 ADD MSTORE PUSH1 0x0 PUSH1 0xA0 DUP8 ADD MSTORE DUP6 DUP4 SUB PUSH1 0xC0 DUP8 ADD MSTORE MLOAD SWAP2 DUP3 DUP2 MSTORE ADD SWAP3 SWAP2 PUSH1 0x0 JUMPDEST DUP3 DUP2 LT PUSH2 0x43C JUMPI POP POP POP POP SUB SWAP1 RETURN JUMPDEST DUP4 MLOAD DUP6 MSTORE DUP7 SWAP6 POP SWAP4 DUP2 ADD SWAP4 SWAP3 DUP2 ADD SWAP3 PUSH1 0x1 ADD PUSH2 0x42D JUMP JUMPDEST PUSH4 0x4E487B71 PUSH1 0xE0 SHL PUSH1 0x0 MSTORE PUSH1 0x41 PUSH1 0x4 MSTORE PUSH1 0x24 PUSH1 0x0 REVERT JUMPDEST CALLVALUE PUSH2 0x126 JUMPI PUSH1 0x20 CALLDATASIZE PUSH1 0x3 NOT ADD SLT PUSH2 0x126 JUMPI PUSH1 0x1 PUSH1 0x1 PUSH1 0xA0 SHL SUB PUSH2 0x48A PUSH2 0xE32 JUMP JUMPDEST AND PUSH1 0x0 MSTORE PUSH1 0x3 PUSH1 0x20 MSTORE PUSH1 0x20 PUSH1 0x40 PUSH1 0x0 KECCAK256 SLOAD PUSH1 0x40 MLOAD SWAP1 DUP2 MSTORE RETURN JUMPDEST CALLVALUE PUSH2 0x126 JUMPI PUSH1 0x0 CALLDATASIZE PUSH1 0x3 NOT ADD SLT PUSH2 0x126 JUMPI PUSH1 0x20 PUSH1 0x40 MLOAD PUSH32 0x5246556C0AB216B5B325AD7C539BFBD1A07C768773CDF810FECD3C3375C27407 DUP2 MSTORE RETURN JUMPDEST CALLVALUE PUSH2 0x126 JUMPI PUSH1 0x20 CALLDATASIZE PUSH1 0x3 NOT ADD SLT PUSH2 0x126 JUMPI PUSH2 0x4F7 PUSH2 0xE32 JUMP JUMPDEST PUSH2 0x4FF PUSH2 0xEA6 JUMP JUMPDEST PUSH1 0x1 PUSH1 0x1 PUSH1 0xA0 SHL SUB SWAP1 DUP2 AND PUSH1 0x0 DUP2 DUP2 MSTORE PUSH32 0xFAF93C3D007E112089DC8351E013E6685EF67703975D0224B26FC45941D4F1F5 PUSH1 0x20 MSTORE PUSH1 0x40 SWAP1 KECCAK256 SLOAD SWAP1 SWAP2 PUSH1 0x0 DUP1 MLOAD PUSH1 0x20 PUSH2 0x1ABE DUP4 CODECOPY DUP2 MLOAD SWAP2 MSTORE SWAP2 DUP4 SWAP2 SWAP1 PUSH1 0xFF AND PUSH2 0x57D JUMPI JUMPDEST POP PUSH32 0x10E1F7CE9FD7D1B90A66D13A2AB3CB8DD7F29F3F8D520B143B063CCFBAB6906B PUSH1 0x0 DUP1 LOG2 STOP JUMPDEST DUP3 PUSH1 0x0 MSTORE PUSH1 0x0 PUSH1 0x20 MSTORE PUSH1 0x40 PUSH1 0x0 KECCAK256 DUP3 PUSH1 0x0 MSTORE PUSH1 0x20 MSTORE PUSH1 0x40 PUSH1 0x0 KECCAK256 PUSH1 0xFF NOT DUP2 SLOAD AND SWAP1 SSTORE PUSH2 0x5A7 PUSH2 0x1AA5 JUMP JUMPDEST AND SWAP2 PUSH32 0xF6391F5C32D9C69D2A47EA670B442974B53935D1EDC7FD64EB21E047A839171B PUSH1 0x0 DUP1 LOG4 DUP2 DUP2 DUP2 PUSH2 0x555 JUMP JUMPDEST CALLVALUE PUSH2 0x126 JUMPI PUSH1 0x20 CALLDATASIZE PUSH1 0x3 NOT ADD SLT PUSH2 0x126 JUMPI PUSH1 0x1 PUSH1 0x1 PUSH1 0xA0 SHL SUB PUSH2 0x5F7 PUSH2 0xE32 JUMP JUMPDEST AND PUSH1 0x0 MSTORE PUSH1 0x4 PUSH1 0x20 MSTORE PUSH1 0x20 PUSH1 0xFF PUSH1 0x40 PUSH1 0x0 KECCAK256 SLOAD AND PUSH1 0x40 MLOAD SWAP1 ISZERO ISZERO DUP2 MSTORE RETURN JUMPDEST CALLVALUE PUSH2 0x126 JUMPI PUSH2 0x623 CALLDATASIZE PUSH2 0xDCB JUMP JUMPDEST SWAP1 PUSH2 0x62C PUSH2 0x1AA5 JUMP JUMPDEST PUSH1 0x1 PUSH1 0x1 PUSH1 0xA0 SHL SUB AND PUSH1 0x0 DUP2 DUP2 MSTORE PUSH32 0xFAF93C3D007E112089DC8351E013E6685EF67703975D0224B26FC45941D4F1F5 PUSH1 0x20 MSTORE PUSH1 0x40 SWAP1 KECCAK256 SLOAD PUSH1 0x0 DUP1 MLOAD PUSH1 0x20 PUSH2 0x1ABE DUP4 CODECOPY DUP2 MLOAD SWAP2 MSTORE SWAP2 SWAP1 PUSH1 0xFF AND ISZERO PUSH2 0x98C JUMPI POP POP PUSH1 0xC0 DUP4 ADD CALLDATALOAD DUP1 TIMESTAMP GT PUSH2 0x97A JUMPI PUSH1 0x1 PUSH1 0x1 PUSH1 0xA0 SHL SUB PUSH2 0x69B DUP6 PUSH2 0x159F JUMP JUMPDEST AND PUSH1 0x0 MSTORE PUSH1 0x3 PUSH1 0x20 MSTORE PUSH1 0x40 PUSH1 0x0 KECCAK256 SLOAD PUSH1 0x80 DUP6 ADD CALLDATALOAD SUB PUSH2 0x968 JUMPI PUSH1 0xFF PUSH1 0x5 SLOAD AND DUP1 PUSH2 0x93B JUMPI JUMPDEST PUSH2 0x929 JUMPI DUP4 PUSH2 0x6CE DUP2 PUSH2 0x159F JUMP JUMPDEST SWAP4 PUSH1 0x20 DUP3 ADD SWAP4 PUSH2 0x6DD DUP6 PUSH2 0x159F JUMP JUMPDEST SWAP4 PUSH2 0x6EB PUSH1 0xA0 DUP6 ADD DUP6 PUSH2 0x15B3 JUMP JUMPDEST CALLDATASIZE SWAP1 PUSH2 0x6F6 SWAP3 PUSH2 0x15E6 JUMP JUMPDEST DUP1 MLOAD SWAP1 PUSH1 0x20 ADD KECCAK256 SWAP1 PUSH1 0x40 MLOAD SWAP8 DUP9 SWAP2 PUSH1 0x20 DUP4 ADD SWAP4 PUSH1 0x60 DUP9 ADD CALLDATALOAD SWAP9 DUP10 PUSH1 0x40 DUP11 ADD CALLDATALOAD PUSH1 0x80 DUP2 SWAP12 ADD CALLDATALOAD SWAP3 PUSH2 0x726 SWAP7 DUP10 PUSH2 0x161D JUMP JUMPDEST SUB SWAP7 PUSH1 0x1F NOT SWAP8 DUP9 DUP2 ADD DUP3 MSTORE PUSH2 0x73B SWAP1 DUP3 PUSH2 0x11FF JUMP JUMPDEST MLOAD SWAP1 KECCAK256 PUSH2 0x747 SWAP1 PUSH2 0x185F JUMP JUMPDEST SWAP2 CALLDATASIZE SWAP1 PUSH2 0x753 SWAP3 PUSH2 0x15E6 JUMP JUMPDEST PUSH2 0x75C SWAP2 PUSH2 0x1798 JUMP JUMPDEST PUSH2 0x765 SWAP1 PUSH2 0x167E JUMP JUMPDEST PUSH1 0x1 PUSH1 0x1 PUSH1 0xA0 SHL SUB PUSH2 0x776 DUP8 PUSH2 0x159F JUMP JUMPDEST AND PUSH1 0x1 PUSH1 0x1 PUSH1 0xA0 SHL SUB SWAP1 SWAP2 AND SUB PUSH2 0x917 JUMPI PUSH1 0x1 PUSH1 0x1 PUSH1 0xA0 SHL SUB PUSH2 0x798 DUP7 PUSH2 0x159F JUMP JUMPDEST AND PUSH1 0x0 MSTORE PUSH1 0x3 PUSH1 0x20 MSTORE PUSH1 0x40 PUSH1 0x0 KECCAK256 DUP1 SLOAD PUSH1 0x0 NOT DUP2 EQ PUSH2 0x901 JUMPI PUSH1 0x80 SWAP4 PUSH32 0x4C5F49EAB9978D45F3690B6B36724DE3A2DC79B75B49AD70C0665A6798E4BA6D SWAP4 PUSH1 0x0 SWAP4 PUSH1 0x1 DUP6 SWAP5 ADD SWAP1 SSTORE PUSH2 0x7ED PUSH1 0xA0 DUP11 ADD DUP11 PUSH2 0x15B3 JUMP JUMPDEST PUSH2 0x836 PUSH1 0x34 PUSH2 0x7FE DUP14 SWAP6 SWAP5 SWAP6 PUSH2 0x159F JUMP JUMPDEST SWAP3 PUSH1 0x40 MLOAD SWAP4 DUP2 DUP6 SWAP3 PUSH1 0x20 DUP5 ADD SWAP9 DUP10 CALLDATACOPY DUP3 ADD SWAP1 PUSH12 0xFFFFFFFFFFFFFFFFFFFFFFFF NOT SWAP1 PUSH1 0x60 SHL AND PUSH1 0x20 DUP3 ADD MSTORE SUB PUSH1 0x14 DUP2 ADD DUP5 MSTORE ADD DUP3 PUSH2 0x11FF JUMP JUMPDEST PUSH2 0x83F DUP10 PUSH2 0x159F JUMP JUMPDEST SWAP1 MLOAD SWAP4 CALL RETURNDATASIZE ISZERO PUSH2 0x8F8 JUMPI DUP3 RETURNDATASIZE SWAP7 PUSH2 0x855 DUP9 PUSH2 0x12AA JUMP JUMPDEST SWAP8 PUSH2 0x863 PUSH1 0x40 MLOAD SWAP10 DUP11 PUSH2 0x11FF JUMP JUMPDEST DUP9 MSTORE RETURNDATASIZE PUSH1 0x0 PUSH1 0x20 DUP11 ADD RETURNDATACOPY JUMPDEST PUSH2 0x880 PUSH2 0x87A DUP3 PUSH2 0x159F JUMP JUMPDEST SWAP7 PUSH2 0x159F JUMP JUMPDEST SWAP7 PUSH1 0x1F PUSH2 0x890 PUSH1 0xA0 DUP5 ADD DUP5 PUSH2 0x15B3 JUMP JUMPDEST SWAP8 DUP9 SWAP7 SWAP2 SWAP5 PUSH1 0x40 MLOAD SWAP8 DUP9 SWAP7 PUSH1 0x60 DUP9 MSTORE DUP2 PUSH1 0x60 DUP10 ADD MSTORE DUP4 DUP9 ADD CALLDATACOPY PUSH1 0x0 DUP7 DUP12 ADD DUP4 ADD MSTORE ADD CALLDATALOAD PUSH1 0x20 DUP6 ADD MSTORE ISZERO ISZERO PUSH1 0x40 DUP5 ADD DUP2 SWAP1 MSTORE SWAP9 PUSH1 0x1 PUSH1 0x1 PUSH1 0xA0 SHL SUB SWAP1 DUP2 AND SWAP9 AND SWAP7 ADD AND DUP2 ADD SUB ADD SWAP1 LOG3 PUSH2 0x8F4 PUSH1 0x40 MLOAD SWAP3 DUP4 SWAP3 DUP4 MSTORE PUSH1 0x40 PUSH1 0x20 DUP5 ADD MSTORE PUSH1 0x40 DUP4 ADD SWAP1 PUSH2 0xE81 JUMP JUMPDEST SUB SWAP1 RETURN JUMPDEST DUP3 PUSH1 0x60 SWAP7 PUSH2 0x86E JUMP JUMPDEST PUSH4 0x4E487B71 PUSH1 0xE0 SHL PUSH1 0x0 MSTORE PUSH1 0x11 PUSH1 0x4 MSTORE PUSH1 0x24 PUSH1 0x0 REVERT JUMPDEST PUSH1 0x40 MLOAD PUSH4 0x8BAA579F PUSH1 0xE0 SHL DUP2 MSTORE PUSH1 0x4 SWAP1 REVERT JUMPDEST PUSH1 0x40 MLOAD PUSH4 0x48CBF26D PUSH1 0xE0 SHL DUP2 MSTORE PUSH1 0x4 SWAP1 REVERT JUMPDEST POP PUSH1 0x1 PUSH1 0x1 PUSH1 0xA0 SHL SUB PUSH2 0x950 PUSH1 0x20 DUP7 ADD PUSH2 0x159F JUMP JUMPDEST AND PUSH1 0x0 MSTORE PUSH1 0x4 PUSH1 0x20 MSTORE PUSH1 0xFF PUSH1 0x40 PUSH1 0x0 KECCAK256 SLOAD AND ISZERO PUSH2 0x6C0 JUMP JUMPDEST PUSH1 0x40 MLOAD PUSH4 0x3AB3447F PUSH1 0xE1 SHL DUP2 MSTORE PUSH1 0x4 SWAP1 REVERT JUMPDEST PUSH1 0x40 MLOAD PUSH4 0x1AB7DA6B PUSH1 0xE0 SHL DUP2 MSTORE PUSH1 0x4 SWAP1 REVERT JUMPDEST PUSH2 0x995 SWAP1 PUSH2 0x12D7 JUMP JUMPDEST PUSH1 0x40 MLOAD SWAP2 PUSH2 0x9A2 DUP4 PUSH2 0x11E3 JUMP JUMPDEST PUSH1 0x42 DUP4 MSTORE PUSH1 0x20 DUP4 ADD SWAP1 PUSH1 0x60 CALLDATASIZE DUP4 CALLDATACOPY DUP4 MLOAD ISZERO PUSH2 0xB0B JUMPI PUSH1 0x30 DUP3 MSTORE8 DUP4 MLOAD PUSH1 0x1 SWAP1 DUP2 LT ISZERO PUSH2 0xB0B JUMPI PUSH1 0x78 PUSH1 0x21 DUP7 ADD MSTORE8 PUSH1 0x41 SWAP1 JUMPDEST DUP1 DUP3 GT PUSH2 0xAC7 JUMPI POP POP PUSH2 0xA83 JUMPI PUSH1 0x48 PUSH2 0xA50 SWAP3 PUSH2 0xA5F SWAP3 PUSH2 0xA7F SWAP6 PUSH1 0x40 MLOAD SWAP6 DUP7 SWAP4 PUSH23 0x20B1B1B2B9B9A1B7B73A3937B61D1030B1B1B7BAB73A1 PUSH1 0x4D SHL PUSH1 0x20 DUP7 ADD MSTORE PUSH2 0xA27 DUP2 MLOAD DUP1 SWAP3 PUSH1 0x20 PUSH1 0x37 DUP10 ADD SWAP2 ADD PUSH2 0xE5E JUMP JUMPDEST DUP5 ADD SWAP2 PUSH17 0x1034B99036B4B9B9B4B733903937B6329 PUSH1 0x7D SHL PUSH1 0x37 DUP5 ADD MSTORE MLOAD DUP1 SWAP4 DUP7 DUP5 ADD SWAP1 PUSH2 0xE5E JUMP JUMPDEST ADD SUB PUSH1 0x28 DUP2 ADD DUP5 MSTORE ADD DUP3 PUSH2 0x11FF JUMP JUMPDEST PUSH1 0x40 MLOAD PUSH3 0x461BCD PUSH1 0xE5 SHL DUP2 MSTORE PUSH1 0x20 PUSH1 0x4 DUP3 ADD MSTORE SWAP2 DUP3 SWAP2 PUSH1 0x24 DUP4 ADD SWAP1 PUSH2 0xE81 JUMP JUMPDEST SUB SWAP1 REVERT JUMPDEST PUSH1 0x64 PUSH1 0x40 MLOAD PUSH3 0x461BCD PUSH1 0xE5 SHL DUP2 MSTORE PUSH1 0x20 PUSH1 0x4 DUP3 ADD MSTORE PUSH1 0x20 PUSH1 0x24 DUP3 ADD MSTORE PUSH32 0x537472696E67733A20686578206C656E67746820696E73756666696369656E74 PUSH1 0x44 DUP3 ADD MSTORE REVERT JUMPDEST SWAP1 SWAP2 PUSH1 0xF DUP2 AND PUSH1 0x10 DUP2 LT ISZERO PUSH2 0xB0B JUMPI PUSH16 0x181899199A1A9B1B9C1CB0B131B232B3 PUSH1 0x81 SHL SWAP1 BYTE PUSH2 0xAF6 DUP5 DUP9 PUSH2 0x12C6 JUMP JUMPDEST MSTORE8 PUSH1 0x4 SHR SWAP2 DUP1 ISZERO PUSH2 0x901 JUMPI PUSH1 0x0 NOT ADD SWAP1 PUSH2 0x9D2 JUMP JUMPDEST PUSH4 0x4E487B71 PUSH1 0xE0 SHL PUSH1 0x0 MSTORE PUSH1 0x32 PUSH1 0x4 MSTORE PUSH1 0x24 PUSH1 0x0 REVERT JUMPDEST CALLVALUE PUSH2 0x126 JUMPI PUSH1 0x40 CALLDATASIZE PUSH1 0x3 NOT ADD SLT PUSH2 0x126 JUMPI PUSH2 0xB3A PUSH2 0xE32 JUMP JUMPDEST PUSH1 0x24 CALLDATALOAD SWAP1 DUP2 ISZERO ISZERO DUP1 SWAP3 SUB PUSH2 0x126 JUMPI PUSH2 0xB50 PUSH2 0xEA6 JUMP JUMPDEST PUSH1 0x1 PUSH1 0x1 PUSH1 0xA0 SHL SUB AND SWAP1 DUP2 ISZERO PUSH2 0x22B JUMPI PUSH1 0x20 PUSH32 0xA15B89DDFD4F8F39B42C00D0E35440AA574DA8D20D9E1D886E42EDF16CE9AD4C SWAP2 DUP4 PUSH1 0x0 MSTORE PUSH1 0x4 DUP3 MSTORE PUSH1 0x40 PUSH1 0x0 KECCAK256 PUSH1 0xFF NOT DUP2 SLOAD AND PUSH1 0xFF DUP4 AND OR SWAP1 SSTORE PUSH1 0x40 MLOAD SWAP1 DUP2 MSTORE LOG2 STOP JUMPDEST CALLVALUE PUSH2 0x126 JUMPI PUSH1 0x40 CALLDATASIZE PUSH1 0x3 NOT ADD SLT PUSH2 0x126 JUMPI PUSH2 0xBC0 PUSH2 0xE48 JUMP JUMPDEST PUSH1 0x1 PUSH1 0x1 PUSH1 0xA0 SHL SUB DUP1 PUSH2 0xBD1 PUSH2 0x1AA5 JUMP JUMPDEST AND SWAP1 DUP3 AND SUB PUSH2 0xBE6 JUMPI PUSH2 0x27C SWAP1 PUSH1 0x4 CALLDATALOAD PUSH2 0x1221 JUMP JUMPDEST PUSH1 0x40 MLOAD PUSH3 0x461BCD PUSH1 0xE5 SHL DUP2 MSTORE PUSH1 0x20 PUSH1 0x4 DUP3 ADD MSTORE PUSH1 0x2F PUSH1 0x24 DUP3 ADD MSTORE PUSH32 0x416363657373436F6E74726F6C3A2063616E206F6E6C792072656E6F756E6365 PUSH1 0x44 DUP3 ADD MSTORE PUSH15 0x103937B632B9903337B91039B2B633 PUSH1 0x89 SHL PUSH1 0x64 DUP3 ADD MSTORE PUSH1 0x84 SWAP1 REVERT JUMPDEST CALLVALUE PUSH2 0x126 JUMPI PUSH1 0x40 CALLDATASIZE PUSH1 0x3 NOT ADD SLT PUSH2 0x126 JUMPI PUSH1 0x4 CALLDATALOAD PUSH2 0xC5F PUSH2 0xE48 JUMP JUMPDEST DUP2 PUSH1 0x0 MSTORE PUSH1 0x0 PUSH1 0x20 MSTORE PUSH2 0xC79 PUSH1 0x1 PUSH1 0x40 PUSH1 0x0 KECCAK256 ADD SLOAD PUSH2 0x10A9 JUMP JUMPDEST DUP2 PUSH1 0x0 MSTORE PUSH1 0x0 PUSH1 0x20 MSTORE PUSH1 0x40 PUSH1 0x0 KECCAK256 SWAP1 PUSH1 0x1 DUP1 PUSH1 0xA0 SHL SUB DUP1 SWAP2 AND SWAP2 DUP3 PUSH1 0x0 MSTORE PUSH1 0x20 MSTORE PUSH1 0xFF PUSH1 0x40 PUSH1 0x0 KECCAK256 SLOAD AND ISZERO PUSH2 0xCAA JUMPI STOP JUMPDEST DUP3 PUSH1 0x0 MSTORE PUSH1 0x0 PUSH1 0x20 MSTORE PUSH1 0x40 PUSH1 0x0 KECCAK256 DUP3 PUSH1 0x0 MSTORE PUSH1 0x20 MSTORE PUSH1 0x40 PUSH1 0x0 KECCAK256 PUSH1 0x1 PUSH1 0xFF NOT DUP3 SLOAD AND OR SWAP1 SSTORE PUSH2 0xCD7 PUSH2 0x1AA5 JUMP JUMPDEST AND SWAP2 PUSH32 0x2F8788117E7EFF1D82E926EC794901D17C78024A50270940304540A733656F0D PUSH1 0x0 DUP1 LOG4 STOP JUMPDEST CALLVALUE PUSH2 0x126 JUMPI PUSH1 0x0 CALLDATASIZE PUSH1 0x3 NOT ADD SLT PUSH2 0x126 JUMPI PUSH1 0x20 PUSH1 0xFF PUSH1 0x5 SLOAD AND PUSH1 0x40 MLOAD SWAP1 ISZERO ISZERO DUP2 MSTORE RETURN JUMPDEST CALLVALUE PUSH2 0x126 JUMPI PUSH1 0x20 CALLDATASIZE PUSH1 0x3 NOT ADD SLT PUSH2 0x126 JUMPI PUSH1 0x4 CALLDATALOAD PUSH1 0x0 MSTORE PUSH1 0x0 PUSH1 0x20 MSTORE PUSH1 0x20 PUSH1 0x1 PUSH1 0x40 PUSH1 0x0 KECCAK256 ADD SLOAD PUSH1 0x40 MLOAD SWAP1 DUP2 MSTORE RETURN JUMPDEST CALLVALUE PUSH2 0x126 JUMPI PUSH1 0x20 CALLDATASIZE PUSH1 0x3 NOT ADD SLT PUSH2 0x126 JUMPI PUSH1 0x4 CALLDATALOAD PUSH4 0xFFFFFFFF PUSH1 0xE0 SHL DUP2 AND DUP1 SWAP2 SUB PUSH2 0x126 JUMPI PUSH1 0x20 SWAP1 PUSH4 0x7965DB0B PUSH1 0xE0 SHL DUP2 EQ SWAP1 DUP2 ISZERO PUSH2 0xD97 JUMPI JUMPDEST POP PUSH1 0x40 MLOAD SWAP1 ISZERO ISZERO DUP2 MSTORE RETURN JUMPDEST PUSH4 0x1FFC9A7 PUSH1 0xE0 SHL EQ SWAP1 POP DUP3 PUSH2 0xD8C JUMP JUMPDEST CALLVALUE PUSH2 0x126 JUMPI PUSH1 0x20 PUSH2 0xDC1 PUSH2 0xDBB CALLDATASIZE PUSH2 0xDCB JUMP JUMPDEST SWAP2 PUSH2 0x19B0 JUMP JUMPDEST PUSH1 0x40 MLOAD SWAP1 ISZERO ISZERO DUP2 MSTORE RETURN JUMPDEST SWAP1 PUSH1 0x3 NOT SWAP1 PUSH1 0x40 DUP3 DUP5 ADD SLT PUSH2 0x126 JUMPI PUSH1 0x4 CALLDATALOAD PUSH8 0xFFFFFFFFFFFFFFFF SWAP3 DUP4 DUP3 GT PUSH2 0x126 JUMPI PUSH1 0xE0 SWAP1 DUP3 DUP7 SUB ADD SLT PUSH2 0x126 JUMPI PUSH1 0x4 ADD SWAP3 PUSH1 0x24 CALLDATALOAD SWAP1 DUP4 DUP3 GT PUSH2 0x126 JUMPI DUP1 PUSH1 0x23 DUP4 ADD SLT ISZERO PUSH2 0x126 JUMPI DUP2 PUSH1 0x4 ADD CALLDATALOAD SWAP4 DUP5 GT PUSH2 0x126 JUMPI PUSH1 0x24 DUP5 DUP4 ADD ADD GT PUSH2 0x126 JUMPI PUSH1 0x24 ADD SWAP2 SWAP1 JUMP JUMPDEST PUSH1 0x4 CALLDATALOAD SWAP1 PUSH1 0x1 PUSH1 0x1 PUSH1 0xA0 SHL SUB DUP3 AND DUP3 SUB PUSH2 0x126 JUMPI JUMP JUMPDEST PUSH1 0x24 CALLDATALOAD SWAP1 PUSH1 0x1 PUSH1 0x1 PUSH1 0xA0 SHL SUB DUP3 AND DUP3 SUB PUSH2 0x126 JUMPI JUMP JUMPDEST PUSH1 0x0 JUMPDEST DUP4 DUP2 LT PUSH2 0xE71 JUMPI POP POP PUSH1 0x0 SWAP2 ADD MSTORE JUMP JUMPDEST DUP2 DUP2 ADD MLOAD DUP4 DUP3 ADD MSTORE PUSH1 0x20 ADD PUSH2 0xE61 JUMP JUMPDEST SWAP1 PUSH1 0x20 SWAP2 PUSH2 0xE9A DUP2 MLOAD DUP1 SWAP3 DUP2 DUP6 MSTORE DUP6 DUP1 DUP7 ADD SWAP2 ADD PUSH2 0xE5E JUMP JUMPDEST PUSH1 0x1F ADD PUSH1 0x1F NOT AND ADD ADD SWAP1 JUMP JUMPDEST PUSH2 0xEAE PUSH2 0x1AA5 JUMP JUMPDEST PUSH1 0x1 PUSH1 0x1 PUSH1 0xA0 SHL SUB AND PUSH1 0x0 DUP2 DUP2 MSTORE PUSH32 0x790B0AAEB4157B4822815D95BF3D9318A1561C876C520E6CCA704BE6F4D63A6 PUSH1 0x20 SWAP1 DUP2 MSTORE PUSH1 0x40 DUP1 DUP4 KECCAK256 SLOAD SWAP1 SWAP4 SWAP2 SWAP3 PUSH32 0x5246556C0AB216B5B325AD7C539BFBD1A07C768773CDF810FECD3C3375C27407 SWAP3 SWAP1 SWAP2 PUSH1 0xFF AND ISZERO PUSH2 0xF1F JUMPI POP POP POP POP POP JUMP JUMPDEST PUSH2 0xF28 SWAP1 PUSH2 0x12D7 JUMP JUMPDEST SWAP2 DUP5 MLOAD SWAP1 PUSH2 0xF35 DUP3 PUSH2 0x11E3 JUMP JUMPDEST PUSH1 0x42 DUP3 MSTORE DUP5 DUP3 ADD SWAP3 PUSH1 0x60 CALLDATASIZE DUP6 CALLDATACOPY DUP3 MLOAD ISZERO PUSH2 0x1095 JUMPI PUSH1 0x30 DUP5 MSTORE8 DUP3 MLOAD SWAP1 PUSH1 0x1 SWAP2 DUP3 LT ISZERO PUSH2 0x1095 JUMPI SWAP1 PUSH1 0x78 PUSH1 0x21 DUP6 ADD MSTORE8 PUSH1 0x41 SWAP2 JUMPDEST DUP2 DUP4 GT PUSH2 0x1027 JUMPI POP POP POP PUSH2 0xFE5 JUMPI PUSH1 0x48 PUSH2 0xA7F SWAP4 DUP7 SWAP4 PUSH2 0xFC9 SWAP4 PUSH2 0xFBA SWAP9 MLOAD SWAP9 DUP10 SWAP4 PUSH23 0x20B1B1B2B9B9A1B7B73A3937B61D1030B1B1B7BAB73A1 PUSH1 0x4D SHL DUP11 DUP7 ADD MSTORE PUSH2 0xA27 DUP2 MLOAD DUP1 SWAP3 DUP13 PUSH1 0x37 DUP10 ADD SWAP2 ADD PUSH2 0xE5E JUMP JUMPDEST ADD SUB PUSH1 0x28 DUP2 ADD DUP8 MSTORE ADD DUP6 PUSH2 0x11FF JUMP JUMPDEST MLOAD SWAP3 DUP4 SWAP3 PUSH3 0x461BCD PUSH1 0xE5 SHL DUP5 MSTORE PUSH1 0x4 DUP5 ADD MSTORE PUSH1 0x24 DUP4 ADD SWAP1 PUSH2 0xE81 JUMP JUMPDEST PUSH1 0x64 DUP5 DUP7 MLOAD SWAP1 PUSH3 0x461BCD PUSH1 0xE5 SHL DUP3 MSTORE DUP1 PUSH1 0x4 DUP4 ADD MSTORE PUSH1 0x24 DUP3 ADD MSTORE PUSH32 0x537472696E67733A20686578206C656E67746820696E73756666696369656E74 PUSH1 0x44 DUP3 ADD MSTORE REVERT JUMPDEST SWAP1 SWAP2 SWAP3 PUSH1 0xF DUP2 AND PUSH1 0x10 DUP2 LT ISZERO PUSH2 0x1081 JUMPI PUSH16 0x181899199A1A9B1B9C1CB0B131B232B3 PUSH1 0x81 SHL SWAP1 BYTE PUSH2 0x1057 DUP6 DUP8 PUSH2 0x12C6 JUMP JUMPDEST MSTORE8 PUSH1 0x4 SHR SWAP3 DUP1 ISZERO PUSH2 0x106D JUMPI PUSH1 0x0 NOT ADD SWAP2 SWAP1 PUSH2 0xF66 JUMP JUMPDEST PUSH4 0x4E487B71 PUSH1 0xE0 SHL DUP3 MSTORE PUSH1 0x11 PUSH1 0x4 MSTORE PUSH1 0x24 DUP3 REVERT JUMPDEST PUSH4 0x4E487B71 PUSH1 0xE0 SHL DUP4 MSTORE PUSH1 0x32 PUSH1 0x4 MSTORE PUSH1 0x24 DUP4 REVERT JUMPDEST PUSH4 0x4E487B71 PUSH1 0xE0 SHL DUP2 MSTORE PUSH1 0x32 PUSH1 0x4 MSTORE PUSH1 0x24 SWAP1 REVERT JUMPDEST PUSH2 0x10B1 PUSH2 0x1AA5 JUMP JUMPDEST SWAP1 PUSH1 0x0 SWAP1 DUP1 DUP3 MSTORE PUSH1 0x20 SWAP2 DUP1 DUP4 MSTORE PUSH1 0x40 SWAP4 DUP5 DUP3 KECCAK256 SWAP1 PUSH1 0x1 DUP1 PUSH1 0xA0 SHL SUB AND SWAP1 DUP2 DUP4 MSTORE DUP5 MSTORE PUSH1 0xFF DUP6 DUP4 KECCAK256 SLOAD AND ISZERO PUSH2 0x10E6 JUMPI POP POP POP POP POP JUMP JUMPDEST PUSH2 0x10EF SWAP1 PUSH2 0x12D7 JUMP JUMPDEST SWAP2 DUP5 MLOAD SWAP1 PUSH2 0x10FC DUP3 PUSH2 0x11E3 JUMP JUMPDEST PUSH1 0x42 DUP3 MSTORE DUP5 DUP3 ADD SWAP3 PUSH1 0x60 CALLDATASIZE DUP6 CALLDATACOPY DUP3 MLOAD ISZERO PUSH2 0x1095 JUMPI PUSH1 0x30 DUP5 MSTORE8 DUP3 MLOAD SWAP1 PUSH1 0x1 SWAP2 DUP3 LT ISZERO PUSH2 0x1095 JUMPI SWAP1 PUSH1 0x78 PUSH1 0x21 DUP6 ADD MSTORE8 PUSH1 0x41 SWAP2 JUMPDEST DUP2 DUP4 GT PUSH2 0x1181 JUMPI POP POP POP PUSH2 0xFE5 JUMPI PUSH1 0x48 PUSH2 0xA7F SWAP4 DUP7 SWAP4 PUSH2 0xFC9 SWAP4 PUSH2 0xFBA SWAP9 MLOAD SWAP9 DUP10 SWAP4 PUSH23 0x20B1B1B2B9B9A1B7B73A3937B61D1030B1B1B7BAB73A1 PUSH1 0x4D SHL DUP11 DUP7 ADD MSTORE PUSH2 0xA27 DUP2 MLOAD DUP1 SWAP3 DUP13 PUSH1 0x37 DUP10 ADD SWAP2 ADD PUSH2 0xE5E JUMP JUMPDEST SWAP1 SWAP2 SWAP3 PUSH1 0xF DUP2 AND PUSH1 0x10 DUP2 LT ISZERO PUSH2 0x1081 JUMPI PUSH16 0x181899199A1A9B1B9C1CB0B131B232B3 PUSH1 0x81 SHL SWAP1 BYTE PUSH2 0x11B1 DUP6 DUP8 PUSH2 0x12C6 JUMP JUMPDEST MSTORE8 PUSH1 0x4 SHR SWAP3 DUP1 ISZERO PUSH2 0x106D JUMPI PUSH1 0x0 NOT ADD SWAP2 SWAP1 PUSH2 0x112D JUMP JUMPDEST PUSH1 0x40 DUP2 ADD SWAP1 DUP2 LT PUSH8 0xFFFFFFFFFFFFFFFF DUP3 GT OR PUSH2 0x453 JUMPI PUSH1 0x40 MSTORE JUMP JUMPDEST PUSH1 0x80 DUP2 ADD SWAP1 DUP2 LT PUSH8 0xFFFFFFFFFFFFFFFF DUP3 GT OR PUSH2 0x453 JUMPI PUSH1 0x40 MSTORE JUMP JUMPDEST SWAP1 PUSH1 0x1F DUP1 NOT SWAP2 ADD AND DUP2 ADD SWAP1 DUP2 LT PUSH8 0xFFFFFFFFFFFFFFFF DUP3 GT OR PUSH2 0x453 JUMPI PUSH1 0x40 MSTORE JUMP JUMPDEST PUSH1 0x0 DUP2 DUP2 MSTORE PUSH1 0x20 DUP2 DUP2 MSTORE PUSH1 0x40 DUP1 DUP4 KECCAK256 PUSH1 0x1 PUSH1 0x1 PUSH1 0xA0 SHL SUB SWAP6 DUP7 AND DUP1 DUP6 MSTORE SWAP3 MSTORE DUP3 KECCAK256 SLOAD SWAP2 SWAP4 SWAP1 SWAP3 SWAP2 PUSH1 0xFF AND PUSH2 0x1256 JUMPI JUMPDEST POP POP POP POP JUMP JUMPDEST PUSH32 0xF6391F5C32D9C69D2A47EA670B442974B53935D1EDC7FD64EB21E047A839171B SWAP1 DUP3 DUP6 MSTORE DUP5 PUSH1 0x20 MSTORE PUSH1 0x40 DUP6 KECCAK256 DUP5 DUP7 MSTORE PUSH1 0x20 MSTORE PUSH1 0x40 DUP6 KECCAK256 PUSH1 0xFF NOT DUP2 SLOAD AND SWAP1 SSTORE PUSH2 0x129D PUSH2 0x1AA5 JUMP JUMPDEST AND SWAP4 DUP1 LOG4 CODESIZE DUP1 DUP1 DUP1 PUSH2 0x1250 JUMP JUMPDEST PUSH8 0xFFFFFFFFFFFFFFFF DUP2 GT PUSH2 0x453 JUMPI PUSH1 0x1F ADD PUSH1 0x1F NOT AND PUSH1 0x20 ADD SWAP1 JUMP JUMPDEST SWAP1 DUP2 MLOAD DUP2 LT ISZERO PUSH2 0xB0B JUMPI ADD PUSH1 0x20 ADD SWAP1 JUMP JUMPDEST PUSH1 0x40 MLOAD SWAP1 PUSH1 0x60 DUP3 ADD DUP3 DUP2 LT PUSH8 0xFFFFFFFFFFFFFFFF DUP3 GT OR PUSH2 0x453 JUMPI PUSH1 0x40 MSTORE PUSH1 0x2A DUP3 MSTORE PUSH1 0x20 DUP3 ADD PUSH1 0x40 CALLDATASIZE DUP3 CALLDATACOPY DUP3 MLOAD ISZERO PUSH2 0xB0B JUMPI PUSH1 0x30 SWAP1 MSTORE8 DUP2 MLOAD PUSH1 0x1 SWAP1 DUP2 LT ISZERO PUSH2 0xB0B JUMPI PUSH1 0x78 PUSH1 0x21 DUP5 ADD MSTORE8 PUSH1 0x29 SWAP1 JUMPDEST DUP1 DUP3 GT PUSH2 0x1334 JUMPI POP POP PUSH2 0xA83 JUMPI SWAP1 JUMP JUMPDEST SWAP1 SWAP2 PUSH1 0xF DUP2 AND PUSH1 0x10 DUP2 LT ISZERO PUSH2 0x138D JUMPI PUSH16 0x181899199A1A9B1B9C1CB0B131B232B3 PUSH1 0x81 SHL SWAP1 BYTE PUSH2 0x1363 DUP5 DUP7 PUSH2 0x12C6 JUMP JUMPDEST MSTORE8 PUSH1 0x4 SHR SWAP2 DUP1 ISZERO PUSH2 0x1378 JUMPI PUSH1 0x0 NOT ADD SWAP1 PUSH2 0x1324 JUMP JUMPDEST PUSH1 0x24 PUSH1 0x0 PUSH4 0x4E487B71 PUSH1 0xE0 SHL DUP2 MSTORE PUSH1 0x11 PUSH1 0x4 MSTORE REVERT JUMPDEST PUSH1 0x24 PUSH1 0x0 PUSH4 0x4E487B71 PUSH1 0xE0 SHL DUP2 MSTORE PUSH1 0x32 PUSH1 0x4 MSTORE REVERT JUMPDEST PUSH1 0xFF DUP2 EQ PUSH2 0x13E0 JUMPI PUSH1 0xFF DUP2 AND SWAP1 PUSH1 0x1F DUP3 GT PUSH2 0x13CE JUMPI PUSH1 0x40 MLOAD SWAP2 PUSH2 0x13C4 DUP4 PUSH2 0x11C7 JUMP JUMPDEST DUP3 MSTORE PUSH1 0x20 DUP3 ADD MSTORE SWAP1 JUMP JUMPDEST PUSH1 0x40 MLOAD PUSH4 0x2CD44AC3 PUSH1 0xE2 SHL DUP2 MSTORE PUSH1 0x4 SWAP1 REVERT JUMPDEST POP PUSH1 0x40 MLOAD PUSH1 0x0 PUSH1 0x1 SWAP1 DUP2 SLOAD SWAP2 DUP3 DUP2 SHR SWAP1 DUP1 DUP5 AND SWAP4 DUP5 ISZERO PUSH2 0x14BF JUMPI JUMPDEST PUSH1 0x20 SWAP5 DUP6 DUP5 LT DUP2 EQ PUSH2 0x14AB JUMPI DUP4 DUP8 MSTORE DUP7 SWAP5 SWAP4 SWAP3 SWAP2 DUP2 ISZERO PUSH2 0x148B JUMPI POP PUSH1 0x1 EQ PUSH2 0x142F JUMPI JUMPDEST POP POP PUSH2 0x142C SWAP3 POP SUB DUP3 PUSH2 0x11FF JUMP JUMPDEST SWAP1 JUMP JUMPDEST PUSH1 0x0 DUP2 DUP2 MSTORE PUSH32 0xB10E2D527612073B26EECDFD717E6A320CF44B4AFAC2B0732D9FCBE2B7FA0CF6 SWAP6 SWAP4 POP SWAP2 SWAP1 JUMPDEST DUP2 DUP4 LT PUSH2 0x1473 JUMPI POP POP PUSH2 0x142C SWAP4 POP DUP3 ADD ADD CODESIZE DUP1 PUSH2 0x141E JUMP JUMPDEST DUP6 SLOAD DUP8 DUP5 ADD DUP6 ADD MSTORE SWAP5 DUP6 ADD SWAP5 DUP7 SWAP5 POP SWAP2 DUP4 ADD SWAP2 PUSH2 0x145B JUMP JUMPDEST SWAP2 POP POP PUSH2 0x142C SWAP5 SWAP3 POP PUSH1 0xFF NOT AND DUP3 DUP5 ADD MSTORE ISZERO ISZERO PUSH1 0x5 SHL DUP3 ADD ADD CODESIZE DUP1 PUSH2 0x141E JUMP JUMPDEST PUSH4 0x4E487B71 PUSH1 0xE0 SHL DUP6 MSTORE PUSH1 0x22 PUSH1 0x4 MSTORE PUSH1 0x24 DUP6 REVERT JUMPDEST SWAP2 PUSH1 0x7F AND SWAP2 PUSH2 0x13FB JUMP JUMPDEST PUSH1 0xFF DUP2 EQ PUSH2 0x14EB JUMPI PUSH1 0xFF DUP2 AND SWAP1 PUSH1 0x1F DUP3 GT PUSH2 0x13CE JUMPI PUSH1 0x40 MLOAD SWAP2 PUSH2 0x13C4 DUP4 PUSH2 0x11C7 JUMP JUMPDEST POP PUSH1 0x40 MLOAD PUSH1 0x0 PUSH1 0x2 SLOAD SWAP1 PUSH1 0x1 DUP3 DUP2 SHR SWAP1 DUP1 DUP5 AND SWAP4 DUP5 ISZERO PUSH2 0x1595 JUMPI JUMPDEST PUSH1 0x20 SWAP5 DUP6 DUP5 LT DUP2 EQ PUSH2 0x14AB JUMPI DUP4 DUP8 MSTORE DUP7 SWAP5 SWAP4 SWAP3 SWAP2 DUP2 ISZERO PUSH2 0x148B JUMPI POP PUSH1 0x1 EQ PUSH2 0x1536 JUMPI POP POP PUSH2 0x142C SWAP3 POP SUB DUP3 PUSH2 0x11FF JUMP JUMPDEST SWAP1 SWAP4 SWAP2 POP PUSH1 0x2 PUSH1 0x0 MSTORE PUSH32 0x405787FA12A823E0F2B7631CC41B3BA8828B3321CA811111FA75CD3AA3BB5ACE SWAP4 PUSH1 0x0 SWAP2 JUMPDEST DUP2 DUP4 LT PUSH2 0x157D JUMPI POP POP PUSH2 0x142C SWAP4 POP DUP3 ADD ADD CODESIZE DUP1 PUSH2 0x141E JUMP JUMPDEST DUP6 SLOAD DUP8 DUP5 ADD DUP6 ADD MSTORE SWAP5 DUP6 ADD SWAP5 DUP7 SWAP5 POP SWAP2 DUP4 ADD SWAP2 PUSH2 0x1565 JUMP JUMPDEST SWAP2 PUSH1 0x7F AND SWAP2 PUSH2 0x1506 JUMP JUMPDEST CALLDATALOAD PUSH1 0x1 PUSH1 0x1 PUSH1 0xA0 SHL SUB DUP2 AND DUP2 SUB PUSH2 0x126 JUMPI SWAP1 JUMP JUMPDEST SWAP1 CALLDATALOAD SWAP1 PUSH1 0x1E NOT DUP2 CALLDATASIZE SUB ADD DUP3 SLT ISZERO PUSH2 0x126 JUMPI ADD DUP1 CALLDATALOAD SWAP1 PUSH8 0xFFFFFFFFFFFFFFFF DUP3 GT PUSH2 0x126 JUMPI PUSH1 0x20 ADD SWAP2 DUP2 CALLDATASIZE SUB DUP4 SGT PUSH2 0x126 JUMPI JUMP JUMPDEST SWAP3 SWAP2 SWAP3 PUSH2 0x15F2 DUP3 PUSH2 0x12AA JUMP JUMPDEST SWAP2 PUSH2 0x1600 PUSH1 0x40 MLOAD SWAP4 DUP5 PUSH2 0x11FF JUMP JUMPDEST DUP3 SWAP5 DUP2 DUP5 MSTORE DUP2 DUP4 ADD GT PUSH2 0x126 JUMPI DUP3 DUP2 PUSH1 0x20 SWAP4 DUP5 PUSH1 0x0 SWAP7 ADD CALLDATACOPY ADD ADD MSTORE JUMP JUMPDEST SWAP4 SWAP1 SWAP3 PUSH1 0xE0 SWAP6 SWAP3 SWAP9 SWAP8 SWAP7 SWAP4 PUSH2 0x100 DUP7 ADD SWAP10 PUSH32 0xDFDA34B7BAC6FD61FB892A6C112B3F89C2A35BF7A9CBACFE739392F72D4A03A5 DUP8 MSTORE PUSH1 0x1 DUP1 PUSH1 0xA0 SHL SUB DUP1 SWAP3 AND PUSH1 0x20 DUP9 ADD MSTORE AND PUSH1 0x40 DUP7 ADD MSTORE PUSH1 0x60 DUP6 ADD MSTORE PUSH1 0x80 DUP5 ADD MSTORE PUSH1 0xA0 DUP4 ADD MSTORE PUSH1 0xC0 DUP3 ADD MSTORE ADD MSTORE JUMP JUMPDEST PUSH1 0x5 DUP2 LT ISZERO PUSH2 0x1782 JUMPI DUP1 PUSH2 0x168F JUMPI POP JUMP JUMPDEST PUSH1 0x1 DUP2 SUB PUSH2 0x16DC JUMPI PUSH1 0x40 MLOAD PUSH3 0x461BCD PUSH1 0xE5 SHL DUP2 MSTORE PUSH1 0x20 PUSH1 0x4 DUP3 ADD MSTORE PUSH1 0x18 PUSH1 0x24 DUP3 ADD MSTORE PUSH32 0x45434453413A20696E76616C6964207369676E61747572650000000000000000 PUSH1 0x44 DUP3 ADD MSTORE PUSH1 0x64 SWAP1 REVERT JUMPDEST PUSH1 0x2 DUP2 SUB PUSH2 0x1729 JUMPI PUSH1 0x40 MLOAD PUSH3 0x461BCD PUSH1 0xE5 SHL DUP2 MSTORE PUSH1 0x20 PUSH1 0x4 DUP3 ADD MSTORE PUSH1 0x1F PUSH1 0x24 DUP3 ADD MSTORE PUSH32 0x45434453413A20696E76616C6964207369676E6174757265206C656E67746800 PUSH1 0x44 DUP3 ADD MSTORE PUSH1 0x64 SWAP1 REVERT JUMPDEST PUSH1 0x3 EQ PUSH2 0x1732 JUMPI JUMP JUMPDEST PUSH1 0x40 MLOAD PUSH3 0x461BCD PUSH1 0xE5 SHL DUP2 MSTORE PUSH1 0x20 PUSH1 0x4 DUP3 ADD MSTORE PUSH1 0x22 PUSH1 0x24 DUP3 ADD MSTORE PUSH32 0x45434453413A20696E76616C6964207369676E6174757265202773272076616C PUSH1 0x44 DUP3 ADD MSTORE PUSH2 0x7565 PUSH1 0xF0 SHL PUSH1 0x64 DUP3 ADD MSTORE PUSH1 0x84 SWAP1 REVERT JUMPDEST PUSH4 0x4E487B71 PUSH1 0xE0 SHL PUSH1 0x0 MSTORE PUSH1 0x21 PUSH1 0x4 MSTORE PUSH1 0x24 PUSH1 0x0 REVERT JUMPDEST SWAP1 PUSH1 0x41 DUP2 MLOAD EQ PUSH1 0x0 EQ PUSH2 0x17C6 JUMPI PUSH2 0x17C2 SWAP2 PUSH1 0x20 DUP3 ADD MLOAD SWAP1 PUSH1 0x60 PUSH1 0x40 DUP5 ADD MLOAD SWAP4 ADD MLOAD PUSH1 0x0 BYTE SWAP1 PUSH2 0x17D0 JUMP JUMPDEST SWAP1 SWAP2 JUMP JUMPDEST POP POP PUSH1 0x0 SWAP1 PUSH1 0x2 SWAP1 JUMP JUMPDEST SWAP3 SWAP2 SWAP1 PUSH32 0x7FFFFFFFFFFFFFFFFFFFFFFFFFFFFFFF5D576E7357A4501DDFE92F46681B20A0 DUP4 GT PUSH2 0x1853 JUMPI SWAP2 PUSH1 0x80 SWAP5 SWAP4 SWAP2 PUSH1 0xFF PUSH1 0x20 SWAP5 PUSH1 0x40 MLOAD SWAP5 DUP6 MSTORE AND DUP5 DUP5 ADD MSTORE PUSH1 0x40 DUP4 ADD MSTORE PUSH1 0x60 DUP3 ADD MSTORE PUSH1 0x0 SWAP4 DUP5 SWAP2 DUP3 DUP1 MSTORE PUSH1 0x1 GAS STATICCALL ISZERO PUSH2 0x1846 JUMPI DUP2 MLOAD PUSH1 0x1 PUSH1 0x1 PUSH1 0xA0 SHL SUB DUP2 AND ISZERO PUSH2 0x1840 JUMPI SWAP2 SWAP1 JUMP JUMPDEST POP PUSH1 0x1 SWAP1 JUMP JUMPDEST POP PUSH1 0x40 MLOAD SWAP1 RETURNDATASIZE SWAP1 DUP3 RETURNDATACOPY RETURNDATASIZE SWAP1 REVERT JUMPDEST POP POP POP POP PUSH1 0x0 SWAP1 PUSH1 0x3 SWAP1 JUMP JUMPDEST PUSH1 0x42 SWAP1 PUSH2 0x186A PUSH2 0x1885 JUMP JUMPDEST SWAP1 PUSH1 0x40 MLOAD SWAP2 PUSH2 0x1901 PUSH1 0xF0 SHL DUP4 MSTORE PUSH1 0x2 DUP4 ADD MSTORE PUSH1 0x22 DUP3 ADD MSTORE KECCAK256 SWAP1 JUMP JUMPDEST ADDRESS PUSH32 0x0 PUSH1 0x1 PUSH1 0x1 PUSH1 0xA0 SHL SUB AND EQ DUP1 PUSH2 0x1987 JUMPI JUMPDEST ISZERO PUSH2 0x18E0 JUMPI PUSH32 0x0 SWAP1 JUMP JUMPDEST PUSH1 0x40 MLOAD PUSH1 0x20 DUP2 ADD SWAP1 PUSH32 0x8B73C3C69BB8FE3D512ECC4CF759CC79239F7B179B0FFACAA9A75D522B39400F DUP3 MSTORE PUSH32 0x0 PUSH1 0x40 DUP3 ADD MSTORE PUSH32 0x0 PUSH1 0x60 DUP3 ADD MSTORE CHAINID PUSH1 0x80 DUP3 ADD MSTORE ADDRESS PUSH1 0xA0 DUP3 ADD MSTORE PUSH1 0xA0 DUP2 MSTORE PUSH1 0xC0 DUP2 ADD DUP2 DUP2 LT PUSH8 0xFFFFFFFFFFFFFFFF DUP3 GT OR PUSH2 0x453 JUMPI PUSH1 0x40 MSTORE MLOAD SWAP1 KECCAK256 SWAP1 JUMP JUMPDEST POP PUSH32 0x0 CHAINID EQ PUSH2 0x18B7 JUMP JUMPDEST PUSH1 0xC0 DUP2 ADD CALLDATALOAD SWAP2 DUP3 TIMESTAMP GT PUSH2 0x1A9C JUMPI PUSH1 0x1 PUSH1 0x1 PUSH1 0xA0 SHL SUB SWAP3 PUSH1 0x80 DUP4 ADD CALLDATALOAD SWAP3 SWAP1 DUP5 PUSH2 0x19D7 DUP4 PUSH2 0x159F JUMP JUMPDEST AND PUSH1 0x0 MSTORE PUSH1 0x3 PUSH1 0x20 MSTORE PUSH1 0x40 PUSH1 0x0 KECCAK256 SLOAD DUP5 SUB PUSH2 0x1A91 JUMPI PUSH2 0x1A85 SWAP6 PUSH2 0x1A77 PUSH2 0x1A8A SWAP5 PUSH2 0x1A6F DUP9 SWAP8 DUP7 PUSH2 0x1A67 PUSH2 0x1A7D SWAP8 PUSH2 0x1A59 PUSH2 0x1A10 DUP5 PUSH2 0x159F JUMP JUMPDEST SWAP2 PUSH2 0x1A1D PUSH1 0x20 DUP7 ADD PUSH2 0x159F JUMP JUMPDEST SWAP6 PUSH2 0x1A35 PUSH2 0x1A2E PUSH1 0xA0 DUP9 ADD DUP9 PUSH2 0x15B3 JUMP JUMPDEST CALLDATASIZE SWAP2 PUSH2 0x15E6 JUMP JUMPDEST PUSH1 0x20 DUP2 MLOAD SWAP2 ADD KECCAK256 SWAP1 PUSH1 0x40 MLOAD SWAP7 DUP8 SWAP6 PUSH1 0x20 DUP8 ADD SWAP10 PUSH1 0x40 PUSH1 0x60 DUP5 ADD CALLDATALOAD SWAP4 ADD CALLDATALOAD SWAP2 DUP12 PUSH2 0x161D JUMP JUMPDEST SUB PUSH1 0x1F NOT DUP2 ADD DUP4 MSTORE DUP3 PUSH2 0x11FF JUMP JUMPDEST MLOAD SWAP1 KECCAK256 PUSH2 0x185F JUMP JUMPDEST SWAP3 CALLDATASIZE SWAP2 PUSH2 0x15E6 JUMP JUMPDEST SWAP1 PUSH2 0x1798 JUMP JUMPDEST SWAP6 SWAP1 SWAP6 PUSH2 0x167E JUMP JUMPDEST PUSH2 0x159F JUMP JUMPDEST AND SWAP2 AND EQ SWAP1 JUMP JUMPDEST POP POP POP POP POP POP PUSH1 0x0 SWAP1 JUMP JUMPDEST POP POP POP POP PUSH1 0x0 SWAP1 JUMP JUMPDEST PUSH1 0x14 CALLDATASIZE LT PUSH2 0x1AB9 JUMPI CALLDATASIZE PUSH1 0x13 NOT ADD CALLDATALOAD PUSH1 0x60 SHR SWAP1 JUMP JUMPDEST CALLER SWAP1 JUMP INVALID 0xE2 0xB7 0xFB EXTCODESIZE DUP4 0x21 PUSH21 0x769106DAEBCFD6D1970523240DDA11281102DB9363 0xB8 EXTCODESIZE 0xD 0xC4 LOG2 PUSH5 0x6970667358 0x22 SLT KECCAK256 0xDB 0x25 PUSH10 0x566A9AF5446A15B69175 0xED 0x29 EXTCODEHASH REVERT 0xD6 PUSH18 0x5C563A167934C3EFDAD85BFDC564736F6C63 NUMBER STOP ADDMOD SGT STOP CALLER 0x2F DUP8 DUP9 GT PUSH31 0x7EFF1D82E926EC794901D17C78024A50270940304540A733656F0D00000000 "},"methodIdentifiers":{"DEFAULT_ADMIN_ROLE()":"a217fddf","PLATFORM_ADMIN_ROLE()":"685d34ff","RELAYER_ROLE()":"926d7d7f","addRelayer(address)":"dd39f00d","domainSeparator()":"f698da25","eip712Domain()":"84b0196e","enforceTargetWhitelist()":"2abf912c","execute((address,address,uint256,uint256,uint256,bytes,uint256),bytes)":"44d46c8e","getNonce(address)":"2d0335ab","getRoleAdmin(bytes32)":"248a9ca3","grantRole(bytes32,address)":"2f2ff15d","hasRole(bytes32,address)":"91d14854","isTargetAllowed(address)":"5309fa47","nonces(address)":"7ecebe00","removeRelayer(address)":"60f0a5ac","renounceRole(bytes32,address)":"36568abe","revokeRole(bytes32,address)":"d547741f","setEnforceTargetWhitelist(bool)":"9aa0c152","setTargetAllowed(address,bool)":"3a3d56fa","supportsInterface(bytes4)":"01ffc9a7","verify((address,address,uint256,uint256,uint256,bytes,uint256),bytes)":"019fe885"}}}}}