{"contracts/AccessController.sol":{"AccessController":{"abi":[{"inputs":[{"internalType":"address","name":"_trustedForwarder","type":"address"}],"stateMutability":"nonpayable","type":"constructor"},{"inputs":[],"name":"Unauthorized","type":"error"},{"inputs":[],"name":"ZeroAddress","type":"error"},{"anonymous":false,"inputs":[{"indexed":true,"internalType":"address","name":"token","type":"address"},{"indexed":false,"internalType":"uint256","name":"minTokens","type":"uint256"}],"name":"AccessRuleSet","type":"event"},{"anonymous":false,"inputs":[{"indexed":true,"internalType":"address","name":"token","type":"address"},{"indexed":true,"internalType":"address","name":"user","type":"address"},{"indexed":false,"internalType":"bool","name":"allowed","type":"bool"}],"name":"ManualOverride","type":"event"},{"anonymous":false,"inputs":[{"indexed":true,"internalType":"bytes32","name":"role","type":"bytes32"},{"indexed":true,"internalType":"bytes32","name":"previousAdminRole","type":"bytes32"},{"indexed":true,"internalType":"bytes32","name":"newAdminRole","type":"bytes32"}],"name":"RoleAdminChanged","type":"event"},{"anonymous":false,"inputs":[{"indexed":true,"internalType":"bytes32","name":"role","type":"bytes32"},{"indexed":true,"internalType":"address","name":"account","type":"address"},{"indexed":true,"internalType":"address","name":"sender","type":"address"}],"name":"RoleGranted","type":"event"},{"anonymous":false,"inputs":[{"indexed":true,"internalType":"bytes32","name":"role","type":"bytes32"},{"indexed":true,"internalType":"address","name":"account","type":"address"},{"indexed":true,"internalType":"address","name":"sender","type":"address"}],"name":"RoleRevoked","type":"event"},{"anonymous":false,"inputs":[{"indexed":true,"internalType":"address","name":"forwarder","type":"address"}],"name":"TrustedForwarderSet","type":"event"},{"inputs":[],"name":"DEFAULT_ADMIN_ROLE","outputs":[{"internalType":"bytes32","name":"","type":"bytes32"}],"stateMutability":"view","type":"function"},{"inputs":[],"name":"PLATFORM_ADMIN_ROLE","outputs":[{"internalType":"bytes32","name":"","type":"bytes32"}],"stateMutability":"view","type":"function"},{"inputs":[{"internalType":"address","name":"user","type":"address"},{"internalType":"address","name":"token","type":"address"}],"name":"getAccessInfo","outputs":[{"internalType":"bool","name":"hasOverride","type":"bool"},{"internalType":"bool","name":"overrideValue","type":"bool"},{"internalType":"uint256","name":"tokenBalance","type":"uint256"},{"internalType":"uint256","name":"minRequired","type":"uint256"},{"internalType":"bool","name":"finalAccess","type":"bool"}],"stateMutability":"view","type":"function"},{"inputs":[{"internalType":"bytes32","name":"role","type":"bytes32"}],"name":"getRoleAdmin","outputs":[{"internalType":"bytes32","name":"","type":"bytes32"}],"stateMutability":"view","type":"function"},{"inputs":[{"internalType":"bytes32","name":"role","type":"bytes32"},{"internalType":"address","name":"account","type":"address"}],"name":"grantRole","outputs":[],"stateMutability":"nonpayable","type":"function"},{"inputs":[{"internalType":"address","name":"user","type":"address"},{"internalType":"address","name":"token","type":"address"}],"name":"hasAccess","outputs":[{"internalType":"bool","name":"","type":"bool"}],"stateMutability":"view","type":"function"},{"inputs":[{"internalType":"address","name":"","type":"address"},{"internalType":"address","name":"","type":"address"}],"name":"hasManualOverride","outputs":[{"internalType":"bool","name":"","type":"bool"}],"stateMutability":"view","type":"function"},{"inputs":[{"internalType":"bytes32","name":"role","type":"bytes32"},{"internalType":"address","name":"account","type":"address"}],"name":"hasRole","outputs":[{"internalType":"bool","name":"","type":"bool"}],"stateMutability":"view","type":"function"},{"inputs":[{"internalType":"address","name":"token","type":"address"},{"internalType":"address","name":"user","type":"address"},{"internalType":"bool","name":"allowed","type":"bool"}],"name":"manualGrant","outputs":[],"stateMutability":"nonpayable","type":"function"},{"inputs":[{"internalType":"address","name":"","type":"address"},{"internalType":"address","name":"","type":"address"}],"name":"manualOverrides","outputs":[{"internalType":"bool","name":"","type":"bool"}],"stateMutability":"view","type":"function"},{"inputs":[{"internalType":"address","name":"","type":"address"}],"name":"minTokensForAccess","outputs":[{"internalType":"uint256","name":"","type":"uint256"}],"stateMutability":"view","type":"function"},{"inputs":[{"internalType":"address","name":"token","type":"address"},{"internalType":"address","name":"user","type":"address"}],"name":"removeManualOverride","outputs":[],"stateMutability":"nonpayable","type":"function"},{"inputs":[{"internalType":"bytes32","name":"role","type":"bytes32"},{"internalType":"address","name":"account","type":"address"}],"name":"renounceRole","outputs":[],"stateMutability":"nonpayable","type":"function"},{"inputs":[{"internalType":"address","name":"user","type":"address"},{"internalType":"address","name":"token","type":"address"}],"name":"requireAccess","outputs":[],"stateMutability":"view","type":"function"},{"inputs":[{"internalType":"bytes32","name":"role","type":"bytes32"},{"internalType":"address","name":"account","type":"address"}],"name":"revokeRole","outputs":[],"stateMutability":"nonpayable","type":"function"},{"inputs":[{"internalType":"address","name":"token","type":"address"},{"internalType":"uint256","name":"minTokens","type":"uint256"}],"name":"setMinTokensForAccess","outputs":[],"stateMutability":"nonpayable","type":"function"},{"inputs":[{"internalType":"address","name":"newForwarder","type":"address"}],"name":"setTrustedForwarder","outputs":[],"stateMutability":"nonpayable","type":"function"},{"inputs":[{"internalType":"bytes4","name":"interfaceId","type":"bytes4"}],"name":"supportsInterface","outputs":[{"internalType":"bool","name":"","type":"bool"}],"stateMutability":"view","type":"function"},{"inputs":[],"name":"trustedForwarder","outputs":[{"internalType":"address","name":"","type":"address"}],"stateMutability":"view","type":"function"}],"evm":{"bytecode":{"linkReferences":{},"object":"60803461014157601f61109c38819003918201601f1916830192916001600160401b03841183851017610146578083926040958652833960209283918101031261014157516001600160a01b0381169081900361014157600480546001600160a01b031916919091179055600080805280825282812033825282528281205460ff161561010b575b7f5246556c0ab216b5b325ad7c539bfbd1a07c768773cdf810fecd3c3375c2740791828252818152838220338352815260ff8483205416156100d2575b8351610f1f908161015d8239f35b8282528181528382209033835252828120600160ff19825416179055339160008051602061107c833981519152339280a43880806100c4565b8080528082528281203382528252828120600160ff1982541617905533338260008051602061107c8339815191528180a4610087565b600080fd5b634e487b7160e01b600052604160045260246000fdfe608060408181526004908136101561001657600080fd5b600092833560e01c90816301ffc9a714610811575080631709ef07146107e8578063248a9ca3146107be5780632f2ff15d1461071557806336568abe146106835780634f5d835f14610635578063685d34ff146105fa5780637da0a877146105d25780639049332a1461059a57806391d1485414610554578063a217fddf14610539578063b2b9b27314610485578063c195c492146103a8578063c5ba8381146102ab578063ca50ced61461026c578063d547741f14610230578063d55599f1146101e2578063da742228146101765763df48112c146100f557600080fd5b3461017257806003193601126101725761010d610865565b906024359161011a610896565b6001600160a01b031692831561016457507f25bf214ff87b7a766ba8edbb51935b7b35b5219a6599fbf168e701dcf7489de39160209184865260018352818187205551908152a280f35b905163d92e233d60e01b8152fd5b8280fd5b5050346101de5760203660031901126101de57610191610865565b610199610896565b81546001600160a01b0319166001600160a01b03919091169081179091557fd91237492a9e30cd2faf361fc103998a382ff0ec2b1b07dc1cbebb76ae2f1ea28280a280f35b5080fd5b8382346101de57806003193601126101de5760ff81602093610202610865565b61020a610880565b6001600160a01b0391821683526003875283832091168252855220549151911615158152f35b503461017257806003193601126101725761026991356102646001610253610880565b938387528660205286200154610ac8565b610c4a565b80f35b5034610172578060031936011261017257610296610288610865565b610290610880565b90610df4565b1561029f578280f35b516282b42960e81b8152fd5b50346101725780600319360112610172576102c4610865565b6102cc610880565b9260018060a01b0392838516948587526020906003825282882095851695868952825260ff83892054169680895260028352838920878a52835260ff848a205416968451956370a0823160e01b87528601528285602481845afa94851561039e57899561036b575b5090838961034c9360a09b5260018552205495610df4565b9482519615158752151590860152840152606083015215156080820152f35b9094508281813d8311610397575b6103838183610c28565b8101031261039357519383610334565b8880fd5b503d610379565b84513d8b823e3d90fd5b509034610172576060366003190112610172576103c3610865565b6103cb610880565b9260443591821515809303610481576103e2610896565b6001600160a01b039081169384158015610477575b6104695750916020917fe6a7a68c64c2e0a54df2a3146995594208f6af096731bb099a1fe9ea3713420d9385885260038452818820961695868852835280872060ff19906001828254161790558588526002845281882087895284528188209081541660ff841617905551908152a380f35b825163d92e233d60e01b8152fd5b50818616156103f7565b8580fd5b50903461017257816003193601126101725761049f610865565b916104a8610880565b926104b1610896565b6001600160a01b03908116928315801561052f575b61046957507fe6a7a68c64c2e0a54df2a3146995594208f6af096731bb099a1fe9ea3713420d9160209184875260038352818720951694858752825280862060ff199081815416905584875260028352818720868852835281872090815416905551858152a380f35b50818516156104c6565b8382346101de57816003193601126101de5751908152602090f35b5090346101725781600319360112610172578160209360ff92610575610880565b903582528186528282206001600160a01b039091168252855220549151911615158152f35b8382346101de5760203660031901126101de5760209181906001600160a01b036105c2610865565b1681526001845220549051908152f35b5090346101725782600319360112610172575490516001600160a01b03909116815260209150f35b8382346101de57816003193601126101de57602090517f5246556c0ab216b5b325ad7c539bfbd1a07c768773cdf810fecd3c3375c274078152f35b8382346101de57806003193601126101de5760ff81602093610655610865565b61065d610880565b6001600160a01b0391821683526002875283832091168252855220549151911615158152f35b509190346101de57826003193601126101de5761069e610880565b90336001600160a01b038316036106ba57906102699135610c4a565b608490602085519162461bcd60e51b8352820152602f60248201527f416363657373436f6e74726f6c3a2063616e206f6e6c792072656e6f756e636560448201526e103937b632b9903337b91039b2b63360891b6064820152fd5b5090346101725781600319360112610172573590610731610880565b908284528360205261074860018286200154610ac8565b82845260208481528185206001600160a01b039093168086529290528084205460ff1615610774578380f35b828452836020528084208285526020528320600160ff1982541617905533917f2f8788117e7eff1d82e926ec794901d17c78024a50270940304540a733656f0d8480a43880808380f35b50903461017257602036600319011261017257816020936001923581528085522001549051908152f35b8382346101de57806003193601126101de57602090610808610288610865565b90519015158152f35b84908434610172576020366003190112610172573563ffffffff60e01b81168091036101725760209250637965db0b60e01b8114908115610854575b5015158152f35b6301ffc9a760e01b1490508361084d565b600435906001600160a01b038216820361087b57565b600080fd5b602435906001600160a01b038216820361087b57565b3360009081527f0790b0aaeb4157b4822815d95bf3d9318a1561c876c520e6cca704be6f4d63a66020908152604080832054909291907f5246556c0ab216b5b325ad7c539bfbd1a07c768773cdf810fecd3c3375c274079060ff16156108fc5750505050565b61090533610ce5565b9084519061091282610bf6565b60428252838201946060368737825115610ab45760308653825190600191821015610ab45790607860218501536041915b818311610a4657505050610a0457846109d260486109f69360449798519889916109c38984019876020b1b1b2b9b9a1b7b73a3937b61d1030b1b1b7bab73a1604d1b8a5261099a815180928d603789019101610bd3565b8401917001034b99036b4b9b9b4b733903937b6329607d1b603784015251809386840190610bd3565b01036028810189520187610c28565b5194859362461bcd60e51b8552600485015251809281602486015285850190610bd3565b601f01601f19168101030190fd5b60648386519062461bcd60e51b825280600483015260248201527f537472696e67733a20686578206c656e67746820696e73756666696369656e746044820152fd5b909192600f81166010811015610aa0576f181899199a1a9b1b9c1cb0b131b232b360811b901a610a768587610cbe565b5360041c928015610a8c57600019019190610943565b634e487b7160e01b82526011600452602482fd5b634e487b7160e01b83526032600452602483fd5b634e487b7160e01b81526032600452602490fd5b60008181526020818152604092838320338452825260ff848420541615610aef5750505050565b610af833610ce5565b90845190610b0582610bf6565b60428252838201946060368737825115610ab45760308653825190600191821015610ab45790607860218501536041915b818311610b8d57505050610a0457846109d260486109f69360449798519889916109c38984019876020b1b1b2b9b9a1b7b73a3937b61d1030b1b1b7bab73a1604d1b8a5261099a815180928d603789019101610bd3565b909192600f81166010811015610aa0576f181899199a1a9b1b9c1cb0b131b232b360811b901a610bbd8587610cbe565b5360041c928015610a8c57600019019190610b36565b60005b838110610be65750506000910152565b8181015183820152602001610bd6565b6080810190811067ffffffffffffffff821117610c1257604052565b634e487b7160e01b600052604160045260246000fd5b90601f8019910116810190811067ffffffffffffffff821117610c1257604052565b9060009180835282602052604083209160018060a01b03169182845260205260ff604084205416610c7a57505050565b80835282602052604083208284526020526040832060ff1981541690557ff6391f5c32d9c69d2a47ea670b442974b53935d1edc7fd64eb21e047a839171b339380a4565b908151811015610ccf570160200190565b634e487b7160e01b600052603260045260246000fd5b604051906060820182811067ffffffffffffffff821117610c1257604052602a8252602082016040368237825115610ccf57603090538151600190811015610ccf57607860218401536029905b808211610d86575050610d425790565b606460405162461bcd60e51b815260206004820152602060248201527f537472696e67733a20686578206c656e67746820696e73756666696369656e746044820152fd5b9091600f81166010811015610ddf576f181899199a1a9b1b9c1cb0b131b232b360811b901a610db58486610cbe565b5360041c918015610dca576000190190610d32565b60246000634e487b7160e01b81526011600452fd5b60246000634e487b7160e01b81526032600452fd5b6001600160a01b039081169182158015610edf575b610ed7571660009080825260209160038352604092838220858352815260ff8483205416610ebf578282526001815283822054948515610eb457819060248651809681936370a0823160e01b835260048301525afa938415610ea957508193610e75575b505050101590565b9091809350813d8311610ea2575b610e8d8183610c28565b81010312610e9f575051388080610e6d565b80fd5b503d610e83565b51913d9150823e3d90fd5b505050505050600190565b819260ff959252600281528383209183525220541690565b505050600090565b5081811615610e0956fea26469706673582212202e4517c9d435a87108a3fa18d043d42f9bdd1c12a537df58ef42ad814418389364736f6c634300081300332f8788117e7eff1d82e926ec794901d17c78024a50270940304540a733656f0d","opcodes":"PUSH1 0x80 CALLVALUE PUSH2 0x141 JUMPI PUSH1 0x1F PUSH2 0x109C CODESIZE DUP2 SWAP1 SUB SWAP2 DUP3 ADD PUSH1 0x1F NOT AND DUP4 ADD SWAP3 SWAP2 PUSH1 0x1 PUSH1 0x1 PUSH1 0x40 SHL SUB DUP5 GT DUP4 DUP6 LT OR PUSH2 0x146 JUMPI DUP1 DUP4 SWAP3 PUSH1 0x40 SWAP6 DUP7 MSTORE DUP4 CODECOPY PUSH1 0x20 SWAP3 DUP4 SWAP2 DUP2 ADD SUB SLT PUSH2 0x141 JUMPI MLOAD PUSH1 0x1 PUSH1 0x1 PUSH1 0xA0 SHL SUB DUP2 AND SWAP1 DUP2 SWAP1 SUB PUSH2 0x141 JUMPI PUSH1 0x4 DUP1 SLOAD PUSH1 0x1 PUSH1 0x1 PUSH1 0xA0 SHL SUB NOT AND SWAP2 SWAP1 SWAP2 OR SWAP1 SSTORE PUSH1 0x0 DUP1 DUP1 MSTORE DUP1 DUP3 MSTORE DUP3 DUP2 KECCAK256 CALLER DUP3 MSTORE DUP3 MSTORE DUP3 DUP2 KECCAK256 SLOAD PUSH1 0xFF AND ISZERO PUSH2 0x10B JUMPI JUMPDEST PUSH32 0x5246556C0AB216B5B325AD7C539BFBD1A07C768773CDF810FECD3C3375C27407 SWAP2 DUP3 DUP3 MSTORE DUP2 DUP2 MSTORE DUP4 DUP3 KECCAK256 CALLER DUP4 MSTORE DUP2 MSTORE PUSH1 0xFF DUP5 DUP4 KECCAK256 SLOAD AND ISZERO PUSH2 0xD2 JUMPI JUMPDEST DUP4 MLOAD PUSH2 0xF1F SWAP1 DUP2 PUSH2 0x15D DUP3 CODECOPY RETURN JUMPDEST DUP3 DUP3 MSTORE DUP2 DUP2 MSTORE DUP4 DUP3 KECCAK256 SWAP1 CALLER DUP4 MSTORE MSTORE DUP3 DUP2 KECCAK256 PUSH1 0x1 PUSH1 0xFF NOT DUP3 SLOAD AND OR SWAP1 SSTORE CALLER SWAP2 PUSH1 0x0 DUP1 MLOAD PUSH1 0x20 PUSH2 0x107C DUP4 CODECOPY DUP2 MLOAD SWAP2 MSTORE CALLER SWAP3 DUP1 LOG4 CODESIZE DUP1 DUP1 PUSH2 0xC4 JUMP JUMPDEST DUP1 DUP1 MSTORE DUP1 DUP3 MSTORE DUP3 DUP2 KECCAK256 CALLER DUP3 MSTORE DUP3 MSTORE DUP3 DUP2 KECCAK256 PUSH1 0x1 PUSH1 0xFF NOT DUP3 SLOAD AND OR SWAP1 SSTORE CALLER CALLER DUP3 PUSH1 0x0 DUP1 MLOAD PUSH1 0x20 PUSH2 0x107C DUP4 CODECOPY DUP2 MLOAD SWAP2 MSTORE DUP2 DUP1 LOG4 PUSH2 0x87 JUMP JUMPDEST PUSH1 0x0 DUP1 REVERT JUMPDEST PUSH4 0x4E487B71 PUSH1 0xE0 SHL PUSH1 0x0 MSTORE PUSH1 0x41 PUSH1 0x4 MSTORE PUSH1 0x24 PUSH1 0x0 REVERT INVALID PUSH1 0x80 PUSH1 0x40 DUP2 DUP2 MSTORE PUSH1 0x4 SWAP1 DUP2 CALLDATASIZE LT ISZERO PUSH2 0x16 JUMPI PUSH1 0x0 DUP1 REVERT JUMPDEST PUSH1 0x0 SWAP3 DUP4 CALLDATALOAD PUSH1 0xE0 SHR SWAP1 DUP2 PUSH4 0x1FFC9A7 EQ PUSH2 0x811 JUMPI POP DUP1 PUSH4 0x1709EF07 EQ PUSH2 0x7E8 JUMPI DUP1 PUSH4 0x248A9CA3 EQ PUSH2 0x7BE JUMPI DUP1 PUSH4 0x2F2FF15D EQ PUSH2 0x715 JUMPI DUP1 PUSH4 0x36568ABE EQ PUSH2 0x683 JUMPI DUP1 PUSH4 0x4F5D835F EQ PUSH2 0x635 JUMPI DUP1 PUSH4 0x685D34FF EQ PUSH2 0x5FA JUMPI DUP1 PUSH4 0x7DA0A877 EQ PUSH2 0x5D2 JUMPI DUP1 PUSH4 0x9049332A EQ PUSH2 0x59A JUMPI DUP1 PUSH4 0x91D14854 EQ PUSH2 0x554 JUMPI DUP1 PUSH4 0xA217FDDF EQ PUSH2 0x539 JUMPI DUP1 PUSH4 0xB2B9B273 EQ PUSH2 0x485 JUMPI DUP1 PUSH4 0xC195C492 EQ PUSH2 0x3A8 JUMPI DUP1 PUSH4 0xC5BA8381 EQ PUSH2 0x2AB JUMPI DUP1 PUSH4 0xCA50CED6 EQ PUSH2 0x26C JUMPI DUP1 PUSH4 0xD547741F EQ PUSH2 0x230 JUMPI DUP1 PUSH4 0xD55599F1 EQ PUSH2 0x1E2 JUMPI DUP1 PUSH4 0xDA742228 EQ PUSH2 0x176 JUMPI PUSH4 0xDF48112C EQ PUSH2 0xF5 JUMPI PUSH1 0x0 DUP1 REVERT JUMPDEST CALLVALUE PUSH2 0x172 JUMPI DUP1 PUSH1 0x3 NOT CALLDATASIZE ADD SLT PUSH2 0x172 JUMPI PUSH2 0x10D PUSH2 0x865 JUMP JUMPDEST SWAP1 PUSH1 0x24 CALLDATALOAD SWAP2 PUSH2 0x11A PUSH2 0x896 JUMP JUMPDEST PUSH1 0x1 PUSH1 0x1 PUSH1 0xA0 SHL SUB AND SWAP3 DUP4 ISZERO PUSH2 0x164 JUMPI POP PUSH32 0x25BF214FF87B7A766BA8EDBB51935B7B35B5219A6599FBF168E701DCF7489DE3 SWAP2 PUSH1 0x20 SWAP2 DUP5 DUP7 MSTORE PUSH1 0x1 DUP4 MSTORE DUP2 DUP2 DUP8 KECCAK256 SSTORE MLOAD SWAP1 DUP2 MSTORE LOG2 DUP1 RETURN JUMPDEST SWAP1 MLOAD PUSH4 0xD92E233D PUSH1 0xE0 SHL DUP2 MSTORE REVERT JUMPDEST DUP3 DUP1 REVERT JUMPDEST POP POP CALLVALUE PUSH2 0x1DE JUMPI PUSH1 0x20 CALLDATASIZE PUSH1 0x3 NOT ADD SLT PUSH2 0x1DE JUMPI PUSH2 0x191 PUSH2 0x865 JUMP JUMPDEST PUSH2 0x199 PUSH2 0x896 JUMP JUMPDEST DUP2 SLOAD PUSH1 0x1 PUSH1 0x1 PUSH1 0xA0 SHL SUB NOT AND PUSH1 0x1 PUSH1 0x1 PUSH1 0xA0 SHL SUB SWAP2 SWAP1 SWAP2 AND SWAP1 DUP2 OR SWAP1 SWAP2 SSTORE PUSH32 0xD91237492A9E30CD2FAF361FC103998A382FF0EC2B1B07DC1CBEBB76AE2F1EA2 DUP3 DUP1 LOG2 DUP1 RETURN JUMPDEST POP DUP1 REVERT JUMPDEST DUP4 DUP3 CALLVALUE PUSH2 0x1DE JUMPI DUP1 PUSH1 0x3 NOT CALLDATASIZE ADD SLT PUSH2 0x1DE JUMPI PUSH1 0xFF DUP2 PUSH1 0x20 SWAP4 PUSH2 0x202 PUSH2 0x865 JUMP JUMPDEST PUSH2 0x20A PUSH2 0x880 JUMP JUMPDEST PUSH1 0x1 PUSH1 0x1 PUSH1 0xA0 SHL SUB SWAP2 DUP3 AND DUP4 MSTORE PUSH1 0x3 DUP8 MSTORE DUP4 DUP4 KECCAK256 SWAP2 AND DUP3 MSTORE DUP6 MSTORE KECCAK256 SLOAD SWAP2 MLOAD SWAP2 AND ISZERO ISZERO DUP2 MSTORE RETURN JUMPDEST POP CALLVALUE PUSH2 0x172 JUMPI DUP1 PUSH1 0x3 NOT CALLDATASIZE ADD SLT PUSH2 0x172 JUMPI PUSH2 0x269 SWAP2 CALLDATALOAD PUSH2 0x264 PUSH1 0x1 PUSH2 0x253 PUSH2 0x880 JUMP JUMPDEST SWAP4 DUP4 DUP8 MSTORE DUP7 PUSH1 0x20 MSTORE DUP7 KECCAK256 ADD SLOAD PUSH2 0xAC8 JUMP JUMPDEST PUSH2 0xC4A JUMP JUMPDEST DUP1 RETURN JUMPDEST POP CALLVALUE PUSH2 0x172 JUMPI DUP1 PUSH1 0x3 NOT CALLDATASIZE ADD SLT PUSH2 0x172 JUMPI PUSH2 0x296 PUSH2 0x288 PUSH2 0x865 JUMP JUMPDEST PUSH2 0x290 PUSH2 0x880 JUMP JUMPDEST SWAP1 PUSH2 0xDF4 JUMP JUMPDEST ISZERO PUSH2 0x29F JUMPI DUP3 DUP1 RETURN JUMPDEST MLOAD PUSH3 0x82B429 PUSH1 0xE8 SHL DUP2 MSTORE REVERT JUMPDEST POP CALLVALUE PUSH2 0x172 JUMPI DUP1 PUSH1 0x3 NOT CALLDATASIZE ADD SLT PUSH2 0x172 JUMPI PUSH2 0x2C4 PUSH2 0x865 JUMP JUMPDEST PUSH2 0x2CC PUSH2 0x880 JUMP JUMPDEST SWAP3 PUSH1 0x1 DUP1 PUSH1 0xA0 SHL SUB SWAP3 DUP4 DUP6 AND SWAP5 DUP6 DUP8 MSTORE PUSH1 0x20 SWAP1 PUSH1 0x3 DUP3 MSTORE DUP3 DUP9 KECCAK256 SWAP6 DUP6 AND SWAP6 DUP7 DUP10 MSTORE DUP3 MSTORE PUSH1 0xFF DUP4 DUP10 KECCAK256 SLOAD AND SWAP7 DUP1 DUP10 MSTORE PUSH1 0x2 DUP4 MSTORE DUP4 DUP10 KECCAK256 DUP8 DUP11 MSTORE DUP4 MSTORE PUSH1 0xFF DUP5 DUP11 KECCAK256 SLOAD AND SWAP7 DUP5 MLOAD SWAP6 PUSH4 0x70A08231 PUSH1 0xE0 SHL DUP8 MSTORE DUP7 ADD MSTORE DUP3 DUP6 PUSH1 0x24 DUP2 DUP5 GAS STATICCALL SWAP5 DUP6 ISZERO PUSH2 0x39E JUMPI DUP10 SWAP6 PUSH2 0x36B JUMPI JUMPDEST POP SWAP1 DUP4 DUP10 PUSH2 0x34C SWAP4 PUSH1 0xA0 SWAP12 MSTORE PUSH1 0x1 DUP6 MSTORE KECCAK256 SLOAD SWAP6 PUSH2 0xDF4 JUMP JUMPDEST SWAP5 DUP3 MLOAD SWAP7 ISZERO ISZERO DUP8 MSTORE ISZERO ISZERO SWAP1 DUP7 ADD MSTORE DUP5 ADD MSTORE PUSH1 0x60 DUP4 ADD MSTORE ISZERO ISZERO PUSH1 0x80 DUP3 ADD MSTORE RETURN JUMPDEST SWAP1 SWAP5 POP DUP3 DUP2 DUP2 RETURNDATASIZE DUP4 GT PUSH2 0x397 JUMPI JUMPDEST PUSH2 0x383 DUP2 DUP4 PUSH2 0xC28 JUMP JUMPDEST DUP2 ADD SUB SLT PUSH2 0x393 JUMPI MLOAD SWAP4 DUP4 PUSH2 0x334 JUMP JUMPDEST DUP9 DUP1 REVERT JUMPDEST POP RETURNDATASIZE PUSH2 0x379 JUMP JUMPDEST DUP5 MLOAD RETURNDATASIZE DUP12 DUP3 RETURNDATACOPY RETURNDATASIZE SWAP1 REVERT JUMPDEST POP SWAP1 CALLVALUE PUSH2 0x172 JUMPI PUSH1 0x60 CALLDATASIZE PUSH1 0x3 NOT ADD SLT PUSH2 0x172 JUMPI PUSH2 0x3C3 PUSH2 0x865 JUMP JUMPDEST PUSH2 0x3CB PUSH2 0x880 JUMP JUMPDEST SWAP3 PUSH1 0x44 CALLDATALOAD SWAP2 DUP3 ISZERO ISZERO DUP1 SWAP4 SUB PUSH2 0x481 JUMPI PUSH2 0x3E2 PUSH2 0x896 JUMP JUMPDEST PUSH1 0x1 PUSH1 0x1 PUSH1 0xA0 SHL SUB SWAP1 DUP2 AND SWAP4 DUP5 ISZERO DUP1 ISZERO PUSH2 0x477 JUMPI JUMPDEST PUSH2 0x469 JUMPI POP SWAP2 PUSH1 0x20 SWAP2 PUSH32 0xE6A7A68C64C2E0A54DF2A3146995594208F6AF096731BB099A1FE9EA3713420D SWAP4 DUP6 DUP9 MSTORE PUSH1 0x3 DUP5 MSTORE DUP2 DUP9 KECCAK256 SWAP7 AND SWAP6 DUP7 DUP9 MSTORE DUP4 MSTORE DUP1 DUP8 KECCAK256 PUSH1 0xFF NOT SWAP1 PUSH1 0x1 DUP3 DUP3 SLOAD AND OR SWAP1 SSTORE DUP6 DUP9 MSTORE PUSH1 0x2 DUP5 MSTORE DUP2 DUP9 KECCAK256 DUP8 DUP10 MSTORE DUP5 MSTORE DUP2 DUP9 KECCAK256 SWAP1 DUP2 SLOAD AND PUSH1 0xFF DUP5 AND OR SWAP1 SSTORE MLOAD SWAP1 DUP2 MSTORE LOG3 DUP1 RETURN JUMPDEST DUP3 MLOAD PUSH4 0xD92E233D PUSH1 0xE0 SHL DUP2 MSTORE REVERT JUMPDEST POP DUP2 DUP7 AND ISZERO PUSH2 0x3F7 JUMP JUMPDEST DUP6 DUP1 REVERT JUMPDEST POP SWAP1 CALLVALUE PUSH2 0x172 JUMPI DUP2 PUSH1 0x3 NOT CALLDATASIZE ADD SLT PUSH2 0x172 JUMPI PUSH2 0x49F PUSH2 0x865 JUMP JUMPDEST SWAP2 PUSH2 0x4A8 PUSH2 0x880 JUMP JUMPDEST SWAP3 PUSH2 0x4B1 PUSH2 0x896 JUMP JUMPDEST PUSH1 0x1 PUSH1 0x1 PUSH1 0xA0 SHL SUB SWAP1 DUP2 AND SWAP3 DUP4 ISZERO DUP1 ISZERO PUSH2 0x52F JUMPI JUMPDEST PUSH2 0x469 JUMPI POP PUSH32 0xE6A7A68C64C2E0A54DF2A3146995594208F6AF096731BB099A1FE9EA3713420D SWAP2 PUSH1 0x20 SWAP2 DUP5 DUP8 MSTORE PUSH1 0x3 DUP4 MSTORE DUP2 DUP8 KECCAK256 SWAP6 AND SWAP5 DUP6 DUP8 MSTORE DUP3 MSTORE DUP1 DUP7 KECCAK256 PUSH1 0xFF NOT SWAP1 DUP2 DUP2 SLOAD AND SWAP1 SSTORE DUP5 DUP8 MSTORE PUSH1 0x2 DUP4 MSTORE DUP2 DUP8 KECCAK256 DUP7 DUP9 MSTORE DUP4 MSTORE DUP2 DUP8 KECCAK256 SWAP1 DUP2 SLOAD AND SWAP1 SSTORE MLOAD DUP6 DUP2 MSTORE LOG3 DUP1 RETURN JUMPDEST POP DUP2 DUP6 AND ISZERO PUSH2 0x4C6 JUMP JUMPDEST DUP4 DUP3 CALLVALUE PUSH2 0x1DE JUMPI DUP2 PUSH1 0x3 NOT CALLDATASIZE ADD SLT PUSH2 0x1DE JUMPI MLOAD SWAP1 DUP2 MSTORE PUSH1 0x20 SWAP1 RETURN JUMPDEST POP SWAP1 CALLVALUE PUSH2 0x172 JUMPI DUP2 PUSH1 0x3 NOT CALLDATASIZE ADD SLT PUSH2 0x172 JUMPI DUP2 PUSH1 0x20 SWAP4 PUSH1 0xFF SWAP3 PUSH2 0x575 PUSH2 0x880 JUMP JUMPDEST SWAP1 CALLDATALOAD DUP3 MSTORE DUP2 DUP7 MSTORE DUP3 DUP3 KECCAK256 PUSH1 0x1 PUSH1 0x1 PUSH1 0xA0 SHL SUB SWAP1 SWAP2 AND DUP3 MSTORE DUP6 MSTORE KECCAK256 SLOAD SWAP2 MLOAD SWAP2 AND ISZERO ISZERO DUP2 MSTORE RETURN JUMPDEST DUP4 DUP3 CALLVALUE PUSH2 0x1DE JUMPI PUSH1 0x20 CALLDATASIZE PUSH1 0x3 NOT ADD SLT PUSH2 0x1DE JUMPI PUSH1 0x20 SWAP2 DUP2 SWAP1 PUSH1 0x1 PUSH1 0x1 PUSH1 0xA0 SHL SUB PUSH2 0x5C2 PUSH2 0x865 JUMP JUMPDEST AND DUP2 MSTORE PUSH1 0x1 DUP5 MSTORE KECCAK256 SLOAD SWAP1 MLOAD SWAP1 DUP2 MSTORE RETURN JUMPDEST POP SWAP1 CALLVALUE PUSH2 0x172 JUMPI DUP3 PUSH1 0x3 NOT CALLDATASIZE ADD SLT PUSH2 0x172 JUMPI SLOAD SWAP1 MLOAD PUSH1 0x1 PUSH1 0x1 PUSH1 0xA0 SHL SUB SWAP1 SWAP2 AND DUP2 MSTORE PUSH1 0x20 SWAP2 POP RETURN JUMPDEST DUP4 DUP3 CALLVALUE PUSH2 0x1DE JUMPI DUP2 PUSH1 0x3 NOT CALLDATASIZE ADD SLT PUSH2 0x1DE JUMPI PUSH1 0x20 SWAP1 MLOAD PUSH32 0x5246556C0AB216B5B325AD7C539BFBD1A07C768773CDF810FECD3C3375C27407 DUP2 MSTORE RETURN JUMPDEST DUP4 DUP3 CALLVALUE PUSH2 0x1DE JUMPI DUP1 PUSH1 0x3 NOT CALLDATASIZE ADD SLT PUSH2 0x1DE JUMPI PUSH1 0xFF DUP2 PUSH1 0x20 SWAP4 PUSH2 0x655 PUSH2 0x865 JUMP JUMPDEST PUSH2 0x65D PUSH2 0x880 JUMP JUMPDEST PUSH1 0x1 PUSH1 0x1 PUSH1 0xA0 SHL SUB SWAP2 DUP3 AND DUP4 MSTORE PUSH1 0x2 DUP8 MSTORE DUP4 DUP4 KECCAK256 SWAP2 AND DUP3 MSTORE DUP6 MSTORE KECCAK256 SLOAD SWAP2 MLOAD SWAP2 AND ISZERO ISZERO DUP2 MSTORE RETURN JUMPDEST POP SWAP2 SWAP1 CALLVALUE PUSH2 0x1DE JUMPI DUP3 PUSH1 0x3 NOT CALLDATASIZE ADD SLT PUSH2 0x1DE JUMPI PUSH2 0x69E PUSH2 0x880 JUMP JUMPDEST SWAP1 CALLER PUSH1 0x1 PUSH1 0x1 PUSH1 0xA0 SHL SUB DUP4 AND SUB PUSH2 0x6BA JUMPI SWAP1 PUSH2 0x269 SWAP2 CALLDATALOAD PUSH2 0xC4A JUMP JUMPDEST PUSH1 0x84 SWAP1 PUSH1 0x20 DUP6 MLOAD SWAP2 PUSH3 0x461BCD PUSH1 0xE5 SHL DUP4 MSTORE DUP3 ADD MSTORE PUSH1 0x2F PUSH1 0x24 DUP3 ADD MSTORE PUSH32 0x416363657373436F6E74726F6C3A2063616E206F6E6C792072656E6F756E6365 PUSH1 0x44 DUP3 ADD MSTORE PUSH15 0x103937B632B9903337B91039B2B633 PUSH1 0x89 SHL PUSH1 0x64 DUP3 ADD MSTORE REVERT JUMPDEST POP SWAP1 CALLVALUE PUSH2 0x172 JUMPI DUP2 PUSH1 0x3 NOT CALLDATASIZE ADD SLT PUSH2 0x172 JUMPI CALLDATALOAD SWAP1 PUSH2 0x731 PUSH2 0x880 JUMP JUMPDEST SWAP1 DUP3 DUP5 MSTORE DUP4 PUSH1 0x20 MSTORE PUSH2 0x748 PUSH1 0x1 DUP3 DUP7 KECCAK256 ADD SLOAD PUSH2 0xAC8 JUMP JUMPDEST DUP3 DUP5 MSTORE PUSH1 0x20 DUP5 DUP2 MSTORE DUP2 DUP6 KECCAK256 PUSH1 0x1 PUSH1 0x1 PUSH1 0xA0 SHL SUB SWAP1 SWAP4 AND DUP1 DUP7 MSTORE SWAP3 SWAP1 MSTORE DUP1 DUP5 KECCAK256 SLOAD PUSH1 0xFF AND ISZERO PUSH2 0x774 JUMPI DUP4 DUP1 RETURN JUMPDEST DUP3 DUP5 MSTORE DUP4 PUSH1 0x20 MSTORE DUP1 DUP5 KECCAK256 DUP3 DUP6 MSTORE PUSH1 0x20 MSTORE DUP4 KECCAK256 PUSH1 0x1 PUSH1 0xFF NOT DUP3 SLOAD AND OR SWAP1 SSTORE CALLER SWAP2 PUSH32 0x2F8788117E7EFF1D82E926EC794901D17C78024A50270940304540A733656F0D DUP5 DUP1 LOG4 CODESIZE DUP1 DUP1 DUP4 DUP1 RETURN JUMPDEST POP SWAP1 CALLVALUE PUSH2 0x172 JUMPI PUSH1 0x20 CALLDATASIZE PUSH1 0x3 NOT ADD SLT PUSH2 0x172 JUMPI DUP2 PUSH1 0x20 SWAP4 PUSH1 0x1 SWAP3 CALLDATALOAD DUP2 MSTORE DUP1 DUP6 MSTORE KECCAK256 ADD SLOAD SWAP1 MLOAD SWAP1 DUP2 MSTORE RETURN JUMPDEST DUP4 DUP3 CALLVALUE PUSH2 0x1DE JUMPI DUP1 PUSH1 0x3 NOT CALLDATASIZE ADD SLT PUSH2 0x1DE JUMPI PUSH1 0x20 SWAP1 PUSH2 0x808 PUSH2 0x288 PUSH2 0x865 JUMP JUMPDEST SWAP1 MLOAD SWAP1 ISZERO ISZERO DUP2 MSTORE RETURN JUMPDEST DUP5 SWAP1 DUP5 CALLVALUE PUSH2 0x172 JUMPI PUSH1 0x20 CALLDATASIZE PUSH1 0x3 NOT ADD SLT PUSH2 0x172 JUMPI CALLDATALOAD PUSH4 0xFFFFFFFF PUSH1 0xE0 SHL DUP2 AND DUP1 SWAP2 SUB PUSH2 0x172 JUMPI PUSH1 0x20 SWAP3 POP PUSH4 0x7965DB0B PUSH1 0xE0 SHL DUP2 EQ SWAP1 DUP2 ISZERO PUSH2 0x854 JUMPI JUMPDEST POP ISZERO ISZERO DUP2 MSTORE RETURN JUMPDEST PUSH4 0x1FFC9A7 PUSH1 0xE0 SHL EQ SWAP1 POP DUP4 PUSH2 0x84D JUMP JUMPDEST PUSH1 0x4 CALLDATALOAD SWAP1 PUSH1 0x1 PUSH1 0x1 PUSH1 0xA0 SHL SUB DUP3 AND DUP3 SUB PUSH2 0x87B JUMPI JUMP JUMPDEST PUSH1 0x0 DUP1 REVERT JUMPDEST PUSH1 0x24 CALLDATALOAD SWAP1 PUSH1 0x1 PUSH1 0x1 PUSH1 0xA0 SHL SUB DUP3 AND DUP3 SUB PUSH2 0x87B JUMPI JUMP JUMPDEST CALLER PUSH1 0x0 SWAP1 DUP2 MSTORE PUSH32 0x790B0AAEB4157B4822815D95BF3D9318A1561C876C520E6CCA704BE6F4D63A6 PUSH1 0x20 SWAP1 DUP2 MSTORE PUSH1 0x40 DUP1 DUP4 KECCAK256 SLOAD SWAP1 SWAP3 SWAP2 SWAP1 PUSH32 0x5246556C0AB216B5B325AD7C539BFBD1A07C768773CDF810FECD3C3375C27407 SWAP1 PUSH1 0xFF AND ISZERO PUSH2 0x8FC JUMPI POP POP POP POP JUMP JUMPDEST PUSH2 0x905 CALLER PUSH2 0xCE5 JUMP JUMPDEST SWAP1 DUP5 MLOAD SWAP1 PUSH2 0x912 DUP3 PUSH2 0xBF6 JUMP JUMPDEST PUSH1 0x42 DUP3 MSTORE DUP4 DUP3 ADD SWAP5 PUSH1 0x60 CALLDATASIZE DUP8 CALLDATACOPY DUP3 MLOAD ISZERO PUSH2 0xAB4 JUMPI PUSH1 0x30 DUP7 MSTORE8 DUP3 MLOAD SWAP1 PUSH1 0x1 SWAP2 DUP3 LT ISZERO PUSH2 0xAB4 JUMPI SWAP1 PUSH1 0x78 PUSH1 0x21 DUP6 ADD MSTORE8 PUSH1 0x41 SWAP2 JUMPDEST DUP2 DUP4 GT PUSH2 0xA46 JUMPI POP POP POP PUSH2 0xA04 JUMPI DUP5 PUSH2 0x9D2 PUSH1 0x48 PUSH2 0x9F6 SWAP4 PUSH1 0x44 SWAP8 SWAP9 MLOAD SWAP9 DUP10 SWAP2 PUSH2 0x9C3 DUP10 DUP5 ADD SWAP9 PUSH23 0x20B1B1B2B9B9A1B7B73A3937B61D1030B1B1B7BAB73A1 PUSH1 0x4D SHL DUP11 MSTORE PUSH2 0x99A DUP2 MLOAD DUP1 SWAP3 DUP14 PUSH1 0x37 DUP10 ADD SWAP2 ADD PUSH2 0xBD3 JUMP JUMPDEST DUP5 ADD SWAP2 PUSH17 0x1034B99036B4B9B9B4B733903937B6329 PUSH1 0x7D SHL PUSH1 0x37 DUP5 ADD MSTORE MLOAD DUP1 SWAP4 DUP7 DUP5 ADD SWAP1 PUSH2 0xBD3 JUMP JUMPDEST ADD SUB PUSH1 0x28 DUP2 ADD DUP10 MSTORE ADD DUP8 PUSH2 0xC28 JUMP JUMPDEST MLOAD SWAP5 DUP6 SWAP4 PUSH3 0x461BCD PUSH1 0xE5 SHL DUP6 MSTORE PUSH1 0x4 DUP6 ADD MSTORE MLOAD DUP1 SWAP3 DUP2 PUSH1 0x24 DUP7 ADD MSTORE DUP6 DUP6 ADD SWAP1 PUSH2 0xBD3 JUMP JUMPDEST PUSH1 0x1F ADD PUSH1 0x1F NOT AND DUP2 ADD SUB ADD SWAP1 REVERT JUMPDEST PUSH1 0x64 DUP4 DUP7 MLOAD SWAP1 PUSH3 0x461BCD PUSH1 0xE5 SHL DUP3 MSTORE DUP1 PUSH1 0x4 DUP4 ADD MSTORE PUSH1 0x24 DUP3 ADD MSTORE PUSH32 0x537472696E67733A20686578206C656E67746820696E73756666696369656E74 PUSH1 0x44 DUP3 ADD MSTORE REVERT JUMPDEST SWAP1 SWAP2 SWAP3 PUSH1 0xF DUP2 AND PUSH1 0x10 DUP2 LT ISZERO PUSH2 0xAA0 JUMPI PUSH16 0x181899199A1A9B1B9C1CB0B131B232B3 PUSH1 0x81 SHL SWAP1 BYTE PUSH2 0xA76 DUP6 DUP8 PUSH2 0xCBE JUMP JUMPDEST MSTORE8 PUSH1 0x4 SHR SWAP3 DUP1 ISZERO PUSH2 0xA8C JUMPI PUSH1 0x0 NOT ADD SWAP2 SWAP1 PUSH2 0x943 JUMP JUMPDEST PUSH4 0x4E487B71 PUSH1 0xE0 SHL DUP3 MSTORE PUSH1 0x11 PUSH1 0x4 MSTORE PUSH1 0x24 DUP3 REVERT JUMPDEST PUSH4 0x4E487B71 PUSH1 0xE0 SHL DUP4 MSTORE PUSH1 0x32 PUSH1 0x4 MSTORE PUSH1 0x24 DUP4 REVERT JUMPDEST PUSH4 0x4E487B71 PUSH1 0xE0 SHL DUP2 MSTORE PUSH1 0x32 PUSH1 0x4 MSTORE PUSH1 0x24 SWAP1 REVERT JUMPDEST PUSH1 0x0 DUP2 DUP2 MSTORE PUSH1 0x20 DUP2 DUP2 MSTORE PUSH1 0x40 SWAP3 DUP4 DUP4 KECCAK256 CALLER DUP5 MSTORE DUP3 MSTORE PUSH1 0xFF DUP5 DUP5 KECCAK256 SLOAD AND ISZERO PUSH2 0xAEF JUMPI POP POP POP POP JUMP JUMPDEST PUSH2 0xAF8 CALLER PUSH2 0xCE5 JUMP JUMPDEST SWAP1 DUP5 MLOAD SWAP1 PUSH2 0xB05 DUP3 PUSH2 0xBF6 JUMP JUMPDEST PUSH1 0x42 DUP3 MSTORE DUP4 DUP3 ADD SWAP5 PUSH1 0x60 CALLDATASIZE DUP8 CALLDATACOPY DUP3 MLOAD ISZERO PUSH2 0xAB4 JUMPI PUSH1 0x30 DUP7 MSTORE8 DUP3 MLOAD SWAP1 PUSH1 0x1 SWAP2 DUP3 LT ISZERO PUSH2 0xAB4 JUMPI SWAP1 PUSH1 0x78 PUSH1 0x21 DUP6 ADD MSTORE8 PUSH1 0x41 SWAP2 JUMPDEST DUP2 DUP4 GT PUSH2 0xB8D JUMPI POP POP POP PUSH2 0xA04 JUMPI DUP5 PUSH2 0x9D2 PUSH1 0x48 PUSH2 0x9F6 SWAP4 PUSH1 0x44 SWAP8 SWAP9 MLOAD SWAP9 DUP10 SWAP2 PUSH2 0x9C3 DUP10 DUP5 ADD SWAP9 PUSH23 0x20B1B1B2B9B9A1B7B73A3937B61D1030B1B1B7BAB73A1 PUSH1 0x4D SHL DUP11 MSTORE PUSH2 0x99A DUP2 MLOAD DUP1 SWAP3 DUP14 PUSH1 0x37 DUP10 ADD SWAP2 ADD PUSH2 0xBD3 JUMP JUMPDEST SWAP1 SWAP2 SWAP3 PUSH1 0xF DUP2 AND PUSH1 0x10 DUP2 LT ISZERO PUSH2 0xAA0 JUMPI PUSH16 0x181899199A1A9B1B9C1CB0B131B232B3 PUSH1 0x81 SHL SWAP1 BYTE PUSH2 0xBBD DUP6 DUP8 PUSH2 0xCBE JUMP JUMPDEST MSTORE8 PUSH1 0x4 SHR SWAP3 DUP1 ISZERO PUSH2 0xA8C JUMPI PUSH1 0x0 NOT ADD SWAP2 SWAP1 PUSH2 0xB36 JUMP JUMPDEST PUSH1 0x0 JUMPDEST DUP4 DUP2 LT PUSH2 0xBE6 JUMPI POP POP PUSH1 0x0 SWAP2 ADD MSTORE JUMP JUMPDEST DUP2 DUP2 ADD MLOAD DUP4 DUP3 ADD MSTORE PUSH1 0x20 ADD PUSH2 0xBD6 JUMP JUMPDEST PUSH1 0x80 DUP2 ADD SWAP1 DUP2 LT PUSH8 0xFFFFFFFFFFFFFFFF DUP3 GT OR PUSH2 0xC12 JUMPI PUSH1 0x40 MSTORE JUMP JUMPDEST PUSH4 0x4E487B71 PUSH1 0xE0 SHL PUSH1 0x0 MSTORE PUSH1 0x41 PUSH1 0x4 MSTORE PUSH1 0x24 PUSH1 0x0 REVERT JUMPDEST SWAP1 PUSH1 0x1F DUP1 NOT SWAP2 ADD AND DUP2 ADD SWAP1 DUP2 LT PUSH8 0xFFFFFFFFFFFFFFFF DUP3 GT OR PUSH2 0xC12 JUMPI PUSH1 0x40 MSTORE JUMP JUMPDEST SWAP1 PUSH1 0x0 SWAP2 DUP1 DUP4 MSTORE DUP3 PUSH1 0x20 MSTORE PUSH1 0x40 DUP4 KECCAK256 SWAP2 PUSH1 0x1 DUP1 PUSH1 0xA0 SHL SUB AND SWAP2 DUP3 DUP5 MSTORE PUSH1 0x20 MSTORE PUSH1 0xFF PUSH1 0x40 DUP5 KECCAK256 SLOAD AND PUSH2 0xC7A JUMPI POP POP POP JUMP JUMPDEST DUP1 DUP4 MSTORE DUP3 PUSH1 0x20 MSTORE PUSH1 0x40 DUP4 KECCAK256 DUP3 DUP5 MSTORE PUSH1 0x20 MSTORE PUSH1 0x40 DUP4 KECCAK256 PUSH1 0xFF NOT DUP2 SLOAD AND SWAP1 SSTORE PUSH32 0xF6391F5C32D9C69D2A47EA670B442974B53935D1EDC7FD64EB21E047A839171B CALLER SWAP4 DUP1 LOG4 JUMP JUMPDEST SWAP1 DUP2 MLOAD DUP2 LT ISZERO PUSH2 0xCCF JUMPI ADD PUSH1 0x20 ADD SWAP1 JUMP JUMPDEST PUSH4 0x4E487B71 PUSH1 0xE0 SHL PUSH1 0x0 MSTORE PUSH1 0x32 PUSH1 0x4 MSTORE PUSH1 0x24 PUSH1 0x0 REVERT JUMPDEST PUSH1 0x40 MLOAD SWAP1 PUSH1 0x60 DUP3 ADD DUP3 DUP2 LT PUSH8 0xFFFFFFFFFFFFFFFF DUP3 GT OR PUSH2 0xC12 JUMPI PUSH1 0x40 MSTORE PUSH1 0x2A DUP3 MSTORE PUSH1 0x20 DUP3 ADD PUSH1 0x40 CALLDATASIZE DUP3 CALLDATACOPY DUP3 MLOAD ISZERO PUSH2 0xCCF JUMPI PUSH1 0x30 SWAP1 MSTORE8 DUP2 MLOAD PUSH1 0x1 SWAP1 DUP2 LT ISZERO PUSH2 0xCCF JUMPI PUSH1 0x78 PUSH1 0x21 DUP5 ADD MSTORE8 PUSH1 0x29 SWAP1 JUMPDEST DUP1 DUP3 GT PUSH2 0xD86 JUMPI POP POP PUSH2 0xD42 JUMPI SWAP1 JUMP JUMPDEST PUSH1 0x64 PUSH1 0x40 MLOAD PUSH3 0x461BCD PUSH1 0xE5 SHL DUP2 MSTORE PUSH1 0x20 PUSH1 0x4 DUP3 ADD MSTORE PUSH1 0x20 PUSH1 0x24 DUP3 ADD MSTORE PUSH32 0x537472696E67733A20686578206C656E67746820696E73756666696369656E74 PUSH1 0x44 DUP3 ADD MSTORE REVERT JUMPDEST SWAP1 SWAP2 PUSH1 0xF DUP2 AND PUSH1 0x10 DUP2 LT ISZERO PUSH2 0xDDF JUMPI PUSH16 0x181899199A1A9B1B9C1CB0B131B232B3 PUSH1 0x81 SHL SWAP1 BYTE PUSH2 0xDB5 DUP5 DUP7 PUSH2 0xCBE JUMP JUMPDEST MSTORE8 PUSH1 0x4 SHR SWAP2 DUP1 ISZERO PUSH2 0xDCA JUMPI PUSH1 0x0 NOT ADD SWAP1 PUSH2 0xD32 JUMP JUMPDEST PUSH1 0x24 PUSH1 0x0 PUSH4 0x4E487B71 PUSH1 0xE0 SHL DUP2 MSTORE PUSH1 0x11 PUSH1 0x4 MSTORE REVERT JUMPDEST PUSH1 0x24 PUSH1 0x0 PUSH4 0x4E487B71 PUSH1 0xE0 SHL DUP2 MSTORE PUSH1 0x32 PUSH1 0x4 MSTORE REVERT JUMPDEST PUSH1 0x1 PUSH1 0x1 PUSH1 0xA0 SHL SUB SWAP1 DUP2 AND SWAP2 DUP3 ISZERO DUP1 ISZERO PUSH2 0xEDF JUMPI JUMPDEST PUSH2 0xED7 JUMPI AND PUSH1 0x0 SWAP1 DUP1 DUP3 MSTORE PUSH1 0x20 SWAP2 PUSH1 0x3 DUP4 MSTORE PUSH1 0x40 SWAP3 DUP4 DUP3 KECCAK256 DUP6 DUP4 MSTORE DUP2 MSTORE PUSH1 0xFF DUP5 DUP4 KECCAK256 SLOAD AND PUSH2 0xEBF JUMPI DUP3 DUP3 MSTORE PUSH1 0x1 DUP2 MSTORE DUP4 DUP3 KECCAK256 SLOAD SWAP5 DUP6 ISZERO PUSH2 0xEB4 JUMPI DUP2 SWAP1 PUSH1 0x24 DUP7 MLOAD DUP1 SWAP7 DUP2 SWAP4 PUSH4 0x70A08231 PUSH1 0xE0 SHL DUP4 MSTORE PUSH1 0x4 DUP4 ADD MSTORE GAS STATICCALL SWAP4 DUP5 ISZERO PUSH2 0xEA9 JUMPI POP DUP2 SWAP4 PUSH2 0xE75 JUMPI JUMPDEST POP POP POP LT ISZERO SWAP1 JUMP JUMPDEST SWAP1 SWAP2 DUP1 SWAP4 POP DUP2 RETURNDATASIZE DUP4 GT PUSH2 0xEA2 JUMPI JUMPDEST PUSH2 0xE8D DUP2 DUP4 PUSH2 0xC28 JUMP JUMPDEST DUP2 ADD SUB SLT PUSH2 0xE9F JUMPI POP MLOAD CODESIZE DUP1 DUP1 PUSH2 0xE6D JUMP JUMPDEST DUP1 REVERT JUMPDEST POP RETURNDATASIZE PUSH2 0xE83 JUMP JUMPDEST MLOAD SWAP2 RETURNDATASIZE SWAP2 POP DUP3 RETURNDATACOPY RETURNDATASIZE SWAP1 REVERT JUMPDEST POP POP POP POP POP POP PUSH1 0x1 SWAP1 JUMP JUMPDEST DUP2 SWAP3 PUSH1 0xFF SWAP6 SWAP3 MSTORE PUSH1 0x2 DUP2 MSTORE DUP4 DUP4 KECCAK256 SWAP2 DUP4 MSTORE MSTORE KECCAK256 SLOAD AND SWAP1 JUMP JUMPDEST POP POP POP PUSH1 0x0 SWAP1 JUMP JUMPDEST POP DUP2 DUP2 AND ISZERO PUSH2 0xE09 JUMP INVALID LOG2 PUSH5 0x6970667358 0x22 SLT KECCAK256 0x2E GASLIMIT OR 0xC9 0xD4 CALLDATALOAD 0xA8 PUSH18 0x8A3FA18D043D42F9BDD1C12A537DF58EF42 0xAD DUP2 PREVRANDAO XOR CODESIZE SWAP4 PUSH5 0x736F6C6343 STOP ADDMOD SGT STOP CALLER 0x2F DUP8 DUP9 GT PUSH31 0x7EFF1D82E926EC794901D17C78024A50270940304540A733656F0D00000000 "},"methodIdentifiers":{"DEFAULT_ADMIN_ROLE()":"a217fddf","PLATFORM_ADMIN_ROLE()":"685d34ff","getAccessInfo(address,address)":"c5ba8381","getRoleAdmin(bytes32)":"248a9ca3","grantRole(bytes32,address)":"2f2ff15d","hasAccess(address,address)":"1709ef07","hasManualOverride(address,address)":"d55599f1","hasRole(bytes32,address)":"91d14854","manualGrant(address,address,bool)":"c195c492","manualOverrides(address,address)":"4f5d835f","minTokensForAccess(address)":"9049332a","removeManualOverride(address,address)":"b2b9b273","renounceRole(bytes32,address)":"36568abe","requireAccess(address,address)":"ca50ced6","revokeRole(bytes32,address)":"d547741f","setMinTokensForAccess(address,uint256)":"df48112c","setTrustedForwarder(address)":"da742228","supportsInterface(bytes4)":"01ffc9a7","trustedForwarder()":"7da0a877"}}}}}