{"contracts/PlatformTreasury.sol":{"PlatformTreasury":{"abi":[{"inputs":[{"internalType":"address","name":"_reserveToken","type":"address"},{"internalType":"address","name":"_feeRecipient","type":"address"}],"stateMutability":"nonpayable","type":"constructor"},{"inputs":[],"name":"InsufficientBalance","type":"error"},{"inputs":[],"name":"InvalidAmount","type":"error"},{"inputs":[],"name":"Unauthorized","type":"error"},{"inputs":[],"name":"ZeroAddress","type":"error"},{"anonymous":false,"inputs":[{"indexed":true,"internalType":"address","name":"creator","type":"address"},{"indexed":false,"internalType":"uint256","name":"amount","type":"uint256"}],"name":"CreatorWithdrawal","type":"event"},{"anonymous":false,"inputs":[{"indexed":true,"internalType":"address","name":"token","type":"address"},{"indexed":true,"internalType":"address","name":"to","type":"address"},{"indexed":false,"internalType":"uint256","name":"amount","type":"uint256"}],"name":"EmergencyWithdraw","type":"event"},{"anonymous":false,"inputs":[{"indexed":true,"internalType":"address","name":"oldRecipient","type":"address"},{"indexed":true,"internalType":"address","name":"newRecipient","type":"address"}],"name":"FeeRecipientUpdated","type":"event"},{"anonymous":false,"inputs":[{"indexed":true,"internalType":"address","name":"creatorToken","type":"address"},{"indexed":true,"internalType":"address","name":"creator","type":"address"},{"indexed":false,"internalType":"uint256","name":"creatorFee","type":"uint256"},{"indexed":false,"internalType":"uint256","name":"platformFee","type":"uint256"}],"name":"FeesDeposited","type":"event"},{"anonymous":false,"inputs":[{"indexed":false,"internalType":"address","name":"account","type":"address"}],"name":"Paused","type":"event"},{"anonymous":false,"inputs":[{"indexed":true,"internalType":"address","name":"recipient","type":"address"},{"indexed":false,"internalType":"uint256","name":"amount","type":"uint256"}],"name":"PlatformWithdrawal","type":"event"},{"anonymous":false,"inputs":[{"indexed":true,"internalType":"bytes32","name":"role","type":"bytes32"},{"indexed":true,"internalType":"bytes32","name":"previousAdminRole","type":"bytes32"},{"indexed":true,"internalType":"bytes32","name":"newAdminRole","type":"bytes32"}],"name":"RoleAdminChanged","type":"event"},{"anonymous":false,"inputs":[{"indexed":true,"internalType":"bytes32","name":"role","type":"bytes32"},{"indexed":true,"internalType":"address","name":"account","type":"address"},{"indexed":true,"internalType":"address","name":"sender","type":"address"}],"name":"RoleGranted","type":"event"},{"anonymous":false,"inputs":[{"indexed":true,"internalType":"bytes32","name":"role","type":"bytes32"},{"indexed":true,"internalType":"address","name":"account","type":"address"},{"indexed":true,"internalType":"address","name":"sender","type":"address"}],"name":"RoleRevoked","type":"event"},{"anonymous":false,"inputs":[{"indexed":false,"internalType":"address","name":"account","type":"address"}],"name":"Unpaused","type":"event"},{"inputs":[],"name":"CREATOR_TOKEN_ROLE","outputs":[{"internalType":"bytes32","name":"","type":"bytes32"}],"stateMutability":"view","type":"function"},{"inputs":[],"name":"DEFAULT_ADMIN_ROLE","outputs":[{"internalType":"bytes32","name":"","type":"bytes32"}],"stateMutability":"view","type":"function"},{"inputs":[],"name":"PLATFORM_ADMIN_ROLE","outputs":[{"internalType":"bytes32","name":"","type":"bytes32"}],"stateMutability":"view","type":"function"},{"inputs":[],"name":"VESTING_PERIOD","outputs":[{"internalType":"uint256","name":"","type":"uint256"}],"stateMutability":"view","type":"function"},{"inputs":[{"internalType":"address","name":"","type":"address"}],"name":"creatorBalances","outputs":[{"internalType":"uint256","name":"totalAccrued","type":"uint256"},{"internalType":"uint256","name":"withdrawn","type":"uint256"},{"internalType":"uint256","name":"lastAccrualTime","type":"uint256"},{"internalType":"uint256","name":"unvestedAmount","type":"uint256"}],"stateMutability":"view","type":"function"},{"inputs":[{"internalType":"address","name":"creator","type":"address"},{"internalType":"uint256","name":"creatorFee","type":"uint256"},{"internalType":"uint256","name":"platformFee","type":"uint256"}],"name":"depositFees","outputs":[],"stateMutability":"nonpayable","type":"function"},{"inputs":[{"internalType":"address","name":"token","type":"address"},{"internalType":"address","name":"to","type":"address"},{"internalType":"uint256","name":"amount","type":"uint256"}],"name":"emergencyWithdraw","outputs":[],"stateMutability":"nonpayable","type":"function"},{"inputs":[],"name":"feeRecipient","outputs":[{"internalType":"address","name":"","type":"address"}],"stateMutability":"view","type":"function"},{"inputs":[{"internalType":"address","name":"creator","type":"address"}],"name":"getCreatorBalance","outputs":[{"internalType":"uint256","name":"total","type":"uint256"},{"internalType":"uint256","name":"withdrawn","type":"uint256"},{"internalType":"uint256","name":"vested","type":"uint256"},{"internalType":"uint256","name":"unvested","type":"uint256"}],"stateMutability":"view","type":"function"},{"inputs":[{"internalType":"bytes32","name":"role","type":"bytes32"}],"name":"getRoleAdmin","outputs":[{"internalType":"bytes32","name":"","type":"bytes32"}],"stateMutability":"view","type":"function"},{"inputs":[{"internalType":"address","name":"creator","type":"address"}],"name":"getVestedAmount","outputs":[{"internalType":"uint256","name":"vestedAmount","type":"uint256"}],"stateMutability":"view","type":"function"},{"inputs":[{"internalType":"bytes32","name":"role","type":"bytes32"},{"internalType":"address","name":"account","type":"address"}],"name":"grantRole","outputs":[],"stateMutability":"nonpayable","type":"function"},{"inputs":[{"internalType":"bytes32","name":"role","type":"bytes32"},{"internalType":"address","name":"account","type":"address"}],"name":"hasRole","outputs":[{"internalType":"bool","name":"","type":"bool"}],"stateMutability":"view","type":"function"},{"inputs":[],"name":"pause","outputs":[],"stateMutability":"nonpayable","type":"function"},{"inputs":[],"name":"paused","outputs":[{"internalType":"bool","name":"","type":"bool"}],"stateMutability":"view","type":"function"},{"inputs":[],"name":"platformBalance","outputs":[{"internalType":"uint256","name":"","type":"uint256"}],"stateMutability":"view","type":"function"},{"inputs":[{"internalType":"bytes32","name":"role","type":"bytes32"},{"internalType":"address","name":"account","type":"address"}],"name":"renounceRole","outputs":[],"stateMutability":"nonpayable","type":"function"},{"inputs":[],"name":"reserveToken","outputs":[{"internalType":"contract IERC20","name":"","type":"address"}],"stateMutability":"view","type":"function"},{"inputs":[{"internalType":"bytes32","name":"role","type":"bytes32"},{"internalType":"address","name":"account","type":"address"}],"name":"revokeRole","outputs":[],"stateMutability":"nonpayable","type":"function"},{"inputs":[{"internalType":"address","name":"newRecipient","type":"address"}],"name":"setFeeRecipient","outputs":[],"stateMutability":"nonpayable","type":"function"},{"inputs":[{"internalType":"bytes4","name":"interfaceId","type":"bytes4"}],"name":"supportsInterface","outputs":[{"internalType":"bool","name":"","type":"bool"}],"stateMutability":"view","type":"function"},{"inputs":[],"name":"unpause","outputs":[],"stateMutability":"nonpayable","type":"function"},{"inputs":[{"internalType":"uint256","name":"amount","type":"uint256"}],"name":"withdrawCreatorFees","outputs":[],"stateMutability":"nonpayable","type":"function"},{"inputs":[{"internalType":"uint256","name":"amount","type":"uint256"}],"name":"withdrawPlatformFees","outputs":[],"stateMutability":"nonpayable","type":"function"}],"evm":{"bytecode":{"linkReferences":{},"object":"60a034620001c65762001a0e90601f38839003908101601f19168201906001600160401b03821183831017620001cb5780839160409586948552833981010312620001c6576200004f81620001e1565b6200005e6020809301620001e1565b60018055600254916001600160a01b03908116908115908115620001ba575b50620001a9576080526001600160a81b031990911660089190911b610100600160a81b031617600255600080805280825282812033825282528281205460ff161562000171575b7f5246556c0ab216b5b325ad7c539bfbd1a07c768773cdf810fecd3c3375c2740791828252818152838220338352815260ff84832054161562000136575b83516117f79081620001f78239608051818181610140015281816106500152818161078b015281816107cb0152610a1b0152f35b8282528181528382209033835252828120600160ff198254161790553391600080516020620019ee833981519152339280a438808062000102565b8080528082528281203382528252828120600160ff19825416179055333382600080516020620019ee8339815191528180a4620000c4565b845163d92e233d60e01b8152600490fd5b9050821615386200007d565b600080fd5b634e487b7160e01b600052604160045260246000fd5b51906001600160a01b0382168203620001c65756fe608060408181526004918236101561001657600080fd5b600092833560e01c9182630197d97214610e525750816301ffc9a714610dfc57816309cf7ffc14610d80578163248a9ca314610d565781632a78280214610ceb5781632f2ff15d14610c4257816336568abe14610bb05781633f4ba83a14610b1a5781634690484014610aed5781635c975abb14610ac957816362a5dbbc14610aaa578163685d34ff14610a6f5781636aa214161461099157816372a16a98146106c157816373962620146105dc5781638456cb591461058157816391d148541461053b57816396dd3f7f14610500578163a217fddf146104e5578163d547741f146104a7578163d5a73fdd14610460578163e63ea4081461020b578163e74b981b14610173575063f4325d671461012d57600080fd5b3461016f578160031936011261016f57517f00000000000000000000000000000000000000000000000000000000000000006001600160a01b03168152602090f35b5080fd5b9050346102075760203660031901126102075761018e610e6f565b610196610ea0565b6001600160a01b038181169390929084156101fa57505060028054610100600160a81b03198116600893841b610100600160a81b031617909155901c167faaebcf1bfa00580e41d966056b48521fa9f202645c86d4ddf28113e617c1b1d38380a380f35b5163d92e233d60e01b8152fd5b8280fd5b9190503461020757606036600319011261020757610227610e6f565b61022f610e8a565b9160443590858052602092868452818720338852845260ff8288205416156102af576001600160a01b038581169690919087156102a15750837ff24ef89f38eadc1bde50701ad6e4d6d11a2dc24f7cf834a486991f38833285049594939261029992169687611707565b51908152a380f35b835163d92e233d60e01b8152fd5b508483876102bc336112e1565b845190826102c9836111a3565b6042835284830193606036863783511561044d576030855383519060019182101561043a5790607860218601536041915b8183116103cf5750505061039f5761039b9386936103879361037860489461034f9a519a8576020b1b1b2b9b9a1b7b73a3937b61d1030b1b1b7bab73a1604d1b8d978801528251928391603789019101611180565b8401917001034b99036b4b9b9b4b733903937b6329607d1b603784015251809386840190611180565b010360288101875201856111d5565b5162461bcd60e51b815292839283016111f7565b0390fd5b50505080606493519262461bcd60e51b845283015260248201526000805160206117a28339815191526044820152fd5b909192600f81166010811015610427576f181899199a1a9b1b9c1cb0b131b232b360811b901a6103ff85886112ba565b53881c928015610414576000190191906102fa565b634e487b7160e01b825260118952602482fd5b634e487b7160e01b835260328a52602483fd5b634e487b7160e01b815260328852602490fd5b634e487b7160e01b815260328752602490fd5b905034610207576020366003190112610207576020926104a09161049b9184916001600160a01b03610490610e6f565b168252865220611673565b611757565b9051908152f35b919050346102075780600319360112610207576104e291356104dd60016104cc610e8a565b938387528660205286200154611077565b611223565b80f35b50503461016f578160031936011261016f5751908152602090f35b50503461016f578160031936011261016f57602090517fc493ba1e41444ba5f21f955bd2a4b2610568980c40485c07dff10ee3b37c68858152f35b9050346102075781600319360112610207578160209360ff9261055c610e8a565b903582528186528282206001600160a01b039091168252855220549151911615158152f35b50503461016f578160031936011261016f5760207f62e78cea01bee320cd4e420270b5ea74000d11b0c9f74754ebdbfc544b05a258916105bf610ea0565b6105c76116c3565b600160ff19600254161760025551338152a180f35b91905034610207576020366003190112610207578135916105fb6113de565b6106036116c3565b82156106b357338452806020528184209061062061049b83611673565b84116106a5575080600160039201610639858254611297565b9055016106478382546116b6565b905561067482337f0000000000000000000000000000000000000000000000000000000000000000611707565b519081527f0d53b74a6cb6d1fbd9dc6dc1d7714036c7c6a3f48350103a7011041eb32a4c5e60203392a26001805580f35b8251631e9acf1760e31b8152fd5b905163162908e360e11b8152fd5b83833461016f57606036600319011261016f576106dc610e6f565b602491823591604435907fc493ba1e41444ba5f21f955bd2a4b2610568980c40485c07dff10ee3b37c688594858752602095878752848820338952875260ff85892054161561083157505061072f6113de565b6001600160a01b031693841561082157839495967feb4e1b24b7fe377de69f80f7380bda5ba4b43176c6a4d300a3be9009c49f4228946107c3575b5081610783575b82519485528401523392a36001805580f35b6107af8230337f0000000000000000000000000000000000000000000000000000000000000000611434565b6107bb82600354611297565b600355610771565b6107ef8630337f0000000000000000000000000000000000000000000000000000000000000000611434565b8688528152828720610802868254611297565b815560038101610813878254611297565b90556002429101558761076a565b825163d92e233d60e01b81528790fd5b868886938b93610840336112e1565b909186519261084e846111a3565b6042845285840194606036873784511561097f576030865384519060019182101561096d5790607860218701536041915b818311610904575050506108d5575061039b9386936103879361037860489461034f9a519a8576020b1b1b2b9b9a1b7b73a3937b61d1030b1b1b7bab73a1604d1b8d978801528251928391603789019101611180565b9250505081606494519362461bcd60e51b85528401528201526000805160206117a28339815191526044820152fd5b909192600f8116601081101561095b576f181899199a1a9b1b9c1cb0b131b232b360811b901a61093485896112ba565b53891c9280156109495760001901919061087f565b634e487b7160e01b825260118a528482fd5b634e487b7160e01b835260328b528583fd5b634e487b7160e01b8152603289528390fd5b634e487b7160e01b8152603288529050fd5b905034610207576020366003190112610207578035906109af610ea0565b6109b76113de565b6109bf6116c3565b8115610a615760035490818311610a535750816109ff7f91db5d4a67c499bdf5cae8da755af68efc6296507ccebecf1f1aeb70b799d7fb936020936116b6565b6003556002546001600160a01b0390610a3f90839060081c83167f0000000000000000000000000000000000000000000000000000000000000000611707565b60025460081c169351908152a26001805580f35b8351631e9acf1760e31b8152fd5b825163162908e360e11b8152fd5b50503461016f578160031936011261016f57602090517f5246556c0ab216b5b325ad7c539bfbd1a07c768773cdf810fecd3c3375c274078152f35b50503461016f578160031936011261016f576020906003549051908152f35b50503461016f578160031936011261016f5760209060ff6002541690519015158152f35b50503461016f578160031936011261016f57600254905160089190911c6001600160a01b03168152602090f35b905034610207578260031936011261020757610b34610ea0565b6002549060ff821615610b76575060ff1916600255513381527f5db9ee0a495bf2e6ff9c91a7834c1ba4fdd244a5e8aa4e537bd38aeae4b073aa90602090a180f35b606490602084519162461bcd60e51b8352820152601460248201527314185d5cd8589b194e881b9bdd081c185d5cd95960621b6044820152fd5b8391503461016f578260031936011261016f57610bcb610e8a565b90336001600160a01b03831603610be757906104e29135611223565b608490602085519162461bcd60e51b8352820152602f60248201527f416363657373436f6e74726f6c3a2063616e206f6e6c792072656e6f756e636560448201526e103937b632b9903337b91039b2b63360891b6064820152fd5b9050346102075781600319360112610207573590610c5e610e8a565b9082845283602052610c7560018286200154611077565b82845260208481528185206001600160a01b039093168086529290528084205460ff1615610ca1578380f35b828452836020528084208285526020528320600160ff1982541617905533917f2f8788117e7eff1d82e926ec794901d17c78024a50270940304540a733656f0d8480a43880808380f35b90503461020757602036600319011261020757909182916001600160a01b03610d12610e6f565b1682526020522090610d52825491600184015493600360028201549101549151948594859094939260609260808301968352602083015260408201520152565b0390f35b90503461020757602036600319011261020757816020936001923581528085522001549051908152f35b8391503461016f57602036600319011261016f57610db69183916001600160a01b03610daa610e6f565b16825260205220611673565b90610d52610dc383611757565b91835192610dda81606060208801519701516116b6565b9151948594859094939260609260808301968352602083015260408201520152565b90503461020757602036600319011261020757359063ffffffff60e01b82168092036102075760209250637965db0b60e01b8214918215610e41575b50519015158152f35b6301ffc9a760e01b14915038610e38565b84903461016f578160031936011261016f578062278d0060209252f35b600435906001600160a01b0382168203610e8557565b600080fd5b602435906001600160a01b0382168203610e8557565b3360009081527f0790b0aaeb4157b4822815d95bf3d9318a1561c876c520e6cca704be6f4d63a660209081526040808320549092907f5246556c0ab216b5b325ad7c539bfbd1a07c768773cdf810fecd3c3375c274079060ff1615610f055750505050565b610f0e336112e1565b845191610f1a836111a3565b6042835284830193606036863783511561106357603085538351906001918210156110635790607860218601536041915b818311610ff557505050610fc55761034f938593610faf93610fa060489461039b9951988576020b1b1b2b9b9a1b7b73a3937b61d1030b1b1b7bab73a1604d1b8b978801528251928391603789019101611180565b010360288101855201836111d5565b5162461bcd60e51b8152918291600483016111f7565b60648486519062461bcd60e51b825280600483015260248201526000805160206117a28339815191526044820152fd5b909192600f8116601081101561104f576f181899199a1a9b1b9c1cb0b131b232b360811b901a61102585886112ba565b5360041c92801561103b57600019019190610f4b565b634e487b7160e01b82526011600452602482fd5b634e487b7160e01b83526032600452602483fd5b634e487b7160e01b81526032600452602490fd5b6000818152602090808252604092838220338352835260ff84832054161561109f5750505050565b6110a8336112e1565b8451916110b4836111a3565b6042835284830193606036863783511561106357603085538351906001918210156110635790607860218601536041915b81831161113a57505050610fc55761034f938593610faf93610fa060489461039b9951988576020b1b1b2b9b9a1b7b73a3937b61d1030b1b1b7bab73a1604d1b8b978801528251928391603789019101611180565b909192600f8116601081101561104f576f181899199a1a9b1b9c1cb0b131b232b360811b901a61116a85886112ba565b5360041c92801561103b576000190191906110e5565b60005b8381106111935750506000910152565b8181015183820152602001611183565b6080810190811067ffffffffffffffff8211176111bf57604052565b634e487b7160e01b600052604160045260246000fd5b90601f8019910116810190811067ffffffffffffffff8211176111bf57604052565b604091602082526112178151809281602086015260208686019101611180565b601f01601f1916010190565b9060009180835282602052604083209160018060a01b03169182845260205260ff60408420541661125357505050565b80835282602052604083208284526020526040832060ff1981541690557ff6391f5c32d9c69d2a47ea670b442974b53935d1edc7fd64eb21e047a839171b339380a4565b919082018092116112a457565b634e487b7160e01b600052601160045260246000fd5b9081518110156112cb570160200190565b634e487b7160e01b600052603260045260246000fd5b604051906060820182811067ffffffffffffffff8211176111bf57604052602a82526020820160403682378251156112cb576030905381516001908110156112cb57607860218401536029905b80821161137057505061133e5790565b606460405162461bcd60e51b815260206004820152602060248201526000805160206117a28339815191526044820152fd5b9091600f811660108110156113c9576f181899199a1a9b1b9c1cb0b131b232b360811b901a61139f84866112ba565b5360041c9180156113b457600019019061132e565b60246000634e487b7160e01b81526011600452fd5b60246000634e487b7160e01b81526032600452fd5b6002600154146113ef576002600155565b60405162461bcd60e51b815260206004820152601f60248201527f5265656e7472616e637947756172643a207265656e7472616e742063616c6c006044820152606490fd5b6040516323b872dd60e01b60208201526001600160a01b03928316602482015292909116604483015260648083019390935291815260a081019181831067ffffffffffffffff8411176111bf5761148d9260405261148f565b565b60018060a01b0316906040516040810167ffffffffffffffff90828110828211176111bf576040526020938483527f5361666545524332303a206c6f772d6c6576656c2063616c6c206661696c6564858401526000808587829751910182855af1903d156115d7573d9283116115c3579061152a9392916040519261151d88601f19601f84011601856111d5565b83523d868885013e6115e2565b80519182159184831561159c575b5050509050156115455750565b6084906040519062461bcd60e51b82526004820152602a60248201527f5361666545524332303a204552433230206f7065726174696f6e20646964206e6044820152691bdd081cdd58d8d9595960b21b6064820152fd5b91938180945001031261016f578201519081151582036115c0575080388084611538565b80fd5b634e487b7160e01b85526041600452602485fd5b9061152a9392506060915b9192901561164457508151156115f6575090565b3b156115ff5790565b60405162461bcd60e51b815260206004820152601d60248201527f416464726573733a2063616c6c20746f206e6f6e2d636f6e74726163740000006044820152606490fd5b8251909150156116575750805190602001fd5b60405162461bcd60e51b815290819061039b90600483016111f7565b906040516080810181811067ffffffffffffffff8211176111bf576040526060600382948054845260018101546020850152600281015460408501520154910152565b919082039182116112a457565b60ff600254166116cf57565b60405162461bcd60e51b815260206004820152601060248201526f14185d5cd8589b194e881c185d5cd95960821b6044820152606490fd5b60405163a9059cbb60e01b60208201526001600160a01b039092166024830152604480830193909352918152608081019167ffffffffffffffff8311828410176111bf5761148d9260405261148f565b606081019081511561179a576040611771910151426116b6565b62278d00918282101561179357518181029181830414901517156112a4570490565b9150505190565b505060009056fe537472696e67733a20686578206c656e67746820696e73756666696369656e74a2646970667358221220dd3191b525c12b664852edd1f7d9d198e12ab2993f27eeac6c032daa6682ddef64736f6c634300081300332f8788117e7eff1d82e926ec794901d17c78024a50270940304540a733656f0d","opcodes":"PUSH1 0xA0 CALLVALUE PUSH3 0x1C6 JUMPI PUSH3 0x1A0E SWAP1 PUSH1 0x1F CODESIZE DUP4 SWAP1 SUB SWAP1 DUP2 ADD PUSH1 0x1F NOT AND DUP3 ADD SWAP1 PUSH1 0x1 PUSH1 0x1 PUSH1 0x40 SHL SUB DUP3 GT DUP4 DUP4 LT OR PUSH3 0x1CB JUMPI DUP1 DUP4 SWAP2 PUSH1 0x40 SWAP6 DUP7 SWAP5 DUP6 MSTORE DUP4 CODECOPY DUP2 ADD SUB SLT PUSH3 0x1C6 JUMPI PUSH3 0x4F DUP2 PUSH3 0x1E1 JUMP JUMPDEST PUSH3 0x5E PUSH1 0x20 DUP1 SWAP4 ADD PUSH3 0x1E1 JUMP JUMPDEST PUSH1 0x1 DUP1 SSTORE PUSH1 0x2 SLOAD SWAP2 PUSH1 0x1 PUSH1 0x1 PUSH1 0xA0 SHL SUB SWAP1 DUP2 AND SWAP1 DUP2 ISZERO SWAP1 DUP2 ISZERO PUSH3 0x1BA JUMPI JUMPDEST POP PUSH3 0x1A9 JUMPI PUSH1 0x80 MSTORE PUSH1 0x1 PUSH1 0x1 PUSH1 0xA8 SHL SUB NOT SWAP1 SWAP2 AND PUSH1 0x8 SWAP2 SWAP1 SWAP2 SHL PUSH2 0x100 PUSH1 0x1 PUSH1 0xA8 SHL SUB AND OR PUSH1 0x2 SSTORE PUSH1 0x0 DUP1 DUP1 MSTORE DUP1 DUP3 MSTORE DUP3 DUP2 KECCAK256 CALLER DUP3 MSTORE DUP3 MSTORE DUP3 DUP2 KECCAK256 SLOAD PUSH1 0xFF AND ISZERO PUSH3 0x171 JUMPI JUMPDEST PUSH32 0x5246556C0AB216B5B325AD7C539BFBD1A07C768773CDF810FECD3C3375C27407 SWAP2 DUP3 DUP3 MSTORE DUP2 DUP2 MSTORE DUP4 DUP3 KECCAK256 CALLER DUP4 MSTORE DUP2 MSTORE PUSH1 0xFF DUP5 DUP4 KECCAK256 SLOAD AND ISZERO PUSH3 0x136 JUMPI JUMPDEST DUP4 MLOAD PUSH2 0x17F7 SWAP1 DUP2 PUSH3 0x1F7 DUP3 CODECOPY PUSH1 0x80 MLOAD DUP2 DUP2 DUP2 PUSH2 0x140 ADD MSTORE DUP2 DUP2 PUSH2 0x650 ADD MSTORE DUP2 DUP2 PUSH2 0x78B ADD MSTORE DUP2 DUP2 PUSH2 0x7CB ADD MSTORE PUSH2 0xA1B ADD MSTORE RETURN JUMPDEST DUP3 DUP3 MSTORE DUP2 DUP2 MSTORE DUP4 DUP3 KECCAK256 SWAP1 CALLER DUP4 MSTORE MSTORE DUP3 DUP2 KECCAK256 PUSH1 0x1 PUSH1 0xFF NOT DUP3 SLOAD AND OR SWAP1 SSTORE CALLER SWAP2 PUSH1 0x0 DUP1 MLOAD PUSH1 0x20 PUSH3 0x19EE DUP4 CODECOPY DUP2 MLOAD SWAP2 MSTORE CALLER SWAP3 DUP1 LOG4 CODESIZE DUP1 DUP1 PUSH3 0x102 JUMP JUMPDEST DUP1 DUP1 MSTORE DUP1 DUP3 MSTORE DUP3 DUP2 KECCAK256 CALLER DUP3 MSTORE DUP3 MSTORE DUP3 DUP2 KECCAK256 PUSH1 0x1 PUSH1 0xFF NOT DUP3 SLOAD AND OR SWAP1 SSTORE CALLER CALLER DUP3 PUSH1 0x0 DUP1 MLOAD PUSH1 0x20 PUSH3 0x19EE DUP4 CODECOPY DUP2 MLOAD SWAP2 MSTORE DUP2 DUP1 LOG4 PUSH3 0xC4 JUMP JUMPDEST DUP5 MLOAD PUSH4 0xD92E233D PUSH1 0xE0 SHL DUP2 MSTORE PUSH1 0x4 SWAP1 REVERT JUMPDEST SWAP1 POP DUP3 AND ISZERO CODESIZE PUSH3 0x7D JUMP JUMPDEST PUSH1 0x0 DUP1 REVERT JUMPDEST PUSH4 0x4E487B71 PUSH1 0xE0 SHL PUSH1 0x0 MSTORE PUSH1 0x41 PUSH1 0x4 MSTORE PUSH1 0x24 PUSH1 0x0 REVERT JUMPDEST MLOAD SWAP1 PUSH1 0x1 PUSH1 0x1 PUSH1 0xA0 SHL SUB DUP3 AND DUP3 SUB PUSH3 0x1C6 JUMPI JUMP INVALID PUSH1 0x80 PUSH1 0x40 DUP2 DUP2 MSTORE PUSH1 0x4 SWAP2 DUP3 CALLDATASIZE LT ISZERO PUSH2 0x16 JUMPI PUSH1 0x0 DUP1 REVERT JUMPDEST PUSH1 0x0 SWAP3 DUP4 CALLDATALOAD PUSH1 0xE0 SHR SWAP2 DUP3 PUSH4 0x197D972 EQ PUSH2 0xE52 JUMPI POP DUP2 PUSH4 0x1FFC9A7 EQ PUSH2 0xDFC JUMPI DUP2 PUSH4 0x9CF7FFC EQ PUSH2 0xD80 JUMPI DUP2 PUSH4 0x248A9CA3 EQ PUSH2 0xD56 JUMPI DUP2 PUSH4 0x2A782802 EQ PUSH2 0xCEB JUMPI DUP2 PUSH4 0x2F2FF15D EQ PUSH2 0xC42 JUMPI DUP2 PUSH4 0x36568ABE EQ PUSH2 0xBB0 JUMPI DUP2 PUSH4 0x3F4BA83A EQ PUSH2 0xB1A JUMPI DUP2 PUSH4 0x46904840 EQ PUSH2 0xAED JUMPI DUP2 PUSH4 0x5C975ABB EQ PUSH2 0xAC9 JUMPI DUP2 PUSH4 0x62A5DBBC EQ PUSH2 0xAAA JUMPI DUP2 PUSH4 0x685D34FF EQ PUSH2 0xA6F JUMPI DUP2 PUSH4 0x6AA21416 EQ PUSH2 0x991 JUMPI DUP2 PUSH4 0x72A16A98 EQ PUSH2 0x6C1 JUMPI DUP2 PUSH4 0x73962620 EQ PUSH2 0x5DC JUMPI DUP2 PUSH4 0x8456CB59 EQ PUSH2 0x581 JUMPI DUP2 PUSH4 0x91D14854 EQ PUSH2 0x53B JUMPI DUP2 PUSH4 0x96DD3F7F EQ PUSH2 0x500 JUMPI DUP2 PUSH4 0xA217FDDF EQ PUSH2 0x4E5 JUMPI DUP2 PUSH4 0xD547741F EQ PUSH2 0x4A7 JUMPI DUP2 PUSH4 0xD5A73FDD EQ PUSH2 0x460 JUMPI DUP2 PUSH4 0xE63EA408 EQ PUSH2 0x20B JUMPI DUP2 PUSH4 0xE74B981B EQ PUSH2 0x173 JUMPI POP PUSH4 0xF4325D67 EQ PUSH2 0x12D JUMPI PUSH1 0x0 DUP1 REVERT JUMPDEST CALLVALUE PUSH2 0x16F JUMPI DUP2 PUSH1 0x3 NOT CALLDATASIZE ADD SLT PUSH2 0x16F JUMPI MLOAD PUSH32 0x0 PUSH1 0x1 PUSH1 0x1 PUSH1 0xA0 SHL SUB AND DUP2 MSTORE PUSH1 0x20 SWAP1 RETURN JUMPDEST POP DUP1 REVERT JUMPDEST SWAP1 POP CALLVALUE PUSH2 0x207 JUMPI PUSH1 0x20 CALLDATASIZE PUSH1 0x3 NOT ADD SLT PUSH2 0x207 JUMPI PUSH2 0x18E PUSH2 0xE6F JUMP JUMPDEST PUSH2 0x196 PUSH2 0xEA0 JUMP JUMPDEST PUSH1 0x1 PUSH1 0x1 PUSH1 0xA0 SHL SUB DUP2 DUP2 AND SWAP4 SWAP1 SWAP3 SWAP1 DUP5 ISZERO PUSH2 0x1FA JUMPI POP POP PUSH1 0x2 DUP1 SLOAD PUSH2 0x100 PUSH1 0x1 PUSH1 0xA8 SHL SUB NOT DUP2 AND PUSH1 0x8 SWAP4 DUP5 SHL PUSH2 0x100 PUSH1 0x1 PUSH1 0xA8 SHL SUB AND OR SWAP1 SWAP2 SSTORE SWAP1 SHR AND PUSH32 0xAAEBCF1BFA00580E41D966056B48521FA9F202645C86D4DDF28113E617C1B1D3 DUP4 DUP1 LOG3 DUP1 RETURN JUMPDEST MLOAD PUSH4 0xD92E233D PUSH1 0xE0 SHL DUP2 MSTORE REVERT JUMPDEST DUP3 DUP1 REVERT JUMPDEST SWAP2 SWAP1 POP CALLVALUE PUSH2 0x207 JUMPI PUSH1 0x60 CALLDATASIZE PUSH1 0x3 NOT ADD SLT PUSH2 0x207 JUMPI PUSH2 0x227 PUSH2 0xE6F JUMP JUMPDEST PUSH2 0x22F PUSH2 0xE8A JUMP JUMPDEST SWAP2 PUSH1 0x44 CALLDATALOAD SWAP1 DUP6 DUP1 MSTORE PUSH1 0x20 SWAP3 DUP7 DUP5 MSTORE DUP2 DUP8 KECCAK256 CALLER DUP9 MSTORE DUP5 MSTORE PUSH1 0xFF DUP3 DUP9 KECCAK256 SLOAD AND ISZERO PUSH2 0x2AF JUMPI PUSH1 0x1 PUSH1 0x1 PUSH1 0xA0 SHL SUB DUP6 DUP2 AND SWAP7 SWAP1 SWAP2 SWAP1 DUP8 ISZERO PUSH2 0x2A1 JUMPI POP DUP4 PUSH32 0xF24EF89F38EADC1BDE50701AD6E4D6D11A2DC24F7CF834A486991F3883328504 SWAP6 SWAP5 SWAP4 SWAP3 PUSH2 0x299 SWAP3 AND SWAP7 DUP8 PUSH2 0x1707 JUMP JUMPDEST MLOAD SWAP1 DUP2 MSTORE LOG3 DUP1 RETURN JUMPDEST DUP4 MLOAD PUSH4 0xD92E233D PUSH1 0xE0 SHL DUP2 MSTORE REVERT JUMPDEST POP DUP5 DUP4 DUP8 PUSH2 0x2BC CALLER PUSH2 0x12E1 JUMP JUMPDEST DUP5 MLOAD SWAP1 DUP3 PUSH2 0x2C9 DUP4 PUSH2 0x11A3 JUMP JUMPDEST PUSH1 0x42 DUP4 MSTORE DUP5 DUP4 ADD SWAP4 PUSH1 0x60 CALLDATASIZE DUP7 CALLDATACOPY DUP4 MLOAD ISZERO PUSH2 0x44D JUMPI PUSH1 0x30 DUP6 MSTORE8 DUP4 MLOAD SWAP1 PUSH1 0x1 SWAP2 DUP3 LT ISZERO PUSH2 0x43A JUMPI SWAP1 PUSH1 0x78 PUSH1 0x21 DUP7 ADD MSTORE8 PUSH1 0x41 SWAP2 JUMPDEST DUP2 DUP4 GT PUSH2 0x3CF JUMPI POP POP POP PUSH2 0x39F JUMPI PUSH2 0x39B SWAP4 DUP7 SWAP4 PUSH2 0x387 SWAP4 PUSH2 0x378 PUSH1 0x48 SWAP5 PUSH2 0x34F SWAP11 MLOAD SWAP11 DUP6 PUSH23 0x20B1B1B2B9B9A1B7B73A3937B61D1030B1B1B7BAB73A1 PUSH1 0x4D SHL DUP14 SWAP8 DUP9 ADD MSTORE DUP3 MLOAD SWAP3 DUP4 SWAP2 PUSH1 0x37 DUP10 ADD SWAP2 ADD PUSH2 0x1180 JUMP JUMPDEST DUP5 ADD SWAP2 PUSH17 0x1034B99036B4B9B9B4B733903937B6329 PUSH1 0x7D SHL PUSH1 0x37 DUP5 ADD MSTORE MLOAD DUP1 SWAP4 DUP7 DUP5 ADD SWAP1 PUSH2 0x1180 JUMP JUMPDEST ADD SUB PUSH1 0x28 DUP2 ADD DUP8 MSTORE ADD DUP6 PUSH2 0x11D5 JUMP JUMPDEST MLOAD PUSH3 0x461BCD PUSH1 0xE5 SHL DUP2 MSTORE SWAP3 DUP4 SWAP3 DUP4 ADD PUSH2 0x11F7 JUMP JUMPDEST SUB SWAP1 REVERT JUMPDEST POP POP POP DUP1 PUSH1 0x64 SWAP4 MLOAD SWAP3 PUSH3 0x461BCD PUSH1 0xE5 SHL DUP5 MSTORE DUP4 ADD MSTORE PUSH1 0x24 DUP3 ADD MSTORE PUSH1 0x0 DUP1 MLOAD PUSH1 0x20 PUSH2 0x17A2 DUP4 CODECOPY DUP2 MLOAD SWAP2 MSTORE PUSH1 0x44 DUP3 ADD MSTORE REVERT JUMPDEST SWAP1 SWAP2 SWAP3 PUSH1 0xF DUP2 AND PUSH1 0x10 DUP2 LT ISZERO PUSH2 0x427 JUMPI PUSH16 0x181899199A1A9B1B9C1CB0B131B232B3 PUSH1 0x81 SHL SWAP1 BYTE PUSH2 0x3FF DUP6 DUP9 PUSH2 0x12BA JUMP JUMPDEST MSTORE8 DUP9 SHR SWAP3 DUP1 ISZERO PUSH2 0x414 JUMPI PUSH1 0x0 NOT ADD SWAP2 SWAP1 PUSH2 0x2FA JUMP JUMPDEST PUSH4 0x4E487B71 PUSH1 0xE0 SHL DUP3 MSTORE PUSH1 0x11 DUP10 MSTORE PUSH1 0x24 DUP3 REVERT JUMPDEST PUSH4 0x4E487B71 PUSH1 0xE0 SHL DUP4 MSTORE PUSH1 0x32 DUP11 MSTORE PUSH1 0x24 DUP4 REVERT JUMPDEST PUSH4 0x4E487B71 PUSH1 0xE0 SHL DUP2 MSTORE PUSH1 0x32 DUP9 MSTORE PUSH1 0x24 SWAP1 REVERT JUMPDEST PUSH4 0x4E487B71 PUSH1 0xE0 SHL DUP2 MSTORE PUSH1 0x32 DUP8 MSTORE PUSH1 0x24 SWAP1 REVERT JUMPDEST SWAP1 POP CALLVALUE PUSH2 0x207 JUMPI PUSH1 0x20 CALLDATASIZE PUSH1 0x3 NOT ADD SLT PUSH2 0x207 JUMPI PUSH1 0x20 SWAP3 PUSH2 0x4A0 SWAP2 PUSH2 0x49B SWAP2 DUP5 SWAP2 PUSH1 0x1 PUSH1 0x1 PUSH1 0xA0 SHL SUB PUSH2 0x490 PUSH2 0xE6F JUMP JUMPDEST AND DUP3 MSTORE DUP7 MSTORE KECCAK256 PUSH2 0x1673 JUMP JUMPDEST PUSH2 0x1757 JUMP JUMPDEST SWAP1 MLOAD SWAP1 DUP2 MSTORE RETURN JUMPDEST SWAP2 SWAP1 POP CALLVALUE PUSH2 0x207 JUMPI DUP1 PUSH1 0x3 NOT CALLDATASIZE ADD SLT PUSH2 0x207 JUMPI PUSH2 0x4E2 SWAP2 CALLDATALOAD PUSH2 0x4DD PUSH1 0x1 PUSH2 0x4CC PUSH2 0xE8A JUMP JUMPDEST SWAP4 DUP4 DUP8 MSTORE DUP7 PUSH1 0x20 MSTORE DUP7 KECCAK256 ADD SLOAD PUSH2 0x1077 JUMP JUMPDEST PUSH2 0x1223 JUMP JUMPDEST DUP1 RETURN JUMPDEST POP POP CALLVALUE PUSH2 0x16F JUMPI DUP2 PUSH1 0x3 NOT CALLDATASIZE ADD SLT PUSH2 0x16F JUMPI MLOAD SWAP1 DUP2 MSTORE PUSH1 0x20 SWAP1 RETURN JUMPDEST POP POP CALLVALUE PUSH2 0x16F JUMPI DUP2 PUSH1 0x3 NOT CALLDATASIZE ADD SLT PUSH2 0x16F JUMPI PUSH1 0x20 SWAP1 MLOAD PUSH32 0xC493BA1E41444BA5F21F955BD2A4B2610568980C40485C07DFF10EE3B37C6885 DUP2 MSTORE RETURN JUMPDEST SWAP1 POP CALLVALUE PUSH2 0x207 JUMPI DUP2 PUSH1 0x3 NOT CALLDATASIZE ADD SLT PUSH2 0x207 JUMPI DUP2 PUSH1 0x20 SWAP4 PUSH1 0xFF SWAP3 PUSH2 0x55C PUSH2 0xE8A JUMP JUMPDEST SWAP1 CALLDATALOAD DUP3 MSTORE DUP2 DUP7 MSTORE DUP3 DUP3 KECCAK256 PUSH1 0x1 PUSH1 0x1 PUSH1 0xA0 SHL SUB SWAP1 SWAP2 AND DUP3 MSTORE DUP6 MSTORE KECCAK256 SLOAD SWAP2 MLOAD SWAP2 AND ISZERO ISZERO DUP2 MSTORE RETURN JUMPDEST POP POP CALLVALUE PUSH2 0x16F JUMPI DUP2 PUSH1 0x3 NOT CALLDATASIZE ADD SLT PUSH2 0x16F JUMPI PUSH1 0x20 PUSH32 0x62E78CEA01BEE320CD4E420270B5EA74000D11B0C9F74754EBDBFC544B05A258 SWAP2 PUSH2 0x5BF PUSH2 0xEA0 JUMP JUMPDEST PUSH2 0x5C7 PUSH2 0x16C3 JUMP JUMPDEST PUSH1 0x1 PUSH1 0xFF NOT PUSH1 0x2 SLOAD AND OR PUSH1 0x2 SSTORE MLOAD CALLER DUP2 MSTORE LOG1 DUP1 RETURN JUMPDEST SWAP2 SWAP1 POP CALLVALUE PUSH2 0x207 JUMPI PUSH1 0x20 CALLDATASIZE PUSH1 0x3 NOT ADD SLT PUSH2 0x207 JUMPI DUP2 CALLDATALOAD SWAP2 PUSH2 0x5FB PUSH2 0x13DE JUMP JUMPDEST PUSH2 0x603 PUSH2 0x16C3 JUMP JUMPDEST DUP3 ISZERO PUSH2 0x6B3 JUMPI CALLER DUP5 MSTORE DUP1 PUSH1 0x20 MSTORE DUP2 DUP5 KECCAK256 SWAP1 PUSH2 0x620 PUSH2 0x49B DUP4 PUSH2 0x1673 JUMP JUMPDEST DUP5 GT PUSH2 0x6A5 JUMPI POP DUP1 PUSH1 0x1 PUSH1 0x3 SWAP3 ADD PUSH2 0x639 DUP6 DUP3 SLOAD PUSH2 0x1297 JUMP JUMPDEST SWAP1 SSTORE ADD PUSH2 0x647 DUP4 DUP3 SLOAD PUSH2 0x16B6 JUMP JUMPDEST SWAP1 SSTORE PUSH2 0x674 DUP3 CALLER PUSH32 0x0 PUSH2 0x1707 JUMP JUMPDEST MLOAD SWAP1 DUP2 MSTORE PUSH32 0xD53B74A6CB6D1FBD9DC6DC1D7714036C7C6A3F48350103A7011041EB32A4C5E PUSH1 0x20 CALLER SWAP3 LOG2 PUSH1 0x1 DUP1 SSTORE DUP1 RETURN JUMPDEST DUP3 MLOAD PUSH4 0x1E9ACF17 PUSH1 0xE3 SHL DUP2 MSTORE REVERT JUMPDEST SWAP1 MLOAD PUSH4 0x162908E3 PUSH1 0xE1 SHL DUP2 MSTORE REVERT JUMPDEST DUP4 DUP4 CALLVALUE PUSH2 0x16F JUMPI PUSH1 0x60 CALLDATASIZE PUSH1 0x3 NOT ADD SLT PUSH2 0x16F JUMPI PUSH2 0x6DC PUSH2 0xE6F JUMP JUMPDEST PUSH1 0x24 SWAP2 DUP3 CALLDATALOAD SWAP2 PUSH1 0x44 CALLDATALOAD SWAP1 PUSH32 0xC493BA1E41444BA5F21F955BD2A4B2610568980C40485C07DFF10EE3B37C6885 SWAP5 DUP6 DUP8 MSTORE PUSH1 0x20 SWAP6 DUP8 DUP8 MSTORE DUP5 DUP9 KECCAK256 CALLER DUP10 MSTORE DUP8 MSTORE PUSH1 0xFF DUP6 DUP10 KECCAK256 SLOAD AND ISZERO PUSH2 0x831 JUMPI POP POP PUSH2 0x72F PUSH2 0x13DE JUMP JUMPDEST PUSH1 0x1 PUSH1 0x1 PUSH1 0xA0 SHL SUB AND SWAP4 DUP5 ISZERO PUSH2 0x821 JUMPI DUP4 SWAP5 SWAP6 SWAP7 PUSH32 0xEB4E1B24B7FE377DE69F80F7380BDA5BA4B43176C6A4D300A3BE9009C49F4228 SWAP5 PUSH2 0x7C3 JUMPI JUMPDEST POP DUP2 PUSH2 0x783 JUMPI JUMPDEST DUP3 MLOAD SWAP5 DUP6 MSTORE DUP5 ADD MSTORE CALLER SWAP3 LOG3 PUSH1 0x1 DUP1 SSTORE DUP1 RETURN JUMPDEST PUSH2 0x7AF DUP3 ADDRESS CALLER PUSH32 0x0 PUSH2 0x1434 JUMP JUMPDEST PUSH2 0x7BB DUP3 PUSH1 0x3 SLOAD PUSH2 0x1297 JUMP JUMPDEST PUSH1 0x3 SSTORE PUSH2 0x771 JUMP JUMPDEST PUSH2 0x7EF DUP7 ADDRESS CALLER PUSH32 0x0 PUSH2 0x1434 JUMP JUMPDEST DUP7 DUP9 MSTORE DUP2 MSTORE DUP3 DUP8 KECCAK256 PUSH2 0x802 DUP7 DUP3 SLOAD PUSH2 0x1297 JUMP JUMPDEST DUP2 SSTORE PUSH1 0x3 DUP2 ADD PUSH2 0x813 DUP8 DUP3 SLOAD PUSH2 0x1297 JUMP JUMPDEST SWAP1 SSTORE PUSH1 0x2 TIMESTAMP SWAP2 ADD SSTORE DUP8 PUSH2 0x76A JUMP JUMPDEST DUP3 MLOAD PUSH4 0xD92E233D PUSH1 0xE0 SHL DUP2 MSTORE DUP8 SWAP1 REVERT JUMPDEST DUP7 DUP9 DUP7 SWAP4 DUP12 SWAP4 PUSH2 0x840 CALLER PUSH2 0x12E1 JUMP JUMPDEST SWAP1 SWAP2 DUP7 MLOAD SWAP3 PUSH2 0x84E DUP5 PUSH2 0x11A3 JUMP JUMPDEST PUSH1 0x42 DUP5 MSTORE DUP6 DUP5 ADD SWAP5 PUSH1 0x60 CALLDATASIZE DUP8 CALLDATACOPY DUP5 MLOAD ISZERO PUSH2 0x97F JUMPI PUSH1 0x30 DUP7 MSTORE8 DUP5 MLOAD SWAP1 PUSH1 0x1 SWAP2 DUP3 LT ISZERO PUSH2 0x96D JUMPI SWAP1 PUSH1 0x78 PUSH1 0x21 DUP8 ADD MSTORE8 PUSH1 0x41 SWAP2 JUMPDEST DUP2 DUP4 GT PUSH2 0x904 JUMPI POP POP POP PUSH2 0x8D5 JUMPI POP PUSH2 0x39B SWAP4 DUP7 SWAP4 PUSH2 0x387 SWAP4 PUSH2 0x378 PUSH1 0x48 SWAP5 PUSH2 0x34F SWAP11 MLOAD SWAP11 DUP6 PUSH23 0x20B1B1B2B9B9A1B7B73A3937B61D1030B1B1B7BAB73A1 PUSH1 0x4D SHL DUP14 SWAP8 DUP9 ADD MSTORE DUP3 MLOAD SWAP3 DUP4 SWAP2 PUSH1 0x37 DUP10 ADD SWAP2 ADD PUSH2 0x1180 JUMP JUMPDEST SWAP3 POP POP POP DUP2 PUSH1 0x64 SWAP5 MLOAD SWAP4 PUSH3 0x461BCD PUSH1 0xE5 SHL DUP6 MSTORE DUP5 ADD MSTORE DUP3 ADD MSTORE PUSH1 0x0 DUP1 MLOAD PUSH1 0x20 PUSH2 0x17A2 DUP4 CODECOPY DUP2 MLOAD SWAP2 MSTORE PUSH1 0x44 DUP3 ADD MSTORE REVERT JUMPDEST SWAP1 SWAP2 SWAP3 PUSH1 0xF DUP2 AND PUSH1 0x10 DUP2 LT ISZERO PUSH2 0x95B JUMPI PUSH16 0x181899199A1A9B1B9C1CB0B131B232B3 PUSH1 0x81 SHL SWAP1 BYTE PUSH2 0x934 DUP6 DUP10 PUSH2 0x12BA JUMP JUMPDEST MSTORE8 DUP10 SHR SWAP3 DUP1 ISZERO PUSH2 0x949 JUMPI PUSH1 0x0 NOT ADD SWAP2 SWAP1 PUSH2 0x87F JUMP JUMPDEST PUSH4 0x4E487B71 PUSH1 0xE0 SHL DUP3 MSTORE PUSH1 0x11 DUP11 MSTORE DUP5 DUP3 REVERT JUMPDEST PUSH4 0x4E487B71 PUSH1 0xE0 SHL DUP4 MSTORE PUSH1 0x32 DUP12 MSTORE DUP6 DUP4 REVERT JUMPDEST PUSH4 0x4E487B71 PUSH1 0xE0 SHL DUP2 MSTORE PUSH1 0x32 DUP10 MSTORE DUP4 SWAP1 REVERT JUMPDEST PUSH4 0x4E487B71 PUSH1 0xE0 SHL DUP2 MSTORE PUSH1 0x32 DUP9 MSTORE SWAP1 POP REVERT JUMPDEST SWAP1 POP CALLVALUE PUSH2 0x207 JUMPI PUSH1 0x20 CALLDATASIZE PUSH1 0x3 NOT ADD SLT PUSH2 0x207 JUMPI DUP1 CALLDATALOAD SWAP1 PUSH2 0x9AF PUSH2 0xEA0 JUMP JUMPDEST PUSH2 0x9B7 PUSH2 0x13DE JUMP JUMPDEST PUSH2 0x9BF PUSH2 0x16C3 JUMP JUMPDEST DUP2 ISZERO PUSH2 0xA61 JUMPI PUSH1 0x3 SLOAD SWAP1 DUP2 DUP4 GT PUSH2 0xA53 JUMPI POP DUP2 PUSH2 0x9FF PUSH32 0x91DB5D4A67C499BDF5CAE8DA755AF68EFC6296507CCEBECF1F1AEB70B799D7FB SWAP4 PUSH1 0x20 SWAP4 PUSH2 0x16B6 JUMP JUMPDEST PUSH1 0x3 SSTORE PUSH1 0x2 SLOAD PUSH1 0x1 PUSH1 0x1 PUSH1 0xA0 SHL SUB SWAP1 PUSH2 0xA3F SWAP1 DUP4 SWAP1 PUSH1 0x8 SHR DUP4 AND PUSH32 0x0 PUSH2 0x1707 JUMP JUMPDEST PUSH1 0x2 SLOAD PUSH1 0x8 SHR AND SWAP4 MLOAD SWAP1 DUP2 MSTORE LOG2 PUSH1 0x1 DUP1 SSTORE DUP1 RETURN JUMPDEST DUP4 MLOAD PUSH4 0x1E9ACF17 PUSH1 0xE3 SHL DUP2 MSTORE REVERT JUMPDEST DUP3 MLOAD PUSH4 0x162908E3 PUSH1 0xE1 SHL DUP2 MSTORE REVERT JUMPDEST POP POP CALLVALUE PUSH2 0x16F JUMPI DUP2 PUSH1 0x3 NOT CALLDATASIZE ADD SLT PUSH2 0x16F JUMPI PUSH1 0x20 SWAP1 MLOAD PUSH32 0x5246556C0AB216B5B325AD7C539BFBD1A07C768773CDF810FECD3C3375C27407 DUP2 MSTORE RETURN JUMPDEST POP POP CALLVALUE PUSH2 0x16F JUMPI DUP2 PUSH1 0x3 NOT CALLDATASIZE ADD SLT PUSH2 0x16F JUMPI PUSH1 0x20 SWAP1 PUSH1 0x3 SLOAD SWAP1 MLOAD SWAP1 DUP2 MSTORE RETURN JUMPDEST POP POP CALLVALUE PUSH2 0x16F JUMPI DUP2 PUSH1 0x3 NOT CALLDATASIZE ADD SLT PUSH2 0x16F JUMPI PUSH1 0x20 SWAP1 PUSH1 0xFF PUSH1 0x2 SLOAD AND SWAP1 MLOAD SWAP1 ISZERO ISZERO DUP2 MSTORE RETURN JUMPDEST POP POP CALLVALUE PUSH2 0x16F JUMPI DUP2 PUSH1 0x3 NOT CALLDATASIZE ADD SLT PUSH2 0x16F JUMPI PUSH1 0x2 SLOAD SWAP1 MLOAD PUSH1 0x8 SWAP2 SWAP1 SWAP2 SHR PUSH1 0x1 PUSH1 0x1 PUSH1 0xA0 SHL SUB AND DUP2 MSTORE PUSH1 0x20 SWAP1 RETURN JUMPDEST SWAP1 POP CALLVALUE PUSH2 0x207 JUMPI DUP3 PUSH1 0x3 NOT CALLDATASIZE ADD SLT PUSH2 0x207 JUMPI PUSH2 0xB34 PUSH2 0xEA0 JUMP JUMPDEST PUSH1 0x2 SLOAD SWAP1 PUSH1 0xFF DUP3 AND ISZERO PUSH2 0xB76 JUMPI POP PUSH1 0xFF NOT AND PUSH1 0x2 SSTORE MLOAD CALLER DUP2 MSTORE PUSH32 0x5DB9EE0A495BF2E6FF9C91A7834C1BA4FDD244A5E8AA4E537BD38AEAE4B073AA SWAP1 PUSH1 0x20 SWAP1 LOG1 DUP1 RETURN JUMPDEST PUSH1 0x64 SWAP1 PUSH1 0x20 DUP5 MLOAD SWAP2 PUSH3 0x461BCD PUSH1 0xE5 SHL DUP4 MSTORE DUP3 ADD MSTORE PUSH1 0x14 PUSH1 0x24 DUP3 ADD MSTORE PUSH20 0x14185D5CD8589B194E881B9BDD081C185D5CD959 PUSH1 0x62 SHL PUSH1 0x44 DUP3 ADD MSTORE REVERT JUMPDEST DUP4 SWAP2 POP CALLVALUE PUSH2 0x16F JUMPI DUP3 PUSH1 0x3 NOT CALLDATASIZE ADD SLT PUSH2 0x16F JUMPI PUSH2 0xBCB PUSH2 0xE8A JUMP JUMPDEST SWAP1 CALLER PUSH1 0x1 PUSH1 0x1 PUSH1 0xA0 SHL SUB DUP4 AND SUB PUSH2 0xBE7 JUMPI SWAP1 PUSH2 0x4E2 SWAP2 CALLDATALOAD PUSH2 0x1223 JUMP JUMPDEST PUSH1 0x84 SWAP1 PUSH1 0x20 DUP6 MLOAD SWAP2 PUSH3 0x461BCD PUSH1 0xE5 SHL DUP4 MSTORE DUP3 ADD MSTORE PUSH1 0x2F PUSH1 0x24 DUP3 ADD MSTORE PUSH32 0x416363657373436F6E74726F6C3A2063616E206F6E6C792072656E6F756E6365 PUSH1 0x44 DUP3 ADD MSTORE PUSH15 0x103937B632B9903337B91039B2B633 PUSH1 0x89 SHL PUSH1 0x64 DUP3 ADD MSTORE REVERT JUMPDEST SWAP1 POP CALLVALUE PUSH2 0x207 JUMPI DUP2 PUSH1 0x3 NOT CALLDATASIZE ADD SLT PUSH2 0x207 JUMPI CALLDATALOAD SWAP1 PUSH2 0xC5E PUSH2 0xE8A JUMP JUMPDEST SWAP1 DUP3 DUP5 MSTORE DUP4 PUSH1 0x20 MSTORE PUSH2 0xC75 PUSH1 0x1 DUP3 DUP7 KECCAK256 ADD SLOAD PUSH2 0x1077 JUMP JUMPDEST DUP3 DUP5 MSTORE PUSH1 0x20 DUP5 DUP2 MSTORE DUP2 DUP6 KECCAK256 PUSH1 0x1 PUSH1 0x1 PUSH1 0xA0 SHL SUB SWAP1 SWAP4 AND DUP1 DUP7 MSTORE SWAP3 SWAP1 MSTORE DUP1 DUP5 KECCAK256 SLOAD PUSH1 0xFF AND ISZERO PUSH2 0xCA1 JUMPI DUP4 DUP1 RETURN JUMPDEST DUP3 DUP5 MSTORE DUP4 PUSH1 0x20 MSTORE DUP1 DUP5 KECCAK256 DUP3 DUP6 MSTORE PUSH1 0x20 MSTORE DUP4 KECCAK256 PUSH1 0x1 PUSH1 0xFF NOT DUP3 SLOAD AND OR SWAP1 SSTORE CALLER SWAP2 PUSH32 0x2F8788117E7EFF1D82E926EC794901D17C78024A50270940304540A733656F0D DUP5 DUP1 LOG4 CODESIZE DUP1 DUP1 DUP4 DUP1 RETURN JUMPDEST SWAP1 POP CALLVALUE PUSH2 0x207 JUMPI PUSH1 0x20 CALLDATASIZE PUSH1 0x3 NOT ADD SLT PUSH2 0x207 JUMPI SWAP1 SWAP2 DUP3 SWAP2 PUSH1 0x1 PUSH1 0x1 PUSH1 0xA0 SHL SUB PUSH2 0xD12 PUSH2 0xE6F JUMP JUMPDEST AND DUP3 MSTORE PUSH1 0x20 MSTORE KECCAK256 SWAP1 PUSH2 0xD52 DUP3 SLOAD SWAP2 PUSH1 0x1 DUP5 ADD SLOAD SWAP4 PUSH1 0x3 PUSH1 0x2 DUP3 ADD SLOAD SWAP2 ADD SLOAD SWAP2 MLOAD SWAP5 DUP6 SWAP5 DUP6 SWAP1 SWAP5 SWAP4 SWAP3 PUSH1 0x60 SWAP3 PUSH1 0x80 DUP4 ADD SWAP7 DUP4 MSTORE PUSH1 0x20 DUP4 ADD MSTORE PUSH1 0x40 DUP3 ADD MSTORE ADD MSTORE JUMP JUMPDEST SUB SWAP1 RETURN JUMPDEST SWAP1 POP CALLVALUE PUSH2 0x207 JUMPI PUSH1 0x20 CALLDATASIZE PUSH1 0x3 NOT ADD SLT PUSH2 0x207 JUMPI DUP2 PUSH1 0x20 SWAP4 PUSH1 0x1 SWAP3 CALLDATALOAD DUP2 MSTORE DUP1 DUP6 MSTORE KECCAK256 ADD SLOAD SWAP1 MLOAD SWAP1 DUP2 MSTORE RETURN JUMPDEST DUP4 SWAP2 POP CALLVALUE PUSH2 0x16F JUMPI PUSH1 0x20 CALLDATASIZE PUSH1 0x3 NOT ADD SLT PUSH2 0x16F JUMPI PUSH2 0xDB6 SWAP2 DUP4 SWAP2 PUSH1 0x1 PUSH1 0x1 PUSH1 0xA0 SHL SUB PUSH2 0xDAA PUSH2 0xE6F JUMP JUMPDEST AND DUP3 MSTORE PUSH1 0x20 MSTORE KECCAK256 PUSH2 0x1673 JUMP JUMPDEST SWAP1 PUSH2 0xD52 PUSH2 0xDC3 DUP4 PUSH2 0x1757 JUMP JUMPDEST SWAP2 DUP4 MLOAD SWAP3 PUSH2 0xDDA DUP2 PUSH1 0x60 PUSH1 0x20 DUP9 ADD MLOAD SWAP8 ADD MLOAD PUSH2 0x16B6 JUMP JUMPDEST SWAP2 MLOAD SWAP5 DUP6 SWAP5 DUP6 SWAP1 SWAP5 SWAP4 SWAP3 PUSH1 0x60 SWAP3 PUSH1 0x80 DUP4 ADD SWAP7 DUP4 MSTORE PUSH1 0x20 DUP4 ADD MSTORE PUSH1 0x40 DUP3 ADD MSTORE ADD MSTORE JUMP JUMPDEST SWAP1 POP CALLVALUE PUSH2 0x207 JUMPI PUSH1 0x20 CALLDATASIZE PUSH1 0x3 NOT ADD SLT PUSH2 0x207 JUMPI CALLDATALOAD SWAP1 PUSH4 0xFFFFFFFF PUSH1 0xE0 SHL DUP3 AND DUP1 SWAP3 SUB PUSH2 0x207 JUMPI PUSH1 0x20 SWAP3 POP PUSH4 0x7965DB0B PUSH1 0xE0 SHL DUP3 EQ SWAP2 DUP3 ISZERO PUSH2 0xE41 JUMPI JUMPDEST POP MLOAD SWAP1 ISZERO ISZERO DUP2 MSTORE RETURN JUMPDEST PUSH4 0x1FFC9A7 PUSH1 0xE0 SHL EQ SWAP2 POP CODESIZE PUSH2 0xE38 JUMP JUMPDEST DUP5 SWAP1 CALLVALUE PUSH2 0x16F JUMPI DUP2 PUSH1 0x3 NOT CALLDATASIZE ADD SLT PUSH2 0x16F JUMPI DUP1 PUSH3 0x278D00 PUSH1 0x20 SWAP3 MSTORE RETURN JUMPDEST PUSH1 0x4 CALLDATALOAD SWAP1 PUSH1 0x1 PUSH1 0x1 PUSH1 0xA0 SHL SUB DUP3 AND DUP3 SUB PUSH2 0xE85 JUMPI JUMP JUMPDEST PUSH1 0x0 DUP1 REVERT JUMPDEST PUSH1 0x24 CALLDATALOAD SWAP1 PUSH1 0x1 PUSH1 0x1 PUSH1 0xA0 SHL SUB DUP3 AND DUP3 SUB PUSH2 0xE85 JUMPI JUMP JUMPDEST CALLER PUSH1 0x0 SWAP1 DUP2 MSTORE PUSH32 0x790B0AAEB4157B4822815D95BF3D9318A1561C876C520E6CCA704BE6F4D63A6 PUSH1 0x20 SWAP1 DUP2 MSTORE PUSH1 0x40 DUP1 DUP4 KECCAK256 SLOAD SWAP1 SWAP3 SWAP1 PUSH32 0x5246556C0AB216B5B325AD7C539BFBD1A07C768773CDF810FECD3C3375C27407 SWAP1 PUSH1 0xFF AND ISZERO PUSH2 0xF05 JUMPI POP POP POP POP JUMP JUMPDEST PUSH2 0xF0E CALLER PUSH2 0x12E1 JUMP JUMPDEST DUP5 MLOAD SWAP2 PUSH2 0xF1A DUP4 PUSH2 0x11A3 JUMP JUMPDEST PUSH1 0x42 DUP4 MSTORE DUP5 DUP4 ADD SWAP4 PUSH1 0x60 CALLDATASIZE DUP7 CALLDATACOPY DUP4 MLOAD ISZERO PUSH2 0x1063 JUMPI PUSH1 0x30 DUP6 MSTORE8 DUP4 MLOAD SWAP1 PUSH1 0x1 SWAP2 DUP3 LT ISZERO PUSH2 0x1063 JUMPI SWAP1 PUSH1 0x78 PUSH1 0x21 DUP7 ADD MSTORE8 PUSH1 0x41 SWAP2 JUMPDEST DUP2 DUP4 GT PUSH2 0xFF5 JUMPI POP POP POP PUSH2 0xFC5 JUMPI PUSH2 0x34F SWAP4 DUP6 SWAP4 PUSH2 0xFAF SWAP4 PUSH2 0xFA0 PUSH1 0x48 SWAP5 PUSH2 0x39B SWAP10 MLOAD SWAP9 DUP6 PUSH23 0x20B1B1B2B9B9A1B7B73A3937B61D1030B1B1B7BAB73A1 PUSH1 0x4D SHL DUP12 SWAP8 DUP9 ADD MSTORE DUP3 MLOAD SWAP3 DUP4 SWAP2 PUSH1 0x37 DUP10 ADD SWAP2 ADD PUSH2 0x1180 JUMP JUMPDEST ADD SUB PUSH1 0x28 DUP2 ADD DUP6 MSTORE ADD DUP4 PUSH2 0x11D5 JUMP JUMPDEST MLOAD PUSH3 0x461BCD PUSH1 0xE5 SHL DUP2 MSTORE SWAP2 DUP3 SWAP2 PUSH1 0x4 DUP4 ADD PUSH2 0x11F7 JUMP JUMPDEST PUSH1 0x64 DUP5 DUP7 MLOAD SWAP1 PUSH3 0x461BCD PUSH1 0xE5 SHL DUP3 MSTORE DUP1 PUSH1 0x4 DUP4 ADD MSTORE PUSH1 0x24 DUP3 ADD MSTORE PUSH1 0x0 DUP1 MLOAD PUSH1 0x20 PUSH2 0x17A2 DUP4 CODECOPY DUP2 MLOAD SWAP2 MSTORE PUSH1 0x44 DUP3 ADD MSTORE REVERT JUMPDEST SWAP1 SWAP2 SWAP3 PUSH1 0xF DUP2 AND PUSH1 0x10 DUP2 LT ISZERO PUSH2 0x104F JUMPI PUSH16 0x181899199A1A9B1B9C1CB0B131B232B3 PUSH1 0x81 SHL SWAP1 BYTE PUSH2 0x1025 DUP6 DUP9 PUSH2 0x12BA JUMP JUMPDEST MSTORE8 PUSH1 0x4 SHR SWAP3 DUP1 ISZERO PUSH2 0x103B JUMPI PUSH1 0x0 NOT ADD SWAP2 SWAP1 PUSH2 0xF4B JUMP JUMPDEST PUSH4 0x4E487B71 PUSH1 0xE0 SHL DUP3 MSTORE PUSH1 0x11 PUSH1 0x4 MSTORE PUSH1 0x24 DUP3 REVERT JUMPDEST PUSH4 0x4E487B71 PUSH1 0xE0 SHL DUP4 MSTORE PUSH1 0x32 PUSH1 0x4 MSTORE PUSH1 0x24 DUP4 REVERT JUMPDEST PUSH4 0x4E487B71 PUSH1 0xE0 SHL DUP2 MSTORE PUSH1 0x32 PUSH1 0x4 MSTORE PUSH1 0x24 SWAP1 REVERT JUMPDEST PUSH1 0x0 DUP2 DUP2 MSTORE PUSH1 0x20 SWAP1 DUP1 DUP3 MSTORE PUSH1 0x40 SWAP3 DUP4 DUP3 KECCAK256 CALLER DUP4 MSTORE DUP4 MSTORE PUSH1 0xFF DUP5 DUP4 KECCAK256 SLOAD AND ISZERO PUSH2 0x109F JUMPI POP POP POP POP JUMP JUMPDEST PUSH2 0x10A8 CALLER PUSH2 0x12E1 JUMP JUMPDEST DUP5 MLOAD SWAP2 PUSH2 0x10B4 DUP4 PUSH2 0x11A3 JUMP JUMPDEST PUSH1 0x42 DUP4 MSTORE DUP5 DUP4 ADD SWAP4 PUSH1 0x60 CALLDATASIZE DUP7 CALLDATACOPY DUP4 MLOAD ISZERO PUSH2 0x1063 JUMPI PUSH1 0x30 DUP6 MSTORE8 DUP4 MLOAD SWAP1 PUSH1 0x1 SWAP2 DUP3 LT ISZERO PUSH2 0x1063 JUMPI SWAP1 PUSH1 0x78 PUSH1 0x21 DUP7 ADD MSTORE8 PUSH1 0x41 SWAP2 JUMPDEST DUP2 DUP4 GT PUSH2 0x113A JUMPI POP POP POP PUSH2 0xFC5 JUMPI PUSH2 0x34F SWAP4 DUP6 SWAP4 PUSH2 0xFAF SWAP4 PUSH2 0xFA0 PUSH1 0x48 SWAP5 PUSH2 0x39B SWAP10 MLOAD SWAP9 DUP6 PUSH23 0x20B1B1B2B9B9A1B7B73A3937B61D1030B1B1B7BAB73A1 PUSH1 0x4D SHL DUP12 SWAP8 DUP9 ADD MSTORE DUP3 MLOAD SWAP3 DUP4 SWAP2 PUSH1 0x37 DUP10 ADD SWAP2 ADD PUSH2 0x1180 JUMP JUMPDEST SWAP1 SWAP2 SWAP3 PUSH1 0xF DUP2 AND PUSH1 0x10 DUP2 LT ISZERO PUSH2 0x104F JUMPI PUSH16 0x181899199A1A9B1B9C1CB0B131B232B3 PUSH1 0x81 SHL SWAP1 BYTE PUSH2 0x116A DUP6 DUP9 PUSH2 0x12BA JUMP JUMPDEST MSTORE8 PUSH1 0x4 SHR SWAP3 DUP1 ISZERO PUSH2 0x103B JUMPI PUSH1 0x0 NOT ADD SWAP2 SWAP1 PUSH2 0x10E5 JUMP JUMPDEST PUSH1 0x0 JUMPDEST DUP4 DUP2 LT PUSH2 0x1193 JUMPI POP POP PUSH1 0x0 SWAP2 ADD MSTORE JUMP JUMPDEST DUP2 DUP2 ADD MLOAD DUP4 DUP3 ADD MSTORE PUSH1 0x20 ADD PUSH2 0x1183 JUMP JUMPDEST PUSH1 0x80 DUP2 ADD SWAP1 DUP2 LT PUSH8 0xFFFFFFFFFFFFFFFF DUP3 GT OR PUSH2 0x11BF JUMPI PUSH1 0x40 MSTORE JUMP JUMPDEST PUSH4 0x4E487B71 PUSH1 0xE0 SHL PUSH1 0x0 MSTORE PUSH1 0x41 PUSH1 0x4 MSTORE PUSH1 0x24 PUSH1 0x0 REVERT JUMPDEST SWAP1 PUSH1 0x1F DUP1 NOT SWAP2 ADD AND DUP2 ADD SWAP1 DUP2 LT PUSH8 0xFFFFFFFFFFFFFFFF DUP3 GT OR PUSH2 0x11BF JUMPI PUSH1 0x40 MSTORE JUMP JUMPDEST PUSH1 0x40 SWAP2 PUSH1 0x20 DUP3 MSTORE PUSH2 0x1217 DUP2 MLOAD DUP1 SWAP3 DUP2 PUSH1 0x20 DUP7 ADD MSTORE PUSH1 0x20 DUP7 DUP7 ADD SWAP2 ADD PUSH2 0x1180 JUMP JUMPDEST PUSH1 0x1F ADD PUSH1 0x1F NOT AND ADD ADD SWAP1 JUMP JUMPDEST SWAP1 PUSH1 0x0 SWAP2 DUP1 DUP4 MSTORE DUP3 PUSH1 0x20 MSTORE PUSH1 0x40 DUP4 KECCAK256 SWAP2 PUSH1 0x1 DUP1 PUSH1 0xA0 SHL SUB AND SWAP2 DUP3 DUP5 MSTORE PUSH1 0x20 MSTORE PUSH1 0xFF PUSH1 0x40 DUP5 KECCAK256 SLOAD AND PUSH2 0x1253 JUMPI POP POP POP JUMP JUMPDEST DUP1 DUP4 MSTORE DUP3 PUSH1 0x20 MSTORE PUSH1 0x40 DUP4 KECCAK256 DUP3 DUP5 MSTORE PUSH1 0x20 MSTORE PUSH1 0x40 DUP4 KECCAK256 PUSH1 0xFF NOT DUP2 SLOAD AND SWAP1 SSTORE PUSH32 0xF6391F5C32D9C69D2A47EA670B442974B53935D1EDC7FD64EB21E047A839171B CALLER SWAP4 DUP1 LOG4 JUMP JUMPDEST SWAP2 SWAP1 DUP3 ADD DUP1 SWAP3 GT PUSH2 0x12A4 JUMPI JUMP JUMPDEST PUSH4 0x4E487B71 PUSH1 0xE0 SHL PUSH1 0x0 MSTORE PUSH1 0x11 PUSH1 0x4 MSTORE PUSH1 0x24 PUSH1 0x0 REVERT JUMPDEST SWAP1 DUP2 MLOAD DUP2 LT ISZERO PUSH2 0x12CB JUMPI ADD PUSH1 0x20 ADD SWAP1 JUMP JUMPDEST PUSH4 0x4E487B71 PUSH1 0xE0 SHL PUSH1 0x0 MSTORE PUSH1 0x32 PUSH1 0x4 MSTORE PUSH1 0x24 PUSH1 0x0 REVERT JUMPDEST PUSH1 0x40 MLOAD SWAP1 PUSH1 0x60 DUP3 ADD DUP3 DUP2 LT PUSH8 0xFFFFFFFFFFFFFFFF DUP3 GT OR PUSH2 0x11BF JUMPI PUSH1 0x40 MSTORE PUSH1 0x2A DUP3 MSTORE PUSH1 0x20 DUP3 ADD PUSH1 0x40 CALLDATASIZE DUP3 CALLDATACOPY DUP3 MLOAD ISZERO PUSH2 0x12CB JUMPI PUSH1 0x30 SWAP1 MSTORE8 DUP2 MLOAD PUSH1 0x1 SWAP1 DUP2 LT ISZERO PUSH2 0x12CB JUMPI PUSH1 0x78 PUSH1 0x21 DUP5 ADD MSTORE8 PUSH1 0x29 SWAP1 JUMPDEST DUP1 DUP3 GT PUSH2 0x1370 JUMPI POP POP PUSH2 0x133E JUMPI SWAP1 JUMP JUMPDEST PUSH1 0x64 PUSH1 0x40 MLOAD PUSH3 0x461BCD PUSH1 0xE5 SHL DUP2 MSTORE PUSH1 0x20 PUSH1 0x4 DUP3 ADD MSTORE PUSH1 0x20 PUSH1 0x24 DUP3 ADD MSTORE PUSH1 0x0 DUP1 MLOAD PUSH1 0x20 PUSH2 0x17A2 DUP4 CODECOPY DUP2 MLOAD SWAP2 MSTORE PUSH1 0x44 DUP3 ADD MSTORE REVERT JUMPDEST SWAP1 SWAP2 PUSH1 0xF DUP2 AND PUSH1 0x10 DUP2 LT ISZERO PUSH2 0x13C9 JUMPI PUSH16 0x181899199A1A9B1B9C1CB0B131B232B3 PUSH1 0x81 SHL SWAP1 BYTE PUSH2 0x139F DUP5 DUP7 PUSH2 0x12BA JUMP JUMPDEST MSTORE8 PUSH1 0x4 SHR SWAP2 DUP1 ISZERO PUSH2 0x13B4 JUMPI PUSH1 0x0 NOT ADD SWAP1 PUSH2 0x132E JUMP JUMPDEST PUSH1 0x24 PUSH1 0x0 PUSH4 0x4E487B71 PUSH1 0xE0 SHL DUP2 MSTORE PUSH1 0x11 PUSH1 0x4 MSTORE REVERT JUMPDEST PUSH1 0x24 PUSH1 0x0 PUSH4 0x4E487B71 PUSH1 0xE0 SHL DUP2 MSTORE PUSH1 0x32 PUSH1 0x4 MSTORE REVERT JUMPDEST PUSH1 0x2 PUSH1 0x1 SLOAD EQ PUSH2 0x13EF JUMPI PUSH1 0x2 PUSH1 0x1 SSTORE JUMP JUMPDEST PUSH1 0x40 MLOAD PUSH3 0x461BCD PUSH1 0xE5 SHL DUP2 MSTORE PUSH1 0x20 PUSH1 0x4 DUP3 ADD MSTORE PUSH1 0x1F PUSH1 0x24 DUP3 ADD MSTORE PUSH32 0x5265656E7472616E637947756172643A207265656E7472616E742063616C6C00 PUSH1 0x44 DUP3 ADD MSTORE PUSH1 0x64 SWAP1 REVERT JUMPDEST PUSH1 0x40 MLOAD PUSH4 0x23B872DD PUSH1 0xE0 SHL PUSH1 0x20 DUP3 ADD MSTORE PUSH1 0x1 PUSH1 0x1 PUSH1 0xA0 SHL SUB SWAP3 DUP4 AND PUSH1 0x24 DUP3 ADD MSTORE SWAP3 SWAP1 SWAP2 AND PUSH1 0x44 DUP4 ADD MSTORE PUSH1 0x64 DUP1 DUP4 ADD SWAP4 SWAP1 SWAP4 MSTORE SWAP2 DUP2 MSTORE PUSH1 0xA0 DUP2 ADD SWAP2 DUP2 DUP4 LT PUSH8 0xFFFFFFFFFFFFFFFF DUP5 GT OR PUSH2 0x11BF JUMPI PUSH2 0x148D SWAP3 PUSH1 0x40 MSTORE PUSH2 0x148F JUMP JUMPDEST JUMP JUMPDEST PUSH1 0x1 DUP1 PUSH1 0xA0 SHL SUB AND SWAP1 PUSH1 0x40 MLOAD PUSH1 0x40 DUP2 ADD PUSH8 0xFFFFFFFFFFFFFFFF SWAP1 DUP3 DUP2 LT DUP3 DUP3 GT OR PUSH2 0x11BF JUMPI PUSH1 0x40 MSTORE PUSH1 0x20 SWAP4 DUP5 DUP4 MSTORE PUSH32 0x5361666545524332303A206C6F772D6C6576656C2063616C6C206661696C6564 DUP6 DUP5 ADD MSTORE PUSH1 0x0 DUP1 DUP6 DUP8 DUP3 SWAP8 MLOAD SWAP2 ADD DUP3 DUP6 GAS CALL SWAP1 RETURNDATASIZE ISZERO PUSH2 0x15D7 JUMPI RETURNDATASIZE SWAP3 DUP4 GT PUSH2 0x15C3 JUMPI SWAP1 PUSH2 0x152A SWAP4 SWAP3 SWAP2 PUSH1 0x40 MLOAD SWAP3 PUSH2 0x151D DUP9 PUSH1 0x1F NOT PUSH1 0x1F DUP5 ADD AND ADD DUP6 PUSH2 0x11D5 JUMP JUMPDEST DUP4 MSTORE RETURNDATASIZE DUP7 DUP9 DUP6 ADD RETURNDATACOPY PUSH2 0x15E2 JUMP JUMPDEST DUP1 MLOAD SWAP2 DUP3 ISZERO SWAP2 DUP5 DUP4 ISZERO PUSH2 0x159C JUMPI JUMPDEST POP POP POP SWAP1 POP ISZERO PUSH2 0x1545 JUMPI POP JUMP JUMPDEST PUSH1 0x84 SWAP1 PUSH1 0x40 MLOAD SWAP1 PUSH3 0x461BCD PUSH1 0xE5 SHL DUP3 MSTORE PUSH1 0x4 DUP3 ADD MSTORE PUSH1 0x2A PUSH1 0x24 DUP3 ADD MSTORE PUSH32 0x5361666545524332303A204552433230206F7065726174696F6E20646964206E PUSH1 0x44 DUP3 ADD MSTORE PUSH10 0x1BDD081CDD58D8D95959 PUSH1 0xB2 SHL PUSH1 0x64 DUP3 ADD MSTORE REVERT JUMPDEST SWAP2 SWAP4 DUP2 DUP1 SWAP5 POP ADD SUB SLT PUSH2 0x16F JUMPI DUP3 ADD MLOAD SWAP1 DUP2 ISZERO ISZERO DUP3 SUB PUSH2 0x15C0 JUMPI POP DUP1 CODESIZE DUP1 DUP5 PUSH2 0x1538 JUMP JUMPDEST DUP1 REVERT JUMPDEST PUSH4 0x4E487B71 PUSH1 0xE0 SHL DUP6 MSTORE PUSH1 0x41 PUSH1 0x4 MSTORE PUSH1 0x24 DUP6 REVERT JUMPDEST SWAP1 PUSH2 0x152A SWAP4 SWAP3 POP PUSH1 0x60 SWAP2 JUMPDEST SWAP2 SWAP3 SWAP1 ISZERO PUSH2 0x1644 JUMPI POP DUP2 MLOAD ISZERO PUSH2 0x15F6 JUMPI POP SWAP1 JUMP JUMPDEST EXTCODESIZE ISZERO PUSH2 0x15FF JUMPI SWAP1 JUMP JUMPDEST PUSH1 0x40 MLOAD PUSH3 0x461BCD PUSH1 0xE5 SHL DUP2 MSTORE PUSH1 0x20 PUSH1 0x4 DUP3 ADD MSTORE PUSH1 0x1D PUSH1 0x24 DUP3 ADD MSTORE PUSH32 0x416464726573733A2063616C6C20746F206E6F6E2D636F6E7472616374000000 PUSH1 0x44 DUP3 ADD MSTORE PUSH1 0x64 SWAP1 REVERT JUMPDEST DUP3 MLOAD SWAP1 SWAP2 POP ISZERO PUSH2 0x1657 JUMPI POP DUP1 MLOAD SWAP1 PUSH1 0x20 ADD REVERT JUMPDEST PUSH1 0x40 MLOAD PUSH3 0x461BCD PUSH1 0xE5 SHL DUP2 MSTORE SWAP1 DUP2 SWAP1 PUSH2 0x39B SWAP1 PUSH1 0x4 DUP4 ADD PUSH2 0x11F7 JUMP JUMPDEST SWAP1 PUSH1 0x40 MLOAD PUSH1 0x80 DUP2 ADD DUP2 DUP2 LT PUSH8 0xFFFFFFFFFFFFFFFF DUP3 GT OR PUSH2 0x11BF JUMPI PUSH1 0x40 MSTORE PUSH1 0x60 PUSH1 0x3 DUP3 SWAP5 DUP1 SLOAD DUP5 MSTORE PUSH1 0x1 DUP2 ADD SLOAD PUSH1 0x20 DUP6 ADD MSTORE PUSH1 0x2 DUP2 ADD SLOAD PUSH1 0x40 DUP6 ADD MSTORE ADD SLOAD SWAP2 ADD MSTORE JUMP JUMPDEST SWAP2 SWAP1 DUP3 SUB SWAP2 DUP3 GT PUSH2 0x12A4 JUMPI JUMP JUMPDEST PUSH1 0xFF PUSH1 0x2 SLOAD AND PUSH2 0x16CF JUMPI JUMP JUMPDEST PUSH1 0x40 MLOAD PUSH3 0x461BCD PUSH1 0xE5 SHL DUP2 MSTORE PUSH1 0x20 PUSH1 0x4 DUP3 ADD MSTORE PUSH1 0x10 PUSH1 0x24 DUP3 ADD MSTORE PUSH16 0x14185D5CD8589B194E881C185D5CD959 PUSH1 0x82 SHL PUSH1 0x44 DUP3 ADD MSTORE PUSH1 0x64 SWAP1 REVERT JUMPDEST PUSH1 0x40 MLOAD PUSH4 0xA9059CBB PUSH1 0xE0 SHL PUSH1 0x20 DUP3 ADD MSTORE PUSH1 0x1 PUSH1 0x1 PUSH1 0xA0 SHL SUB SWAP1 SWAP3 AND PUSH1 0x24 DUP4 ADD MSTORE PUSH1 0x44 DUP1 DUP4 ADD SWAP4 SWAP1 SWAP4 MSTORE SWAP2 DUP2 MSTORE PUSH1 0x80 DUP2 ADD SWAP2 PUSH8 0xFFFFFFFFFFFFFFFF DUP4 GT DUP3 DUP5 LT OR PUSH2 0x11BF JUMPI PUSH2 0x148D SWAP3 PUSH1 0x40 MSTORE PUSH2 0x148F JUMP JUMPDEST PUSH1 0x60 DUP2 ADD SWAP1 DUP2 MLOAD ISZERO PUSH2 0x179A JUMPI PUSH1 0x40 PUSH2 0x1771 SWAP2 ADD MLOAD TIMESTAMP PUSH2 0x16B6 JUMP JUMPDEST PUSH3 0x278D00 SWAP2 DUP3 DUP3 LT ISZERO PUSH2 0x1793 JUMPI MLOAD DUP2 DUP2 MUL SWAP2 DUP2 DUP4 DIV EQ SWAP1 ISZERO OR ISZERO PUSH2 0x12A4 JUMPI DIV SWAP1 JUMP JUMPDEST SWAP2 POP POP MLOAD SWAP1 JUMP JUMPDEST POP POP PUSH1 0x0 SWAP1 JUMP INVALID MSTORE8 PUSH21 0x72696E67733A20686578206C656E67746820696E73 PUSH22 0x6666696369656E74A2646970667358221220DD3191B5 0x25 0xC1 0x2B PUSH7 0x4852EDD1F7D9D1 SWAP9 0xE1 0x2A 0xB2 SWAP10 EXTCODEHASH 0x27 0xEE 0xAC PUSH13 0x32DAA6682DDEF64736F6C6343 STOP ADDMOD SGT STOP CALLER 0x2F DUP8 DUP9 GT PUSH31 0x7EFF1D82E926EC794901D17C78024A50270940304540A733656F0D00000000 "},"methodIdentifiers":{"CREATOR_TOKEN_ROLE()":"96dd3f7f","DEFAULT_ADMIN_ROLE()":"a217fddf","PLATFORM_ADMIN_ROLE()":"685d34ff","VESTING_PERIOD()":"0197d972","creatorBalances(address)":"2a782802","depositFees(address,uint256,uint256)":"72a16a98","emergencyWithdraw(address,address,uint256)":"e63ea408","feeRecipient()":"46904840","getCreatorBalance(address)":"09cf7ffc","getRoleAdmin(bytes32)":"248a9ca3","getVestedAmount(address)":"d5a73fdd","grantRole(bytes32,address)":"2f2ff15d","hasRole(bytes32,address)":"91d14854","pause()":"8456cb59","paused()":"5c975abb","platformBalance()":"62a5dbbc","renounceRole(bytes32,address)":"36568abe","reserveToken()":"f4325d67","revokeRole(bytes32,address)":"d547741f","setFeeRecipient(address)":"e74b981b","supportsInterface(bytes4)":"01ffc9a7","unpause()":"3f4ba83a","withdrawCreatorFees(uint256)":"73962620","withdrawPlatformFees(uint256)":"6aa21416"}}}}}