{"contracts/BondingCurveAMM.sol":{"BondingCurveAMM":{"abi":[{"inputs":[],"name":"InsufficientLiquidity","type":"error"},{"inputs":[],"name":"InvalidAmount","type":"error"},{"inputs":[],"name":"MathOverflow","type":"error"},{"inputs":[{"internalType":"uint256","name":"S","type":"uint256"},{"internalType":"uint256","name":"basePrice","type":"uint256"},{"internalType":"uint256","name":"k","type":"uint256"}],"name":"getCurrentPrice","outputs":[{"internalType":"uint256","name":"price","type":"uint256"}],"stateMutability":"pure","type":"function"},{"inputs":[{"internalType":"uint256","name":"S","type":"uint256"},{"internalType":"uint256","name":"basePrice","type":"uint256"},{"internalType":"uint256","name":"k","type":"uint256"},{"internalType":"uint256","name":"tokenAmount","type":"uint256"}],"name":"priceImpact","outputs":[{"internalType":"uint256","name":"priceBefore","type":"uint256"},{"internalType":"uint256","name":"priceAfter","type":"uint256"}],"stateMutability":"pure","type":"function"},{"inputs":[{"internalType":"uint256","name":"S","type":"uint256"},{"internalType":"uint256","name":"basePrice","type":"uint256"},{"internalType":"uint256","name":"k","type":"uint256"},{"internalType":"uint256","name":"usdcAmount","type":"uint256"}],"name":"tokensForBuy","outputs":[{"internalType":"uint256","name":"deltaTokens","type":"uint256"}],"stateMutability":"pure","type":"function"},{"inputs":[{"internalType":"uint256","name":"S","type":"uint256"},{"internalType":"uint256","name":"basePrice","type":"uint256"},{"internalType":"uint256","name":"k","type":"uint256"},{"internalType":"uint256","name":"tokensToBurn","type":"uint256"}],"name":"usdcForSell","outputs":[{"internalType":"uint256","name":"usdcOut","type":"uint256"}],"stateMutability":"pure","type":"function"}],"evm":{"bytecode":{"linkReferences":{},"object":"6080806040523461001a576104499081610020823930815050f35b600080fdfe6040608081526004908136101561001557600080fd5b6000803560e01c806385113943146103185780638f574586146102d0578063b13f586d146102085763f607f64b1461004c57600080fd5b61005536610375565b919391929083156101f857670de0b6b3a76400009384810290810485036101e557620f4240900491600190610098878761009286861c94876103c6565b046103f9565b90866100a483806103c6565b04906001600160fe1b038116036101d2576100d190876100ca8787871b600319166103c6565b04906103f9565b918560038411156101be57508280821c8281018091116101ab5791905b84831061018b575050505b80821061017b5761010991610406565b600119909116908161015157505082810292818404149015171561013e57506020935090610136916103d9565b905b51908152f35b634e487b7160e01b815260118552602490fd5b849195508092500292818404149015171561013e57506020935090610175916103d9565b90610138565b8751634eab2ea760e11b81528990fd5b909193506101a28461019d81846103d9565b6103f9565b821c91906100ee565b634e487b7160e01b885260118c52602488fd5b926101ca575b506100f9565b9150386101c4565b634e487b7160e01b865260118a52602486fd5b634e487b7160e01b845260118852602484fd5b855163162908e360e11b81528790fd5b828461021336610375565b92919383156102c2578284116102b4575082908180670de0b6b3a764000096879161023d916103c6565b049361024990836103c6565b90610253916103c6565b6ec097ce7bc90715b34b9f100000000090049361026f916103c6565b90610279916103c6565b6f01812f9cf7920e2b66973e2000000000900491610296916103f9565b906102a091610406565b6102a990610398565b049051908152602090f35b855163bb55fd2760e01b8152fd5b855163162908e360e11b8152fd5b50606036600319011261031557506102ff61030d610308602094670de0b6b3a7640000938491356044356103c6565b046024356103f9565b610398565b049051908152f35b80fd5b826100ca61030861036861030861036261035461033436610375565b8361035b670de0b6b3a76400009b959b979394979a8b80988194886103c6565b04896103f9565b04996103f9565b906103c6565b0482519182526020820152f35b60809060031901126103935760043590602435906044359060643590565b600080fd5b90620f4240918281029281840414901517156103b057565b634e487b7160e01b600052601160045260246000fd5b818102929181159184041417156103b057565b81156103e3570490565b634e487b7160e01b600052601260045260246000fd5b919082018092116103b057565b919082039182116103b05756fea264697066735822122008e7a4849b3e03e1166a6416c42533a6e48a8e9defc1f55f00f0e18d991d2e7b64736f6c63430008130033","opcodes":"PUSH1 0x80 DUP1 PUSH1 0x40 MSTORE CALLVALUE PUSH2 0x1A JUMPI PUSH2 0x449 SWAP1 DUP2 PUSH2 0x20 DUP3 CODECOPY ADDRESS DUP2 POP POP RETURN JUMPDEST PUSH1 0x0 DUP1 REVERT INVALID PUSH1 0x40 PUSH1 0x80 DUP2 MSTORE PUSH1 0x4 SWAP1 DUP2 CALLDATASIZE LT ISZERO PUSH2 0x15 JUMPI PUSH1 0x0 DUP1 REVERT JUMPDEST PUSH1 0x0 DUP1 CALLDATALOAD PUSH1 0xE0 SHR DUP1 PUSH4 0x85113943 EQ PUSH2 0x318 JUMPI DUP1 PUSH4 0x8F574586 EQ PUSH2 0x2D0 JUMPI DUP1 PUSH4 0xB13F586D EQ PUSH2 0x208 JUMPI PUSH4 0xF607F64B EQ PUSH2 0x4C JUMPI PUSH1 0x0 DUP1 REVERT JUMPDEST PUSH2 0x55 CALLDATASIZE PUSH2 0x375 JUMP JUMPDEST SWAP2 SWAP4 SWAP2 SWAP3 SWAP1 DUP4 ISZERO PUSH2 0x1F8 JUMPI PUSH8 0xDE0B6B3A7640000 SWAP4 DUP5 DUP2 MUL SWAP1 DUP2 DIV DUP6 SUB PUSH2 0x1E5 JUMPI PUSH3 0xF4240 SWAP1 DIV SWAP2 PUSH1 0x1 SWAP1 PUSH2 0x98 DUP8 DUP8 PUSH2 0x92 DUP7 DUP7 SHR SWAP5 DUP8 PUSH2 0x3C6 JUMP JUMPDEST DIV PUSH2 0x3F9 JUMP JUMPDEST SWAP1 DUP7 PUSH2 0xA4 DUP4 DUP1 PUSH2 0x3C6 JUMP JUMPDEST DIV SWAP1 PUSH1 0x1 PUSH1 0x1 PUSH1 0xFE SHL SUB DUP2 AND SUB PUSH2 0x1D2 JUMPI PUSH2 0xD1 SWAP1 DUP8 PUSH2 0xCA DUP8 DUP8 DUP8 SHL PUSH1 0x3 NOT AND PUSH2 0x3C6 JUMP JUMPDEST DIV SWAP1 PUSH2 0x3F9 JUMP JUMPDEST SWAP2 DUP6 PUSH1 0x3 DUP5 GT ISZERO PUSH2 0x1BE JUMPI POP DUP3 DUP1 DUP3 SHR DUP3 DUP2 ADD DUP1 SWAP2 GT PUSH2 0x1AB JUMPI SWAP2 SWAP1 JUMPDEST DUP5 DUP4 LT PUSH2 0x18B JUMPI POP POP POP JUMPDEST DUP1 DUP3 LT PUSH2 0x17B JUMPI PUSH2 0x109 SWAP2 PUSH2 0x406 JUMP JUMPDEST PUSH1 0x1 NOT SWAP1 SWAP2 AND SWAP1 DUP2 PUSH2 0x151 JUMPI POP POP DUP3 DUP2 MUL SWAP3 DUP2 DUP5 DIV EQ SWAP1 ISZERO OR ISZERO PUSH2 0x13E JUMPI POP PUSH1 0x20 SWAP4 POP SWAP1 PUSH2 0x136 SWAP2 PUSH2 0x3D9 JUMP JUMPDEST SWAP1 JUMPDEST MLOAD SWAP1 DUP2 MSTORE RETURN JUMPDEST PUSH4 0x4E487B71 PUSH1 0xE0 SHL DUP2 MSTORE PUSH1 0x11 DUP6 MSTORE PUSH1 0x24 SWAP1 REVERT JUMPDEST DUP5 SWAP2 SWAP6 POP DUP1 SWAP3 POP MUL SWAP3 DUP2 DUP5 DIV EQ SWAP1 ISZERO OR ISZERO PUSH2 0x13E JUMPI POP PUSH1 0x20 SWAP4 POP SWAP1 PUSH2 0x175 SWAP2 PUSH2 0x3D9 JUMP JUMPDEST SWAP1 PUSH2 0x138 JUMP JUMPDEST DUP8 MLOAD PUSH4 0x4EAB2EA7 PUSH1 0xE1 SHL DUP2 MSTORE DUP10 SWAP1 REVERT JUMPDEST SWAP1 SWAP2 SWAP4 POP PUSH2 0x1A2 DUP5 PUSH2 0x19D DUP2 DUP5 PUSH2 0x3D9 JUMP JUMPDEST PUSH2 0x3F9 JUMP JUMPDEST DUP3 SHR SWAP2 SWAP1 PUSH2 0xEE JUMP JUMPDEST PUSH4 0x4E487B71 PUSH1 0xE0 SHL DUP9 MSTORE PUSH1 0x11 DUP13 MSTORE PUSH1 0x24 DUP9 REVERT JUMPDEST SWAP3 PUSH2 0x1CA JUMPI JUMPDEST POP PUSH2 0xF9 JUMP JUMPDEST SWAP2 POP CODESIZE PUSH2 0x1C4 JUMP JUMPDEST PUSH4 0x4E487B71 PUSH1 0xE0 SHL DUP7 MSTORE PUSH1 0x11 DUP11 MSTORE PUSH1 0x24 DUP7 REVERT JUMPDEST PUSH4 0x4E487B71 PUSH1 0xE0 SHL DUP5 MSTORE PUSH1 0x11 DUP9 MSTORE PUSH1 0x24 DUP5 REVERT JUMPDEST DUP6 MLOAD PUSH4 0x162908E3 PUSH1 0xE1 SHL DUP2 MSTORE DUP8 SWAP1 REVERT JUMPDEST DUP3 DUP5 PUSH2 0x213 CALLDATASIZE PUSH2 0x375 JUMP JUMPDEST SWAP3 SWAP2 SWAP4 DUP4 ISZERO PUSH2 0x2C2 JUMPI DUP3 DUP5 GT PUSH2 0x2B4 JUMPI POP DUP3 SWAP1 DUP2 DUP1 PUSH8 0xDE0B6B3A7640000 SWAP7 DUP8 SWAP2 PUSH2 0x23D SWAP2 PUSH2 0x3C6 JUMP JUMPDEST DIV SWAP4 PUSH2 0x249 SWAP1 DUP4 PUSH2 0x3C6 JUMP JUMPDEST SWAP1 PUSH2 0x253 SWAP2 PUSH2 0x3C6 JUMP JUMPDEST PUSH15 0xC097CE7BC90715B34B9F1000000000 SWAP1 DIV SWAP4 PUSH2 0x26F SWAP2 PUSH2 0x3C6 JUMP JUMPDEST SWAP1 PUSH2 0x279 SWAP2 PUSH2 0x3C6 JUMP JUMPDEST PUSH16 0x1812F9CF7920E2B66973E2000000000 SWAP1 DIV SWAP2 PUSH2 0x296 SWAP2 PUSH2 0x3F9 JUMP JUMPDEST SWAP1 PUSH2 0x2A0 SWAP2 PUSH2 0x406 JUMP JUMPDEST PUSH2 0x2A9 SWAP1 PUSH2 0x398 JUMP JUMPDEST DIV SWAP1 MLOAD SWAP1 DUP2 MSTORE PUSH1 0x20 SWAP1 RETURN JUMPDEST DUP6 MLOAD PUSH4 0xBB55FD27 PUSH1 0xE0 SHL DUP2 MSTORE REVERT JUMPDEST DUP6 MLOAD PUSH4 0x162908E3 PUSH1 0xE1 SHL DUP2 MSTORE REVERT JUMPDEST POP PUSH1 0x60 CALLDATASIZE PUSH1 0x3 NOT ADD SLT PUSH2 0x315 JUMPI POP PUSH2 0x2FF PUSH2 0x30D PUSH2 0x308 PUSH1 0x20 SWAP5 PUSH8 0xDE0B6B3A7640000 SWAP4 DUP5 SWAP2 CALLDATALOAD PUSH1 0x44 CALLDATALOAD PUSH2 0x3C6 JUMP JUMPDEST DIV PUSH1 0x24 CALLDATALOAD PUSH2 0x3F9 JUMP JUMPDEST PUSH2 0x398 JUMP JUMPDEST DIV SWAP1 MLOAD SWAP1 DUP2 MSTORE RETURN JUMPDEST DUP1 REVERT JUMPDEST DUP3 PUSH2 0xCA PUSH2 0x308 PUSH2 0x368 PUSH2 0x308 PUSH2 0x362 PUSH2 0x354 PUSH2 0x334 CALLDATASIZE PUSH2 0x375 JUMP JUMPDEST DUP4 PUSH2 0x35B PUSH8 0xDE0B6B3A7640000 SWAP12 SWAP6 SWAP12 SWAP8 SWAP4 SWAP5 SWAP8 SWAP11 DUP12 DUP1 SWAP9 DUP2 SWAP5 DUP9 PUSH2 0x3C6 JUMP JUMPDEST DIV DUP10 PUSH2 0x3F9 JUMP JUMPDEST DIV SWAP10 PUSH2 0x3F9 JUMP JUMPDEST SWAP1 PUSH2 0x3C6 JUMP JUMPDEST DIV DUP3 MLOAD SWAP2 DUP3 MSTORE PUSH1 0x20 DUP3 ADD MSTORE RETURN JUMPDEST PUSH1 0x80 SWAP1 PUSH1 0x3 NOT ADD SLT PUSH2 0x393 JUMPI PUSH1 0x4 CALLDATALOAD SWAP1 PUSH1 0x24 CALLDATALOAD SWAP1 PUSH1 0x44 CALLDATALOAD SWAP1 PUSH1 0x64 CALLDATALOAD SWAP1 JUMP JUMPDEST PUSH1 0x0 DUP1 REVERT JUMPDEST SWAP1 PUSH3 0xF4240 SWAP2 DUP3 DUP2 MUL SWAP3 DUP2 DUP5 DIV EQ SWAP1 ISZERO OR ISZERO PUSH2 0x3B0 JUMPI JUMP JUMPDEST PUSH4 0x4E487B71 PUSH1 0xE0 SHL PUSH1 0x0 MSTORE PUSH1 0x11 PUSH1 0x4 MSTORE PUSH1 0x24 PUSH1 0x0 REVERT JUMPDEST DUP2 DUP2 MUL SWAP3 SWAP2 DUP2 ISZERO SWAP2 DUP5 DIV EQ OR ISZERO PUSH2 0x3B0 JUMPI JUMP JUMPDEST DUP2 ISZERO PUSH2 0x3E3 JUMPI DIV SWAP1 JUMP JUMPDEST PUSH4 0x4E487B71 PUSH1 0xE0 SHL PUSH1 0x0 MSTORE PUSH1 0x12 PUSH1 0x4 MSTORE PUSH1 0x24 PUSH1 0x0 REVERT JUMPDEST SWAP2 SWAP1 DUP3 ADD DUP1 SWAP3 GT PUSH2 0x3B0 JUMPI JUMP JUMPDEST SWAP2 SWAP1 DUP3 SUB SWAP2 DUP3 GT PUSH2 0x3B0 JUMPI JUMP INVALID LOG2 PUSH5 0x6970667358 0x22 SLT KECCAK256 ADDMOD 0xE7 LOG4 DUP5 SWAP12 RETURNDATACOPY SUB 0xE1 AND PUSH11 0x6416C42533A6E48A8E9DEF 0xC1 CREATE2 0x5F STOP CREATE 0xE1 DUP14 SWAP10 SAR 0x2E PUSH28 0x64736F6C634300081300330000000000000000000000000000000000 "},"methodIdentifiers":{"getCurrentPrice(uint256,uint256,uint256)":"8f574586","priceImpact(uint256,uint256,uint256,uint256)":"85113943","tokensForBuy(uint256,uint256,uint256,uint256)":"f607f64b","usdcForSell(uint256,uint256,uint256,uint256)":"b13f586d"}}}}}