{"contracts/CreatorToken.sol":{"CreatorToken":{"abi":[{"inputs":[{"internalType":"string","name":"name","type":"string"},{"internalType":"string","name":"symbol","type":"string"},{"internalType":"address","name":"_creator","type":"address"},{"internalType":"address","name":"_reserveToken","type":"address"},{"internalType":"address","name":"_treasury","type":"address"}],"stateMutability":"nonpayable","type":"constructor"},{"inputs":[],"name":"InvalidAmount","type":"error"},{"inputs":[],"name":"InvalidConfiguration","type":"error"},{"inputs":[],"name":"MilestoneNotReached","type":"error"},{"inputs":[],"name":"NotEnoughLiquidity","type":"error"},{"inputs":[{"internalType":"uint256","name":"attempted","type":"uint256"},{"internalType":"uint256","name":"maxAllowed","type":"uint256"}],"name":"SellTooLarge","type":"error"},{"inputs":[{"internalType":"uint256","name":"until","type":"uint256"}],"name":"SellsPausedUntil","type":"error"},{"inputs":[{"internalType":"uint256","name":"expected","type":"uint256"},{"internalType":"uint256","name":"actual","type":"uint256"}],"name":"SlippageExceeded","type":"error"},{"inputs":[],"name":"SupplyLimitExceeded","type":"error"},{"inputs":[],"name":"ZeroAddress","type":"error"},{"anonymous":false,"inputs":[{"indexed":true,"internalType":"address","name":"owner","type":"address"},{"indexed":true,"internalType":"address","name":"spender","type":"address"},{"indexed":false,"internalType":"uint256","name":"value","type":"uint256"}],"name":"Approval","type":"event"},{"anonymous":false,"inputs":[{"indexed":true,"internalType":"address","name":"buyer","type":"address"},{"indexed":false,"internalType":"uint256","name":"usdcIn","type":"uint256"},{"indexed":false,"internalType":"uint256","name":"tokensMinted","type":"uint256"},{"indexed":false,"internalType":"uint256","name":"priceAfter","type":"uint256"}],"name":"Buy","type":"event"},{"anonymous":false,"inputs":[{"indexed":false,"internalType":"uint256","name":"windowSellAmount","type":"uint256"},{"indexed":false,"internalType":"uint256","name":"circulatingSupply","type":"uint256"},{"indexed":false,"internalType":"uint256","name":"pausedUntil","type":"uint256"}],"name":"CircuitBreakerTriggered","type":"event"},{"anonymous":false,"inputs":[{"indexed":false,"internalType":"string","name":"param","type":"string"},{"indexed":false,"internalType":"uint256","name":"value","type":"uint256"}],"name":"ConfigUpdated","type":"event"},{"anonymous":false,"inputs":[{"indexed":false,"internalType":"uint256","name":"platformFee","type":"uint256"},{"indexed":false,"internalType":"uint256","name":"creatorFee","type":"uint256"}],"name":"FeesForwarded","type":"event"},{"anonymous":false,"inputs":[{"indexed":false,"internalType":"address","name":"account","type":"address"}],"name":"Paused","type":"event"},{"anonymous":false,"inputs":[{"indexed":true,"internalType":"bytes32","name":"role","type":"bytes32"},{"indexed":true,"internalType":"bytes32","name":"previousAdminRole","type":"bytes32"},{"indexed":true,"internalType":"bytes32","name":"newAdminRole","type":"bytes32"}],"name":"RoleAdminChanged","type":"event"},{"anonymous":false,"inputs":[{"indexed":true,"internalType":"bytes32","name":"role","type":"bytes32"},{"indexed":true,"internalType":"address","name":"account","type":"address"},{"indexed":true,"internalType":"address","name":"sender","type":"address"}],"name":"RoleGranted","type":"event"},{"anonymous":false,"inputs":[{"indexed":true,"internalType":"bytes32","name":"role","type":"bytes32"},{"indexed":true,"internalType":"address","name":"account","type":"address"},{"indexed":true,"internalType":"address","name":"sender","type":"address"}],"name":"RoleRevoked","type":"event"},{"anonymous":false,"inputs":[{"indexed":true,"internalType":"address","name":"seller","type":"address"},{"indexed":false,"internalType":"uint256","name":"tokensBurned","type":"uint256"},{"indexed":false,"internalType":"uint256","name":"usdcOut","type":"uint256"},{"indexed":false,"internalType":"uint256","name":"priceAfter","type":"uint256"}],"name":"Sell","type":"event"},{"anonymous":false,"inputs":[{"indexed":false,"internalType":"uint256","name":"newSupply","type":"uint256"},{"indexed":false,"internalType":"uint256","name":"milestone","type":"uint256"}],"name":"SupplyUnlocked","type":"event"},{"anonymous":false,"inputs":[{"indexed":true,"internalType":"address","name":"from","type":"address"},{"indexed":true,"internalType":"address","name":"to","type":"address"},{"indexed":false,"internalType":"uint256","name":"value","type":"uint256"}],"name":"Transfer","type":"event"},{"anonymous":false,"inputs":[{"indexed":false,"internalType":"address","name":"account","type":"address"}],"name":"Unpaused","type":"event"},{"inputs":[],"name":"CREATOR_ROLE","outputs":[{"internalType":"bytes32","name":"","type":"bytes32"}],"stateMutability":"view","type":"function"},{"inputs":[],"name":"DEFAULT_ADMIN_ROLE","outputs":[{"internalType":"bytes32","name":"","type":"bytes32"}],"stateMutability":"view","type":"function"},{"inputs":[],"name":"ORACLE_ROLE","outputs":[{"internalType":"bytes32","name":"","type":"bytes32"}],"stateMutability":"view","type":"function"},{"inputs":[],"name":"PLATFORM_ADMIN_ROLE","outputs":[{"internalType":"bytes32","name":"","type":"bytes32"}],"stateMutability":"view","type":"function"},{"inputs":[{"internalType":"address","name":"owner","type":"address"},{"internalType":"address","name":"spender","type":"address"}],"name":"allowance","outputs":[{"internalType":"uint256","name":"","type":"uint256"}],"stateMutability":"view","type":"function"},{"inputs":[{"internalType":"address","name":"spender","type":"address"},{"internalType":"uint256","name":"amount","type":"uint256"}],"name":"approve","outputs":[{"internalType":"bool","name":"","type":"bool"}],"stateMutability":"nonpayable","type":"function"},{"inputs":[{"internalType":"address","name":"account","type":"address"}],"name":"balanceOf","outputs":[{"internalType":"uint256","name":"","type":"uint256"}],"stateMutability":"view","type":"function"},{"inputs":[],"name":"basePrice","outputs":[{"internalType":"uint256","name":"","type":"uint256"}],"stateMutability":"view","type":"function"},{"inputs":[{"internalType":"uint256","name":"usdcAmount","type":"uint256"},{"internalType":"uint256","name":"minTokensOut","type":"uint256"},{"internalType":"address","name":"recipient","type":"address"}],"name":"buyWithUSDC","outputs":[{"internalType":"uint256","name":"tokensMinted","type":"uint256"}],"stateMutability":"nonpayable","type":"function"},{"inputs":[],"name":"creator","outputs":[{"internalType":"address","name":"","type":"address"}],"stateMutability":"view","type":"function"},{"inputs":[],"name":"creatorBuyFeeBps","outputs":[{"internalType":"uint256","name":"","type":"uint256"}],"stateMutability":"view","type":"function"},{"inputs":[],"name":"creatorSellFeeBps","outputs":[{"internalType":"uint256","name":"","type":"uint256"}],"stateMutability":"view","type":"function"},{"inputs":[],"name":"decimals","outputs":[{"internalType":"uint8","name":"","type":"uint8"}],"stateMutability":"view","type":"function"},{"inputs":[{"internalType":"address","name":"spender","type":"address"},{"internalType":"uint256","name":"subtractedValue","type":"uint256"}],"name":"decreaseAllowance","outputs":[{"internalType":"bool","name":"","type":"bool"}],"stateMutability":"nonpayable","type":"function"},{"inputs":[{"internalType":"uint256","name":"usdcAmount","type":"uint256"}],"name":"getBuyQuote","outputs":[{"internalType":"uint256","name":"tokensOut","type":"uint256"}],"stateMutability":"view","type":"function"},{"inputs":[],"name":"getCurrentPrice","outputs":[{"internalType":"uint256","name":"price","type":"uint256"}],"stateMutability":"view","type":"function"},{"inputs":[{"internalType":"bytes32","name":"role","type":"bytes32"}],"name":"getRoleAdmin","outputs":[{"internalType":"bytes32","name":"","type":"bytes32"}],"stateMutability":"view","type":"function"},{"inputs":[{"internalType":"uint256","name":"tokenAmount","type":"uint256"}],"name":"getSellQuote","outputs":[{"internalType":"uint256","name":"usdcOut","type":"uint256"}],"stateMutability":"view","type":"function"},{"inputs":[],"name":"getSellWindowStatus","outputs":[{"internalType":"uint256","name":"totalSells","type":"uint256"},{"internalType":"uint256","name":"threshold","type":"uint256"},{"internalType":"bool","name":"isPaused","type":"bool"}],"stateMutability":"view","type":"function"},{"inputs":[{"internalType":"bytes32","name":"role","type":"bytes32"},{"internalType":"address","name":"account","type":"address"}],"name":"grantRole","outputs":[],"stateMutability":"nonpayable","type":"function"},{"inputs":[{"internalType":"address","name":"user","type":"address"}],"name":"hasAccess","outputs":[{"internalType":"bool","name":"","type":"bool"}],"stateMutability":"view","type":"function"},{"inputs":[{"internalType":"bytes32","name":"role","type":"bytes32"},{"internalType":"address","name":"account","type":"address"}],"name":"hasRole","outputs":[{"internalType":"bool","name":"","type":"bool"}],"stateMutability":"view","type":"function"},{"inputs":[{"internalType":"address","name":"spender","type":"address"},{"internalType":"uint256","name":"addedValue","type":"uint256"}],"name":"increaseAllowance","outputs":[{"internalType":"bool","name":"","type":"bool"}],"stateMutability":"nonpayable","type":"function"},{"inputs":[{"internalType":"string","name":"","type":"string"},{"internalType":"string","name":"","type":"string"},{"internalType":"address","name":"_creator","type":"address"},{"internalType":"address","name":"_reserveToken","type":"address"},{"internalType":"address","name":"_treasury","type":"address"},{"internalType":"uint256","name":"_basePrice","type":"uint256"},{"internalType":"uint256","name":"_k","type":"uint256"},{"internalType":"uint256","name":"_totalSupplyLimit","type":"uint256"},{"internalType":"uint256","name":"_minTokensForAccess","type":"uint256"},{"internalType":"uint256","name":"_creatorBuyFeeBps","type":"uint256"},{"internalType":"uint256","name":"_creatorSellFeeBps","type":"uint256"},{"internalType":"uint256","name":"_platformFeeBps","type":"uint256"},{"internalType":"uint256","name":"_maxSellPercentBps","type":"uint256"},{"internalType":"uint256","name":"_sellWindowSeconds","type":"uint256"},{"internalType":"uint256","name":"_sellWindowThresholdBps","type":"uint256"}],"name":"initialize","outputs":[],"stateMutability":"nonpayable","type":"function"},{"inputs":[],"name":"k","outputs":[{"internalType":"uint256","name":"","type":"uint256"}],"stateMutability":"view","type":"function"},{"inputs":[],"name":"maxSellPercentBps","outputs":[{"internalType":"uint256","name":"","type":"uint256"}],"stateMutability":"view","type":"function"},{"inputs":[],"name":"minTokensForAccess","outputs":[{"internalType":"uint256","name":"","type":"uint256"}],"stateMutability":"view","type":"function"},{"inputs":[],"name":"name","outputs":[{"internalType":"string","name":"","type":"string"}],"stateMutability":"view","type":"function"},{"inputs":[],"name":"pause","outputs":[],"stateMutability":"nonpayable","type":"function"},{"inputs":[{"internalType":"uint256","name":"untilTimestamp","type":"uint256"}],"name":"pauseSells","outputs":[],"stateMutability":"nonpayable","type":"function"},{"inputs":[],"name":"paused","outputs":[{"internalType":"bool","name":"","type":"bool"}],"stateMutability":"view","type":"function"},{"inputs":[],"name":"platformFeeBps","outputs":[{"internalType":"uint256","name":"","type":"uint256"}],"stateMutability":"view","type":"function"},{"inputs":[{"internalType":"bytes32","name":"role","type":"bytes32"},{"internalType":"address","name":"account","type":"address"}],"name":"renounceRole","outputs":[],"stateMutability":"nonpayable","type":"function"},{"inputs":[],"name":"reserveBalance","outputs":[{"internalType":"uint256","name":"","type":"uint256"}],"stateMutability":"view","type":"function"},{"inputs":[],"name":"reserveToken","outputs":[{"internalType":"contract IERC20","name":"","type":"address"}],"stateMutability":"view","type":"function"},{"inputs":[{"internalType":"bytes32","name":"role","type":"bytes32"},{"internalType":"address","name":"account","type":"address"}],"name":"revokeRole","outputs":[],"stateMutability":"nonpayable","type":"function"},{"inputs":[{"internalType":"uint256","name":"","type":"uint256"}],"name":"sellHistory","outputs":[{"internalType":"uint256","name":"amount","type":"uint256"},{"internalType":"uint256","name":"timestamp","type":"uint256"}],"stateMutability":"view","type":"function"},{"inputs":[{"internalType":"uint256","name":"tokensToSell","type":"uint256"},{"internalType":"uint256","name":"minUsdcOut","type":"uint256"},{"internalType":"address","name":"recipient","type":"address"}],"name":"sellToUSDC","outputs":[{"internalType":"uint256","name":"usdcReturned","type":"uint256"}],"stateMutability":"nonpayable","type":"function"},{"inputs":[],"name":"sellWindowSeconds","outputs":[{"internalType":"uint256","name":"","type":"uint256"}],"stateMutability":"view","type":"function"},{"inputs":[],"name":"sellWindowThresholdBps","outputs":[{"internalType":"uint256","name":"","type":"uint256"}],"stateMutability":"view","type":"function"},{"inputs":[],"name":"sellsPausedUntil","outputs":[{"internalType":"uint256","name":"","type":"uint256"}],"stateMutability":"view","type":"function"},{"inputs":[{"internalType":"uint256","name":"newMinimum","type":"uint256"}],"name":"setMinTokensForAccess","outputs":[],"stateMutability":"nonpayable","type":"function"},{"inputs":[{"internalType":"bytes4","name":"interfaceId","type":"bytes4"}],"name":"supportsInterface","outputs":[{"internalType":"bool","name":"","type":"bool"}],"stateMutability":"view","type":"function"},{"inputs":[],"name":"symbol","outputs":[{"internalType":"string","name":"","type":"string"}],"stateMutability":"view","type":"function"},{"inputs":[],"name":"totalSupply","outputs":[{"internalType":"uint256","name":"","type":"uint256"}],"stateMutability":"view","type":"function"},{"inputs":[],"name":"totalSupplyLimit","outputs":[{"internalType":"uint256","name":"","type":"uint256"}],"stateMutability":"view","type":"function"},{"inputs":[{"internalType":"address","name":"to","type":"address"},{"internalType":"uint256","name":"amount","type":"uint256"}],"name":"transfer","outputs":[{"internalType":"bool","name":"","type":"bool"}],"stateMutability":"nonpayable","type":"function"},{"inputs":[{"internalType":"address","name":"from","type":"address"},{"internalType":"address","name":"to","type":"address"},{"internalType":"uint256","name":"amount","type":"uint256"}],"name":"transferFrom","outputs":[{"internalType":"bool","name":"","type":"bool"}],"stateMutability":"nonpayable","type":"function"},{"inputs":[],"name":"treasury","outputs":[{"internalType":"contract IPlatformTreasury","name":"","type":"address"}],"stateMutability":"view","type":"function"},{"inputs":[{"internalType":"uint256","name":"newSupply","type":"uint256"},{"internalType":"uint256","name":"milestone","type":"uint256"}],"name":"unlockSupplyOnMilestone","outputs":[],"stateMutability":"nonpayable","type":"function"},{"inputs":[],"name":"unpause","outputs":[],"stateMutability":"nonpayable","type":"function"}],"evm":{"bytecode":{"linkReferences":{"contracts/BondingCurveAMM.sol":{"BondingCurveAMM":[{"length":20,"start":2171},{"length":20,"start":2382},{"length":20,"start":3880},{"length":20,"start":5467},{"length":20,"start":10210}]}},"object":"604060c0815234620004e557620036ff803803806200001e81620004ea565b92833981019060a081830312620004e55780516001600160401b039190828111620004e557836200005191830162000510565b6020938483015190848211620004e5576200006e91840162000510565b926200007c86840162000582565b90620000996080620000916060870162000582565b950162000582565b908351818111620003e2576003908154906001968783811c93168015620004da575b8b841014620004c45781908b601f948581116200046b575b50508b908483116001146200040457600092620003f8575b505060001982851b1c191690871b1782555b8751928311620003e25760049788548781811c91168015620003d7575b8b821014620003c257908183869594931162000368575b508a918411600114620002fd57600093620002f1575b505082861b92600019911b1c19161785555b8260065560ff1993846007541660075560018060a01b038093169586158015620002e6575b8015620002db575b620002cd5750601480546001600160a01b0319168717905582166080521660a05260008080526005855285812084825285528590205460ff161562000292575b7f828634d95e775031b9ff576b159a8509d3053581a8c9c4d7d86899e0afcd882f9384600052600581528560002084600052815260ff8660002054161562000254575b8551613147908162000598823960805181818161026901528181610473015281816110ee015281816114b30152611943015260a05181818161061d0152818161148f015261180f0152f35b84600052600581528560002090846000525284600020918254161790553391600080516020620036df833981519152600080a4388080808062000209565b60008052600584528460002083600052845284600020818382541617905533836000600080516020620036df8339815191528180a4620001c6565b885163d92e233d60e01b8152fd5b508383161562000186565b50838216156200017e565b01519150388062000147565b9190879450601f198416928a6000528b6000209360005b8d82821062000351575050851162000336575b50505050811b01855562000159565b01519060f884600019921b161c191690553880808062000327565b8385015187558b9890960195938401930162000314565b9091929350896000528a6000208380870160051c8201928d8810620003b8575b918a918897969594930160051c01915b828110620003a857505062000131565b600081558796508a910162000398565b9250819262000388565b60228a634e487b7160e01b6000525260246000fd5b90607f16906200011a565b634e487b7160e01b600052604160045260246000fd5b015190503880620000eb565b60008681528d81208b9550929190601f198516908f5b8282106200045357505084116200043a575b505050811b018255620000fd565b015160001983871b60f8161c191690553880806200042c565b8385015186558d979095019493840193018f6200041a565b909192508560005284826000209181860160051c8301938610620004ba575b918b91869594930160051c01915b828110620004aa57508d9150620000d3565b600081558594508b910162000498565b925081926200048a565b634e487b7160e01b600052602260045260246000fd5b92607f1692620000bb565b600080fd5b6040519190601f01601f191682016001600160401b03811183821017620003e257604052565b919080601f84011215620004e55782516001600160401b038111620003e25760209062000546601f8201601f19168301620004ea565b92818452828287010111620004e55760005b8181106200056e57508260009394955001015290565b858101830151848201840152820162000558565b51906001600160a01b0382168203620004e55756fe608060408181526004918236101561001657600080fd5b600092833560e01c91826301ffc9a7146124005750816302d05d3f146123d757816306fdde03146122e257816307e2cea5146122a75781630812530e146121f9578163095ea7b3146121cf57816314ad21d8146121b057816318160ddd1461219157816322dcd13e1461217257816323b872dd146120a8578163248a9ca31461207d5781632e5cfc1c1461205e5781632f2ff15d14611fc357816330cfb08a14611f85578163313ce56714611f6957816336568abe14611ed75781633950935114611e875781633990f01e14611cb05781633b14b99214611c915781633f4ba83a14611bfb57816344ab961f146118c257816350aec25c146118a05781635567a03a146118815781635a3e7152146118625781635c975abb1461183e57816361d027b3146117fa578163685d34ff146117bf57816370a08231146117885781638456cb591461172d5781638aeda25a146116f25781638d3f259d14610f2057816391d1485414610eda57816395a078e814610e9e57816395d89b4114610d9b5781639bfb82c114610b24578163a10954fe14610b05578163a217fddf14610aea578163a457c2d714610a43578163a9059cbb14610a12578163b36ecd16146109f3578163b390452c1461093f578163b4f40c6114610920578163bac21a2214610901578163c7876ea4146108e2578163ca6aaa1014610844578163d547741f14610801578163dd62ed3e146107b3578163de19a07114610372578163e2d3095e14610353578163eb91d37e1461029c575063f4325d671461025657600080fd5b34610298578160031936011261029857517f00000000000000000000000000000000000000000000000000000000000000006001600160a01b03168152602090f35b5080fd5b83833461029857816003193601126102985760025460085460095483516347aba2c360e11b815295860192835260208381019290925260408301529084908190606001038173__$e74dd2a42d9d207a7a46d63c0ce2dc65ec$__5af4918215610348579161030f575b6020925051908152f35b90506020823d8211610340575b8161032960209383612564565b8101031261033b576020915190610305565b600080fd5b3d915061031c565b9051903d90823e3d90fd5b505034610298578160031936011261029857602090600f549051908152f35b8284346107b057610382366125e9565b9391909261038e612d93565b610396612d4f565b81156107a0576001600160a01b039485168015610790579561040b94959673__$e74dd2a42d9d207a7a46d63c0ce2dc65ec$__9060025497600854988660095489519a8b92839263f607f64b60e01b845260209e8f968b86019094939260609260808301968352602083015260408201520152565b0381865af4978815610786578598610757575b5080881061073b57506104338760025461297c565b600a541061072b5787986127108061044d600d5489612c0f565b049061045b600b5489612c0f565b04610466818361297c565b610470818a612d42565b937f0000000000000000000000000000000000000000000000000000000000000000918b519e8f906323b872dd60e01b908201523360248201523060448201528b60648201526064815260a0810190811067ffffffffffffffff821117610716578e9f8d9e9f9a9b9c9d916104e6925284612f27565b8061060e575b50505050506104fd9060165461297c565b60165561050c8860025461297c565b600255808552848352868520888154019055847fddf252ad1be2c89b69c2b068fc378daa952ba7f163c4a11628f55a4df523b3ef8489518b8152a360025460085460095488516347aba2c360e11b8152958601928352602083019190915260408201528391908290819060600103915af491821561060357916105d4575b50825191825260208201849052604082015233907fbeae048c6d270d9469f86cf6e8fedda3c60ad770f16c24c9fc131c8e9a09101d9080606081015b0390a2600160065551908152f35b90508481813d83116105fc575b6105eb8183612564565b8101031261033b57516105c661058a565b503d6105e1565b8451903d90823e3d90fd5b816106449293949596979899507f0000000000000000000000000000000000000000000000000000000000000000168094612de9565b60145416813b15610712578a51630e542d5360e31b81526001600160a01b0390911681890190815260208101849052604081018590529091899183919082908490829060600103925af180156107085791888d97969594928c946106e0575b50508251918252868201526104fd92917f135aac89c93c469dc7548f8c6dd01dd955e485064d5984c9db0296457baf2c7391a1908b8080806104ec565b909294959697506106f291935061251e565b610704578a949392918991888e6106a3565b8680fd5b8a513d8a823e3d90fd5b8880fd5b60418a634e487b7160e01b6000525260246000fd5b85516327f34da760e11b81528390fd5b83886044928951926371c4efed60e01b84528301526024820152fd5b9097508881813d831161077f575b61076f8183612564565b8101031261033b5751968a61041e565b503d610765565b87513d87823e3d90fd5b835163d92e233d60e01b81528790fd5b825163162908e360e11b81528690fd5b80fd5b5050346102985780600319360112610298576020916107d06124a2565b826107d96124b8565b6001600160a01b03928316845260018652922091166000908152908352819020549051908152f35b9190503461084057806003193601126108405761083d913561083860016108266124b8565b938387526005602052862001546127fc565b612906565b80f35b8280fd5b8284346107b057806003193601126107b057610862600f5442612d42565b6012549290825b84811061089d576060848461271061088660025460105490612c0f565b049060115442109181519384526020840152820152f35b8160016108a9836124ce565b50015410156108c1575b6108bc906130e2565b610869565b926108da6108bc916108d2866124ce565b50549061297c565b9390506108b3565b5050346102985781600319360112610298576020906008549051908152f35b505034610298578160031936011261029857602090600a549051908152f35b5050346102985781600319360112610298576020906009549051908152f35b838334610298576020928360031936011261084057600254600854600954845163f607f64b60e01b81528085019384526020840192909252604083015291356060820152849082908190608001038173__$e74dd2a42d9d207a7a46d63c0ce2dc65ec$__5af49283156109e857926109b9575b5051908152f35b9091508281813d83116109e1575b6109d18183612564565b8101031261033b575190836109b2565b503d6109c7565b8251903d90823e3d90fd5b5050346102985781600319360112610298576020906011549051908152f35b505034610298578060031936011261029857602090610a3c610a326124a2565b602435903361299f565b5160018152f35b905082346107b057826003193601126107b057610a5e6124a2565b91836024359233815260016020522060018060a01b038416600052602052836000205490828210610a9957602085610a3c8585038733612b0d565b608490602086519162461bcd60e51b8352820152602560248201527f45524332303a2064656372656173656420616c6c6f77616e63652062656c6f77604482015264207a65726f60d81b6064820152fd5b50503461029857816003193601126102985751908152602090f35b5050346102985781600319360112610298576020906016549051908152f35b90503461084057602080600319360112610d97578135917f828634d95e775031b9ff576b159a8509d3053581a8c9c4d7d86899e0afcd882f80600052600583528460002033600052835260ff85600020541615610bd357857f12c9dccd129ff783f1c8228eacdfa8e334ddecb7ec5c9a79ec662a4aed3d012a6080878787816015556012835193808552840152716d696e546f6b656e73466f7241636365737360701b6060840152820152a180f35b909250610bdf33612c33565b845190610beb82612548565b60428252838201926060368537825115610d8257603084538251600190811015610d6d57607860218501536041905b808211610d00575050610cbe57610cba938693610ca693610c97604894610c6e9a519a8576020b1b1b2b9b9a1b7b73a3937b61d1030b1b1b7bab73a1604d1b8d978801528251928391603789019101612453565b8401917001034b99036b4b9b9b4b733903937b6329607d1b603784015251809386840190612453565b01036028810187520185612564565b5162461bcd60e51b81529283928301612476565b0390fd5b50505080606493519262461bcd60e51b845283015260248201527f537472696e67733a20686578206c656e67746820696e73756666696369656e746044820152fd5b9091600f81166010811015610d58576f181899199a1a9b1b9c1cb0b131b232b360811b901a610d2f8487612c22565b53871c918015610d43576000190190610c1a565b601188634e487b7160e01b6000525260246000fd5b603289634e487b7160e01b6000525260246000fd5b603287634e487b7160e01b6000525260246000fd5b603286634e487b7160e01b6000525260246000fd5b8380fd5b838334610298578160031936011261029857805191809380549160019083821c92828516948515610e94575b6020958686108114610e8157858952908115610e5d5750600114610e05575b610e018787610df7828c0383612564565b5191829182612476565b0390f35b81529295507f8a35acfbc15ff81a39ae7d344fd709f28e8600b4aa8c65c6b64bfe7fe36bd19b5b828410610e4a5750505082610e0194610df792820101948680610de6565b8054868501880152928601928101610e2c565b60ff19168887015250505050151560051b8301019250610df782610e018680610de6565b634e487b7160e01b845260228352602484fd5b93607f1693610dc7565b5050346102985760203660031901126102985760209181906001600160a01b03610ec66124a2565b168152808452205460155411159051908152f35b90503461084057816003193601126108405781602093610ef86124b8565b9235815260058552209060018060a01b0316600052825260ff81600020541690519015158152f35b8284346107b057610f30366125e9565b93919092610f3c612d93565b610f44612d4f565b81156107a0576001600160a01b0395858716156116e4576011548042106116ce5750610f899394959633835260209783895286842054612710968791600e5490612c0f565b048086116116b25750600254600854600954895163b13f586d60e01b8152868101938452602084019290925260408301526060820187905273__$e74dd2a42d9d207a7a46d63c0ce2dc65ec$__9390918b90839081906080010381875af49182156116a8578692611675575b5087611003600d5484612c0f565b049188611012600c5483612c0f565b049161101e838561297c565b918c61102a8483612d42565b9d8e10611659575060165481116116495733156115fc57888e338252528b8920548a81106115ad5790898f7fddf252ad1be2c89b69c2b068fc378daa952ba7f163c4a11628f55a4df523b3ef8f918e92836110a19733875286845203818620558360025403600255519283523392a3601654612d42565b60165581611489575b5050885163a9059cbb60e01b8c8201526001600160a01b039390931660248085019190915260448085018c9052845292611112925090506110ec606482612564565b7f0000000000000000000000000000000000000000000000000000000000000000612f27565b86519587870187811067ffffffffffffffff82111761147557885285875289870196428852601290815498680100000000000000008a10156114635761115e60019a8b810185556124ce565b9290926112dc575182555190890155600f5461117a9042612d42565b8154909287805b83811061142757506002549161119960105484612c0f565b048110156113c2575b5050908b949392879288915b81831061137a575b50505081611287575b50506002546008546009548a516347aba2c360e11b815296870192835260208301919091526040820152849291508290819060600103915af491821561127c579161124d575b50835191825260208201859052604082015233907f846c37eef631e0943682d87352ec117c20008eb7f425c9b85ac011a6d4774cc09080606081015b0390a260065551908152f35b90508581813d8311611275575b6112648183612564565b8101031261033b5751611241611205565b503d61125a565b8551903d90823e3d90fd5b86895b6112ff575b50865b82811061129f57506111bf565b908092939495505480156112ed57600019016112ba816124ce565b6112dc578881558a0188905582556112d1906130e2565b908b94939291611292565b634e487b7160e01b89528888528589fd5b634e487b7160e01b8852603187528488fd5b909192939450611310838354612d42565b81101561136f57611329611324848361297c565b6124ce565b50611333826124ce565b9190916112dc5791818b848195611352950361135d575b5050506130e2565b8c959493929161128a565b805483558101549101558e838161134a565b908b9493929161128f565b91949596828c61138d88979496976124ce565b50015410156113b657506113a36113a9916130e2565b946130e2565b90918d96959493926111ae565b969594819493506111b6565b610e1042018042116114155760118190558c51918252602082019290925260408101919091527f3d747073b9d4b08f72a3edbdb8e590c3266455bdd20cc08af18f78bb50b0adcc90606090a18c806111a2565b634e487b7160e01b8a5260118952868afd5b858c611432836124ce565b500154101561144a575b611445906130e2565b611181565b9061145b611445916108d2846124ce565b91905061143c565b634e487b7160e01b8852604187528488fd5b82604186634e487b7160e01b600052526000fd5b6114d7817f00000000000000000000000000000000000000000000000000000000000000001692837f0000000000000000000000000000000000000000000000000000000000000000612de9565b60145416813b156115a9578a51630e542d5360e31b81526001600160a01b0390911681880190815260208101849052604081018590529091889183919082908490829060600103925af1801561159f57908a939291611568575b5082519182528b8201527f135aac89c93c469dc7548f8c6dd01dd955e485064d5984c9db0296457baf2c739190a1898080806110aa565b966115967f135aac89c93c469dc7548f8c6dd01dd955e485064d5984c9db0296457baf2c739493929861251e565b96909192611531565b8a513d89823e3d90fd5b8780fd5b508b5162461bcd60e51b81528089018f9052602260248201527f45524332303a206275726e20616d6f756e7420657863656564732062616c616e604482015261636560f01b6064820152608490fd5b8b5162461bcd60e51b81528089018f9052602160248201527f45524332303a206275726e2066726f6d20746865207a65726f206164647265736044820152607360f81b6064820152608490fd5b8b51634323a55560e01b81528890fd5b888e6044928f51926371c4efed60e01b84528301526024820152fd5b9091508a81813d83116116a1575b61168d8183612564565b8101031261169d5751908b610ff5565b8580fd5b503d611683565b89513d88823e3d90fd5b83604491878a519263081b74d560e21b84528301526024820152fd5b845163670b463b60e11b81529182015260249150fd5b835163d92e233d60e01b8152fd5b505034610298578160031936011261029857602090517f828634d95e775031b9ff576b159a8509d3053581a8c9c4d7d86899e0afcd882f8152f35b50503461029857816003193601126102985760207f62e78cea01bee320cd4e420270b5ea74000d11b0c9f74754ebdbfc544b05a2589161176b612613565b611773612d4f565b600160ff19600754161760075551338152a180f35b5050346102985760203660031901126102985760209181906001600160a01b036117b06124a2565b16815280845220549051908152f35b505034610298578160031936011261029857602090517f5246556c0ab216b5b325ad7c539bfbd1a07c768773cdf810fecd3c3375c274078152f35b505034610298578160031936011261029857517f00000000000000000000000000000000000000000000000000000000000000006001600160a01b03168152602090f35b50503461029857816003193601126102985760209060ff6007541690519015158152f35b5050346102985781600319360112610298576020906015549051908152f35b505034610298578160031936011261029857602090600c549051908152f35b839034610298576020366003190112610298576118bb612613565b3560115580f35b91905034610840576101e03660031901126108405767ffffffffffffffff8235818111611bf7576118f690369085016125a2565b50602435908111610d975761190e90369084016125a2565b506044356001600160a01b038181169391849003611bf75760643581811680910361169d5760843591808316809303610704577f000000000000000000000000000000000000000000000000000000000000000016611bbe578415611b895715611b4e5715611b195750816bffffffffffffffffffffffff60a01b601454161760145560a43560085560c43560095560e435600a556101043560155561012435600b5561014435600c5561016435600d5561018435600e556101a435600f556101c435601055828052600591602090838252828520818652825260ff838620541615611ae3575b7f828634d95e775031b9ff576b159a8509d3053581a8c9c4d7d86899e0afcd882f90818652848352838620818752835260ff848720541615611aac575b50507f5246556c0ab216b5b325ad7c539bfbd1a07c768773cdf810fecd3c3375c2740792838552808252828520338652825260ff838620541615611a74578480f35b838552815281842090338552528220600160ff19825416179055339033906000805160206130f28339815191528480a4388080808480f35b8186528483528386208187528352838620805460ff1916600117905533916000805160206130f28339815191528780a43880611a32565b8480528382528285208186528252828520805460ff191660011790553381866000805160206130f28339815191528180a46119f5565b6020606492519162461bcd60e51b8352820152601060248201526f496e76616c696420747265617375727960801b6044820152fd5b506020606492519162461bcd60e51b8352820152601560248201527424b73b30b634b2103932b9b2b93b32903a37b5b2b760591b6044820152fd5b835162461bcd60e51b8152602081850152600f60248201526e24b73b30b634b21031b932b0ba37b960891b6044820152606490fd5b835162461bcd60e51b81526020818501526013602482015272105b1c9958591e481a5b9a5d1a585b1a5e9959606a1b6044820152606490fd5b8480fd5b905034610840578260031936011261084057611c15612613565b6007549060ff821615611c57575060ff1916600755513381527f5db9ee0a495bf2e6ff9c91a7834c1ba4fdd244a5e8aa4e537bd38aeae4b073aa90602090a180f35b606490602084519162461bcd60e51b8352820152601460248201527314185d5cd8589b194e881b9bdd081c185d5cd95960621b6044820152fd5b505034610298578160031936011261029857602090600e549051908152f35b83833461029857806003193601126102985782357f68e79a7bf1e0bc45d0a330c573bc367f9cf464fd326078812f301165fbda4ef180845260209060058252838520338652825260ff848620541615611d565750600a54821115611d46577f27e8c6113129093ea1a91d9a0645356a2d627924e4d98609c4b7193ca62c2e2093945081600a55825191825260243590820152a180f35b825163c52a9bd360e01b81528590fd5b8592508490611d6433612c33565b855191611d7083612548565b60428352848301936060368637835115611e745760308553835190600191821015611e615790607860218601536041915b818311611df657505050610cbe57610cba938693610ca693610c97604894610c6e9a519a8576020b1b1b2b9b9a1b7b73a3937b61d1030b1b1b7bab73a1604d1b8d978801528251928391603789019101612453565b909192600f81166010811015611e4e576f181899199a1a9b1b9c1cb0b131b232b360811b901a611e268588612c22565b53881c928015611e3b57600019019190611da1565b634e487b7160e01b825260118952602482fd5b634e487b7160e01b835260328a52602483fd5b634e487b7160e01b815260328852602490fd5b634e487b7160e01b815260328752602490fd5b505034610298578060031936011261029857610a3c602092611ed0611eaa6124a2565b338352600186528483206001600160a01b0382168452865291849020546024359061297c565b9033612b0d565b83915034610298578260031936011261029857611ef26124b8565b90336001600160a01b03831603611f0e579061083d9135612906565b608490602085519162461bcd60e51b8352820152602f60248201527f416363657373436f6e74726f6c3a2063616e206f6e6c792072656e6f756e636560448201526e103937b632b9903337b91039b2b63360891b6064820152fd5b5050346102985781600319360112610298576020905160128152f35b839150346102985760203660031901126102985735906012548210156107b05750611faf906124ce565b506001815491015482519182526020820152f35b9050346108405781600319360112610840573590611fdf6124b8565b908284526005602052611ff7600182862001546127fc565b828452600560209081528185206001600160a01b039093168086529290528084205460ff1615612025578380f35b82845260056020528084208285526020528320600160ff1982541617905533916000805160206130f28339815191528480a43880808380f35b5050346102985781600319360112610298576020906010549051908152f35b9050346108405760203660031901126108405781602093600192358152600585522001549051908152f35b83915034610298576060366003190112610298576120c46124a2565b6120cc6124b8565b91846044359460018060a01b038416815260016020528181203382526020522054906000198203612106575b602086610a3c87878761299f565b84821061212f575091839161212460209695610a3c95033383612b0d565b9193948193506120f8565b606490602087519162461bcd60e51b8352820152601d60248201527f45524332303a20696e73756666696369656e7420616c6c6f77616e63650000006044820152fd5b505034610298578160031936011261029857602090600d549051908152f35b5050346102985781600319360112610298576020906002549051908152f35b505034610298578160031936011261029857602090600b549051908152f35b505034610298578060031936011261029857602090610a3c6121ef6124a2565b6024359033612b0d565b838334610298576020928360031936011261084057600254600854600954845163b13f586d60e01b81528085019384526020840192909252604083015291356060820152849082908190608001038173__$e74dd2a42d9d207a7a46d63c0ce2dc65ec$__5af49283156109e8578093612275575b505051908152f35b909192508382813d83116122a0575b61228e8183612564565b810103126107b057505190838061226d565b503d612284565b505034610298578160031936011261029857602090517f68e79a7bf1e0bc45d0a330c573bc367f9cf464fd326078812f301165fbda4ef18152f35b91905034610840578260031936011261084057805191836003549060019082821c9282811680156123cd575b60209586861082146123ba5750848852908115612398575060011461233f575b610e018686610df7828b0383612564565b929550600383527fc2575a0e9e593c00f959f8c92f12db2869c3395a3b0502d05e2516446f71f85b5b8284106123855750505082610e0194610df792820101943861232e565b8054868501880152928601928101612368565b60ff191687860152505050151560051b8301019250610df782610e013861232e565b634e487b7160e01b845260229052602483fd5b93607f169361230e565b50503461029857816003193601126102985760145490516001600160a01b039091168152602090f35b849134610840576020366003190112610840573563ffffffff60e01b81168091036108405760209250637965db0b60e01b8114908115612442575b5015158152f35b6301ffc9a760e01b1490508361243b565b60005b8381106124665750506000910152565b8181015183820152602001612456565b604091602082526124968151809281602086015260208686019101612453565b601f01601f1916010190565b600435906001600160a01b038216820361033b57565b602435906001600160a01b038216820361033b57565b60125481101561250857601260005260011b7fbb8a6a4669ba250d26cd7a459eca9d215f8307e33aebe50379bc5a3617ec34440190600090565b634e487b7160e01b600052603260045260246000fd5b67ffffffffffffffff811161253257604052565b634e487b7160e01b600052604160045260246000fd5b6080810190811067ffffffffffffffff82111761253257604052565b90601f8019910116810190811067ffffffffffffffff82111761253257604052565b67ffffffffffffffff811161253257601f01601f191660200190565b81601f8201121561033b578035906125b982612586565b926125c76040519485612564565b8284526020838301011161033b57816000926020809301838601378301015290565b606090600319011261033b5760043590602435906044356001600160a01b038116810361033b5790565b3360009081527f762178e8c8d0ecf75b756325bbbc6ca862fc829409f041aa17f247d38fe03bd860209081526040808320549092907f5246556c0ab216b5b325ad7c539bfbd1a07c768773cdf810fecd3c3375c274079060ff16156126785750505050565b61268133612c33565b84519161268d83612548565b604283528483019360603686378351156127e857603085538351906001918210156127e85790607860218601536041915b81831161277a5750505061273857610c6e93859361272293612713604894610cba9951988576020b1b1b2b9b9a1b7b73a3937b61d1030b1b1b7bab73a1604d1b8b978801528251928391603789019101612453565b01036028810185520183612564565b5162461bcd60e51b815291829160048301612476565b60648486519062461bcd60e51b825280600483015260248201527f537472696e67733a20686578206c656e67746820696e73756666696369656e746044820152fd5b909192600f811660108110156127d4576f181899199a1a9b1b9c1cb0b131b232b360811b901a6127aa8588612c22565b5360041c9280156127c0576000190191906126be565b634e487b7160e01b82526011600452602482fd5b634e487b7160e01b83526032600452602483fd5b634e487b7160e01b81526032600452602490fd5b600081815260209060058252604092838220338352835260ff8483205416156128255750505050565b61282e33612c33565b84519161283a83612548565b604283528483019360603686378351156127e857603085538351906001918210156127e85790607860218601536041915b8183116128c05750505061273857610c6e93859361272293612713604894610cba9951988576020b1b1b2b9b9a1b7b73a3937b61d1030b1b1b7bab73a1604d1b8b978801528251928391603789019101612453565b909192600f811660108110156127d4576f181899199a1a9b1b9c1cb0b131b232b360811b901a6128f08588612c22565b5360041c9280156127c05760001901919061286b565b906000918083526005602052604083209160018060a01b03169182845260205260ff60408420541661293757505050565b8083526005602052604083208284526020526040832060ff1981541690557ff6391f5c32d9c69d2a47ea670b442974b53935d1edc7fd64eb21e047a839171b339380a4565b9190820180921161298957565b634e487b7160e01b600052601160045260246000fd5b6001600160a01b03908116918215612aba5716918215612a6957600082815280602052604081205491808310612a1557604082827fddf252ad1be2c89b69c2b068fc378daa952ba7f163c4a11628f55a4df523b3ef958760209652828652038282205586815220818154019055604051908152a3565b60405162461bcd60e51b815260206004820152602660248201527f45524332303a207472616e7366657220616d6f756e7420657863656564732062604482015265616c616e636560d01b6064820152608490fd5b60405162461bcd60e51b815260206004820152602360248201527f45524332303a207472616e7366657220746f20746865207a65726f206164647260448201526265737360e81b6064820152608490fd5b60405162461bcd60e51b815260206004820152602560248201527f45524332303a207472616e736665722066726f6d20746865207a65726f206164604482015264647265737360d81b6064820152608490fd5b6001600160a01b03908116918215612bbe5716918215612b6e5760207f8c5be1e5ebec7d5bd14f71427d1e84f3dd0314c0f7b2291e5b200ac8c7c3b925918360005260018252604060002085600052825280604060002055604051908152a3565b60405162461bcd60e51b815260206004820152602260248201527f45524332303a20617070726f766520746f20746865207a65726f206164647265604482015261737360f01b6064820152608490fd5b60405162461bcd60e51b8152602060048201526024808201527f45524332303a20617070726f76652066726f6d20746865207a65726f206164646044820152637265737360e01b6064820152608490fd5b8181029291811591840414171561298957565b908151811015612508570160200190565b604051906060820182811067ffffffffffffffff82111761253257604052602a82526020820160403682378251156125085760309053815160019081101561250857607860218401536029905b808211612cd4575050612c905790565b606460405162461bcd60e51b815260206004820152602060248201527f537472696e67733a20686578206c656e67746820696e73756666696369656e746044820152fd5b9091600f81166010811015612d2d576f181899199a1a9b1b9c1cb0b131b232b360811b901a612d038486612c22565b5360041c918015612d18576000190190612c80565b60246000634e487b7160e01b81526011600452fd5b60246000634e487b7160e01b81526032600452fd5b9190820391821161298957565b60ff60075416612d5b57565b60405162461bcd60e51b815260206004820152601060248201526f14185d5cd8589b194e881c185d5cd95960821b6044820152606490fd5b600260065414612da4576002600655565b60405162461bcd60e51b815260206004820152601f60248201527f5265656e7472616e637947756172643a207265656e7472616e742063616c6c006044820152606490fd5b91909181158015612ea2575b15612e3e5760405163095ea7b360e01b60208201526001600160a01b03939093166024840152604480840192909252908252612e3c9190612e37606483612564565b612f27565b565b60405162461bcd60e51b815260206004820152603660248201527f5361666545524332303a20617070726f76652066726f6d206e6f6e2d7a65726f60448201527520746f206e6f6e2d7a65726f20616c6c6f77616e636560501b6064820152608490fd5b50604051636eb1769f60e11b81523060048201526001600160a01b0384811660248301526020908290604490829086165afa908115612f1b57600091612eea575b5015612df5565b906020823d8211612f13575b81612f0360209383612564565b810103126107b057505138612ee3565b3d9150612ef6565b6040513d6000823e3d90fd5b60018060a01b031690604051604081019080821067ffffffffffffffff83111761253257612fb7916040526020938482527f5361666545524332303a206c6f772d6c6576656c2063616c6c206661696c6564858301526000808587829751910182855af13d1561304d573d91612f9c83612586565b92612faa6040519485612564565b83523d868885013e613051565b805191821591848315613029575b505050905015612fd25750565b6084906040519062461bcd60e51b82526004820152602a60248201527f5361666545524332303a204552433230206f7065726174696f6e20646964206e6044820152691bdd081cdd58d8d9595960b21b6064820152fd5b919381809450010312610298578201519081151582036107b0575080388084612fc5565b6060915b919290156130b35750815115613065575090565b3b1561306e5790565b60405162461bcd60e51b815260206004820152601d60248201527f416464726573733a2063616c6c20746f206e6f6e2d636f6e74726163740000006044820152606490fd5b8251909150156130c65750805190602001fd5b60405162461bcd60e51b8152908190610cba9060048301612476565b6000198114612989576001019056fe2f8788117e7eff1d82e926ec794901d17c78024a50270940304540a733656f0da264697066735822122093adc641f4c7b62abab9aa112d014e0f49853532c8131f7467228cc7f388c3a064736f6c634300081300332f8788117e7eff1d82e926ec794901d17c78024a50270940304540a733656f0d","opcodes":"PUSH1 0x40 PUSH1 0xC0 DUP2 MSTORE CALLVALUE PUSH3 0x4E5 JUMPI PUSH3 0x36FF DUP1 CODESIZE SUB DUP1 PUSH3 0x1E DUP2 PUSH3 0x4EA JUMP JUMPDEST SWAP3 DUP4 CODECOPY DUP2 ADD SWAP1 PUSH1 0xA0 DUP2 DUP4 SUB SLT PUSH3 0x4E5 JUMPI DUP1 MLOAD PUSH1 0x1 PUSH1 0x1 PUSH1 0x40 SHL SUB SWAP2 SWAP1 DUP3 DUP2 GT PUSH3 0x4E5 JUMPI DUP4 PUSH3 0x51 SWAP2 DUP4 ADD PUSH3 0x510 JUMP JUMPDEST PUSH1 0x20 SWAP4 DUP5 DUP4 ADD MLOAD SWAP1 DUP5 DUP3 GT PUSH3 0x4E5 JUMPI PUSH3 0x6E SWAP2 DUP5 ADD PUSH3 0x510 JUMP JUMPDEST SWAP3 PUSH3 0x7C DUP7 DUP5 ADD PUSH3 0x582 JUMP JUMPDEST SWAP1 PUSH3 0x99 PUSH1 0x80 PUSH3 0x91 PUSH1 0x60 DUP8 ADD PUSH3 0x582 JUMP JUMPDEST SWAP6 ADD PUSH3 0x582 JUMP JUMPDEST SWAP1 DUP4 MLOAD DUP2 DUP2 GT PUSH3 0x3E2 JUMPI PUSH1 0x3 SWAP1 DUP2 SLOAD SWAP1 PUSH1 0x1 SWAP7 DUP8 DUP4 DUP2 SHR SWAP4 AND DUP1 ISZERO PUSH3 0x4DA JUMPI JUMPDEST DUP12 DUP5 LT EQ PUSH3 0x4C4 JUMPI DUP2 SWAP1 DUP12 PUSH1 0x1F SWAP5 DUP6 DUP2 GT PUSH3 0x46B JUMPI JUMPDEST POP POP DUP12 SWAP1 DUP5 DUP4 GT PUSH1 0x1 EQ PUSH3 0x404 JUMPI PUSH1 0x0 SWAP3 PUSH3 0x3F8 JUMPI JUMPDEST POP POP PUSH1 0x0 NOT DUP3 DUP6 SHL SHR NOT AND SWAP1 DUP8 SHL OR DUP3 SSTORE JUMPDEST DUP8 MLOAD SWAP3 DUP4 GT PUSH3 0x3E2 JUMPI PUSH1 0x4 SWAP8 DUP9 SLOAD DUP8 DUP2 DUP2 SHR SWAP2 AND DUP1 ISZERO PUSH3 0x3D7 JUMPI JUMPDEST DUP12 DUP3 LT EQ PUSH3 0x3C2 JUMPI SWAP1 DUP2 DUP4 DUP7 SWAP6 SWAP5 SWAP4 GT PUSH3 0x368 JUMPI JUMPDEST POP DUP11 SWAP2 DUP5 GT PUSH1 0x1 EQ PUSH3 0x2FD JUMPI PUSH1 0x0 SWAP4 PUSH3 0x2F1 JUMPI JUMPDEST POP POP DUP3 DUP7 SHL SWAP3 PUSH1 0x0 NOT SWAP2 SHL SHR NOT AND OR DUP6 SSTORE JUMPDEST DUP3 PUSH1 0x6 SSTORE PUSH1 0xFF NOT SWAP4 DUP5 PUSH1 0x7 SLOAD AND PUSH1 0x7 SSTORE PUSH1 0x1 DUP1 PUSH1 0xA0 SHL SUB DUP1 SWAP4 AND SWAP6 DUP7 ISZERO DUP1 ISZERO PUSH3 0x2E6 JUMPI JUMPDEST DUP1 ISZERO PUSH3 0x2DB JUMPI JUMPDEST PUSH3 0x2CD JUMPI POP PUSH1 0x14 DUP1 SLOAD PUSH1 0x1 PUSH1 0x1 PUSH1 0xA0 SHL SUB NOT AND DUP8 OR SWAP1 SSTORE DUP3 AND PUSH1 0x80 MSTORE AND PUSH1 0xA0 MSTORE PUSH1 0x0 DUP1 DUP1 MSTORE PUSH1 0x5 DUP6 MSTORE DUP6 DUP2 KECCAK256 DUP5 DUP3 MSTORE DUP6 MSTORE DUP6 SWAP1 KECCAK256 SLOAD PUSH1 0xFF AND ISZERO PUSH3 0x292 JUMPI JUMPDEST PUSH32 0x828634D95E775031B9FF576B159A8509D3053581A8C9C4D7D86899E0AFCD882F SWAP4 DUP5 PUSH1 0x0 MSTORE PUSH1 0x5 DUP2 MSTORE DUP6 PUSH1 0x0 KECCAK256 DUP5 PUSH1 0x0 MSTORE DUP2 MSTORE PUSH1 0xFF DUP7 PUSH1 0x0 KECCAK256 SLOAD AND ISZERO PUSH3 0x254 JUMPI JUMPDEST DUP6 MLOAD PUSH2 0x3147 SWAP1 DUP2 PUSH3 0x598 DUP3 CODECOPY PUSH1 0x80 MLOAD DUP2 DUP2 DUP2 PUSH2 0x269 ADD MSTORE DUP2 DUP2 PUSH2 0x473 ADD MSTORE DUP2 DUP2 PUSH2 0x10EE ADD MSTORE DUP2 DUP2 PUSH2 0x14B3 ADD MSTORE PUSH2 0x1943 ADD MSTORE PUSH1 0xA0 MLOAD DUP2 DUP2 DUP2 PUSH2 0x61D ADD MSTORE DUP2 DUP2 PUSH2 0x148F ADD MSTORE PUSH2 0x180F ADD MSTORE RETURN JUMPDEST DUP5 PUSH1 0x0 MSTORE PUSH1 0x5 DUP2 MSTORE DUP6 PUSH1 0x0 KECCAK256 SWAP1 DUP5 PUSH1 0x0 MSTORE MSTORE DUP5 PUSH1 0x0 KECCAK256 SWAP2 DUP3 SLOAD AND OR SWAP1 SSTORE CALLER SWAP2 PUSH1 0x0 DUP1 MLOAD PUSH1 0x20 PUSH3 0x36DF DUP4 CODECOPY DUP2 MLOAD SWAP2 MSTORE PUSH1 0x0 DUP1 LOG4 CODESIZE DUP1 DUP1 DUP1 DUP1 PUSH3 0x209 JUMP JUMPDEST PUSH1 0x0 DUP1 MSTORE PUSH1 0x5 DUP5 MSTORE DUP5 PUSH1 0x0 KECCAK256 DUP4 PUSH1 0x0 MSTORE DUP5 MSTORE DUP5 PUSH1 0x0 KECCAK256 DUP2 DUP4 DUP3 SLOAD AND OR SWAP1 SSTORE CALLER DUP4 PUSH1 0x0 PUSH1 0x0 DUP1 MLOAD PUSH1 0x20 PUSH3 0x36DF DUP4 CODECOPY DUP2 MLOAD SWAP2 MSTORE DUP2 DUP1 LOG4 PUSH3 0x1C6 JUMP JUMPDEST DUP9 MLOAD PUSH4 0xD92E233D PUSH1 0xE0 SHL DUP2 MSTORE REVERT JUMPDEST POP DUP4 DUP4 AND ISZERO PUSH3 0x186 JUMP JUMPDEST POP DUP4 DUP3 AND ISZERO PUSH3 0x17E JUMP JUMPDEST ADD MLOAD SWAP2 POP CODESIZE DUP1 PUSH3 0x147 JUMP JUMPDEST SWAP2 SWAP1 DUP8 SWAP5 POP PUSH1 0x1F NOT DUP5 AND SWAP3 DUP11 PUSH1 0x0 MSTORE DUP12 PUSH1 0x0 KECCAK256 SWAP4 PUSH1 0x0 JUMPDEST DUP14 DUP3 DUP3 LT PUSH3 0x351 JUMPI POP POP DUP6 GT PUSH3 0x336 JUMPI JUMPDEST POP POP POP POP DUP2 SHL ADD DUP6 SSTORE PUSH3 0x159 JUMP JUMPDEST ADD MLOAD SWAP1 PUSH1 0xF8 DUP5 PUSH1 0x0 NOT SWAP3 SHL AND SHR NOT AND SWAP1 SSTORE CODESIZE DUP1 DUP1 DUP1 PUSH3 0x327 JUMP JUMPDEST DUP4 DUP6 ADD MLOAD DUP8 SSTORE DUP12 SWAP9 SWAP1 SWAP7 ADD SWAP6 SWAP4 DUP5 ADD SWAP4 ADD PUSH3 0x314 JUMP JUMPDEST SWAP1 SWAP2 SWAP3 SWAP4 POP DUP10 PUSH1 0x0 MSTORE DUP11 PUSH1 0x0 KECCAK256 DUP4 DUP1 DUP8 ADD PUSH1 0x5 SHR DUP3 ADD SWAP3 DUP14 DUP9 LT PUSH3 0x3B8 JUMPI JUMPDEST SWAP2 DUP11 SWAP2 DUP9 SWAP8 SWAP7 SWAP6 SWAP5 SWAP4 ADD PUSH1 0x5 SHR ADD SWAP2 JUMPDEST DUP3 DUP2 LT PUSH3 0x3A8 JUMPI POP POP PUSH3 0x131 JUMP JUMPDEST PUSH1 0x0 DUP2 SSTORE DUP8 SWAP7 POP DUP11 SWAP2 ADD PUSH3 0x398 JUMP JUMPDEST SWAP3 POP DUP2 SWAP3 PUSH3 0x388 JUMP JUMPDEST PUSH1 0x22 DUP11 PUSH4 0x4E487B71 PUSH1 0xE0 SHL PUSH1 0x0 MSTORE MSTORE PUSH1 0x24 PUSH1 0x0 REVERT JUMPDEST SWAP1 PUSH1 0x7F AND SWAP1 PUSH3 0x11A JUMP JUMPDEST PUSH4 0x4E487B71 PUSH1 0xE0 SHL PUSH1 0x0 MSTORE PUSH1 0x41 PUSH1 0x4 MSTORE PUSH1 0x24 PUSH1 0x0 REVERT JUMPDEST ADD MLOAD SWAP1 POP CODESIZE DUP1 PUSH3 0xEB JUMP JUMPDEST PUSH1 0x0 DUP7 DUP2 MSTORE DUP14 DUP2 KECCAK256 DUP12 SWAP6 POP SWAP3 SWAP2 SWAP1 PUSH1 0x1F NOT DUP6 AND SWAP1 DUP16 JUMPDEST DUP3 DUP3 LT PUSH3 0x453 JUMPI POP POP DUP5 GT PUSH3 0x43A JUMPI JUMPDEST POP POP POP DUP2 SHL ADD DUP3 SSTORE PUSH3 0xFD JUMP JUMPDEST ADD MLOAD PUSH1 0x0 NOT DUP4 DUP8 SHL PUSH1 0xF8 AND SHR NOT AND SWAP1 SSTORE CODESIZE DUP1 DUP1 PUSH3 0x42C JUMP JUMPDEST DUP4 DUP6 ADD MLOAD DUP7 SSTORE DUP14 SWAP8 SWAP1 SWAP6 ADD SWAP5 SWAP4 DUP5 ADD SWAP4 ADD DUP16 PUSH3 0x41A JUMP JUMPDEST SWAP1 SWAP2 SWAP3 POP DUP6 PUSH1 0x0 MSTORE DUP5 DUP3 PUSH1 0x0 KECCAK256 SWAP2 DUP2 DUP7 ADD PUSH1 0x5 SHR DUP4 ADD SWAP4 DUP7 LT PUSH3 0x4BA JUMPI JUMPDEST SWAP2 DUP12 SWAP2 DUP7 SWAP6 SWAP5 SWAP4 ADD PUSH1 0x5 SHR ADD SWAP2 JUMPDEST DUP3 DUP2 LT PUSH3 0x4AA JUMPI POP DUP14 SWAP2 POP PUSH3 0xD3 JUMP JUMPDEST PUSH1 0x0 DUP2 SSTORE DUP6 SWAP5 POP DUP12 SWAP2 ADD PUSH3 0x498 JUMP JUMPDEST SWAP3 POP DUP2 SWAP3 PUSH3 0x48A JUMP JUMPDEST PUSH4 0x4E487B71 PUSH1 0xE0 SHL PUSH1 0x0 MSTORE PUSH1 0x22 PUSH1 0x4 MSTORE PUSH1 0x24 PUSH1 0x0 REVERT JUMPDEST SWAP3 PUSH1 0x7F AND SWAP3 PUSH3 0xBB JUMP JUMPDEST PUSH1 0x0 DUP1 REVERT JUMPDEST PUSH1 0x40 MLOAD SWAP2 SWAP1 PUSH1 0x1F ADD PUSH1 0x1F NOT AND DUP3 ADD PUSH1 0x1 PUSH1 0x1 PUSH1 0x40 SHL SUB DUP2 GT DUP4 DUP3 LT OR PUSH3 0x3E2 JUMPI PUSH1 0x40 MSTORE JUMP JUMPDEST SWAP2 SWAP1 DUP1 PUSH1 0x1F DUP5 ADD SLT ISZERO PUSH3 0x4E5 JUMPI DUP3 MLOAD PUSH1 0x1 PUSH1 0x1 PUSH1 0x40 SHL SUB DUP2 GT PUSH3 0x3E2 JUMPI PUSH1 0x20 SWAP1 PUSH3 0x546 PUSH1 0x1F DUP3 ADD PUSH1 0x1F NOT AND DUP4 ADD PUSH3 0x4EA JUMP JUMPDEST SWAP3 DUP2 DUP5 MSTORE DUP3 DUP3 DUP8 ADD ADD GT PUSH3 0x4E5 JUMPI PUSH1 0x0 JUMPDEST DUP2 DUP2 LT PUSH3 0x56E JUMPI POP DUP3 PUSH1 0x0 SWAP4 SWAP5 SWAP6 POP ADD ADD MSTORE SWAP1 JUMP JUMPDEST DUP6 DUP2 ADD DUP4 ADD MLOAD DUP5 DUP3 ADD DUP5 ADD MSTORE DUP3 ADD PUSH3 0x558 JUMP JUMPDEST MLOAD SWAP1 PUSH1 0x1 PUSH1 0x1 PUSH1 0xA0 SHL SUB DUP3 AND DUP3 SUB PUSH3 0x4E5 JUMPI JUMP INVALID PUSH1 0x80 PUSH1 0x40 DUP2 DUP2 MSTORE PUSH1 0x4 SWAP2 DUP3 CALLDATASIZE LT ISZERO PUSH2 0x16 JUMPI PUSH1 0x0 DUP1 REVERT JUMPDEST PUSH1 0x0 SWAP3 DUP4 CALLDATALOAD PUSH1 0xE0 SHR SWAP2 DUP3 PUSH4 0x1FFC9A7 EQ PUSH2 0x2400 JUMPI POP DUP2 PUSH4 0x2D05D3F EQ PUSH2 0x23D7 JUMPI DUP2 PUSH4 0x6FDDE03 EQ PUSH2 0x22E2 JUMPI DUP2 PUSH4 0x7E2CEA5 EQ PUSH2 0x22A7 JUMPI DUP2 PUSH4 0x812530E EQ PUSH2 0x21F9 JUMPI DUP2 PUSH4 0x95EA7B3 EQ PUSH2 0x21CF JUMPI DUP2 PUSH4 0x14AD21D8 EQ PUSH2 0x21B0 JUMPI DUP2 PUSH4 0x18160DDD EQ PUSH2 0x2191 JUMPI DUP2 PUSH4 0x22DCD13E EQ PUSH2 0x2172 JUMPI DUP2 PUSH4 0x23B872DD EQ PUSH2 0x20A8 JUMPI DUP2 PUSH4 0x248A9CA3 EQ PUSH2 0x207D JUMPI DUP2 PUSH4 0x2E5CFC1C EQ PUSH2 0x205E JUMPI DUP2 PUSH4 0x2F2FF15D EQ PUSH2 0x1FC3 JUMPI DUP2 PUSH4 0x30CFB08A EQ PUSH2 0x1F85 JUMPI DUP2 PUSH4 0x313CE567 EQ PUSH2 0x1F69 JUMPI DUP2 PUSH4 0x36568ABE EQ PUSH2 0x1ED7 JUMPI DUP2 PUSH4 0x39509351 EQ PUSH2 0x1E87 JUMPI DUP2 PUSH4 0x3990F01E EQ PUSH2 0x1CB0 JUMPI DUP2 PUSH4 0x3B14B992 EQ PUSH2 0x1C91 JUMPI DUP2 PUSH4 0x3F4BA83A EQ PUSH2 0x1BFB JUMPI DUP2 PUSH4 0x44AB961F EQ PUSH2 0x18C2 JUMPI DUP2 PUSH4 0x50AEC25C EQ PUSH2 0x18A0 JUMPI DUP2 PUSH4 0x5567A03A EQ PUSH2 0x1881 JUMPI DUP2 PUSH4 0x5A3E7152 EQ PUSH2 0x1862 JUMPI DUP2 PUSH4 0x5C975ABB EQ PUSH2 0x183E JUMPI DUP2 PUSH4 0x61D027B3 EQ PUSH2 0x17FA JUMPI DUP2 PUSH4 0x685D34FF EQ PUSH2 0x17BF JUMPI DUP2 PUSH4 0x70A08231 EQ PUSH2 0x1788 JUMPI DUP2 PUSH4 0x8456CB59 EQ PUSH2 0x172D JUMPI DUP2 PUSH4 0x8AEDA25A EQ PUSH2 0x16F2 JUMPI DUP2 PUSH4 0x8D3F259D EQ PUSH2 0xF20 JUMPI DUP2 PUSH4 0x91D14854 EQ PUSH2 0xEDA JUMPI DUP2 PUSH4 0x95A078E8 EQ PUSH2 0xE9E JUMPI DUP2 PUSH4 0x95D89B41 EQ PUSH2 0xD9B JUMPI DUP2 PUSH4 0x9BFB82C1 EQ PUSH2 0xB24 JUMPI DUP2 PUSH4 0xA10954FE EQ PUSH2 0xB05 JUMPI DUP2 PUSH4 0xA217FDDF EQ PUSH2 0xAEA JUMPI DUP2 PUSH4 0xA457C2D7 EQ PUSH2 0xA43 JUMPI DUP2 PUSH4 0xA9059CBB EQ PUSH2 0xA12 JUMPI DUP2 PUSH4 0xB36ECD16 EQ PUSH2 0x9F3 JUMPI DUP2 PUSH4 0xB390452C EQ PUSH2 0x93F JUMPI DUP2 PUSH4 0xB4F40C61 EQ PUSH2 0x920 JUMPI DUP2 PUSH4 0xBAC21A22 EQ PUSH2 0x901 JUMPI DUP2 PUSH4 0xC7876EA4 EQ PUSH2 0x8E2 JUMPI DUP2 PUSH4 0xCA6AAA10 EQ PUSH2 0x844 JUMPI DUP2 PUSH4 0xD547741F EQ PUSH2 0x801 JUMPI DUP2 PUSH4 0xDD62ED3E EQ PUSH2 0x7B3 JUMPI DUP2 PUSH4 0xDE19A071 EQ PUSH2 0x372 JUMPI DUP2 PUSH4 0xE2D3095E EQ PUSH2 0x353 JUMPI DUP2 PUSH4 0xEB91D37E EQ PUSH2 0x29C JUMPI POP PUSH4 0xF4325D67 EQ PUSH2 0x256 JUMPI PUSH1 0x0 DUP1 REVERT JUMPDEST CALLVALUE PUSH2 0x298 JUMPI DUP2 PUSH1 0x3 NOT CALLDATASIZE ADD SLT PUSH2 0x298 JUMPI MLOAD PUSH32 0x0 PUSH1 0x1 PUSH1 0x1 PUSH1 0xA0 SHL SUB AND DUP2 MSTORE PUSH1 0x20 SWAP1 RETURN JUMPDEST POP DUP1 REVERT JUMPDEST DUP4 DUP4 CALLVALUE PUSH2 0x298 JUMPI DUP2 PUSH1 0x3 NOT CALLDATASIZE ADD SLT PUSH2 0x298 JUMPI PUSH1 0x2 SLOAD PUSH1 0x8 SLOAD PUSH1 0x9 SLOAD DUP4 MLOAD PUSH4 0x47ABA2C3 PUSH1 0xE1 SHL DUP2 MSTORE SWAP6 DUP7 ADD SWAP3 DUP4 MSTORE PUSH1 0x20 DUP4 DUP2 ADD SWAP3 SWAP1 SWAP3 MSTORE PUSH1 0x40 DUP4 ADD MSTORE SWAP1 DUP5 SWAP1 DUP2 SWAP1 PUSH1 0x60 ADD SUB DUP2 PUSH20 0x0 GAS DELEGATECALL SWAP2 DUP3 ISZERO PUSH2 0x348 JUMPI SWAP2 PUSH2 0x30F JUMPI JUMPDEST PUSH1 0x20 SWAP3 POP MLOAD SWAP1 DUP2 MSTORE RETURN JUMPDEST SWAP1 POP PUSH1 0x20 DUP3 RETURNDATASIZE DUP3 GT PUSH2 0x340 JUMPI JUMPDEST DUP2 PUSH2 0x329 PUSH1 0x20 SWAP4 DUP4 PUSH2 0x2564 JUMP JUMPDEST DUP2 ADD SUB SLT PUSH2 0x33B JUMPI PUSH1 0x20 SWAP2 MLOAD SWAP1 PUSH2 0x305 JUMP JUMPDEST PUSH1 0x0 DUP1 REVERT JUMPDEST RETURNDATASIZE SWAP2 POP PUSH2 0x31C JUMP JUMPDEST SWAP1 MLOAD SWAP1 RETURNDATASIZE SWAP1 DUP3 RETURNDATACOPY RETURNDATASIZE SWAP1 REVERT JUMPDEST POP POP CALLVALUE PUSH2 0x298 JUMPI DUP2 PUSH1 0x3 NOT CALLDATASIZE ADD SLT PUSH2 0x298 JUMPI PUSH1 0x20 SWAP1 PUSH1 0xF SLOAD SWAP1 MLOAD SWAP1 DUP2 MSTORE RETURN JUMPDEST DUP3 DUP5 CALLVALUE PUSH2 0x7B0 JUMPI PUSH2 0x382 CALLDATASIZE PUSH2 0x25E9 JUMP JUMPDEST SWAP4 SWAP2 SWAP1 SWAP3 PUSH2 0x38E PUSH2 0x2D93 JUMP JUMPDEST PUSH2 0x396 PUSH2 0x2D4F JUMP JUMPDEST DUP2 ISZERO PUSH2 0x7A0 JUMPI PUSH1 0x1 PUSH1 0x1 PUSH1 0xA0 SHL SUB SWAP5 DUP6 AND DUP1 ISZERO PUSH2 0x790 JUMPI SWAP6 PUSH2 0x40B SWAP5 SWAP6 SWAP7 PUSH20 0x0 SWAP1 PUSH1 0x2 SLOAD SWAP8 PUSH1 0x8 SLOAD SWAP9 DUP7 PUSH1 0x9 SLOAD DUP10 MLOAD SWAP11 DUP12 SWAP3 DUP4 SWAP3 PUSH4 0xF607F64B PUSH1 0xE0 SHL DUP5 MSTORE PUSH1 0x20 SWAP15 DUP16 SWAP7 DUP12 DUP7 ADD SWAP1 SWAP5 SWAP4 SWAP3 PUSH1 0x60 SWAP3 PUSH1 0x80 DUP4 ADD SWAP7 DUP4 MSTORE PUSH1 0x20 DUP4 ADD MSTORE PUSH1 0x40 DUP3 ADD MSTORE ADD MSTORE JUMP JUMPDEST SUB DUP2 DUP7 GAS DELEGATECALL SWAP8 DUP9 ISZERO PUSH2 0x786 JUMPI DUP6 SWAP9 PUSH2 0x757 JUMPI JUMPDEST POP DUP1 DUP9 LT PUSH2 0x73B JUMPI POP PUSH2 0x433 DUP8 PUSH1 0x2 SLOAD PUSH2 0x297C JUMP JUMPDEST PUSH1 0xA SLOAD LT PUSH2 0x72B JUMPI DUP8 SWAP9 PUSH2 0x2710 DUP1 PUSH2 0x44D PUSH1 0xD SLOAD DUP10 PUSH2 0x2C0F JUMP JUMPDEST DIV SWAP1 PUSH2 0x45B PUSH1 0xB SLOAD DUP10 PUSH2 0x2C0F JUMP JUMPDEST DIV PUSH2 0x466 DUP2 DUP4 PUSH2 0x297C JUMP JUMPDEST PUSH2 0x470 DUP2 DUP11 PUSH2 0x2D42 JUMP JUMPDEST SWAP4 PUSH32 0x0 SWAP2 DUP12 MLOAD SWAP15 DUP16 SWAP1 PUSH4 0x23B872DD PUSH1 0xE0 SHL SWAP1 DUP3 ADD MSTORE CALLER PUSH1 0x24 DUP3 ADD MSTORE ADDRESS PUSH1 0x44 DUP3 ADD MSTORE DUP12 PUSH1 0x64 DUP3 ADD MSTORE PUSH1 0x64 DUP2 MSTORE PUSH1 0xA0 DUP2 ADD SWAP1 DUP2 LT PUSH8 0xFFFFFFFFFFFFFFFF DUP3 GT OR PUSH2 0x716 JUMPI DUP15 SWAP16 DUP14 SWAP15 SWAP16 SWAP11 SWAP12 SWAP13 SWAP14 SWAP2 PUSH2 0x4E6 SWAP3 MSTORE DUP5 PUSH2 0x2F27 JUMP JUMPDEST DUP1 PUSH2 0x60E JUMPI JUMPDEST POP POP POP POP POP PUSH2 0x4FD SWAP1 PUSH1 0x16 SLOAD PUSH2 0x297C JUMP JUMPDEST PUSH1 0x16 SSTORE PUSH2 0x50C DUP9 PUSH1 0x2 SLOAD PUSH2 0x297C JUMP JUMPDEST PUSH1 0x2 SSTORE DUP1 DUP6 MSTORE DUP5 DUP4 MSTORE DUP7 DUP6 KECCAK256 DUP9 DUP2 SLOAD ADD SWAP1 SSTORE DUP5 PUSH32 0xDDF252AD1BE2C89B69C2B068FC378DAA952BA7F163C4A11628F55A4DF523B3EF DUP5 DUP10 MLOAD DUP12 DUP2 MSTORE LOG3 PUSH1 0x2 SLOAD PUSH1 0x8 SLOAD PUSH1 0x9 SLOAD DUP9 MLOAD PUSH4 0x47ABA2C3 PUSH1 0xE1 SHL DUP2 MSTORE SWAP6 DUP7 ADD SWAP3 DUP4 MSTORE PUSH1 0x20 DUP4 ADD SWAP2 SWAP1 SWAP2 MSTORE PUSH1 0x40 DUP3 ADD MSTORE DUP4 SWAP2 SWAP1 DUP3 SWAP1 DUP2 SWAP1 PUSH1 0x60 ADD SUB SWAP2 GAS DELEGATECALL SWAP2 DUP3 ISZERO PUSH2 0x603 JUMPI SWAP2 PUSH2 0x5D4 JUMPI JUMPDEST POP DUP3 MLOAD SWAP2 DUP3 MSTORE PUSH1 0x20 DUP3 ADD DUP5 SWAP1 MSTORE PUSH1 0x40 DUP3 ADD MSTORE CALLER SWAP1 PUSH32 0xBEAE048C6D270D9469F86CF6E8FEDDA3C60AD770F16C24C9FC131C8E9A09101D SWAP1 DUP1 PUSH1 0x60 DUP2 ADD JUMPDEST SUB SWAP1 LOG2 PUSH1 0x1 PUSH1 0x6 SSTORE MLOAD SWAP1 DUP2 MSTORE RETURN JUMPDEST SWAP1 POP DUP5 DUP2 DUP2 RETURNDATASIZE DUP4 GT PUSH2 0x5FC JUMPI JUMPDEST PUSH2 0x5EB DUP2 DUP4 PUSH2 0x2564 JUMP JUMPDEST DUP2 ADD SUB SLT PUSH2 0x33B JUMPI MLOAD PUSH2 0x5C6 PUSH2 0x58A JUMP JUMPDEST POP RETURNDATASIZE PUSH2 0x5E1 JUMP JUMPDEST DUP5 MLOAD SWAP1 RETURNDATASIZE SWAP1 DUP3 RETURNDATACOPY RETURNDATASIZE SWAP1 REVERT JUMPDEST DUP2 PUSH2 0x644 SWAP3 SWAP4 SWAP5 SWAP6 SWAP7 SWAP8 SWAP9 SWAP10 POP PUSH32 0x0 AND DUP1 SWAP5 PUSH2 0x2DE9 JUMP JUMPDEST PUSH1 0x14 SLOAD AND DUP2 EXTCODESIZE ISZERO PUSH2 0x712 JUMPI DUP11 MLOAD PUSH4 0xE542D53 PUSH1 0xE3 SHL DUP2 MSTORE PUSH1 0x1 PUSH1 0x1 PUSH1 0xA0 SHL SUB SWAP1 SWAP2 AND DUP2 DUP10 ADD SWAP1 DUP2 MSTORE PUSH1 0x20 DUP2 ADD DUP5 SWAP1 MSTORE PUSH1 0x40 DUP2 ADD DUP6 SWAP1 MSTORE SWAP1 SWAP2 DUP10 SWAP2 DUP4 SWAP2 SWAP1 DUP3 SWAP1 DUP5 SWAP1 DUP3 SWAP1 PUSH1 0x60 ADD SUB SWAP3 GAS CALL DUP1 ISZERO PUSH2 0x708 JUMPI SWAP2 DUP9 DUP14 SWAP8 SWAP7 SWAP6 SWAP5 SWAP3 DUP13 SWAP5 PUSH2 0x6E0 JUMPI JUMPDEST POP POP DUP3 MLOAD SWAP2 DUP3 MSTORE DUP7 DUP3 ADD MSTORE PUSH2 0x4FD SWAP3 SWAP2 PUSH32 0x135AAC89C93C469DC7548F8C6DD01DD955E485064D5984C9DB0296457BAF2C73 SWAP2 LOG1 SWAP1 DUP12 DUP1 DUP1 DUP1 PUSH2 0x4EC JUMP JUMPDEST SWAP1 SWAP3 SWAP5 SWAP6 SWAP7 SWAP8 POP PUSH2 0x6F2 SWAP2 SWAP4 POP PUSH2 0x251E JUMP JUMPDEST PUSH2 0x704 JUMPI DUP11 SWAP5 SWAP4 SWAP3 SWAP2 DUP10 SWAP2 DUP9 DUP15 PUSH2 0x6A3 JUMP JUMPDEST DUP7 DUP1 REVERT JUMPDEST DUP11 MLOAD RETURNDATASIZE DUP11 DUP3 RETURNDATACOPY RETURNDATASIZE SWAP1 REVERT JUMPDEST DUP9 DUP1 REVERT JUMPDEST PUSH1 0x41 DUP11 PUSH4 0x4E487B71 PUSH1 0xE0 SHL PUSH1 0x0 MSTORE MSTORE PUSH1 0x24 PUSH1 0x0 REVERT JUMPDEST DUP6 MLOAD PUSH4 0x27F34DA7 PUSH1 0xE1 SHL DUP2 MSTORE DUP4 SWAP1 REVERT JUMPDEST DUP4 DUP9 PUSH1 0x44 SWAP3 DUP10 MLOAD SWAP3 PUSH4 0x71C4EFED PUSH1 0xE0 SHL DUP5 MSTORE DUP4 ADD MSTORE PUSH1 0x24 DUP3 ADD MSTORE REVERT JUMPDEST SWAP1 SWAP8 POP DUP9 DUP2 DUP2 RETURNDATASIZE DUP4 GT PUSH2 0x77F JUMPI JUMPDEST PUSH2 0x76F DUP2 DUP4 PUSH2 0x2564 JUMP JUMPDEST DUP2 ADD SUB SLT PUSH2 0x33B JUMPI MLOAD SWAP7 DUP11 PUSH2 0x41E JUMP JUMPDEST POP RETURNDATASIZE PUSH2 0x765 JUMP JUMPDEST DUP8 MLOAD RETURNDATASIZE DUP8 DUP3 RETURNDATACOPY RETURNDATASIZE SWAP1 REVERT JUMPDEST DUP4 MLOAD PUSH4 0xD92E233D PUSH1 0xE0 SHL DUP2 MSTORE DUP8 SWAP1 REVERT JUMPDEST DUP3 MLOAD PUSH4 0x162908E3 PUSH1 0xE1 SHL DUP2 MSTORE DUP7 SWAP1 REVERT JUMPDEST DUP1 REVERT JUMPDEST POP POP CALLVALUE PUSH2 0x298 JUMPI DUP1 PUSH1 0x3 NOT CALLDATASIZE ADD SLT PUSH2 0x298 JUMPI PUSH1 0x20 SWAP2 PUSH2 0x7D0 PUSH2 0x24A2 JUMP JUMPDEST DUP3 PUSH2 0x7D9 PUSH2 0x24B8 JUMP JUMPDEST PUSH1 0x1 PUSH1 0x1 PUSH1 0xA0 SHL SUB SWAP3 DUP4 AND DUP5 MSTORE PUSH1 0x1 DUP7 MSTORE SWAP3 KECCAK256 SWAP2 AND PUSH1 0x0 SWAP1 DUP2 MSTORE SWAP1 DUP4 MSTORE DUP2 SWAP1 KECCAK256 SLOAD SWAP1 MLOAD SWAP1 DUP2 MSTORE RETURN JUMPDEST SWAP2 SWAP1 POP CALLVALUE PUSH2 0x840 JUMPI DUP1 PUSH1 0x3 NOT CALLDATASIZE ADD SLT PUSH2 0x840 JUMPI PUSH2 0x83D SWAP2 CALLDATALOAD PUSH2 0x838 PUSH1 0x1 PUSH2 0x826 PUSH2 0x24B8 JUMP JUMPDEST SWAP4 DUP4 DUP8 MSTORE PUSH1 0x5 PUSH1 0x20 MSTORE DUP7 KECCAK256 ADD SLOAD PUSH2 0x27FC JUMP JUMPDEST PUSH2 0x2906 JUMP JUMPDEST DUP1 RETURN JUMPDEST DUP3 DUP1 REVERT JUMPDEST DUP3 DUP5 CALLVALUE PUSH2 0x7B0 JUMPI DUP1 PUSH1 0x3 NOT CALLDATASIZE ADD SLT PUSH2 0x7B0 JUMPI PUSH2 0x862 PUSH1 0xF SLOAD TIMESTAMP PUSH2 0x2D42 JUMP JUMPDEST PUSH1 0x12 SLOAD SWAP3 SWAP1 DUP3 JUMPDEST DUP5 DUP2 LT PUSH2 0x89D JUMPI PUSH1 0x60 DUP5 DUP5 PUSH2 0x2710 PUSH2 0x886 PUSH1 0x2 SLOAD PUSH1 0x10 SLOAD SWAP1 PUSH2 0x2C0F JUMP JUMPDEST DIV SWAP1 PUSH1 0x11 SLOAD TIMESTAMP LT SWAP2 DUP2 MLOAD SWAP4 DUP5 MSTORE PUSH1 0x20 DUP5 ADD MSTORE DUP3 ADD MSTORE RETURN JUMPDEST DUP2 PUSH1 0x1 PUSH2 0x8A9 DUP4 PUSH2 0x24CE JUMP JUMPDEST POP ADD SLOAD LT ISZERO PUSH2 0x8C1 JUMPI JUMPDEST PUSH2 0x8BC SWAP1 PUSH2 0x30E2 JUMP JUMPDEST PUSH2 0x869 JUMP JUMPDEST SWAP3 PUSH2 0x8DA PUSH2 0x8BC SWAP2 PUSH2 0x8D2 DUP7 PUSH2 0x24CE JUMP JUMPDEST POP SLOAD SWAP1 PUSH2 0x297C JUMP JUMPDEST SWAP4 SWAP1 POP PUSH2 0x8B3 JUMP JUMPDEST POP POP CALLVALUE PUSH2 0x298 JUMPI DUP2 PUSH1 0x3 NOT CALLDATASIZE ADD SLT PUSH2 0x298 JUMPI PUSH1 0x20 SWAP1 PUSH1 0x8 SLOAD SWAP1 MLOAD SWAP1 DUP2 MSTORE RETURN JUMPDEST POP POP CALLVALUE PUSH2 0x298 JUMPI DUP2 PUSH1 0x3 NOT CALLDATASIZE ADD SLT PUSH2 0x298 JUMPI PUSH1 0x20 SWAP1 PUSH1 0xA SLOAD SWAP1 MLOAD SWAP1 DUP2 MSTORE RETURN JUMPDEST POP POP CALLVALUE PUSH2 0x298 JUMPI DUP2 PUSH1 0x3 NOT CALLDATASIZE ADD SLT PUSH2 0x298 JUMPI PUSH1 0x20 SWAP1 PUSH1 0x9 SLOAD SWAP1 MLOAD SWAP1 DUP2 MSTORE RETURN JUMPDEST DUP4 DUP4 CALLVALUE PUSH2 0x298 JUMPI PUSH1 0x20 SWAP3 DUP4 PUSH1 0x3 NOT CALLDATASIZE ADD SLT PUSH2 0x840 JUMPI PUSH1 0x2 SLOAD PUSH1 0x8 SLOAD PUSH1 0x9 SLOAD DUP5 MLOAD PUSH4 0xF607F64B PUSH1 0xE0 SHL DUP2 MSTORE DUP1 DUP6 ADD SWAP4 DUP5 MSTORE PUSH1 0x20 DUP5 ADD SWAP3 SWAP1 SWAP3 MSTORE PUSH1 0x40 DUP4 ADD MSTORE SWAP2 CALLDATALOAD PUSH1 0x60 DUP3 ADD MSTORE DUP5 SWAP1 DUP3 SWAP1 DUP2 SWAP1 PUSH1 0x80 ADD SUB DUP2 PUSH20 0x0 GAS DELEGATECALL SWAP3 DUP4 ISZERO PUSH2 0x9E8 JUMPI SWAP3 PUSH2 0x9B9 JUMPI JUMPDEST POP MLOAD SWAP1 DUP2 MSTORE RETURN JUMPDEST SWAP1 SWAP2 POP DUP3 DUP2 DUP2 RETURNDATASIZE DUP4 GT PUSH2 0x9E1 JUMPI JUMPDEST PUSH2 0x9D1 DUP2 DUP4 PUSH2 0x2564 JUMP JUMPDEST DUP2 ADD SUB SLT PUSH2 0x33B JUMPI MLOAD SWAP1 DUP4 PUSH2 0x9B2 JUMP JUMPDEST POP RETURNDATASIZE PUSH2 0x9C7 JUMP JUMPDEST DUP3 MLOAD SWAP1 RETURNDATASIZE SWAP1 DUP3 RETURNDATACOPY RETURNDATASIZE SWAP1 REVERT JUMPDEST POP POP CALLVALUE PUSH2 0x298 JUMPI DUP2 PUSH1 0x3 NOT CALLDATASIZE ADD SLT PUSH2 0x298 JUMPI PUSH1 0x20 SWAP1 PUSH1 0x11 SLOAD SWAP1 MLOAD SWAP1 DUP2 MSTORE RETURN JUMPDEST POP POP CALLVALUE PUSH2 0x298 JUMPI DUP1 PUSH1 0x3 NOT CALLDATASIZE ADD SLT PUSH2 0x298 JUMPI PUSH1 0x20 SWAP1 PUSH2 0xA3C PUSH2 0xA32 PUSH2 0x24A2 JUMP JUMPDEST PUSH1 0x24 CALLDATALOAD SWAP1 CALLER PUSH2 0x299F JUMP JUMPDEST MLOAD PUSH1 0x1 DUP2 MSTORE RETURN JUMPDEST SWAP1 POP DUP3 CALLVALUE PUSH2 0x7B0 JUMPI DUP3 PUSH1 0x3 NOT CALLDATASIZE ADD SLT PUSH2 0x7B0 JUMPI PUSH2 0xA5E PUSH2 0x24A2 JUMP JUMPDEST SWAP2 DUP4 PUSH1 0x24 CALLDATALOAD SWAP3 CALLER DUP2 MSTORE PUSH1 0x1 PUSH1 0x20 MSTORE KECCAK256 PUSH1 0x1 DUP1 PUSH1 0xA0 SHL SUB DUP5 AND PUSH1 0x0 MSTORE PUSH1 0x20 MSTORE DUP4 PUSH1 0x0 KECCAK256 SLOAD SWAP1 DUP3 DUP3 LT PUSH2 0xA99 JUMPI PUSH1 0x20 DUP6 PUSH2 0xA3C DUP6 DUP6 SUB DUP8 CALLER PUSH2 0x2B0D JUMP JUMPDEST PUSH1 0x84 SWAP1 PUSH1 0x20 DUP7 MLOAD SWAP2 PUSH3 0x461BCD PUSH1 0xE5 SHL DUP4 MSTORE DUP3 ADD MSTORE PUSH1 0x25 PUSH1 0x24 DUP3 ADD MSTORE PUSH32 0x45524332303A2064656372656173656420616C6C6F77616E63652062656C6F77 PUSH1 0x44 DUP3 ADD MSTORE PUSH5 0x207A65726F PUSH1 0xD8 SHL PUSH1 0x64 DUP3 ADD MSTORE REVERT JUMPDEST POP POP CALLVALUE PUSH2 0x298 JUMPI DUP2 PUSH1 0x3 NOT CALLDATASIZE ADD SLT PUSH2 0x298 JUMPI MLOAD SWAP1 DUP2 MSTORE PUSH1 0x20 SWAP1 RETURN JUMPDEST POP POP CALLVALUE PUSH2 0x298 JUMPI DUP2 PUSH1 0x3 NOT CALLDATASIZE ADD SLT PUSH2 0x298 JUMPI PUSH1 0x20 SWAP1 PUSH1 0x16 SLOAD SWAP1 MLOAD SWAP1 DUP2 MSTORE RETURN JUMPDEST SWAP1 POP CALLVALUE PUSH2 0x840 JUMPI PUSH1 0x20 DUP1 PUSH1 0x3 NOT CALLDATASIZE ADD SLT PUSH2 0xD97 JUMPI DUP2 CALLDATALOAD SWAP2 PUSH32 0x828634D95E775031B9FF576B159A8509D3053581A8C9C4D7D86899E0AFCD882F DUP1 PUSH1 0x0 MSTORE PUSH1 0x5 DUP4 MSTORE DUP5 PUSH1 0x0 KECCAK256 CALLER PUSH1 0x0 MSTORE DUP4 MSTORE PUSH1 0xFF DUP6 PUSH1 0x0 KECCAK256 SLOAD AND ISZERO PUSH2 0xBD3 JUMPI DUP6 PUSH32 0x12C9DCCD129FF783F1C8228EACDFA8E334DDECB7EC5C9A79EC662A4AED3D012A PUSH1 0x80 DUP8 DUP8 DUP8 DUP2 PUSH1 0x15 SSTORE PUSH1 0x12 DUP4 MLOAD SWAP4 DUP1 DUP6 MSTORE DUP5 ADD MSTORE PUSH18 0x6D696E546F6B656E73466F72416363657373 PUSH1 0x70 SHL PUSH1 0x60 DUP5 ADD MSTORE DUP3 ADD MSTORE LOG1 DUP1 RETURN JUMPDEST SWAP1 SWAP3 POP PUSH2 0xBDF CALLER PUSH2 0x2C33 JUMP JUMPDEST DUP5 MLOAD SWAP1 PUSH2 0xBEB DUP3 PUSH2 0x2548 JUMP JUMPDEST PUSH1 0x42 DUP3 MSTORE DUP4 DUP3 ADD SWAP3 PUSH1 0x60 CALLDATASIZE DUP6 CALLDATACOPY DUP3 MLOAD ISZERO PUSH2 0xD82 JUMPI PUSH1 0x30 DUP5 MSTORE8 DUP3 MLOAD PUSH1 0x1 SWAP1 DUP2 LT ISZERO PUSH2 0xD6D JUMPI PUSH1 0x78 PUSH1 0x21 DUP6 ADD MSTORE8 PUSH1 0x41 SWAP1 JUMPDEST DUP1 DUP3 GT PUSH2 0xD00 JUMPI POP POP PUSH2 0xCBE JUMPI PUSH2 0xCBA SWAP4 DUP7 SWAP4 PUSH2 0xCA6 SWAP4 PUSH2 0xC97 PUSH1 0x48 SWAP5 PUSH2 0xC6E SWAP11 MLOAD SWAP11 DUP6 PUSH23 0x20B1B1B2B9B9A1B7B73A3937B61D1030B1B1B7BAB73A1 PUSH1 0x4D SHL DUP14 SWAP8 DUP9 ADD MSTORE DUP3 MLOAD SWAP3 DUP4 SWAP2 PUSH1 0x37 DUP10 ADD SWAP2 ADD PUSH2 0x2453 JUMP JUMPDEST DUP5 ADD SWAP2 PUSH17 0x1034B99036B4B9B9B4B733903937B6329 PUSH1 0x7D SHL PUSH1 0x37 DUP5 ADD MSTORE MLOAD DUP1 SWAP4 DUP7 DUP5 ADD SWAP1 PUSH2 0x2453 JUMP JUMPDEST ADD SUB PUSH1 0x28 DUP2 ADD DUP8 MSTORE ADD DUP6 PUSH2 0x2564 JUMP JUMPDEST MLOAD PUSH3 0x461BCD PUSH1 0xE5 SHL DUP2 MSTORE SWAP3 DUP4 SWAP3 DUP4 ADD PUSH2 0x2476 JUMP JUMPDEST SUB SWAP1 REVERT JUMPDEST POP POP POP DUP1 PUSH1 0x64 SWAP4 MLOAD SWAP3 PUSH3 0x461BCD PUSH1 0xE5 SHL DUP5 MSTORE DUP4 ADD MSTORE PUSH1 0x24 DUP3 ADD MSTORE PUSH32 0x537472696E67733A20686578206C656E67746820696E73756666696369656E74 PUSH1 0x44 DUP3 ADD MSTORE REVERT JUMPDEST SWAP1 SWAP2 PUSH1 0xF DUP2 AND PUSH1 0x10 DUP2 LT ISZERO PUSH2 0xD58 JUMPI PUSH16 0x181899199A1A9B1B9C1CB0B131B232B3 PUSH1 0x81 SHL SWAP1 BYTE PUSH2 0xD2F DUP5 DUP8 PUSH2 0x2C22 JUMP JUMPDEST MSTORE8 DUP8 SHR SWAP2 DUP1 ISZERO PUSH2 0xD43 JUMPI PUSH1 0x0 NOT ADD SWAP1 PUSH2 0xC1A JUMP JUMPDEST PUSH1 0x11 DUP9 PUSH4 0x4E487B71 PUSH1 0xE0 SHL PUSH1 0x0 MSTORE MSTORE PUSH1 0x24 PUSH1 0x0 REVERT JUMPDEST PUSH1 0x32 DUP10 PUSH4 0x4E487B71 PUSH1 0xE0 SHL PUSH1 0x0 MSTORE MSTORE PUSH1 0x24 PUSH1 0x0 REVERT JUMPDEST PUSH1 0x32 DUP8 PUSH4 0x4E487B71 PUSH1 0xE0 SHL PUSH1 0x0 MSTORE MSTORE PUSH1 0x24 PUSH1 0x0 REVERT JUMPDEST PUSH1 0x32 DUP7 PUSH4 0x4E487B71 PUSH1 0xE0 SHL PUSH1 0x0 MSTORE MSTORE PUSH1 0x24 PUSH1 0x0 REVERT JUMPDEST DUP4 DUP1 REVERT JUMPDEST DUP4 DUP4 CALLVALUE PUSH2 0x298 JUMPI DUP2 PUSH1 0x3 NOT CALLDATASIZE ADD SLT PUSH2 0x298 JUMPI DUP1 MLOAD SWAP2 DUP1 SWAP4 DUP1 SLOAD SWAP2 PUSH1 0x1 SWAP1 DUP4 DUP3 SHR SWAP3 DUP3 DUP6 AND SWAP5 DUP6 ISZERO PUSH2 0xE94 JUMPI JUMPDEST PUSH1 0x20 SWAP6 DUP7 DUP7 LT DUP2 EQ PUSH2 0xE81 JUMPI DUP6 DUP10 MSTORE SWAP1 DUP2 ISZERO PUSH2 0xE5D JUMPI POP PUSH1 0x1 EQ PUSH2 0xE05 JUMPI JUMPDEST PUSH2 0xE01 DUP8 DUP8 PUSH2 0xDF7 DUP3 DUP13 SUB DUP4 PUSH2 0x2564 JUMP JUMPDEST MLOAD SWAP2 DUP3 SWAP2 DUP3 PUSH2 0x2476 JUMP JUMPDEST SUB SWAP1 RETURN JUMPDEST DUP2 MSTORE SWAP3 SWAP6 POP PUSH32 0x8A35ACFBC15FF81A39AE7D344FD709F28E8600B4AA8C65C6B64BFE7FE36BD19B JUMPDEST DUP3 DUP5 LT PUSH2 0xE4A JUMPI POP POP POP DUP3 PUSH2 0xE01 SWAP5 PUSH2 0xDF7 SWAP3 DUP3 ADD ADD SWAP5 DUP7 DUP1 PUSH2 0xDE6 JUMP JUMPDEST DUP1 SLOAD DUP7 DUP6 ADD DUP9 ADD MSTORE SWAP3 DUP7 ADD SWAP3 DUP2 ADD PUSH2 0xE2C JUMP JUMPDEST PUSH1 0xFF NOT AND DUP9 DUP8 ADD MSTORE POP POP POP POP ISZERO ISZERO PUSH1 0x5 SHL DUP4 ADD ADD SWAP3 POP PUSH2 0xDF7 DUP3 PUSH2 0xE01 DUP7 DUP1 PUSH2 0xDE6 JUMP JUMPDEST PUSH4 0x4E487B71 PUSH1 0xE0 SHL DUP5 MSTORE PUSH1 0x22 DUP4 MSTORE PUSH1 0x24 DUP5 REVERT JUMPDEST SWAP4 PUSH1 0x7F AND SWAP4 PUSH2 0xDC7 JUMP JUMPDEST POP POP CALLVALUE PUSH2 0x298 JUMPI PUSH1 0x20 CALLDATASIZE PUSH1 0x3 NOT ADD SLT PUSH2 0x298 JUMPI PUSH1 0x20 SWAP2 DUP2 SWAP1 PUSH1 0x1 PUSH1 0x1 PUSH1 0xA0 SHL SUB PUSH2 0xEC6 PUSH2 0x24A2 JUMP JUMPDEST AND DUP2 MSTORE DUP1 DUP5 MSTORE KECCAK256 SLOAD PUSH1 0x15 SLOAD GT ISZERO SWAP1 MLOAD SWAP1 DUP2 MSTORE RETURN JUMPDEST SWAP1 POP CALLVALUE PUSH2 0x840 JUMPI DUP2 PUSH1 0x3 NOT CALLDATASIZE ADD SLT PUSH2 0x840 JUMPI DUP2 PUSH1 0x20 SWAP4 PUSH2 0xEF8 PUSH2 0x24B8 JUMP JUMPDEST SWAP3 CALLDATALOAD DUP2 MSTORE PUSH1 0x5 DUP6 MSTORE KECCAK256 SWAP1 PUSH1 0x1 DUP1 PUSH1 0xA0 SHL SUB AND PUSH1 0x0 MSTORE DUP3 MSTORE PUSH1 0xFF DUP2 PUSH1 0x0 KECCAK256 SLOAD AND SWAP1 MLOAD SWAP1 ISZERO ISZERO DUP2 MSTORE RETURN JUMPDEST DUP3 DUP5 CALLVALUE PUSH2 0x7B0 JUMPI PUSH2 0xF30 CALLDATASIZE PUSH2 0x25E9 JUMP JUMPDEST SWAP4 SWAP2 SWAP1 SWAP3 PUSH2 0xF3C PUSH2 0x2D93 JUMP JUMPDEST PUSH2 0xF44 PUSH2 0x2D4F JUMP JUMPDEST DUP2 ISZERO PUSH2 0x7A0 JUMPI PUSH1 0x1 PUSH1 0x1 PUSH1 0xA0 SHL SUB SWAP6 DUP6 DUP8 AND ISZERO PUSH2 0x16E4 JUMPI PUSH1 0x11 SLOAD DUP1 TIMESTAMP LT PUSH2 0x16CE JUMPI POP PUSH2 0xF89 SWAP4 SWAP5 SWAP6 SWAP7 CALLER DUP4 MSTORE PUSH1 0x20 SWAP8 DUP4 DUP10 MSTORE DUP7 DUP5 KECCAK256 SLOAD PUSH2 0x2710 SWAP7 DUP8 SWAP2 PUSH1 0xE SLOAD SWAP1 PUSH2 0x2C0F JUMP JUMPDEST DIV DUP1 DUP7 GT PUSH2 0x16B2 JUMPI POP PUSH1 0x2 SLOAD PUSH1 0x8 SLOAD PUSH1 0x9 SLOAD DUP10 MLOAD PUSH4 0xB13F586D PUSH1 0xE0 SHL DUP2 MSTORE DUP7 DUP2 ADD SWAP4 DUP5 MSTORE PUSH1 0x20 DUP5 ADD SWAP3 SWAP1 SWAP3 MSTORE PUSH1 0x40 DUP4 ADD MSTORE PUSH1 0x60 DUP3 ADD DUP8 SWAP1 MSTORE PUSH20 0x0 SWAP4 SWAP1 SWAP2 DUP12 SWAP1 DUP4 SWAP1 DUP2 SWAP1 PUSH1 0x80 ADD SUB DUP2 DUP8 GAS DELEGATECALL SWAP2 DUP3 ISZERO PUSH2 0x16A8 JUMPI DUP7 SWAP3 PUSH2 0x1675 JUMPI JUMPDEST POP DUP8 PUSH2 0x1003 PUSH1 0xD SLOAD DUP5 PUSH2 0x2C0F JUMP JUMPDEST DIV SWAP2 DUP9 PUSH2 0x1012 PUSH1 0xC SLOAD DUP4 PUSH2 0x2C0F JUMP JUMPDEST DIV SWAP2 PUSH2 0x101E DUP4 DUP6 PUSH2 0x297C JUMP JUMPDEST SWAP2 DUP13 PUSH2 0x102A DUP5 DUP4 PUSH2 0x2D42 JUMP JUMPDEST SWAP14 DUP15 LT PUSH2 0x1659 JUMPI POP PUSH1 0x16 SLOAD DUP2 GT PUSH2 0x1649 JUMPI CALLER ISZERO PUSH2 0x15FC JUMPI DUP9 DUP15 CALLER DUP3 MSTORE MSTORE DUP12 DUP10 KECCAK256 SLOAD DUP11 DUP2 LT PUSH2 0x15AD JUMPI SWAP1 DUP10 DUP16 PUSH32 0xDDF252AD1BE2C89B69C2B068FC378DAA952BA7F163C4A11628F55A4DF523B3EF DUP16 SWAP2 DUP15 SWAP3 DUP4 PUSH2 0x10A1 SWAP8 CALLER DUP8 MSTORE DUP7 DUP5 MSTORE SUB DUP2 DUP7 KECCAK256 SSTORE DUP4 PUSH1 0x2 SLOAD SUB PUSH1 0x2 SSTORE MLOAD SWAP3 DUP4 MSTORE CALLER SWAP3 LOG3 PUSH1 0x16 SLOAD PUSH2 0x2D42 JUMP JUMPDEST PUSH1 0x16 SSTORE DUP2 PUSH2 0x1489 JUMPI JUMPDEST POP POP DUP9 MLOAD PUSH4 0xA9059CBB PUSH1 0xE0 SHL DUP13 DUP3 ADD MSTORE PUSH1 0x1 PUSH1 0x1 PUSH1 0xA0 SHL SUB SWAP4 SWAP1 SWAP4 AND PUSH1 0x24 DUP1 DUP6 ADD SWAP2 SWAP1 SWAP2 MSTORE PUSH1 0x44 DUP1 DUP6 ADD DUP13 SWAP1 MSTORE DUP5 MSTORE SWAP3 PUSH2 0x1112 SWAP3 POP SWAP1 POP PUSH2 0x10EC PUSH1 0x64 DUP3 PUSH2 0x2564 JUMP JUMPDEST PUSH32 0x0 PUSH2 0x2F27 JUMP JUMPDEST DUP7 MLOAD SWAP6 DUP8 DUP8 ADD DUP8 DUP2 LT PUSH8 0xFFFFFFFFFFFFFFFF DUP3 GT OR PUSH2 0x1475 JUMPI DUP9 MSTORE DUP6 DUP8 MSTORE DUP10 DUP8 ADD SWAP7 TIMESTAMP DUP9 MSTORE PUSH1 0x12 SWAP1 DUP2 SLOAD SWAP9 PUSH9 0x10000000000000000 DUP11 LT ISZERO PUSH2 0x1463 JUMPI PUSH2 0x115E PUSH1 0x1 SWAP11 DUP12 DUP2 ADD DUP6 SSTORE PUSH2 0x24CE JUMP JUMPDEST SWAP3 SWAP1 SWAP3 PUSH2 0x12DC JUMPI MLOAD DUP3 SSTORE MLOAD SWAP1 DUP10 ADD SSTORE PUSH1 0xF SLOAD PUSH2 0x117A SWAP1 TIMESTAMP PUSH2 0x2D42 JUMP JUMPDEST DUP2 SLOAD SWAP1 SWAP3 DUP8 DUP1 JUMPDEST DUP4 DUP2 LT PUSH2 0x1427 JUMPI POP PUSH1 0x2 SLOAD SWAP2 PUSH2 0x1199 PUSH1 0x10 SLOAD DUP5 PUSH2 0x2C0F JUMP JUMPDEST DIV DUP2 LT ISZERO PUSH2 0x13C2 JUMPI JUMPDEST POP POP SWAP1 DUP12 SWAP5 SWAP4 SWAP3 DUP8 SWAP3 DUP9 SWAP2 JUMPDEST DUP2 DUP4 LT PUSH2 0x137A JUMPI JUMPDEST POP POP POP DUP2 PUSH2 0x1287 JUMPI JUMPDEST POP POP PUSH1 0x2 SLOAD PUSH1 0x8 SLOAD PUSH1 0x9 SLOAD DUP11 MLOAD PUSH4 0x47ABA2C3 PUSH1 0xE1 SHL DUP2 MSTORE SWAP7 DUP8 ADD SWAP3 DUP4 MSTORE PUSH1 0x20 DUP4 ADD SWAP2 SWAP1 SWAP2 MSTORE PUSH1 0x40 DUP3 ADD MSTORE DUP5 SWAP3 SWAP2 POP DUP3 SWAP1 DUP2 SWAP1 PUSH1 0x60 ADD SUB SWAP2 GAS DELEGATECALL SWAP2 DUP3 ISZERO PUSH2 0x127C JUMPI SWAP2 PUSH2 0x124D JUMPI JUMPDEST POP DUP4 MLOAD SWAP2 DUP3 MSTORE PUSH1 0x20 DUP3 ADD DUP6 SWAP1 MSTORE PUSH1 0x40 DUP3 ADD MSTORE CALLER SWAP1 PUSH32 0x846C37EEF631E0943682D87352EC117C20008EB7F425C9B85AC011A6D4774CC0 SWAP1 DUP1 PUSH1 0x60 DUP2 ADD JUMPDEST SUB SWAP1 LOG2 PUSH1 0x6 SSTORE MLOAD SWAP1 DUP2 MSTORE RETURN JUMPDEST SWAP1 POP DUP6 DUP2 DUP2 RETURNDATASIZE DUP4 GT PUSH2 0x1275 JUMPI JUMPDEST PUSH2 0x1264 DUP2 DUP4 PUSH2 0x2564 JUMP JUMPDEST DUP2 ADD SUB SLT PUSH2 0x33B JUMPI MLOAD PUSH2 0x1241 PUSH2 0x1205 JUMP JUMPDEST POP RETURNDATASIZE PUSH2 0x125A JUMP JUMPDEST DUP6 MLOAD SWAP1 RETURNDATASIZE SWAP1 DUP3 RETURNDATACOPY RETURNDATASIZE SWAP1 REVERT JUMPDEST DUP7 DUP10 JUMPDEST PUSH2 0x12FF JUMPI JUMPDEST POP DUP7 JUMPDEST DUP3 DUP2 LT PUSH2 0x129F JUMPI POP PUSH2 0x11BF JUMP JUMPDEST SWAP1 DUP1 SWAP3 SWAP4 SWAP5 SWAP6 POP SLOAD DUP1 ISZERO PUSH2 0x12ED JUMPI PUSH1 0x0 NOT ADD PUSH2 0x12BA DUP2 PUSH2 0x24CE JUMP JUMPDEST PUSH2 0x12DC JUMPI DUP9 DUP2 SSTORE DUP11 ADD DUP9 SWAP1 SSTORE DUP3 SSTORE PUSH2 0x12D1 SWAP1 PUSH2 0x30E2 JUMP JUMPDEST SWAP1 DUP12 SWAP5 SWAP4 SWAP3 SWAP2 PUSH2 0x1292 JUMP JUMPDEST PUSH4 0x4E487B71 PUSH1 0xE0 SHL DUP10 MSTORE DUP9 DUP9 MSTORE DUP6 DUP10 REVERT JUMPDEST PUSH4 0x4E487B71 PUSH1 0xE0 SHL DUP9 MSTORE PUSH1 0x31 DUP8 MSTORE DUP5 DUP9 REVERT JUMPDEST SWAP1 SWAP2 SWAP3 SWAP4 SWAP5 POP PUSH2 0x1310 DUP4 DUP4 SLOAD PUSH2 0x2D42 JUMP JUMPDEST DUP2 LT ISZERO PUSH2 0x136F JUMPI PUSH2 0x1329 PUSH2 0x1324 DUP5 DUP4 PUSH2 0x297C JUMP JUMPDEST PUSH2 0x24CE JUMP JUMPDEST POP PUSH2 0x1333 DUP3 PUSH2 0x24CE JUMP JUMPDEST SWAP2 SWAP1 SWAP2 PUSH2 0x12DC JUMPI SWAP2 DUP2 DUP12 DUP5 DUP2 SWAP6 PUSH2 0x1352 SWAP6 SUB PUSH2 0x135D JUMPI JUMPDEST POP POP POP PUSH2 0x30E2 JUMP JUMPDEST DUP13 SWAP6 SWAP5 SWAP4 SWAP3 SWAP2 PUSH2 0x128A JUMP JUMPDEST DUP1 SLOAD DUP4 SSTORE DUP2 ADD SLOAD SWAP2 ADD SSTORE DUP15 DUP4 DUP2 PUSH2 0x134A JUMP JUMPDEST SWAP1 DUP12 SWAP5 SWAP4 SWAP3 SWAP2 PUSH2 0x128F JUMP JUMPDEST SWAP2 SWAP5 SWAP6 SWAP7 DUP3 DUP13 PUSH2 0x138D DUP9 SWAP8 SWAP5 SWAP7 SWAP8 PUSH2 0x24CE JUMP JUMPDEST POP ADD SLOAD LT ISZERO PUSH2 0x13B6 JUMPI POP PUSH2 0x13A3 PUSH2 0x13A9 SWAP2 PUSH2 0x30E2 JUMP JUMPDEST SWAP5 PUSH2 0x30E2 JUMP JUMPDEST SWAP1 SWAP2 DUP14 SWAP7 SWAP6 SWAP5 SWAP4 SWAP3 PUSH2 0x11AE JUMP JUMPDEST SWAP7 SWAP6 SWAP5 DUP2 SWAP5 SWAP4 POP PUSH2 0x11B6 JUMP JUMPDEST PUSH2 0xE10 TIMESTAMP ADD DUP1 TIMESTAMP GT PUSH2 0x1415 JUMPI PUSH1 0x11 DUP2 SWAP1 SSTORE DUP13 MLOAD SWAP2 DUP3 MSTORE PUSH1 0x20 DUP3 ADD SWAP3 SWAP1 SWAP3 MSTORE PUSH1 0x40 DUP2 ADD SWAP2 SWAP1 SWAP2 MSTORE PUSH32 0x3D747073B9D4B08F72A3EDBDB8E590C3266455BDD20CC08AF18F78BB50B0ADCC SWAP1 PUSH1 0x60 SWAP1 LOG1 DUP13 DUP1 PUSH2 0x11A2 JUMP JUMPDEST PUSH4 0x4E487B71 PUSH1 0xE0 SHL DUP11 MSTORE PUSH1 0x11 DUP10 MSTORE DUP7 DUP11 REVERT JUMPDEST DUP6 DUP13 PUSH2 0x1432 DUP4 PUSH2 0x24CE JUMP JUMPDEST POP ADD SLOAD LT ISZERO PUSH2 0x144A JUMPI JUMPDEST PUSH2 0x1445 SWAP1 PUSH2 0x30E2 JUMP JUMPDEST PUSH2 0x1181 JUMP JUMPDEST SWAP1 PUSH2 0x145B PUSH2 0x1445 SWAP2 PUSH2 0x8D2 DUP5 PUSH2 0x24CE JUMP JUMPDEST SWAP2 SWAP1 POP PUSH2 0x143C JUMP JUMPDEST PUSH4 0x4E487B71 PUSH1 0xE0 SHL DUP9 MSTORE PUSH1 0x41 DUP8 MSTORE DUP5 DUP9 REVERT JUMPDEST DUP3 PUSH1 0x41 DUP7 PUSH4 0x4E487B71 PUSH1 0xE0 SHL PUSH1 0x0 MSTORE MSTORE PUSH1 0x0 REVERT JUMPDEST PUSH2 0x14D7 DUP2 PUSH32 0x0 AND SWAP3 DUP4 PUSH32 0x0 PUSH2 0x2DE9 JUMP JUMPDEST PUSH1 0x14 SLOAD AND DUP2 EXTCODESIZE ISZERO PUSH2 0x15A9 JUMPI DUP11 MLOAD PUSH4 0xE542D53 PUSH1 0xE3 SHL DUP2 MSTORE PUSH1 0x1 PUSH1 0x1 PUSH1 0xA0 SHL SUB SWAP1 SWAP2 AND DUP2 DUP9 ADD SWAP1 DUP2 MSTORE PUSH1 0x20 DUP2 ADD DUP5 SWAP1 MSTORE PUSH1 0x40 DUP2 ADD DUP6 SWAP1 MSTORE SWAP1 SWAP2 DUP9 SWAP2 DUP4 SWAP2 SWAP1 DUP3 SWAP1 DUP5 SWAP1 DUP3 SWAP1 PUSH1 0x60 ADD SUB SWAP3 GAS CALL DUP1 ISZERO PUSH2 0x159F JUMPI SWAP1 DUP11 SWAP4 SWAP3 SWAP2 PUSH2 0x1568 JUMPI JUMPDEST POP DUP3 MLOAD SWAP2 DUP3 MSTORE DUP12 DUP3 ADD MSTORE PUSH32 0x135AAC89C93C469DC7548F8C6DD01DD955E485064D5984C9DB0296457BAF2C73 SWAP2 SWAP1 LOG1 DUP10 DUP1 DUP1 DUP1 PUSH2 0x10AA JUMP JUMPDEST SWAP7 PUSH2 0x1596 PUSH32 0x135AAC89C93C469DC7548F8C6DD01DD955E485064D5984C9DB0296457BAF2C73 SWAP5 SWAP4 SWAP3 SWAP9 PUSH2 0x251E JUMP JUMPDEST SWAP7 SWAP1 SWAP2 SWAP3 PUSH2 0x1531 JUMP JUMPDEST DUP11 MLOAD RETURNDATASIZE DUP10 DUP3 RETURNDATACOPY RETURNDATASIZE SWAP1 REVERT JUMPDEST DUP8 DUP1 REVERT JUMPDEST POP DUP12 MLOAD PUSH3 0x461BCD PUSH1 0xE5 SHL DUP2 MSTORE DUP1 DUP10 ADD DUP16 SWAP1 MSTORE PUSH1 0x22 PUSH1 0x24 DUP3 ADD MSTORE PUSH32 0x45524332303A206275726E20616D6F756E7420657863656564732062616C616E PUSH1 0x44 DUP3 ADD MSTORE PUSH2 0x6365 PUSH1 0xF0 SHL PUSH1 0x64 DUP3 ADD MSTORE PUSH1 0x84 SWAP1 REVERT JUMPDEST DUP12 MLOAD PUSH3 0x461BCD PUSH1 0xE5 SHL DUP2 MSTORE DUP1 DUP10 ADD DUP16 SWAP1 MSTORE PUSH1 0x21 PUSH1 0x24 DUP3 ADD MSTORE PUSH32 0x45524332303A206275726E2066726F6D20746865207A65726F20616464726573 PUSH1 0x44 DUP3 ADD MSTORE PUSH1 0x73 PUSH1 0xF8 SHL PUSH1 0x64 DUP3 ADD MSTORE PUSH1 0x84 SWAP1 REVERT JUMPDEST DUP12 MLOAD PUSH4 0x4323A555 PUSH1 0xE0 SHL DUP2 MSTORE DUP9 SWAP1 REVERT JUMPDEST DUP9 DUP15 PUSH1 0x44 SWAP3 DUP16 MLOAD SWAP3 PUSH4 0x71C4EFED PUSH1 0xE0 SHL DUP5 MSTORE DUP4 ADD MSTORE PUSH1 0x24 DUP3 ADD MSTORE REVERT JUMPDEST SWAP1 SWAP2 POP DUP11 DUP2 DUP2 RETURNDATASIZE DUP4 GT PUSH2 0x16A1 JUMPI JUMPDEST PUSH2 0x168D DUP2 DUP4 PUSH2 0x2564 JUMP JUMPDEST DUP2 ADD SUB SLT PUSH2 0x169D JUMPI MLOAD SWAP1 DUP12 PUSH2 0xFF5 JUMP JUMPDEST DUP6 DUP1 REVERT JUMPDEST POP RETURNDATASIZE PUSH2 0x1683 JUMP JUMPDEST DUP10 MLOAD RETURNDATASIZE DUP9 DUP3 RETURNDATACOPY RETURNDATASIZE SWAP1 REVERT JUMPDEST DUP4 PUSH1 0x44 SWAP2 DUP8 DUP11 MLOAD SWAP3 PUSH4 0x81B74D5 PUSH1 0xE2 SHL DUP5 MSTORE DUP4 ADD MSTORE PUSH1 0x24 DUP3 ADD MSTORE REVERT JUMPDEST DUP5 MLOAD PUSH4 0x670B463B PUSH1 0xE1 SHL DUP2 MSTORE SWAP2 DUP3 ADD MSTORE PUSH1 0x24 SWAP2 POP REVERT JUMPDEST DUP4 MLOAD PUSH4 0xD92E233D PUSH1 0xE0 SHL DUP2 MSTORE REVERT JUMPDEST POP POP CALLVALUE PUSH2 0x298 JUMPI DUP2 PUSH1 0x3 NOT CALLDATASIZE ADD SLT PUSH2 0x298 JUMPI PUSH1 0x20 SWAP1 MLOAD PUSH32 0x828634D95E775031B9FF576B159A8509D3053581A8C9C4D7D86899E0AFCD882F DUP2 MSTORE RETURN JUMPDEST POP POP CALLVALUE PUSH2 0x298 JUMPI DUP2 PUSH1 0x3 NOT CALLDATASIZE ADD SLT PUSH2 0x298 JUMPI PUSH1 0x20 PUSH32 0x62E78CEA01BEE320CD4E420270B5EA74000D11B0C9F74754EBDBFC544B05A258 SWAP2 PUSH2 0x176B PUSH2 0x2613 JUMP JUMPDEST PUSH2 0x1773 PUSH2 0x2D4F JUMP JUMPDEST PUSH1 0x1 PUSH1 0xFF NOT PUSH1 0x7 SLOAD AND OR PUSH1 0x7 SSTORE MLOAD CALLER DUP2 MSTORE LOG1 DUP1 RETURN JUMPDEST POP POP CALLVALUE PUSH2 0x298 JUMPI PUSH1 0x20 CALLDATASIZE PUSH1 0x3 NOT ADD SLT PUSH2 0x298 JUMPI PUSH1 0x20 SWAP2 DUP2 SWAP1 PUSH1 0x1 PUSH1 0x1 PUSH1 0xA0 SHL SUB PUSH2 0x17B0 PUSH2 0x24A2 JUMP JUMPDEST AND DUP2 MSTORE DUP1 DUP5 MSTORE KECCAK256 SLOAD SWAP1 MLOAD SWAP1 DUP2 MSTORE RETURN JUMPDEST POP POP CALLVALUE PUSH2 0x298 JUMPI DUP2 PUSH1 0x3 NOT CALLDATASIZE ADD SLT PUSH2 0x298 JUMPI PUSH1 0x20 SWAP1 MLOAD PUSH32 0x5246556C0AB216B5B325AD7C539BFBD1A07C768773CDF810FECD3C3375C27407 DUP2 MSTORE RETURN JUMPDEST POP POP CALLVALUE PUSH2 0x298 JUMPI DUP2 PUSH1 0x3 NOT CALLDATASIZE ADD SLT PUSH2 0x298 JUMPI MLOAD PUSH32 0x0 PUSH1 0x1 PUSH1 0x1 PUSH1 0xA0 SHL SUB AND DUP2 MSTORE PUSH1 0x20 SWAP1 RETURN JUMPDEST POP POP CALLVALUE PUSH2 0x298 JUMPI DUP2 PUSH1 0x3 NOT CALLDATASIZE ADD SLT PUSH2 0x298 JUMPI PUSH1 0x20 SWAP1 PUSH1 0xFF PUSH1 0x7 SLOAD AND SWAP1 MLOAD SWAP1 ISZERO ISZERO DUP2 MSTORE RETURN JUMPDEST POP POP CALLVALUE PUSH2 0x298 JUMPI DUP2 PUSH1 0x3 NOT CALLDATASIZE ADD SLT PUSH2 0x298 JUMPI PUSH1 0x20 SWAP1 PUSH1 0x15 SLOAD SWAP1 MLOAD SWAP1 DUP2 MSTORE RETURN JUMPDEST POP POP CALLVALUE PUSH2 0x298 JUMPI DUP2 PUSH1 0x3 NOT CALLDATASIZE ADD SLT PUSH2 0x298 JUMPI PUSH1 0x20 SWAP1 PUSH1 0xC SLOAD SWAP1 MLOAD SWAP1 DUP2 MSTORE RETURN JUMPDEST DUP4 SWAP1 CALLVALUE PUSH2 0x298 JUMPI PUSH1 0x20 CALLDATASIZE PUSH1 0x3 NOT ADD SLT PUSH2 0x298 JUMPI PUSH2 0x18BB PUSH2 0x2613 JUMP JUMPDEST CALLDATALOAD PUSH1 0x11 SSTORE DUP1 RETURN JUMPDEST SWAP2 SWAP1 POP CALLVALUE PUSH2 0x840 JUMPI PUSH2 0x1E0 CALLDATASIZE PUSH1 0x3 NOT ADD SLT PUSH2 0x840 JUMPI PUSH8 0xFFFFFFFFFFFFFFFF DUP3 CALLDATALOAD DUP2 DUP2 GT PUSH2 0x1BF7 JUMPI PUSH2 0x18F6 SWAP1 CALLDATASIZE SWAP1 DUP6 ADD PUSH2 0x25A2 JUMP JUMPDEST POP PUSH1 0x24 CALLDATALOAD SWAP1 DUP2 GT PUSH2 0xD97 JUMPI PUSH2 0x190E SWAP1 CALLDATASIZE SWAP1 DUP5 ADD PUSH2 0x25A2 JUMP JUMPDEST POP PUSH1 0x44 CALLDATALOAD PUSH1 0x1 PUSH1 0x1 PUSH1 0xA0 SHL SUB DUP2 DUP2 AND SWAP4 SWAP2 DUP5 SWAP1 SUB PUSH2 0x1BF7 JUMPI PUSH1 0x64 CALLDATALOAD DUP2 DUP2 AND DUP1 SWAP2 SUB PUSH2 0x169D JUMPI PUSH1 0x84 CALLDATALOAD SWAP2 DUP1 DUP4 AND DUP1 SWAP4 SUB PUSH2 0x704 JUMPI PUSH32 0x0 AND PUSH2 0x1BBE JUMPI DUP5 ISZERO PUSH2 0x1B89 JUMPI ISZERO PUSH2 0x1B4E JUMPI ISZERO PUSH2 0x1B19 JUMPI POP DUP2 PUSH12 0xFFFFFFFFFFFFFFFFFFFFFFFF PUSH1 0xA0 SHL PUSH1 0x14 SLOAD AND OR PUSH1 0x14 SSTORE PUSH1 0xA4 CALLDATALOAD PUSH1 0x8 SSTORE PUSH1 0xC4 CALLDATALOAD PUSH1 0x9 SSTORE PUSH1 0xE4 CALLDATALOAD PUSH1 0xA SSTORE PUSH2 0x104 CALLDATALOAD PUSH1 0x15 SSTORE PUSH2 0x124 CALLDATALOAD PUSH1 0xB SSTORE PUSH2 0x144 CALLDATALOAD PUSH1 0xC SSTORE PUSH2 0x164 CALLDATALOAD PUSH1 0xD SSTORE PUSH2 0x184 CALLDATALOAD PUSH1 0xE SSTORE PUSH2 0x1A4 CALLDATALOAD PUSH1 0xF SSTORE PUSH2 0x1C4 CALLDATALOAD PUSH1 0x10 SSTORE DUP3 DUP1 MSTORE PUSH1 0x5 SWAP2 PUSH1 0x20 SWAP1 DUP4 DUP3 MSTORE DUP3 DUP6 KECCAK256 DUP2 DUP7 MSTORE DUP3 MSTORE PUSH1 0xFF DUP4 DUP7 KECCAK256 SLOAD AND ISZERO PUSH2 0x1AE3 JUMPI JUMPDEST PUSH32 0x828634D95E775031B9FF576B159A8509D3053581A8C9C4D7D86899E0AFCD882F SWAP1 DUP2 DUP7 MSTORE DUP5 DUP4 MSTORE DUP4 DUP7 KECCAK256 DUP2 DUP8 MSTORE DUP4 MSTORE PUSH1 0xFF DUP5 DUP8 KECCAK256 SLOAD AND ISZERO PUSH2 0x1AAC JUMPI JUMPDEST POP POP PUSH32 0x5246556C0AB216B5B325AD7C539BFBD1A07C768773CDF810FECD3C3375C27407 SWAP3 DUP4 DUP6 MSTORE DUP1 DUP3 MSTORE DUP3 DUP6 KECCAK256 CALLER DUP7 MSTORE DUP3 MSTORE PUSH1 0xFF DUP4 DUP7 KECCAK256 SLOAD AND ISZERO PUSH2 0x1A74 JUMPI DUP5 DUP1 RETURN JUMPDEST DUP4 DUP6 MSTORE DUP2 MSTORE DUP2 DUP5 KECCAK256 SWAP1 CALLER DUP6 MSTORE MSTORE DUP3 KECCAK256 PUSH1 0x1 PUSH1 0xFF NOT DUP3 SLOAD AND OR SWAP1 SSTORE CALLER SWAP1 CALLER SWAP1 PUSH1 0x0 DUP1 MLOAD PUSH1 0x20 PUSH2 0x30F2 DUP4 CODECOPY DUP2 MLOAD SWAP2 MSTORE DUP5 DUP1 LOG4 CODESIZE DUP1 DUP1 DUP1 DUP5 DUP1 RETURN JUMPDEST DUP2 DUP7 MSTORE DUP5 DUP4 MSTORE DUP4 DUP7 KECCAK256 DUP2 DUP8 MSTORE DUP4 MSTORE DUP4 DUP7 KECCAK256 DUP1 SLOAD PUSH1 0xFF NOT AND PUSH1 0x1 OR SWAP1 SSTORE CALLER SWAP2 PUSH1 0x0 DUP1 MLOAD PUSH1 0x20 PUSH2 0x30F2 DUP4 CODECOPY DUP2 MLOAD SWAP2 MSTORE DUP8 DUP1 LOG4 CODESIZE DUP1 PUSH2 0x1A32 JUMP JUMPDEST DUP5 DUP1 MSTORE DUP4 DUP3 MSTORE DUP3 DUP6 KECCAK256 DUP2 DUP7 MSTORE DUP3 MSTORE DUP3 DUP6 KECCAK256 DUP1 SLOAD PUSH1 0xFF NOT AND PUSH1 0x1 OR SWAP1 SSTORE CALLER DUP2 DUP7 PUSH1 0x0 DUP1 MLOAD PUSH1 0x20 PUSH2 0x30F2 DUP4 CODECOPY DUP2 MLOAD SWAP2 MSTORE DUP2 DUP1 LOG4 PUSH2 0x19F5 JUMP JUMPDEST PUSH1 0x20 PUSH1 0x64 SWAP3 MLOAD SWAP2 PUSH3 0x461BCD PUSH1 0xE5 SHL DUP4 MSTORE DUP3 ADD MSTORE PUSH1 0x10 PUSH1 0x24 DUP3 ADD MSTORE PUSH16 0x496E76616C6964207472656173757279 PUSH1 0x80 SHL PUSH1 0x44 DUP3 ADD MSTORE REVERT JUMPDEST POP PUSH1 0x20 PUSH1 0x64 SWAP3 MLOAD SWAP2 PUSH3 0x461BCD PUSH1 0xE5 SHL DUP4 MSTORE DUP3 ADD MSTORE PUSH1 0x15 PUSH1 0x24 DUP3 ADD MSTORE PUSH21 0x24B73B30B634B2103932B9B2B93B32903A37B5B2B7 PUSH1 0x59 SHL PUSH1 0x44 DUP3 ADD MSTORE REVERT JUMPDEST DUP4 MLOAD PUSH3 0x461BCD PUSH1 0xE5 SHL DUP2 MSTORE PUSH1 0x20 DUP2 DUP6 ADD MSTORE PUSH1 0xF PUSH1 0x24 DUP3 ADD MSTORE PUSH15 0x24B73B30B634B21031B932B0BA37B9 PUSH1 0x89 SHL PUSH1 0x44 DUP3 ADD MSTORE PUSH1 0x64 SWAP1 REVERT JUMPDEST DUP4 MLOAD PUSH3 0x461BCD PUSH1 0xE5 SHL DUP2 MSTORE PUSH1 0x20 DUP2 DUP6 ADD MSTORE PUSH1 0x13 PUSH1 0x24 DUP3 ADD MSTORE PUSH19 0x105B1C9958591E481A5B9A5D1A585B1A5E9959 PUSH1 0x6A SHL PUSH1 0x44 DUP3 ADD MSTORE PUSH1 0x64 SWAP1 REVERT JUMPDEST DUP5 DUP1 REVERT JUMPDEST SWAP1 POP CALLVALUE PUSH2 0x840 JUMPI DUP3 PUSH1 0x3 NOT CALLDATASIZE ADD SLT PUSH2 0x840 JUMPI PUSH2 0x1C15 PUSH2 0x2613 JUMP JUMPDEST PUSH1 0x7 SLOAD SWAP1 PUSH1 0xFF DUP3 AND ISZERO PUSH2 0x1C57 JUMPI POP PUSH1 0xFF NOT AND PUSH1 0x7 SSTORE MLOAD CALLER DUP2 MSTORE PUSH32 0x5DB9EE0A495BF2E6FF9C91A7834C1BA4FDD244A5E8AA4E537BD38AEAE4B073AA SWAP1 PUSH1 0x20 SWAP1 LOG1 DUP1 RETURN JUMPDEST PUSH1 0x64 SWAP1 PUSH1 0x20 DUP5 MLOAD SWAP2 PUSH3 0x461BCD PUSH1 0xE5 SHL DUP4 MSTORE DUP3 ADD MSTORE PUSH1 0x14 PUSH1 0x24 DUP3 ADD MSTORE PUSH20 0x14185D5CD8589B194E881B9BDD081C185D5CD959 PUSH1 0x62 SHL PUSH1 0x44 DUP3 ADD MSTORE REVERT JUMPDEST POP POP CALLVALUE PUSH2 0x298 JUMPI DUP2 PUSH1 0x3 NOT CALLDATASIZE ADD SLT PUSH2 0x298 JUMPI PUSH1 0x20 SWAP1 PUSH1 0xE SLOAD SWAP1 MLOAD SWAP1 DUP2 MSTORE RETURN JUMPDEST DUP4 DUP4 CALLVALUE PUSH2 0x298 JUMPI DUP1 PUSH1 0x3 NOT CALLDATASIZE ADD SLT PUSH2 0x298 JUMPI DUP3 CALLDATALOAD PUSH32 0x68E79A7BF1E0BC45D0A330C573BC367F9CF464FD326078812F301165FBDA4EF1 DUP1 DUP5 MSTORE PUSH1 0x20 SWAP1 PUSH1 0x5 DUP3 MSTORE DUP4 DUP6 KECCAK256 CALLER DUP7 MSTORE DUP3 MSTORE PUSH1 0xFF DUP5 DUP7 KECCAK256 SLOAD AND ISZERO PUSH2 0x1D56 JUMPI POP PUSH1 0xA SLOAD DUP3 GT ISZERO PUSH2 0x1D46 JUMPI PUSH32 0x27E8C6113129093EA1A91D9A0645356A2D627924E4D98609C4B7193CA62C2E20 SWAP4 SWAP5 POP DUP2 PUSH1 0xA SSTORE DUP3 MLOAD SWAP2 DUP3 MSTORE PUSH1 0x24 CALLDATALOAD SWAP1 DUP3 ADD MSTORE LOG1 DUP1 RETURN JUMPDEST DUP3 MLOAD PUSH4 0xC52A9BD3 PUSH1 0xE0 SHL DUP2 MSTORE DUP6 SWAP1 REVERT JUMPDEST DUP6 SWAP3 POP DUP5 SWAP1 PUSH2 0x1D64 CALLER PUSH2 0x2C33 JUMP JUMPDEST DUP6 MLOAD SWAP2 PUSH2 0x1D70 DUP4 PUSH2 0x2548 JUMP JUMPDEST PUSH1 0x42 DUP4 MSTORE DUP5 DUP4 ADD SWAP4 PUSH1 0x60 CALLDATASIZE DUP7 CALLDATACOPY DUP4 MLOAD ISZERO PUSH2 0x1E74 JUMPI PUSH1 0x30 DUP6 MSTORE8 DUP4 MLOAD SWAP1 PUSH1 0x1 SWAP2 DUP3 LT ISZERO PUSH2 0x1E61 JUMPI SWAP1 PUSH1 0x78 PUSH1 0x21 DUP7 ADD MSTORE8 PUSH1 0x41 SWAP2 JUMPDEST DUP2 DUP4 GT PUSH2 0x1DF6 JUMPI POP POP POP PUSH2 0xCBE JUMPI PUSH2 0xCBA SWAP4 DUP7 SWAP4 PUSH2 0xCA6 SWAP4 PUSH2 0xC97 PUSH1 0x48 SWAP5 PUSH2 0xC6E SWAP11 MLOAD SWAP11 DUP6 PUSH23 0x20B1B1B2B9B9A1B7B73A3937B61D1030B1B1B7BAB73A1 PUSH1 0x4D SHL DUP14 SWAP8 DUP9 ADD MSTORE DUP3 MLOAD SWAP3 DUP4 SWAP2 PUSH1 0x37 DUP10 ADD SWAP2 ADD PUSH2 0x2453 JUMP JUMPDEST SWAP1 SWAP2 SWAP3 PUSH1 0xF DUP2 AND PUSH1 0x10 DUP2 LT ISZERO PUSH2 0x1E4E JUMPI PUSH16 0x181899199A1A9B1B9C1CB0B131B232B3 PUSH1 0x81 SHL SWAP1 BYTE PUSH2 0x1E26 DUP6 DUP9 PUSH2 0x2C22 JUMP JUMPDEST MSTORE8 DUP9 SHR SWAP3 DUP1 ISZERO PUSH2 0x1E3B JUMPI PUSH1 0x0 NOT ADD SWAP2 SWAP1 PUSH2 0x1DA1 JUMP JUMPDEST PUSH4 0x4E487B71 PUSH1 0xE0 SHL DUP3 MSTORE PUSH1 0x11 DUP10 MSTORE PUSH1 0x24 DUP3 REVERT JUMPDEST PUSH4 0x4E487B71 PUSH1 0xE0 SHL DUP4 MSTORE PUSH1 0x32 DUP11 MSTORE PUSH1 0x24 DUP4 REVERT JUMPDEST PUSH4 0x4E487B71 PUSH1 0xE0 SHL DUP2 MSTORE PUSH1 0x32 DUP9 MSTORE PUSH1 0x24 SWAP1 REVERT JUMPDEST PUSH4 0x4E487B71 PUSH1 0xE0 SHL DUP2 MSTORE PUSH1 0x32 DUP8 MSTORE PUSH1 0x24 SWAP1 REVERT JUMPDEST POP POP CALLVALUE PUSH2 0x298 JUMPI DUP1 PUSH1 0x3 NOT CALLDATASIZE ADD SLT PUSH2 0x298 JUMPI PUSH2 0xA3C PUSH1 0x20 SWAP3 PUSH2 0x1ED0 PUSH2 0x1EAA PUSH2 0x24A2 JUMP JUMPDEST CALLER DUP4 MSTORE PUSH1 0x1 DUP7 MSTORE DUP5 DUP4 KECCAK256 PUSH1 0x1 PUSH1 0x1 PUSH1 0xA0 SHL SUB DUP3 AND DUP5 MSTORE DUP7 MSTORE SWAP2 DUP5 SWAP1 KECCAK256 SLOAD PUSH1 0x24 CALLDATALOAD SWAP1 PUSH2 0x297C JUMP JUMPDEST SWAP1 CALLER PUSH2 0x2B0D JUMP JUMPDEST DUP4 SWAP2 POP CALLVALUE PUSH2 0x298 JUMPI DUP3 PUSH1 0x3 NOT CALLDATASIZE ADD SLT PUSH2 0x298 JUMPI PUSH2 0x1EF2 PUSH2 0x24B8 JUMP JUMPDEST SWAP1 CALLER PUSH1 0x1 PUSH1 0x1 PUSH1 0xA0 SHL SUB DUP4 AND SUB PUSH2 0x1F0E JUMPI SWAP1 PUSH2 0x83D SWAP2 CALLDATALOAD PUSH2 0x2906 JUMP JUMPDEST PUSH1 0x84 SWAP1 PUSH1 0x20 DUP6 MLOAD SWAP2 PUSH3 0x461BCD PUSH1 0xE5 SHL DUP4 MSTORE DUP3 ADD MSTORE PUSH1 0x2F PUSH1 0x24 DUP3 ADD MSTORE PUSH32 0x416363657373436F6E74726F6C3A2063616E206F6E6C792072656E6F756E6365 PUSH1 0x44 DUP3 ADD MSTORE PUSH15 0x103937B632B9903337B91039B2B633 PUSH1 0x89 SHL PUSH1 0x64 DUP3 ADD MSTORE REVERT JUMPDEST POP POP CALLVALUE PUSH2 0x298 JUMPI DUP2 PUSH1 0x3 NOT CALLDATASIZE ADD SLT PUSH2 0x298 JUMPI PUSH1 0x20 SWAP1 MLOAD PUSH1 0x12 DUP2 MSTORE RETURN JUMPDEST DUP4 SWAP2 POP CALLVALUE PUSH2 0x298 JUMPI PUSH1 0x20 CALLDATASIZE PUSH1 0x3 NOT ADD SLT PUSH2 0x298 JUMPI CALLDATALOAD SWAP1 PUSH1 0x12 SLOAD DUP3 LT ISZERO PUSH2 0x7B0 JUMPI POP PUSH2 0x1FAF SWAP1 PUSH2 0x24CE JUMP JUMPDEST POP PUSH1 0x1 DUP2 SLOAD SWAP2 ADD SLOAD DUP3 MLOAD SWAP2 DUP3 MSTORE PUSH1 0x20 DUP3 ADD MSTORE RETURN JUMPDEST SWAP1 POP CALLVALUE PUSH2 0x840 JUMPI DUP2 PUSH1 0x3 NOT CALLDATASIZE ADD SLT PUSH2 0x840 JUMPI CALLDATALOAD SWAP1 PUSH2 0x1FDF PUSH2 0x24B8 JUMP JUMPDEST SWAP1 DUP3 DUP5 MSTORE PUSH1 0x5 PUSH1 0x20 MSTORE PUSH2 0x1FF7 PUSH1 0x1 DUP3 DUP7 KECCAK256 ADD SLOAD PUSH2 0x27FC JUMP JUMPDEST DUP3 DUP5 MSTORE PUSH1 0x5 PUSH1 0x20 SWAP1 DUP2 MSTORE DUP2 DUP6 KECCAK256 PUSH1 0x1 PUSH1 0x1 PUSH1 0xA0 SHL SUB SWAP1 SWAP4 AND DUP1 DUP7 MSTORE SWAP3 SWAP1 MSTORE DUP1 DUP5 KECCAK256 SLOAD PUSH1 0xFF AND ISZERO PUSH2 0x2025 JUMPI DUP4 DUP1 RETURN JUMPDEST DUP3 DUP5 MSTORE PUSH1 0x5 PUSH1 0x20 MSTORE DUP1 DUP5 KECCAK256 DUP3 DUP6 MSTORE PUSH1 0x20 MSTORE DUP4 KECCAK256 PUSH1 0x1 PUSH1 0xFF NOT DUP3 SLOAD AND OR SWAP1 SSTORE CALLER SWAP2 PUSH1 0x0 DUP1 MLOAD PUSH1 0x20 PUSH2 0x30F2 DUP4 CODECOPY DUP2 MLOAD SWAP2 MSTORE DUP5 DUP1 LOG4 CODESIZE DUP1 DUP1 DUP4 DUP1 RETURN JUMPDEST POP POP CALLVALUE PUSH2 0x298 JUMPI DUP2 PUSH1 0x3 NOT CALLDATASIZE ADD SLT PUSH2 0x298 JUMPI PUSH1 0x20 SWAP1 PUSH1 0x10 SLOAD SWAP1 MLOAD SWAP1 DUP2 MSTORE RETURN JUMPDEST SWAP1 POP CALLVALUE PUSH2 0x840 JUMPI PUSH1 0x20 CALLDATASIZE PUSH1 0x3 NOT ADD SLT PUSH2 0x840 JUMPI DUP2 PUSH1 0x20 SWAP4 PUSH1 0x1 SWAP3 CALLDATALOAD DUP2 MSTORE PUSH1 0x5 DUP6 MSTORE KECCAK256 ADD SLOAD SWAP1 MLOAD SWAP1 DUP2 MSTORE RETURN JUMPDEST DUP4 SWAP2 POP CALLVALUE PUSH2 0x298 JUMPI PUSH1 0x60 CALLDATASIZE PUSH1 0x3 NOT ADD SLT PUSH2 0x298 JUMPI PUSH2 0x20C4 PUSH2 0x24A2 JUMP JUMPDEST PUSH2 0x20CC PUSH2 0x24B8 JUMP JUMPDEST SWAP2 DUP5 PUSH1 0x44 CALLDATALOAD SWAP5 PUSH1 0x1 DUP1 PUSH1 0xA0 SHL SUB DUP5 AND DUP2 MSTORE PUSH1 0x1 PUSH1 0x20 MSTORE DUP2 DUP2 KECCAK256 CALLER DUP3 MSTORE PUSH1 0x20 MSTORE KECCAK256 SLOAD SWAP1 PUSH1 0x0 NOT DUP3 SUB PUSH2 0x2106 JUMPI JUMPDEST PUSH1 0x20 DUP7 PUSH2 0xA3C DUP8 DUP8 DUP8 PUSH2 0x299F JUMP JUMPDEST DUP5 DUP3 LT PUSH2 0x212F JUMPI POP SWAP2 DUP4 SWAP2 PUSH2 0x2124 PUSH1 0x20 SWAP7 SWAP6 PUSH2 0xA3C SWAP6 SUB CALLER DUP4 PUSH2 0x2B0D JUMP JUMPDEST SWAP2 SWAP4 SWAP5 DUP2 SWAP4 POP PUSH2 0x20F8 JUMP JUMPDEST PUSH1 0x64 SWAP1 PUSH1 0x20 DUP8 MLOAD SWAP2 PUSH3 0x461BCD PUSH1 0xE5 SHL DUP4 MSTORE DUP3 ADD MSTORE PUSH1 0x1D PUSH1 0x24 DUP3 ADD MSTORE PUSH32 0x45524332303A20696E73756666696369656E7420616C6C6F77616E6365000000 PUSH1 0x44 DUP3 ADD MSTORE REVERT JUMPDEST POP POP CALLVALUE PUSH2 0x298 JUMPI DUP2 PUSH1 0x3 NOT CALLDATASIZE ADD SLT PUSH2 0x298 JUMPI PUSH1 0x20 SWAP1 PUSH1 0xD SLOAD SWAP1 MLOAD SWAP1 DUP2 MSTORE RETURN JUMPDEST POP POP CALLVALUE PUSH2 0x298 JUMPI DUP2 PUSH1 0x3 NOT CALLDATASIZE ADD SLT PUSH2 0x298 JUMPI PUSH1 0x20 SWAP1 PUSH1 0x2 SLOAD SWAP1 MLOAD SWAP1 DUP2 MSTORE RETURN JUMPDEST POP POP CALLVALUE PUSH2 0x298 JUMPI DUP2 PUSH1 0x3 NOT CALLDATASIZE ADD SLT PUSH2 0x298 JUMPI PUSH1 0x20 SWAP1 PUSH1 0xB SLOAD SWAP1 MLOAD SWAP1 DUP2 MSTORE RETURN JUMPDEST POP POP CALLVALUE PUSH2 0x298 JUMPI DUP1 PUSH1 0x3 NOT CALLDATASIZE ADD SLT PUSH2 0x298 JUMPI PUSH1 0x20 SWAP1 PUSH2 0xA3C PUSH2 0x21EF PUSH2 0x24A2 JUMP JUMPDEST PUSH1 0x24 CALLDATALOAD SWAP1 CALLER PUSH2 0x2B0D JUMP JUMPDEST DUP4 DUP4 CALLVALUE PUSH2 0x298 JUMPI PUSH1 0x20 SWAP3 DUP4 PUSH1 0x3 NOT CALLDATASIZE ADD SLT PUSH2 0x840 JUMPI PUSH1 0x2 SLOAD PUSH1 0x8 SLOAD PUSH1 0x9 SLOAD DUP5 MLOAD PUSH4 0xB13F586D PUSH1 0xE0 SHL DUP2 MSTORE DUP1 DUP6 ADD SWAP4 DUP5 MSTORE PUSH1 0x20 DUP5 ADD SWAP3 SWAP1 SWAP3 MSTORE PUSH1 0x40 DUP4 ADD MSTORE SWAP2 CALLDATALOAD PUSH1 0x60 DUP3 ADD MSTORE DUP5 SWAP1 DUP3 SWAP1 DUP2 SWAP1 PUSH1 0x80 ADD SUB DUP2 PUSH20 0x0 GAS DELEGATECALL SWAP3 DUP4 ISZERO PUSH2 0x9E8 JUMPI DUP1 SWAP4 PUSH2 0x2275 JUMPI JUMPDEST POP POP MLOAD SWAP1 DUP2 MSTORE RETURN JUMPDEST SWAP1 SWAP2 SWAP3 POP DUP4 DUP3 DUP2 RETURNDATASIZE DUP4 GT PUSH2 0x22A0 JUMPI JUMPDEST PUSH2 0x228E DUP2 DUP4 PUSH2 0x2564 JUMP JUMPDEST DUP2 ADD SUB SLT PUSH2 0x7B0 JUMPI POP MLOAD SWAP1 DUP4 DUP1 PUSH2 0x226D JUMP JUMPDEST POP RETURNDATASIZE PUSH2 0x2284 JUMP JUMPDEST POP POP CALLVALUE PUSH2 0x298 JUMPI DUP2 PUSH1 0x3 NOT CALLDATASIZE ADD SLT PUSH2 0x298 JUMPI PUSH1 0x20 SWAP1 MLOAD PUSH32 0x68E79A7BF1E0BC45D0A330C573BC367F9CF464FD326078812F301165FBDA4EF1 DUP2 MSTORE RETURN JUMPDEST SWAP2 SWAP1 POP CALLVALUE PUSH2 0x840 JUMPI DUP3 PUSH1 0x3 NOT CALLDATASIZE ADD SLT PUSH2 0x840 JUMPI DUP1 MLOAD SWAP2 DUP4 PUSH1 0x3 SLOAD SWAP1 PUSH1 0x1 SWAP1 DUP3 DUP3 SHR SWAP3 DUP3 DUP2 AND DUP1 ISZERO PUSH2 0x23CD JUMPI JUMPDEST PUSH1 0x20 SWAP6 DUP7 DUP7 LT DUP3 EQ PUSH2 0x23BA JUMPI POP DUP5 DUP9 MSTORE SWAP1 DUP2 ISZERO PUSH2 0x2398 JUMPI POP PUSH1 0x1 EQ PUSH2 0x233F JUMPI JUMPDEST PUSH2 0xE01 DUP7 DUP7 PUSH2 0xDF7 DUP3 DUP12 SUB DUP4 PUSH2 0x2564 JUMP JUMPDEST SWAP3 SWAP6 POP PUSH1 0x3 DUP4 MSTORE PUSH32 0xC2575A0E9E593C00F959F8C92F12DB2869C3395A3B0502D05E2516446F71F85B JUMPDEST DUP3 DUP5 LT PUSH2 0x2385 JUMPI POP POP POP DUP3 PUSH2 0xE01 SWAP5 PUSH2 0xDF7 SWAP3 DUP3 ADD ADD SWAP5 CODESIZE PUSH2 0x232E JUMP JUMPDEST DUP1 SLOAD DUP7 DUP6 ADD DUP9 ADD MSTORE SWAP3 DUP7 ADD SWAP3 DUP2 ADD PUSH2 0x2368 JUMP JUMPDEST PUSH1 0xFF NOT AND DUP8 DUP7 ADD MSTORE POP POP POP ISZERO ISZERO PUSH1 0x5 SHL DUP4 ADD ADD SWAP3 POP PUSH2 0xDF7 DUP3 PUSH2 0xE01 CODESIZE PUSH2 0x232E JUMP JUMPDEST PUSH4 0x4E487B71 PUSH1 0xE0 SHL DUP5 MSTORE PUSH1 0x22 SWAP1 MSTORE PUSH1 0x24 DUP4 REVERT JUMPDEST SWAP4 PUSH1 0x7F AND SWAP4 PUSH2 0x230E JUMP JUMPDEST POP POP CALLVALUE PUSH2 0x298 JUMPI DUP2 PUSH1 0x3 NOT CALLDATASIZE ADD SLT PUSH2 0x298 JUMPI PUSH1 0x14 SLOAD SWAP1 MLOAD PUSH1 0x1 PUSH1 0x1 PUSH1 0xA0 SHL SUB SWAP1 SWAP2 AND DUP2 MSTORE PUSH1 0x20 SWAP1 RETURN JUMPDEST DUP5 SWAP2 CALLVALUE PUSH2 0x840 JUMPI PUSH1 0x20 CALLDATASIZE PUSH1 0x3 NOT ADD SLT PUSH2 0x840 JUMPI CALLDATALOAD PUSH4 0xFFFFFFFF PUSH1 0xE0 SHL DUP2 AND DUP1 SWAP2 SUB PUSH2 0x840 JUMPI PUSH1 0x20 SWAP3 POP PUSH4 0x7965DB0B PUSH1 0xE0 SHL DUP2 EQ SWAP1 DUP2 ISZERO PUSH2 0x2442 JUMPI JUMPDEST POP ISZERO ISZERO DUP2 MSTORE RETURN JUMPDEST PUSH4 0x1FFC9A7 PUSH1 0xE0 SHL EQ SWAP1 POP DUP4 PUSH2 0x243B JUMP JUMPDEST PUSH1 0x0 JUMPDEST DUP4 DUP2 LT PUSH2 0x2466 JUMPI POP POP PUSH1 0x0 SWAP2 ADD MSTORE JUMP JUMPDEST DUP2 DUP2 ADD MLOAD DUP4 DUP3 ADD MSTORE PUSH1 0x20 ADD PUSH2 0x2456 JUMP JUMPDEST PUSH1 0x40 SWAP2 PUSH1 0x20 DUP3 MSTORE PUSH2 0x2496 DUP2 MLOAD DUP1 SWAP3 DUP2 PUSH1 0x20 DUP7 ADD MSTORE PUSH1 0x20 DUP7 DUP7 ADD SWAP2 ADD PUSH2 0x2453 JUMP JUMPDEST PUSH1 0x1F ADD PUSH1 0x1F NOT AND ADD ADD SWAP1 JUMP JUMPDEST PUSH1 0x4 CALLDATALOAD SWAP1 PUSH1 0x1 PUSH1 0x1 PUSH1 0xA0 SHL SUB DUP3 AND DUP3 SUB PUSH2 0x33B JUMPI JUMP JUMPDEST PUSH1 0x24 CALLDATALOAD SWAP1 PUSH1 0x1 PUSH1 0x1 PUSH1 0xA0 SHL SUB DUP3 AND DUP3 SUB PUSH2 0x33B JUMPI JUMP JUMPDEST PUSH1 0x12 SLOAD DUP2 LT ISZERO PUSH2 0x2508 JUMPI PUSH1 0x12 PUSH1 0x0 MSTORE PUSH1 0x1 SHL PUSH32 0xBB8A6A4669BA250D26CD7A459ECA9D215F8307E33AEBE50379BC5A3617EC3444 ADD SWAP1 PUSH1 0x0 SWAP1 JUMP JUMPDEST PUSH4 0x4E487B71 PUSH1 0xE0 SHL PUSH1 0x0 MSTORE PUSH1 0x32 PUSH1 0x4 MSTORE PUSH1 0x24 PUSH1 0x0 REVERT JUMPDEST PUSH8 0xFFFFFFFFFFFFFFFF DUP2 GT PUSH2 0x2532 JUMPI PUSH1 0x40 MSTORE JUMP JUMPDEST PUSH4 0x4E487B71 PUSH1 0xE0 SHL PUSH1 0x0 MSTORE PUSH1 0x41 PUSH1 0x4 MSTORE PUSH1 0x24 PUSH1 0x0 REVERT JUMPDEST PUSH1 0x80 DUP2 ADD SWAP1 DUP2 LT PUSH8 0xFFFFFFFFFFFFFFFF DUP3 GT OR PUSH2 0x2532 JUMPI PUSH1 0x40 MSTORE JUMP JUMPDEST SWAP1 PUSH1 0x1F DUP1 NOT SWAP2 ADD AND DUP2 ADD SWAP1 DUP2 LT PUSH8 0xFFFFFFFFFFFFFFFF DUP3 GT OR PUSH2 0x2532 JUMPI PUSH1 0x40 MSTORE JUMP JUMPDEST PUSH8 0xFFFFFFFFFFFFFFFF DUP2 GT PUSH2 0x2532 JUMPI PUSH1 0x1F ADD PUSH1 0x1F NOT AND PUSH1 0x20 ADD SWAP1 JUMP JUMPDEST DUP2 PUSH1 0x1F DUP3 ADD SLT ISZERO PUSH2 0x33B JUMPI DUP1 CALLDATALOAD SWAP1 PUSH2 0x25B9 DUP3 PUSH2 0x2586 JUMP JUMPDEST SWAP3 PUSH2 0x25C7 PUSH1 0x40 MLOAD SWAP5 DUP6 PUSH2 0x2564 JUMP JUMPDEST DUP3 DUP5 MSTORE PUSH1 0x20 DUP4 DUP4 ADD ADD GT PUSH2 0x33B JUMPI DUP2 PUSH1 0x0 SWAP3 PUSH1 0x20 DUP1 SWAP4 ADD DUP4 DUP7 ADD CALLDATACOPY DUP4 ADD ADD MSTORE SWAP1 JUMP JUMPDEST PUSH1 0x60 SWAP1 PUSH1 0x3 NOT ADD SLT PUSH2 0x33B JUMPI PUSH1 0x4 CALLDATALOAD SWAP1 PUSH1 0x24 CALLDATALOAD SWAP1 PUSH1 0x44 CALLDATALOAD PUSH1 0x1 PUSH1 0x1 PUSH1 0xA0 SHL SUB DUP2 AND DUP2 SUB PUSH2 0x33B JUMPI SWAP1 JUMP JUMPDEST CALLER PUSH1 0x0 SWAP1 DUP2 MSTORE PUSH32 0x762178E8C8D0ECF75B756325BBBC6CA862FC829409F041AA17F247D38FE03BD8 PUSH1 0x20 SWAP1 DUP2 MSTORE PUSH1 0x40 DUP1 DUP4 KECCAK256 SLOAD SWAP1 SWAP3 SWAP1 PUSH32 0x5246556C0AB216B5B325AD7C539BFBD1A07C768773CDF810FECD3C3375C27407 SWAP1 PUSH1 0xFF AND ISZERO PUSH2 0x2678 JUMPI POP POP POP POP JUMP JUMPDEST PUSH2 0x2681 CALLER PUSH2 0x2C33 JUMP JUMPDEST DUP5 MLOAD SWAP2 PUSH2 0x268D DUP4 PUSH2 0x2548 JUMP JUMPDEST PUSH1 0x42 DUP4 MSTORE DUP5 DUP4 ADD SWAP4 PUSH1 0x60 CALLDATASIZE DUP7 CALLDATACOPY DUP4 MLOAD ISZERO PUSH2 0x27E8 JUMPI PUSH1 0x30 DUP6 MSTORE8 DUP4 MLOAD SWAP1 PUSH1 0x1 SWAP2 DUP3 LT ISZERO PUSH2 0x27E8 JUMPI SWAP1 PUSH1 0x78 PUSH1 0x21 DUP7 ADD MSTORE8 PUSH1 0x41 SWAP2 JUMPDEST DUP2 DUP4 GT PUSH2 0x277A JUMPI POP POP POP PUSH2 0x2738 JUMPI PUSH2 0xC6E SWAP4 DUP6 SWAP4 PUSH2 0x2722 SWAP4 PUSH2 0x2713 PUSH1 0x48 SWAP5 PUSH2 0xCBA SWAP10 MLOAD SWAP9 DUP6 PUSH23 0x20B1B1B2B9B9A1B7B73A3937B61D1030B1B1B7BAB73A1 PUSH1 0x4D SHL DUP12 SWAP8 DUP9 ADD MSTORE DUP3 MLOAD SWAP3 DUP4 SWAP2 PUSH1 0x37 DUP10 ADD SWAP2 ADD PUSH2 0x2453 JUMP JUMPDEST ADD SUB PUSH1 0x28 DUP2 ADD DUP6 MSTORE ADD DUP4 PUSH2 0x2564 JUMP JUMPDEST MLOAD PUSH3 0x461BCD PUSH1 0xE5 SHL DUP2 MSTORE SWAP2 DUP3 SWAP2 PUSH1 0x4 DUP4 ADD PUSH2 0x2476 JUMP JUMPDEST PUSH1 0x64 DUP5 DUP7 MLOAD SWAP1 PUSH3 0x461BCD PUSH1 0xE5 SHL DUP3 MSTORE DUP1 PUSH1 0x4 DUP4 ADD MSTORE PUSH1 0x24 DUP3 ADD MSTORE PUSH32 0x537472696E67733A20686578206C656E67746820696E73756666696369656E74 PUSH1 0x44 DUP3 ADD MSTORE REVERT JUMPDEST SWAP1 SWAP2 SWAP3 PUSH1 0xF DUP2 AND PUSH1 0x10 DUP2 LT ISZERO PUSH2 0x27D4 JUMPI PUSH16 0x181899199A1A9B1B9C1CB0B131B232B3 PUSH1 0x81 SHL SWAP1 BYTE PUSH2 0x27AA DUP6 DUP9 PUSH2 0x2C22 JUMP JUMPDEST MSTORE8 PUSH1 0x4 SHR SWAP3 DUP1 ISZERO PUSH2 0x27C0 JUMPI PUSH1 0x0 NOT ADD SWAP2 SWAP1 PUSH2 0x26BE JUMP JUMPDEST PUSH4 0x4E487B71 PUSH1 0xE0 SHL DUP3 MSTORE PUSH1 0x11 PUSH1 0x4 MSTORE PUSH1 0x24 DUP3 REVERT JUMPDEST PUSH4 0x4E487B71 PUSH1 0xE0 SHL DUP4 MSTORE PUSH1 0x32 PUSH1 0x4 MSTORE PUSH1 0x24 DUP4 REVERT JUMPDEST PUSH4 0x4E487B71 PUSH1 0xE0 SHL DUP2 MSTORE PUSH1 0x32 PUSH1 0x4 MSTORE PUSH1 0x24 SWAP1 REVERT JUMPDEST PUSH1 0x0 DUP2 DUP2 MSTORE PUSH1 0x20 SWAP1 PUSH1 0x5 DUP3 MSTORE PUSH1 0x40 SWAP3 DUP4 DUP3 KECCAK256 CALLER DUP4 MSTORE DUP4 MSTORE PUSH1 0xFF DUP5 DUP4 KECCAK256 SLOAD AND ISZERO PUSH2 0x2825 JUMPI POP POP POP POP JUMP JUMPDEST PUSH2 0x282E CALLER PUSH2 0x2C33 JUMP JUMPDEST DUP5 MLOAD SWAP2 PUSH2 0x283A DUP4 PUSH2 0x2548 JUMP JUMPDEST PUSH1 0x42 DUP4 MSTORE DUP5 DUP4 ADD SWAP4 PUSH1 0x60 CALLDATASIZE DUP7 CALLDATACOPY DUP4 MLOAD ISZERO PUSH2 0x27E8 JUMPI PUSH1 0x30 DUP6 MSTORE8 DUP4 MLOAD SWAP1 PUSH1 0x1 SWAP2 DUP3 LT ISZERO PUSH2 0x27E8 JUMPI SWAP1 PUSH1 0x78 PUSH1 0x21 DUP7 ADD MSTORE8 PUSH1 0x41 SWAP2 JUMPDEST DUP2 DUP4 GT PUSH2 0x28C0 JUMPI POP POP POP PUSH2 0x2738 JUMPI PUSH2 0xC6E SWAP4 DUP6 SWAP4 PUSH2 0x2722 SWAP4 PUSH2 0x2713 PUSH1 0x48 SWAP5 PUSH2 0xCBA SWAP10 MLOAD SWAP9 DUP6 PUSH23 0x20B1B1B2B9B9A1B7B73A3937B61D1030B1B1B7BAB73A1 PUSH1 0x4D SHL DUP12 SWAP8 DUP9 ADD MSTORE DUP3 MLOAD SWAP3 DUP4 SWAP2 PUSH1 0x37 DUP10 ADD SWAP2 ADD PUSH2 0x2453 JUMP JUMPDEST SWAP1 SWAP2 SWAP3 PUSH1 0xF DUP2 AND PUSH1 0x10 DUP2 LT ISZERO PUSH2 0x27D4 JUMPI PUSH16 0x181899199A1A9B1B9C1CB0B131B232B3 PUSH1 0x81 SHL SWAP1 BYTE PUSH2 0x28F0 DUP6 DUP9 PUSH2 0x2C22 JUMP JUMPDEST MSTORE8 PUSH1 0x4 SHR SWAP3 DUP1 ISZERO PUSH2 0x27C0 JUMPI PUSH1 0x0 NOT ADD SWAP2 SWAP1 PUSH2 0x286B JUMP JUMPDEST SWAP1 PUSH1 0x0 SWAP2 DUP1 DUP4 MSTORE PUSH1 0x5 PUSH1 0x20 MSTORE PUSH1 0x40 DUP4 KECCAK256 SWAP2 PUSH1 0x1 DUP1 PUSH1 0xA0 SHL SUB AND SWAP2 DUP3 DUP5 MSTORE PUSH1 0x20 MSTORE PUSH1 0xFF PUSH1 0x40 DUP5 KECCAK256 SLOAD AND PUSH2 0x2937 JUMPI POP POP POP JUMP JUMPDEST DUP1 DUP4 MSTORE PUSH1 0x5 PUSH1 0x20 MSTORE PUSH1 0x40 DUP4 KECCAK256 DUP3 DUP5 MSTORE PUSH1 0x20 MSTORE PUSH1 0x40 DUP4 KECCAK256 PUSH1 0xFF NOT DUP2 SLOAD AND SWAP1 SSTORE PUSH32 0xF6391F5C32D9C69D2A47EA670B442974B53935D1EDC7FD64EB21E047A839171B CALLER SWAP4 DUP1 LOG4 JUMP JUMPDEST SWAP2 SWAP1 DUP3 ADD DUP1 SWAP3 GT PUSH2 0x2989 JUMPI JUMP JUMPDEST PUSH4 0x4E487B71 PUSH1 0xE0 SHL PUSH1 0x0 MSTORE PUSH1 0x11 PUSH1 0x4 MSTORE PUSH1 0x24 PUSH1 0x0 REVERT JUMPDEST PUSH1 0x1 PUSH1 0x1 PUSH1 0xA0 SHL SUB SWAP1 DUP2 AND SWAP2 DUP3 ISZERO PUSH2 0x2ABA JUMPI AND SWAP2 DUP3 ISZERO PUSH2 0x2A69 JUMPI PUSH1 0x0 DUP3 DUP2 MSTORE DUP1 PUSH1 0x20 MSTORE PUSH1 0x40 DUP2 KECCAK256 SLOAD SWAP2 DUP1 DUP4 LT PUSH2 0x2A15 JUMPI PUSH1 0x40 DUP3 DUP3 PUSH32 0xDDF252AD1BE2C89B69C2B068FC378DAA952BA7F163C4A11628F55A4DF523B3EF SWAP6 DUP8 PUSH1 0x20 SWAP7 MSTORE DUP3 DUP7 MSTORE SUB DUP3 DUP3 KECCAK256 SSTORE DUP7 DUP2 MSTORE KECCAK256 DUP2 DUP2 SLOAD ADD SWAP1 SSTORE PUSH1 0x40 MLOAD SWAP1 DUP2 MSTORE LOG3 JUMP JUMPDEST PUSH1 0x40 MLOAD PUSH3 0x461BCD PUSH1 0xE5 SHL DUP2 MSTORE PUSH1 0x20 PUSH1 0x4 DUP3 ADD MSTORE PUSH1 0x26 PUSH1 0x24 DUP3 ADD MSTORE PUSH32 0x45524332303A207472616E7366657220616D6F756E7420657863656564732062 PUSH1 0x44 DUP3 ADD MSTORE PUSH6 0x616C616E6365 PUSH1 0xD0 SHL PUSH1 0x64 DUP3 ADD MSTORE PUSH1 0x84 SWAP1 REVERT JUMPDEST PUSH1 0x40 MLOAD PUSH3 0x461BCD PUSH1 0xE5 SHL DUP2 MSTORE PUSH1 0x20 PUSH1 0x4 DUP3 ADD MSTORE PUSH1 0x23 PUSH1 0x24 DUP3 ADD MSTORE PUSH32 0x45524332303A207472616E7366657220746F20746865207A65726F2061646472 PUSH1 0x44 DUP3 ADD MSTORE PUSH3 0x657373 PUSH1 0xE8 SHL PUSH1 0x64 DUP3 ADD MSTORE PUSH1 0x84 SWAP1 REVERT JUMPDEST PUSH1 0x40 MLOAD PUSH3 0x461BCD PUSH1 0xE5 SHL DUP2 MSTORE PUSH1 0x20 PUSH1 0x4 DUP3 ADD MSTORE PUSH1 0x25 PUSH1 0x24 DUP3 ADD MSTORE PUSH32 0x45524332303A207472616E736665722066726F6D20746865207A65726F206164 PUSH1 0x44 DUP3 ADD MSTORE PUSH5 0x6472657373 PUSH1 0xD8 SHL PUSH1 0x64 DUP3 ADD MSTORE PUSH1 0x84 SWAP1 REVERT JUMPDEST PUSH1 0x1 PUSH1 0x1 PUSH1 0xA0 SHL SUB SWAP1 DUP2 AND SWAP2 DUP3 ISZERO PUSH2 0x2BBE JUMPI AND SWAP2 DUP3 ISZERO PUSH2 0x2B6E JUMPI PUSH1 0x20 PUSH32 0x8C5BE1E5EBEC7D5BD14F71427D1E84F3DD0314C0F7B2291E5B200AC8C7C3B925 SWAP2 DUP4 PUSH1 0x0 MSTORE PUSH1 0x1 DUP3 MSTORE PUSH1 0x40 PUSH1 0x0 KECCAK256 DUP6 PUSH1 0x0 MSTORE DUP3 MSTORE DUP1 PUSH1 0x40 PUSH1 0x0 KECCAK256 SSTORE PUSH1 0x40 MLOAD SWAP1 DUP2 MSTORE LOG3 JUMP JUMPDEST PUSH1 0x40 MLOAD PUSH3 0x461BCD PUSH1 0xE5 SHL DUP2 MSTORE PUSH1 0x20 PUSH1 0x4 DUP3 ADD MSTORE PUSH1 0x22 PUSH1 0x24 DUP3 ADD MSTORE PUSH32 0x45524332303A20617070726F766520746F20746865207A65726F206164647265 PUSH1 0x44 DUP3 ADD MSTORE PUSH2 0x7373 PUSH1 0xF0 SHL PUSH1 0x64 DUP3 ADD MSTORE PUSH1 0x84 SWAP1 REVERT JUMPDEST PUSH1 0x40 MLOAD PUSH3 0x461BCD PUSH1 0xE5 SHL DUP2 MSTORE PUSH1 0x20 PUSH1 0x4 DUP3 ADD MSTORE PUSH1 0x24 DUP1 DUP3 ADD MSTORE PUSH32 0x45524332303A20617070726F76652066726F6D20746865207A65726F20616464 PUSH1 0x44 DUP3 ADD MSTORE PUSH4 0x72657373 PUSH1 0xE0 SHL PUSH1 0x64 DUP3 ADD MSTORE PUSH1 0x84 SWAP1 REVERT JUMPDEST DUP2 DUP2 MUL SWAP3 SWAP2 DUP2 ISZERO SWAP2 DUP5 DIV EQ OR ISZERO PUSH2 0x2989 JUMPI JUMP JUMPDEST SWAP1 DUP2 MLOAD DUP2 LT ISZERO PUSH2 0x2508 JUMPI ADD PUSH1 0x20 ADD SWAP1 JUMP JUMPDEST PUSH1 0x40 MLOAD SWAP1 PUSH1 0x60 DUP3 ADD DUP3 DUP2 LT PUSH8 0xFFFFFFFFFFFFFFFF DUP3 GT OR PUSH2 0x2532 JUMPI PUSH1 0x40 MSTORE PUSH1 0x2A DUP3 MSTORE PUSH1 0x20 DUP3 ADD PUSH1 0x40 CALLDATASIZE DUP3 CALLDATACOPY DUP3 MLOAD ISZERO PUSH2 0x2508 JUMPI PUSH1 0x30 SWAP1 MSTORE8 DUP2 MLOAD PUSH1 0x1 SWAP1 DUP2 LT ISZERO PUSH2 0x2508 JUMPI PUSH1 0x78 PUSH1 0x21 DUP5 ADD MSTORE8 PUSH1 0x29 SWAP1 JUMPDEST DUP1 DUP3 GT PUSH2 0x2CD4 JUMPI POP POP PUSH2 0x2C90 JUMPI SWAP1 JUMP JUMPDEST PUSH1 0x64 PUSH1 0x40 MLOAD PUSH3 0x461BCD PUSH1 0xE5 SHL DUP2 MSTORE PUSH1 0x20 PUSH1 0x4 DUP3 ADD MSTORE PUSH1 0x20 PUSH1 0x24 DUP3 ADD MSTORE PUSH32 0x537472696E67733A20686578206C656E67746820696E73756666696369656E74 PUSH1 0x44 DUP3 ADD MSTORE REVERT JUMPDEST SWAP1 SWAP2 PUSH1 0xF DUP2 AND PUSH1 0x10 DUP2 LT ISZERO PUSH2 0x2D2D JUMPI PUSH16 0x181899199A1A9B1B9C1CB0B131B232B3 PUSH1 0x81 SHL SWAP1 BYTE PUSH2 0x2D03 DUP5 DUP7 PUSH2 0x2C22 JUMP JUMPDEST MSTORE8 PUSH1 0x4 SHR SWAP2 DUP1 ISZERO PUSH2 0x2D18 JUMPI PUSH1 0x0 NOT ADD SWAP1 PUSH2 0x2C80 JUMP JUMPDEST PUSH1 0x24 PUSH1 0x0 PUSH4 0x4E487B71 PUSH1 0xE0 SHL DUP2 MSTORE PUSH1 0x11 PUSH1 0x4 MSTORE REVERT JUMPDEST PUSH1 0x24 PUSH1 0x0 PUSH4 0x4E487B71 PUSH1 0xE0 SHL DUP2 MSTORE PUSH1 0x32 PUSH1 0x4 MSTORE REVERT JUMPDEST SWAP2 SWAP1 DUP3 SUB SWAP2 DUP3 GT PUSH2 0x2989 JUMPI JUMP JUMPDEST PUSH1 0xFF PUSH1 0x7 SLOAD AND PUSH2 0x2D5B JUMPI JUMP JUMPDEST PUSH1 0x40 MLOAD PUSH3 0x461BCD PUSH1 0xE5 SHL DUP2 MSTORE PUSH1 0x20 PUSH1 0x4 DUP3 ADD MSTORE PUSH1 0x10 PUSH1 0x24 DUP3 ADD MSTORE PUSH16 0x14185D5CD8589B194E881C185D5CD959 PUSH1 0x82 SHL PUSH1 0x44 DUP3 ADD MSTORE PUSH1 0x64 SWAP1 REVERT JUMPDEST PUSH1 0x2 PUSH1 0x6 SLOAD EQ PUSH2 0x2DA4 JUMPI PUSH1 0x2 PUSH1 0x6 SSTORE JUMP JUMPDEST PUSH1 0x40 MLOAD PUSH3 0x461BCD PUSH1 0xE5 SHL DUP2 MSTORE PUSH1 0x20 PUSH1 0x4 DUP3 ADD MSTORE PUSH1 0x1F PUSH1 0x24 DUP3 ADD MSTORE PUSH32 0x5265656E7472616E637947756172643A207265656E7472616E742063616C6C00 PUSH1 0x44 DUP3 ADD MSTORE PUSH1 0x64 SWAP1 REVERT JUMPDEST SWAP2 SWAP1 SWAP2 DUP2 ISZERO DUP1 ISZERO PUSH2 0x2EA2 JUMPI JUMPDEST ISZERO PUSH2 0x2E3E JUMPI PUSH1 0x40 MLOAD PUSH4 0x95EA7B3 PUSH1 0xE0 SHL PUSH1 0x20 DUP3 ADD MSTORE PUSH1 0x1 PUSH1 0x1 PUSH1 0xA0 SHL SUB SWAP4 SWAP1 SWAP4 AND PUSH1 0x24 DUP5 ADD MSTORE PUSH1 0x44 DUP1 DUP5 ADD SWAP3 SWAP1 SWAP3 MSTORE SWAP1 DUP3 MSTORE PUSH2 0x2E3C SWAP2 SWAP1 PUSH2 0x2E37 PUSH1 0x64 DUP4 PUSH2 0x2564 JUMP JUMPDEST PUSH2 0x2F27 JUMP JUMPDEST JUMP JUMPDEST PUSH1 0x40 MLOAD PUSH3 0x461BCD PUSH1 0xE5 SHL DUP2 MSTORE PUSH1 0x20 PUSH1 0x4 DUP3 ADD MSTORE PUSH1 0x36 PUSH1 0x24 DUP3 ADD MSTORE PUSH32 0x5361666545524332303A20617070726F76652066726F6D206E6F6E2D7A65726F PUSH1 0x44 DUP3 ADD MSTORE PUSH22 0x20746F206E6F6E2D7A65726F20616C6C6F77616E6365 PUSH1 0x50 SHL PUSH1 0x64 DUP3 ADD MSTORE PUSH1 0x84 SWAP1 REVERT JUMPDEST POP PUSH1 0x40 MLOAD PUSH4 0x6EB1769F PUSH1 0xE1 SHL DUP2 MSTORE ADDRESS PUSH1 0x4 DUP3 ADD MSTORE PUSH1 0x1 PUSH1 0x1 PUSH1 0xA0 SHL SUB DUP5 DUP2 AND PUSH1 0x24 DUP4 ADD MSTORE PUSH1 0x20 SWAP1 DUP3 SWAP1 PUSH1 0x44 SWAP1 DUP3 SWAP1 DUP7 AND GAS STATICCALL SWAP1 DUP2 ISZERO PUSH2 0x2F1B JUMPI PUSH1 0x0 SWAP2 PUSH2 0x2EEA JUMPI JUMPDEST POP ISZERO PUSH2 0x2DF5 JUMP JUMPDEST SWAP1 PUSH1 0x20 DUP3 RETURNDATASIZE DUP3 GT PUSH2 0x2F13 JUMPI JUMPDEST DUP2 PUSH2 0x2F03 PUSH1 0x20 SWAP4 DUP4 PUSH2 0x2564 JUMP JUMPDEST DUP2 ADD SUB SLT PUSH2 0x7B0 JUMPI POP MLOAD CODESIZE PUSH2 0x2EE3 JUMP JUMPDEST RETURNDATASIZE SWAP2 POP PUSH2 0x2EF6 JUMP JUMPDEST PUSH1 0x40 MLOAD RETURNDATASIZE PUSH1 0x0 DUP3 RETURNDATACOPY RETURNDATASIZE SWAP1 REVERT JUMPDEST PUSH1 0x1 DUP1 PUSH1 0xA0 SHL SUB AND SWAP1 PUSH1 0x40 MLOAD PUSH1 0x40 DUP2 ADD SWAP1 DUP1 DUP3 LT PUSH8 0xFFFFFFFFFFFFFFFF DUP4 GT OR PUSH2 0x2532 JUMPI PUSH2 0x2FB7 SWAP2 PUSH1 0x40 MSTORE PUSH1 0x20 SWAP4 DUP5 DUP3 MSTORE PUSH32 0x5361666545524332303A206C6F772D6C6576656C2063616C6C206661696C6564 DUP6 DUP4 ADD MSTORE PUSH1 0x0 DUP1 DUP6 DUP8 DUP3 SWAP8 MLOAD SWAP2 ADD DUP3 DUP6 GAS CALL RETURNDATASIZE ISZERO PUSH2 0x304D JUMPI RETURNDATASIZE SWAP2 PUSH2 0x2F9C DUP4 PUSH2 0x2586 JUMP JUMPDEST SWAP3 PUSH2 0x2FAA PUSH1 0x40 MLOAD SWAP5 DUP6 PUSH2 0x2564 JUMP JUMPDEST DUP4 MSTORE RETURNDATASIZE DUP7 DUP9 DUP6 ADD RETURNDATACOPY PUSH2 0x3051 JUMP JUMPDEST DUP1 MLOAD SWAP2 DUP3 ISZERO SWAP2 DUP5 DUP4 ISZERO PUSH2 0x3029 JUMPI JUMPDEST POP POP POP SWAP1 POP ISZERO PUSH2 0x2FD2 JUMPI POP JUMP JUMPDEST PUSH1 0x84 SWAP1 PUSH1 0x40 MLOAD SWAP1 PUSH3 0x461BCD PUSH1 0xE5 SHL DUP3 MSTORE PUSH1 0x4 DUP3 ADD MSTORE PUSH1 0x2A PUSH1 0x24 DUP3 ADD MSTORE PUSH32 0x5361666545524332303A204552433230206F7065726174696F6E20646964206E PUSH1 0x44 DUP3 ADD MSTORE PUSH10 0x1BDD081CDD58D8D95959 PUSH1 0xB2 SHL PUSH1 0x64 DUP3 ADD MSTORE REVERT JUMPDEST SWAP2 SWAP4 DUP2 DUP1 SWAP5 POP ADD SUB SLT PUSH2 0x298 JUMPI DUP3 ADD MLOAD SWAP1 DUP2 ISZERO ISZERO DUP3 SUB PUSH2 0x7B0 JUMPI POP DUP1 CODESIZE DUP1 DUP5 PUSH2 0x2FC5 JUMP JUMPDEST PUSH1 0x60 SWAP2 JUMPDEST SWAP2 SWAP3 SWAP1 ISZERO PUSH2 0x30B3 JUMPI POP DUP2 MLOAD ISZERO PUSH2 0x3065 JUMPI POP SWAP1 JUMP JUMPDEST EXTCODESIZE ISZERO PUSH2 0x306E JUMPI SWAP1 JUMP JUMPDEST PUSH1 0x40 MLOAD PUSH3 0x461BCD PUSH1 0xE5 SHL DUP2 MSTORE PUSH1 0x20 PUSH1 0x4 DUP3 ADD MSTORE PUSH1 0x1D PUSH1 0x24 DUP3 ADD MSTORE PUSH32 0x416464726573733A2063616C6C20746F206E6F6E2D636F6E7472616374000000 PUSH1 0x44 DUP3 ADD MSTORE PUSH1 0x64 SWAP1 REVERT JUMPDEST DUP3 MLOAD SWAP1 SWAP2 POP ISZERO PUSH2 0x30C6 JUMPI POP DUP1 MLOAD SWAP1 PUSH1 0x20 ADD REVERT JUMPDEST PUSH1 0x40 MLOAD PUSH3 0x461BCD PUSH1 0xE5 SHL DUP2 MSTORE SWAP1 DUP2 SWAP1 PUSH2 0xCBA SWAP1 PUSH1 0x4 DUP4 ADD PUSH2 0x2476 JUMP JUMPDEST PUSH1 0x0 NOT DUP2 EQ PUSH2 0x2989 JUMPI PUSH1 0x1 ADD SWAP1 JUMP INVALID 0x2F DUP8 DUP9 GT PUSH31 0x7EFF1D82E926EC794901D17C78024A50270940304540A733656F0DA2646970 PUSH7 0x735822122093AD 0xC6 COINBASE DELEGATECALL 0xC7 0xB6 0x2A 0xBA 0xB9 0xAA GT 0x2D ADD 0x4E 0xF 0x49 DUP6 CALLDATALOAD ORIGIN 0xC8 SGT 0x1F PUSH21 0x67228CC7F388C3A064736F6C634300081300332F87 DUP9 GT PUSH31 0x7EFF1D82E926EC794901D17C78024A50270940304540A733656F0D00000000 "},"methodIdentifiers":{"CREATOR_ROLE()":"8aeda25a","DEFAULT_ADMIN_ROLE()":"a217fddf","ORACLE_ROLE()":"07e2cea5","PLATFORM_ADMIN_ROLE()":"685d34ff","allowance(address,address)":"dd62ed3e","approve(address,uint256)":"095ea7b3","balanceOf(address)":"70a08231","basePrice()":"c7876ea4","buyWithUSDC(uint256,uint256,address)":"de19a071","creator()":"02d05d3f","creatorBuyFeeBps()":"14ad21d8","creatorSellFeeBps()":"5567a03a","decimals()":"313ce567","decreaseAllowance(address,uint256)":"a457c2d7","getBuyQuote(uint256)":"b390452c","getCurrentPrice()":"eb91d37e","getRoleAdmin(bytes32)":"248a9ca3","getSellQuote(uint256)":"0812530e","getSellWindowStatus()":"ca6aaa10","grantRole(bytes32,address)":"2f2ff15d","hasAccess(address)":"95a078e8","hasRole(bytes32,address)":"91d14854","increaseAllowance(address,uint256)":"39509351","initialize(string,string,address,address,address,uint256,uint256,uint256,uint256,uint256,uint256,uint256,uint256,uint256,uint256)":"44ab961f","k()":"b4f40c61","maxSellPercentBps()":"3b14b992","minTokensForAccess()":"5a3e7152","name()":"06fdde03","pause()":"8456cb59","pauseSells(uint256)":"50aec25c","paused()":"5c975abb","platformFeeBps()":"22dcd13e","renounceRole(bytes32,address)":"36568abe","reserveBalance()":"a10954fe","reserveToken()":"f4325d67","revokeRole(bytes32,address)":"d547741f","sellHistory(uint256)":"30cfb08a","sellToUSDC(uint256,uint256,address)":"8d3f259d","sellWindowSeconds()":"e2d3095e","sellWindowThresholdBps()":"2e5cfc1c","sellsPausedUntil()":"b36ecd16","setMinTokensForAccess(uint256)":"9bfb82c1","supportsInterface(bytes4)":"01ffc9a7","symbol()":"95d89b41","totalSupply()":"18160ddd","totalSupplyLimit()":"bac21a22","transfer(address,uint256)":"a9059cbb","transferFrom(address,address,uint256)":"23b872dd","treasury()":"61d027b3","unlockSupplyOnMilestone(uint256,uint256)":"3990f01e","unpause()":"3f4ba83a"}}}}}